:040000003BEF00F0E2
:100008005682D9CF03F0DACF04F00E0137A70FEFED
:1000180000F011EF00F014EF00F0E35144EC21F090
:100028000E0137A51AEF00F01CEF00F035EF00F0D5
:100038002DA521EF00F023EF00F035EF00F0B9EC2B
:1000480021F0E806D8A42BEF00F02DEF00F033EFF5
:1000580000F004EC21F00E01E46F35EF00F00E0122
:100068002D9504C0DAFF03C0D9FF5692110089EF1D
:020078001EF078
:100E0000006042A20D20416D62523A256420473AAB
:100E1000256420423A2564200D0A0020436F6C6F40
:100E2000723A2564200D0A0020423A25642E2530AE
:100E30003364200020473A25642E25303364200097
:0D0E400020523A25642E2530336420000036
:100E4E00000E3E6E090E3D6E20EE0AF03750D9268A
:100E5E003850DA22DECF39F0DDCF3AF039C00BF060
:100E6E003AC00CF00D6A0E6A000EC3EC18F00BC0FF
:100E7E001EF00CC01FF00DC020F00EC021F020EEB1
:100E8E0008F03750D9263850DA22DECF3BF0DDCFCE
:100E9E003CF03BC00BF03CC00CF00D6A0E6A000E2D
:100EAE00C3EC18F00BC022F00CC023F00DC024F0E0
:100EBE000EC025F0BFEC13F01EC03FF01FC040F077
:100ECE0020C041F021C042F020EE0CF03750D92660
:100EDE003850DA22DECF39F0DDCF3AF039C00BF0E0
:100EEE003AC00CF00D6A0E6A000EC3EC18F00BC07F
:100EFE001EF00CC01FF00DC020F00EC021F020EE31
:100F0E0008F03750D9263850DA22DECF3BF0DDCF4D
:100F1E003CF03BC00BF03CC00CF00D6A0E6A000EAC
:100F2E00C3EC18F00BC022F00CC023F00DC024F05F
:100F3E000EC025F0BFEC13F01EC043F01FC044F0EE
:100F4E0020C045F021C046F020EE0EF03750D926D5
:100F5E003850DA22DECF39F0DDCF3AF039C00BF05F
:100F6E003AC00CF00D6A0E6A000EC3EC18F00BC0FE
:100F7E001EF00CC01FF00DC020F00EC021F020EEB0
:100F8E0008F03750D9263850DA22DECF3BF0DDCFCD
:100F9E003CF03BC00BF03CC00CF00D6A0E6A000E2C
:100FAE00C3EC18F00BC022F00CC023F00DC024F0DF
:100FBE000EC025F0BFEC13F01EC047F01FC048F066
:100FCE0020C049F021C04AF03FC011F040C012F0DD
:100FDE0041C013F042C014F01F0E156E850E166E32
:100FEE004B0E176E3F0E186E520E196EB80E1A6E0D
:100FFE005E0E1B6E3F0E1C6EB2EC1DF01104121035
:10100E00D8A40CEF08F00EEF08F058EF08F043C02C
:10101E0011F044C012F045C013F046C014F0290E72
:10102E00156E5C0E166E0F0E176E3E0E186E560E69
:10103E00196E0E0E1A6E2D0E1B6E3E0E1C6EB2EC3F
:10104E001DF011041210D8A42FEF08F031EF08F0A4
:10105E0058EF08F047C011F048C012F049C013F025
:10106E004AC014F0A40E156E700E166E3D0E176E5D
:10107E003E0E186E3D0E196E0A0E1A6E570E1B6E30
:10108E003E0E1C6EB2EC1DF011041210D8A452EFDD
:10109E0008F054EF08F058EF08F0000E3E6E000E08
:1010AE003D6E3FC011F040C012F041C013F042C07F
:1010BE0014F0660E156E660E166EE60E176E3E0E6A
:1010CE00186E660E196E660E1A6E060E1B6E3F0EAB
:1010DE001C6EB2EC1DF011041210D8A479EF08F0BA
:1010EE007BEF08F0C5EF08F043C011F044C012F0DA
:1010FE0045C013F046C014F0660E156E660E166EE1
:10110E00A60E176E3E0E186E5C0E196E8F0E1A6EB0
:10111E00C20E1B6E3E0E1C6EB2EC1DF011041210B0
:10112E00D8A49CEF08F09EEF08F0C5EF08F047C07A
:10113E0011F048C012F049C013F04AC014F08F0EDF
:10114E00156EC20E166E750E176E3E0E186E710E61
:10115E00196E3D0E1A6E8A0E1B6E3E0E1C6EB2EC92
:10116E001DF011041210D8A4BFEF08F0C1EF08F063
:10117E00C5EF08F0000E3E6E010E3D6E3FC011F041
:10118E0040C012F041C013F042C014F0CD0E156EE7
:10119E00CC0E166ECC0E176E3E0E186E7D0E196EA0
:1011AE003F0E1A6EF50E1B6E3E0E1C6EB2EC1DF04F
:1011BE0011041210D8A4E6EF08F0E8EF08F032EFB1
:1011CE0009F043C011F044C012F045C013F046C000
:1011DE0014F0F60E156E280E166E9C0E176E3E0E41
:1011EE00186E7B0E196E140E1A6EAE0E1B6E3E0E20
:1011FE001C6EB2EC1DF011041210D8A409EF09F008
:10120E000BEF09F032EF09F047C011F048C012F0B1
:10121E0049C013F04AC014F0F60E156E280E166E65
:10122E009C0E176E3E0E186ED70E196EA30E1A6E0A
:10123E00B00E1B6E3E0E1C6EB2EC1DF011041210A1
:10124E00D8A42CEF09F02EEF09F032EF09F0000EC2
:10125E003E6E020E3D6E3FC011F040C012F041C016
:10126E0013F042C014F0B80E156E1E0E166E250E3B
:10127E00176E3F0E186E7B0E196E140E1A6E2E0E12
:10128E001B6E3F0E1C6EB2EC1DF011041210D8A492
:10129E0053EF09F055EF09F09FEF09F043C011F03D
:1012AE0044C012F045C013F046C014F0000E156E87
:1012BE00000E166E800E176E3E0E186ECD0E196E47
:1012CE00CC0E1A6E8C0E1B6E3E0E1C6EB2EC1DF00A
:1012DE0011041210D8A476EF09F078EF09F09FEF01
:1012EE0009F047C011F048C012F049C013F04AC0CF
:1012FE0014F0330E156E330E166E330E176E3E0E41
:10130E00186E5C0E196E8F0E1A6E420E1B6E3E0E0E
:10131E001C6EB2EC1DF011041210D8A499EF09F056
:10132E009BEF09F09FEF09F0000E3E6E030E3D6E2F
:10133E003FC011F040C012F041C013F042C014F093
:10134E00660E156E660E166E260E176E3F0E186E14
:10135E00F20E196ED20E1A6E2D0E1B6E3F0E1C6EF5
:10136E00B2EC1DF011041210D8A4C0EF09F0C2EFB8
:10137E0009F00CEF0AF043C011F044C012F045C062
:10138E0013F046C014F0AE0E156E470E166E610EBB
:10139E00176E3E0E186ED70E196EA30E1A6E700EC5
:1013AE001B6E3E0E1C6EB2EC1DF011041210D8A472
:1013BE00E3EF09F0E5EF09F00CEF0AF047C011F08A
:1013CE0048C012F049C013F04AC014F0F60E156E64
:1013DE00280E166E5C0E176E3E0E186ED70E196E18
:1013EE00A30E1A6E700E1B6E3E0E1C6EB2EC1DF02E
:1013FE0011041210D8A406EF0AF008EF0AF00CEF51
:10140E000AF0000E3E6E040E3D6E3FC011F040C05D
:10141E0012F041C013F042C014F01F0E156E850E6F
:10142E00166E4B0E176E3F0E186E850E196EEB0E66
:10143E001A6E510E1B6E3F0E1C6EB2EC1DF0110497
:10144E001210D8A42DEF0AF02FEF0AF079EF0AF060
:10145E0043C011F044C012F045C013F046C014F062
:10146E00C30E156EF50E166E280E176E3E0E186E06
:10147E005A0E196E640E1A6E3B0E1B6E3E0E1C6ECD
:10148E00B2EC1DF011041210D8A450EF0AF052EF76
:10149E000AF079EF0AF047C011F048C012F049C0C7
:1014AE0013F04AC014F0330E156E330E166E330E53
:1014BE00176E3E0E186E810E196E950E1A6E430E35
:1014CE001B6E3E0E1C6EB2EC1DF011041210D8A451
:1014DE0073EF0AF075EF0AF079EF0AF0000E3E6E28
:1014EE00050E3D6E3FC011F040C012F041C013F02A
:1014FE0042C014F0000E156E000E166E000E176E22
:10150E003F0E186ECD0E196ECC0E1A6E0C0E1B6E93
:10151E003F0E1C6EB2EC1DF011041210D8A49AEFFF
:10152E000AF09CEF0AF0E6EF0AF043C011F044C057
:10153E0012F045C013F046C014F0850E156EEB0E7A
:10154E00166E910E176E3E0E186E520E196EB80E66
:10155E001A6E9E0E1B6E3E0E1C6EB2EC1DF011042A
:10156E001210D8A4BDEF0AF0BFEF0AF0E6EF0AF0B2
:10157E0047C011F048C012F049C013F04AC014F031
:10158E00A60E156E9B0E166E840E176E3E0E186E00
:10159E00290E196E5C0E1A6E8F0E1B6E3E0E1C6E91
:1015AE00B2EC1DF011041210D8A4E0EF0AF0E2EF35
:1015BE000AF0E6EF0AF0000E3E6E060E3D6E3FC0DC
:1015CE0011F040C012F041C013F042C014F0D70E1B
:1015DE00156EA30E166E100E176E3F0E186E480E79
:1015EE00196EE10E1A6E1A0E1B6E3F0E1C6EB2ECC9
:1015FE001DF011041210D8A407EF0BF009EF0BF039
:10160E0053EF0BF043C011F044C012F045C013F07D
:10161E0046C014F0A60E156E9B0E166E840E176E37
:10162E003E0E186E850E196EEB0E1A6E910E1B6E17
:10163E003E0E1C6EB2EC1DF011041210D8A42AEF4F
:10164E000BF02CEF0BF053EF0BF047C011F048C02E
:10165E0012F049C013F04AC014F0460E156EB60EC5
:10166E00166E730E176E3E0E186E5C0E196E8F0E82
:10167E001A6E820E1B6E3E0E1C6EB2EC1DF0110425
:10168E001210D8A44DEF0BF04FEF0BF053EF0BF001
:10169E00000E3E6E070E3D6E3FC011F040C012F0C0
:1016AE0041C013F042C014F06A0E156EBC0E166ED9
:1016BE00140E176E3F0E186ED10E196E220E1A6E84
:1016CE001B0E1B6E3F0E1C6EB2EC1DF011041210A1
:1016DE00D8A474EF0BF076EF0BF0C0EF0BF043C015
:1016EE0011F044C012F045C013F046C014F08F0E36
:1016FE00156EC20E166E750E176E3E0E186EDF0E3E
:10170E00196E4F0E1A6E8D0E1B6E3E0E1C6EB2ECC7
:10171E001DF011041210D8A497EF0BF099EF0BF0F7
:10172E00C0EF0BF047C011F048C012F049C013F0E3
:10173E004AC014F0CD0E156ECC0E166E4C0E176EF2
:10174E003E0E186E480E196EE10E1A6E7A0E1B6E54
:10175E003E0E1C6EB2EC1DF011041210D8A4BAEF9E
:10176E000BF0BCEF0BF0C0EF0BF0000E3E6E080E50
:10177E003D6E3DC037F03EC038F01200000E066ED2
:10178E00630E056E1EEC20F0D2EC20F080EC21F002
:10179E00CBEC21F086840E01B4958686B497000EAC
:1017AE000101806F010E816FA30E826F0F0E836F8A
:1017BE007D0E846F0F0E856F040E866F000E886F80
:1017CE00630E876F000E896F010E8A6FA00E8B6FEE
:1017DE000F0E8C6F7F0E8D6F0F0E8E6F060E8F6F2E
:1017EE00000E916F630E906F000E9B6F000E9A6F3E
:1017FE00000E9D6F000E9C6F000E9F6F000E9E6F71
:10180E00000EA16F000EA06F7F928792799881983B
:10181E007E9E869E849E7C9E88968096000E6D6F20
:10182E00000E6C6F8DEF0CF07C8E8EB421EF0CF0F1
:10183E0023EF0CF01CEF0CF08EB428EF0CF02AEF17
:10184E000CF04DEF0CF07C9E7F8279887E9E920E7E
:10185E00106E010E116EB8EC1EF0190E516E5A0E6E
:10186E00506EB20EE82EFED7502EFCD7512EFAD760
:10187E007F9279987E9E190E516E5A0E506EB20E50
:10188E00E82EFED7502EFCD7512EFAD7140E00019B
:10189E00EC6F010EED6F050EEE6F0E0EEF6F94C135
:1018AE00F0F095C1F1F096C1F2F097C1F3F098C146
:1018BE00F4F099C1F5F0E7EC1EF0140E066E010E71
:1018CE00076EECEC20F0A0EC21F0050E516E0F0E21
:1018DE00506EF10EE82EFED7502EFCD7512EFAD7B1
:1018EE0000F080868EB67EEF0CF080EF0CF079EF74
:1018FE000CF08EB685EF0CF087EF0CF08DEF0CF040
:10190E008096000E01016D6F010E6C6F01016C511E
:10191E006D11D8B495EF0CF097EF0CF01BEF0CF0A7
:10192E007F8279887E9E920E106E010E116E58EC9B
:10193E001EF0920E376E010E386E27EC07F037C090
:10194E0064F138C065F19CC10BF09DC10CF00D6ABD
:10195E000E6A000EC3EC18F00BC01EF00CC01FF088
:10196E000DC020F00EC021F09AC10BF09BC10CF0FF
:10197E000D6A0E6A000EC3EC18F00BC022F00CC0FC
:10198E0023F00DC024F00EC025F0BFEC13F01EC0E6
:10199E006EF11FC06FF120C070F121C071F19EC1B8
:1019AE000BF09FC10CF00D6A0E6A000EC3EC18F01E
:1019BE000BC01EF00CC01FF00DC020F00EC021F0A9
:1019CE009AC10BF09BC10CF00D6A0E6A000EC3ECAF
:1019DE0018F00BC022F00CC023F00DC024F00EC086
:1019EE0025F0BFEC13F01EC072F11FC073F120C0C2
:1019FE0074F121C075F1A0C10BF0A1C10CF00D6AFC
:101A0E000E6A000EC3EC18F00BC01EF00CC01FF0D7
:101A1E000DC020F00EC021F09AC10BF09BC10CF04E
:101A2E000D6A0E6A000EC3EC18F00BC022F00CC04B
:101A3E0023F00DC024F00EC025F0BFEC13F01EC035
:101A4E0076F11FC077F120C078F121C079F1050E33
:101A5E00516E0F0E506EF10EE82EFED7502EFCD7A3
:101A6E00512EFAD700F07F9279987E9E050E516E18
:101A7E000F0E506EF10EE82EFED7502EFCD7512EC3
:101A8E00FAD700F0000E226E000E236E800E246E2A
:101A9E003F0E256E6EC11EF06FC11FF070C120F09B
:101AAE0071C121F0BFEC13F01EC03FF01FC040F01B
:101ABE0020C041F021C042F0E5EC1BF03FC07AF1AE
:101ACE0040C07BF1030E086EE80E076E7AC105F07A
:101ADE007BC106F06DEC21F005C00BF006C00CF0DA
:101AEE000D6A0E6A000EC3EC18F00BC03BF00CC072
:101AFE003CF00DC03DF00EC03EF0000E226E000E0A
:101B0E00236E800E246E3F0E256E000E096E000EA3
:101B1E000A6E7A0E0B6E440E0C6E6EC105F06FC11E
:101B2E0006F070C107F071C108F0AAEC11F005C003
:101B3E001EF006C01FF007C020F008C021F0BFEC59
:101B4E0013F01EC037F01FC038F020C039F021C08E
:101B5E003AF0D9EC1FF037C03FF038C040F039C032
:101B6E0041F03AC042F0E5EC1BF03FC066F140C0D8
:101B7E0067F1280E0001EC6F010EED6F400EEE6F57
:101B8E000E0EEF6F7AC1F0F07BC1F1F066C1F2F08C
:101B9E0067C1F3F0E7EC1EF0280E066E010E076E1D
:101BAE00ECEC20F0A0EC21F0050E516E0F0E506EF5
:101BBE00F10EE82EFED7502EFCD7512EFAD700F09C
:101BCE00000E226E000E236E800E246E3F0E256ECA
:101BDE0072C11EF073C11FF074C120F075C121F0E7
:101BEE00BFEC13F01EC03FF01FC040F020C041F00C
:101BFE0021C042F0E5EC1BF03FC07CF140C07DF10E
:101C0E00030E086EE80E076E7CC105F07DC106F06E
:101C1E006DEC21F005C00BF006C00CF00D6A0E6ADB
:101C2E00000EC3EC18F00BC03BF00CC03CF00DC026
:101C3E003DF00EC03EF0000E226E000E236E800EA2
:101C4E00246E3F0E256E000E096E000E0A6E7A0E81
:101C5E000B6E440E0C6E72C105F073C106F074C1AA
:101C6E0007F075C108F0AAEC11F005C01EF006C011
:101C7E001FF007C020F008C021F0BFEC13F01EC00B
:101C8E0037F01FC038F020C039F021C03AF0D9EC3F
:101C9E001FF037C03FF038C040F039C041F03AC0B5
:101CAE0042F0E5EC1BF03FC068F140C069F13C0E1C
:101CBE000001EC6F010EED6F340EEE6F0E0EEF6F36
:101CCE007CC1F0F07DC1F1F068C1F2F069C1F3F0B2
:101CDE00E7EC1EF03C0E066E010E076EECEC20F0EB
:101CEE00A0EC21F0050E516E0F0E506EF10EE82E87
:101CFE00FED7502EFCD7512EFAD700F0000E226ED2
:101D0E00000E236E800E246E3F0E256E76C11EF0E1
:101D1E0077C11FF078C120F079C121F0BFEC13F02C
:101D2E001EC03FF01FC040F020C041F021C042F065
:101D3E00E5EC1BF03FC07EF140C07FF1030E086E54
:101D4E00E80E076E7EC105F07FC106F06DEC21F046
:101D5E0005C00BF006C00CF00D6A0E6A000EC3EC47
:101D6E0018F00BC03BF00CC03CF00DC03DF00EC0A7
:101D7E003EF0000E226E000E236E800E246E3F0E7D
:101D8E00256E000E096E000E0A6E7A0E0B6E440E54
:101D9E000C6E76C105F077C106F078C107F079C1F7
:101DAE0008F0AAEC11F005C01EF006C01FF007C027
:101DBE0020F008C021F0BFEC13F01EC037F01FC09A
:101DCE0038F020C039F021C03AF0D9EC1FF037C0FE
:101DDE003FF038C040F039C041F03AC042F0E5EC77
:101DEE001BF03FC06AF140C06BF1500E0001EC6F6A
:101DFE00010EED6F280EEE6F0E0EEF6F7EC1F0F03E
:101E0E007FC1F1F06AC1F2F06BC1F3F0E7EC1EF0A6
:101E1E00500E066E010E076EECEC20F0A0EC21F0D9
:101E2E00050E516E0F0E506EF10EE82EFED7502E8F
:101E3E00FCD7512EFAD700F0000E0001EC6F010E08
:101E4E00ED6F1B0EEE6F0E0EEF6F64C1F0F065C1FD
:101E5E00F1F0E7EC1EF0000E066E010E076EECECD4
:101E6E0020F0A0EC21F0050E516E0F0E506EF10E0B
:101E7E00E82EFED7502EFCD7512EFAD700F097EF52
:101E8E000CF03BEF00F00850800B116E0850082448
:101E9E00136E07AE55EF0FF057EF0FF058EF0FF030
:101EAE0013801350D8B45EEF0FF060EF0FF075EFA4
:101EBE000FF01328D8A466EF0FF068EF0FF070EF55
:101ECE000FF0000E056E000E066E000E076E000E71
:101EDE00086E078E000E086E7DEF0FF0000E056E79
:101EEE00000E066E000E076E000E086E0C50800B74
:101EFE00126E11501218D8B487EF0FF089EF0FF051
:101F0E008AEF0FF0118C0C500C24126E0BAE92EF68
:101F1E000FF094EF0FF095EF0FF012801250D8B42F
:101F2E009BEF0FF09DEF0FF0B2EF0FF01228D8A439
:101F3E00A3EF0FF0A5EF0FF0ADEF0FF0000E096E4F
:101F4E00000E0A6E000E0B6E000E0C6E0B8E000E47
:101F5E000C6EBAEF0FF0000E096E000E0A6E000E38
:101F6E000B6E000E0C6E1350125CD8B0C1EF0FF05A
:101F7E00C3EF0FF0EAEF0FF011ACC8EF0FF0CAEF9E
:101F8E000FF0CCEF0FF0800E111A13C014F012C028
:101F9E0013F014C012F005C014F009C005F014C0FF
:101FAE0009F006C014F00AC006F014C00AF007C00B
:101FBE0014F00BC007F014C00BF008C014F00CC0E6
:101FCE0008F014C00CF0000E146E135012C00DF079
:101FDE000E6A0D5E000E0E5A0EBEFFEF0FF00E5083
:101FEE0009E11A0E0D5CD8A0FFEF0FF001EF10F013
:101FFE0038EF10F00550061007100810D8A40AEF9D
:10200E0010F00DEF10F0010E0EEF10F0000E146E2A
:10201E00000E056E000E066E000E076E000E086EA8
:10202E0012C013F041EF10F014A020EF10F022EFC9
:10203E0010F028EF10F0D89014300109146E2AEF2A
:10204E0010F0D890143205A02FEF10F031EF10F0F1
:10205E0032EF10F0148E0834083207320632053291
:10206E00132A1250135CD8A03FEF10F041EF10F07E
:10207E001BEF10F011BC46EF10F048EF10F088EF98
:10208E0010F01350D8A44EEF10F050EF10F05AEF9E
:10209E0010F0000E056E000E066E000E076E000E9E
:1020AE00086EA9EF11F0095005260A5006220B50B2
:1020BE0007220C50082208A067EF10F069EF10F00D
:1020CE0015EF11F014A06EEF10F070EF10F076EF28
:1020DE0010F0D89014300109146E78EF10F0D890EB
:1020EE00143205A07DEF10F07FEF10F080EF10F0AE
:1020FE00148E08340832073206320532132A15EFD1
:10210E0011F00950055C0A5006580B50075808503C
:10211E00800A0D6E0C50800A0D58D8B099EF10F051
:10212E009BEF10F0C6EF10F00550095C0D6E0650D7
:10213E000A580E6E07500B580F6E08500C58106E42
:10214E00FF0E0D24056EFF0E0E20066EFF0E0F20E5
:10215E00076EFF0E1020086E800E111A146C1450AC
:10216E00D8A4BCEF10F0BEEF10F0CEEF10F0010EC1
:10217E000526000E062207220822CEEF10F0095087
:10218E00055E0A50065A0B50075A0C50085A055055
:10219E00061007100810D8A4D7EF10F0D9EF10F0E2
:1021AE000EEF11F01450D8A4DFEF10F0E1EF10F0A5
:1021BE000EEF11F0000E056E000E066E000E076E8D
:1021CE00000E086EA9EF11F0D890053606360736C8
:1021DE00083614AEF5EF10F0F7EF10F0F8EF10F040
:1021EE00058014A0FDEF10F0FFEF10F003EF11F0DB
:1021FE00D880143605EF11F0D89014361350D8B499
:10220E000BEF11F00DEF11F00EEF11F0130607AEFC
:10221E0013EF11F015EF11F0EBEF10F0000E126E40
:10222E0014AE1CEF11F01EEF11F036EF11F014C0CA
:10223E000DF07F0E0D16D8B427EF11F029EF11F027
:10224E002DEF11F0010E126E36EF11F005A032EFE8
:10225E0011F034EF11F036EF11F029EF11F01250AA
:10226E00D8B43CEF11F03EEF11F069EF11F0010E12
:10227E000526000E06220722082208A049EF11F0BB
:10228E004BEF11F069EF11F005C00DF006C00EF026
:10229E0007C00FF008C010F0103410320F320E329B
:1022AE000D320DC005F00EC006F00FC007F010C0C5
:1022BE0008F01328D8B466EF11F068EF11F069EF4B
:1022CE0011F0132A1328D8B46FEF11F071EF11F03B
:1022DE0079EF11F01350D8A477EF11F079EF11F0D8
:1022EE008BEF11F0000E056E000E066E000E076EDF
:1022FE00000E086E1350D8A487EF11F089EF11F07D
:10230E008BEF11F0000E116E13A090EF11F092EF03
:10231E0011F095EF11F0078E96EF11F0079ED89001
:10232E001330086E11AE9EEF11F0A0EF11F0A1EF79
:10233E0011F0088E05C005F006C006F007C007F0C4
:10234E0008C008F012000850800B116E08500824C7
:10235E00176E07AEB5EF11F0B7EF11F0B8EF11F041
:10236E0017801750D8B4BEEF11F0C0EF11F0D3EFB5
:10237E0011F01728D8A4C6EF11F0C8EF11F0D0EF66
:10238E0011F0000E056E000E066E000E076E000EAA
:10239E00086E078EDBEF11F0000E056E000E066E56
:1023AE00000E076E000E086E0C50800B111A0C50AA
:1023BE000C24166E0BAEE6EF11F0E8EF11F0E9EF1C
:1023CE0011F016801650D8B4EFEF11F0F1EF11F0B6
:1023DE0004EF12F01628D8A4F7EF11F0F9EF11F070
:1023EE0001EF12F0000E096E000E0A6E000E0B6E5B
:1023FE00000E0C6E0B8E0CEF12F0000E096E000E1E
:10240E000A6E000E0B6E000E0C6E1650D8B412EF44
:10241E0012F014EF12F01CEF12F01750D8A41AEFAE
:10242E0012F01CEF12F026EF12F0000E056E000EE9
:10243E00066E000E076E000E086EBEEF13F00B5008
:10244E000502F3CF1CF0F4CF1DF01C50126E136A70
:10245E00146A156A1D50186E196A1A6A1B6A0A5098
:10246E000602F3CF1CF0F4CF1DF01C501226000E06
:10247E001322142215221D501826000E19221A227C
:10248E001B2209500702F3CF1CF0F4CF1DF01C5095
:10249E001226000E1322142215221D501826000E8D
:1024AE0019221A221B2214C015F013C014F012C0E8
:1024BE0013F0126A09500602F3CF1CF0F4CF1DF090
:1024CE001C5012261D501322000E1422000E15222F
:1024DE000A500502F3CF1CF0F4CF1DF01C5012264B
:1024EE001D501322000E1422000E152214C015F0DA
:1024FE0013C014F012C013F0126A09500502F3CF84
:10250E001CF0F4CF1DF01C5012261D501322000E8D
:10251E001422000E15220B500602F3CF1CF0F4CF3E
:10252E001DF01C5018261D501922000E1A22000EE6
:10253E001B220A500702F3CF1CF0F4CF1DF01C50E3
:10254E0018261D501922000E1A22000E1B220B50A7
:10255E000702F3CF1CF0F4CF1DF01C500D6E1D5072
:10256E000E6E0F6A106A0FC010F00EC00FF00DC085
:10257E000EF00D6A0D5018260E5019220F501A2209
:10258E0010501B2212C00DF013C00EF014C00FF02D
:10259E0015C010F0190ED9EF12F0D89010320F327C
:1025AE000E320D32E82ED4EF12F00D5018260E50CA
:1025BE0019220F501A2210501B2214C015F013C0EE
:1025CE0014F012C013F0126A165017C00DF00E6AF6
:1025DE000D26000E0E22820E0D241C6EFF0E0E20F6
:1025EE001D6E0FEF13F0D890183619361A361B36AB
:1025FE0015AE04EF13F006EF13F007EF13F018808B
:10260E00D89012361336143615361C06D8A01D0671
:10261E001AAE14EF13F016EF13F0FAEF12F0000EDD
:10262E00166E15AE1DEF13F01FEF13F043EF13F000
:10263E00FF0E12140D6EFF0E13140E6EFF0E1414F9
:10264E000F6E7F0E1514106E0D500E100F10101011
:10265E00D8B434EF13F036EF13F03AEF13F0010E57
:10266E00166E43EF13F018A03FEF13F041EF13F087
:10267E0043EF13F036EF13F01650D8B449EF13F0C2
:10268E004BEF13F06FEF13F0010E1826000E192208
:10269E001A221B221BA056EF13F058EF13F06FEF08
:1026AE0013F018C00DF019C00EF01AC00FF01BC0B9
:1026BE0010F0103410320F320E320D320DC018F0F1
:1026CE000EC019F00FC01AF010C01BF01C4A1D2AC4
:1026DE001DBE7AEF13F01D5008E11C28D8A07AEF2A
:1026EE0013F07CEF13F086EF13F0000E186E000E51
:1026FE00196E800E1A6E7F0E1B6EB4EF13F01DBE98
:10270E0093EF13F01D5006E11C04D8B091EF13F0B7
:10271E0093EF13F09FEF13F0000E186E000E196E6C
:10272E00000E1A6E000E1B6E000E116EB4EF13F03B
:10273E001CC017F0FF0E1816FF0E19167F0E1A1674
:10274E00000E1B1617A0AEEF13F0B0EF13F0B1EFA3
:10275E0013F01A8ED89017301B6E11501B1218C022
:10276E0005F019C006F01AC007F01BC008F01200E1
:10277E002150800B2E6E21502124356E20AECAEFD3
:10278E0013F0CCEF13F0CDEF13F035803550D8B4F5
:10279E00D3EF13F0D5EF13F0EAEF13F03528D8A4EA
:1027AE00DBEF13F0DDEF13F0E5EF13F0000E1E6E0E
:1027BE00000E1F6E000E206E000E216E208E000E7B
:1027CE00216EF2EF13F0000E1E6E000E1F6E000E45
:1027DE00206E000E216E2550800B2E1A25502524BA
:1027EE00366E24AEFDEF13F0FFEF13F000EF14F092
:1027FE0036803650D8B406EF14F008EF14F01DEF03
:10280E0014F03628D8A40EEF14F010EF14F018EFD1
:10281E0014F0000E226E000E236E000E246E000EBB
:10282E00256E248E000E256E25EF14F0000E226EFE
:10283E00000E236E000E246E000E256E2250231005
:10284E0024102510D8A42EEF14F030EF14F048EF1A
:10285E0014F0000E1E6E000E1F6E000E206E000E87
:10286E00216E800E20127F0E21122E5021121EC0BC
:10287E001EF01FC01FF020C020F021C021F08BEFF2
:10288E0015F03550D8A44EEF14F050EF14F05AEF67
:10289E0014F0000E1E6E000E1F6E000E206E000E47
:1028AE00216E8BEF15F0365035C026F0276A265E66
:1028BE00000E275A7F0E26242F6E000E2720306E14
:1028CE001EC02AF01FC02BF020C02CF021C02DF00E
:1028DE00000E1E6E000E1F6E000E206E000E216E7C
:1028EE00000E316E000E326E000E336E000E346E20
:1028FE00000E366EBBEF14F03650D8B489EF14F0DC
:10290E008BEF14F0A2EF14F0D8902A362B362C361B
:10291E002D36D8901E361F362036213634AE9AEF1D
:10292E0014F09CEF14F09DEF14F01E80D890313609
:10293E0032363336343622502A5C23502B582450EC
:10294E002C5825502D58D8A0AFEF14F0B1EF14F03D
:10295E00BAEF14F0348C22502A5E23502B5A245096
:10296E002C5A25502D5A362A190E3664C1EF14F002
:10297E00C3EF14F083EF14F02A502B102C102D10EF
:10298E00D8B4CCEF14F0CEEF14F0E6EF14F03180A3
:10299E00E6EF14F0D8901E361F362036213634AEB0
:1029AE00DBEF14F0DDEF14F0DEEF14F01E80D890A4
:1029BE0031363236333634362F06D8A0300620AEB6
:1029CE00EBEF14F0EDEF14F0D1EF14F0000E366EC5
:1029DE0034AEF4EF14F0F6EF14F01AEF15F0FF0E1C
:1029EE003114266EFF0E3214276EFF0E3314286E2E
:1029FE007F0E3414296E2650271028102910D8B4B3
:102A0E000BEF15F00DEF15F011EF15F0010E366E00
:102A1E001AEF15F01EA016EF15F018EF15F01AEFBD
:102A2E0015F00DEF15F03650D8B420EF15F022EF5B
:102A3E0015F046EF15F0010E1E26000E1F22202265
:102A4E00212221A02DEF15F02FEF15F046EF15F0F6
:102A5E001EC026F01FC027F020C028F021C029F08C
:102A6E002934293228322732263226C01EF027C0BA
:102A7E001FF028C020F029C021F02F4A302A30BE86
:102A8E0051EF15F0305008E12F28D8A051EF15F076
:102A9E0053EF15F05EEF15F0000E306E2F68000E3E
:102AAE001E6E000E1F6E000E206E000E216E30BECA
:102ABE006BEF15F0305006E12F04D8B069EF15F02A
:102ACE006BEF15F079EF15F0000E306E000E2F6ED5
:102ADE00000E1E6E000E1F6E000E206E000E216E7A
:102AEE00000E2E6E2FC035F035A080EF15F082EF60
:102AFE0015F085EF15F0208E86EF15F0209ED890FC
:102B0E003530216E3CEF14F0120046C0D9FF47C09D
:102B1E00DAFFDECFF6FFDDCFF7FF000EF86E08000E
:102B2E00F550250AD8A49EEF15F0A0EF15F034EF5E
:102B3E0017F046C0D9FF47C0DAFFDE2A000EDD22AD
:102B4E00000E0001B56F000EB46FB4C0B8F0B5C082
:102B5E00B9F0B669B769000EE36F000EE26F00EFD1
:102B6E0016F0B88146C0D9FF47C0DAFFDE2A000E44
:102B7E00DD2200EF16F0B883B9EF15F0B885B9EF86
:102B8E0015F0B887B9EF15F0B889B9EF15F0000E4A
:102B9E00E36F010EE26F00EF16F046C0D9FF47C09B
:102BAE00DAFFDECFF6FFDDCFF7FF000EF86E08007E
:102BBE00F5504A6E4B6A4B50000AD8B4E9EF15F047
:102BCE00CEEF15F04A50200AD8B4C8EF15F0030A1C
:102BDE00D8B4CBEF15F0080AD8B4C5EF15F0060A35
:102BEE00D8B4B8EF15F01D0AD8B4C2EF15F0CEEF79
:102BFE0015F0E251E311D8B407EF16F009EF16F015
:102C0E00D4EF15F0B8A10EEF16F010EF16F011EF8D
:102C1E0016F0B89346C0D9FF47C0DAFFDECFF6FFF5
:102C2E00DDCFF7FF000EF86E0800F5502A0AD8A483
:102C3E0023EF16F025EF16F04EEF16F046C0D9FF33
:102C4E0047C0DAFFDE2A000EDD2248C0D9FF49C098
:102C5E00DAFFDFCF4AF0020EDE26DFCF4BF0000E9A
:102C6E00DD224AC0D9FF4BC0DAFFDECFB4F0DDCF94
:102C7E00B5F0B5BF47EF16F045EF16F094EF16F02E
:102C8E00B881B46DB51FD8B0B52B94EF16F046C011
:102C9E00D9FF47C0DAFFDECF0CF0DDCF0DF09DEC93
:102CAE0019F00CC0B4F00DC0B5F065EF16F046C0CB
:102CBE00D9FF47C0DAFFDE2A000EDD22D00E4A6EA3
:102CCE00FF0E4B6E46C0D9FF47C0DAFFDECFF6FFD0
:102CDE00DDCFF7FF000EF86E0800F5504C6E4D6A12
:102CEE004A504C264B504D224D500AE10A0E4C5C78
:102CFE00D8A084EF16F087EF16F0010E88EF16F0CD
:102D0E00000E0001E46FE56BE451E511D8A492EFDB
:102D1E0016F094EF16F05EEF16F046C0D9FF47C0DE
:102D2E00DAFFDECFF6FFDDCFF7FF000EF86E0800FC
:102D3E00F550640AD8B4A6EF16F0A8EF16F0BCEF63
:102D4E0016F046C0D9FF47C0DAFFDECFF6FFDDCF63
:102D5E00F7FF000EF86E0800F550690AD8A4BAEF16
:102D6E0016F0BCEF16F0FCEF16F046C0D9FF47C0C8
:102D7E00DAFFDE2A000EDD2248C0D9FF49C0DAFF95
:102D8E00DFCF4AF0020EDE26DFCF4BF0000EDD2243
:102D9E004AC0D9FF4BC0DAFFDECFDAF0DDCFDBF071
:102DAE00000EDBBFFF0EDC6FDD6FDE6FDF6FE06FDF
:102DBE00E16F44C020F045C021F0DAC022F0DBC044
:102DCE0023F0DCC024F0DDC025F0DEC026F0DFC02D
:102DDE0027F0E0C028F0E1C029F052EC17F020C037
:102DEE0044F021C045F051EF17F046C0D9FF47C05F
:102DFE00DAFFDECFF6FFDDCFF7FF000EF86E08002C
:102E0E00F550250AD8A40EEF17F010EF17F027EFA4
:102E1E0017F046C0D9FF47C0DAFFDE2A000EDD22CA
:102E2E00000E066E250E056E44C007F045C008F074
:102E3E00EAEC1CF0000E456E010E446E51EF17F0D9
:102E4E0046C0D9FF47C0DAFFDE2A000EDD22000E93
:102E5E00456E000E446E51EF17F046C0D9FF47C0C5
:102E6E00DAFFDECFF6FFDDCFF7FF000EF86E0800BB
:102E7E00F550056E066A44C007F045C008F0EAEC4E
:102E8E001CF046C0D9FF47C0DAFFDE2A000EDD2255
:102E9E0021EF17F0120022C03AF023C03BF024C0FD
:102EAE003CF025C03DF026C03EF027C03FF028C0C4
:102EBE0040F029C041F041BE67EF17F06AEF17F0FE
:102ECE00010E6BEF17F0000E386E396A385039105C
:102EDE00D8B474EF17F076EF17F086EF17F0411EA7
:102EEE00401E3F1E3E1E3D1E3C1E3B1E3A6C000EFB
:102EFE003B223C223D223E223F2240224122000123
:102F0E00B7BF8CEF17F08EEF17F08FEF17F0B89367
:102F1E00B7BF9CEF17F0B75106E1B605D8B09AEFE0
:102F2E0017F09CEF17F0A2EF17F0000E356E010EA2
:102F3E00346EA6EF17F0B6C034F0B7C035F0B4C09B
:102F4E0036F0B5C037F038503910D8A4B1EF17F0BD
:102F5E00B3EF17F0BAEF17F0B8A5B8EF17F0BAEF56
:102F6E0017F0BDEF17F03606D8A03706000E436EE9
:102F7E001F0E426E000ED96F41EF18F04206D8A018
:102F8E004306BA0E4224D96E000E4320DA6E3AC0C2
:102F9E0005F03BC006F03CC007F03DC008F03EC057
:102FAE0009F03FC00AF040C00BF041C00CF00A0E11
:102FBE000D6E000E0E6E000E0F6E000E106E000ED9
:102FCE00116E000E126E000E136E000E146E33ECA8
:102FDE001BF005C02AF006C02BF007C02CF008C06D
:102FEE002DF009C02EF00AC02FF00BC030F00CC02F
:102FFE0031F02AC017F02CC018F060EC20F01750FA
:10300E00300FDF6E3406D8A035063606D8A0370648
:10301E003AC005F03BC006F03CC007F03DC008F0DA
:10302E003EC009F03FC00AF040C00BF041C00CF0AA
:10303E000A0E0D6E000E0E6E000E0F6E000E106E4E
:10304E00000E116E000E126E000E136E000E146E38
:10305E006FEC1AF005C03AF006C03BF007C03CF02A
:10306E0008C03DF009C03EF00AC03FF00BC040F072
:10307E000CC041F043BE4CEF18F0435008E142043F
:10308E00D8A04CEF18F04EEF18F07FEF18F03A5032
:10309E003B103C103D103E103F1040104110D8A484
:1030AE005BEF18F05DEF18F0C5EF17F035BE6AEF65
:1030BE0018F0355006E13404D8B068EF18F06AEF16
:1030CE0018F0C5EF17F037BE75EF18F0375008E15E
:1030DE003604D8A075EF18F077EF18F07FEF18F0E0
:1030EE000001B8B37DEF18F07FEF18F0C5EF17F0C1
:1030FE0038503910D8A486EF18F088EF18F090EFFA
:10310E0018F00001B8A58EEF18F090EF18F0AEEFA2
:10311E0018F04206D8A0430638503910D8A49AEFBA
:10312E0018F09CEF18F0A2EF18F0000E336E2B0E75
:10313E00326EA6EF18F0000E336E2D0E326EBA0EF2
:10314E004224D96E000E4320DA6E32C0DFFF20C05B
:10315E0015F021C016F0BA0E4224176E000E432051
:10316E00186E36C019F037C01AF04FEC1DF015C0AE
:10317E0020F016C021F01200136E1350D8B4CAEF0F
:10318E0018F0CCEF18F0EEEF18F00EBED3EF18F0EB
:10319E00D1EF18F0EEEF18F00BC00FF00CC010F0DE
:1031AE000DC011F00EC012F00F1E101E111E121EB9
:1031BE000F2A000E1022112212220FC015F010C07D
:1031CE0016F011C017F012C018F0F6EF18F00BC081
:1031DE0015F00CC016F00DC017F00EC018F00B5005
:1031EE000C100D100E10D8A4FFEF18F001EF19F00F
:1031FE000BEF19F0000E0B6E000E0C6E000E0D6E26
:10320E00000E0E6E9CEF19F0960E146E15EF19F05F
:10321E00142AD8901832173216321532000E1514A1
:10322E000F6E000E1614106E000E1714116EFE0E99
:10323E001814126E0F50101011101210D8A42AEF7D
:10324E0019F02CEF19F00FEF19F03AEF19F0142ACC
:10325E00010E1526000E162217221822D8901832AB
:10326E00173216321532000E15140F6E000E16148C
:10327E00106E000E1714116EFF0E1814126E0F50F2
:10328E00101011101210D8A44FEF19F051EF19F0C1
:10329E002EEF19F059EF19F01406D8901536163690
:1032AE001736183617BE5EEF19F060EF19F068EF9B
:1032BE0019F0020E146066EF19F068EF19F053EF73
:1032CE0019F014B06DEF19F06FEF19F070EF19F0EF
:1032DE00179ED890143214C00FF0106A116A126A39
:1032EE000FC012F0116A106A0F6A0F5015121050AB
:1032FE00161211501712125018121350D8B48AEF1A
:10330E0019F08CEF19F094EF19F00EBE93EF19F03F
:10331E0091EF19F094EF19F0188E15C00BF016C03E
:10332E000CF017C00DF018C00EF01200000E1A6E41
:10333E00000E196E000E136E000E126EA9EF19F02C
:10334E000C4A0D2A010E186E0CC0F6FF0DC0F7FFC9
:10335E00000EF86E0800F550200AD8B4B9EF19F037
:10336E00BBEF19F0DAEF19F0F70E0E6EFF0E0F6EBF
:10337E000CC0F6FF0DC0F7FF000EF86E0800F550FA
:10338E00106E116A0E5010260F501122115009E1C5
:10339E00050E105CD8A0D6EF19F0D8EF19F0DAEFC1
:1033AE0019F0000E186E18C014F0156A145015108E
:1033BE00D8A4E4EF19F0E6EF19F0A7EF19F0F0EF4B
:1033CE0019F0000E136E010E126E0C4A0D2A29EF23
:1033DE001AF00CC0F6FF0DC0F7FF000EF86E0800D5
:1033EE00F5500E6E0F6A0F50000AD8B401EF1AF0A6
:1033FE0029EF1AF00E502B0AD8B4ECEF19F0060A8A
:10340E00D8B4E8EF19F029EF1AF019C005F01AC078
:10341E0006F0000E086E0A0E076E6DEC21F00CC061
:10342E00F6FF0DC0F7FF000EF86E0800F550055EB2
:10343E00000E065A300E0524196E000E06201A6E66
:10344E00ECEF19F0D00E0E6EFF0E0F6E0CC0F6FFE5
:10345E000DC0F7FF000EF86E0800F550106E116AE1
:10346E000E5010260F50112211500AE10A0E105C58
:10347E00D8A044EF1AF047EF1AF0010E48EF1AF0F9
:10348E00000E166E176A16501710D8A451EF1AF0C8
:10349E0053EF1AF00CEF1AF012501310D8A45AEF83
:1034AE001AF05CEF1AF06AEF1AF019C00EF01AC09B
:1034BE000FF00E1E0F1E0E4A0F2A0EC00CF00FC07C
:1034CE000DF06EEF1AF019C00CF01AC00DF01200CC
:1034DE00000E166E14BE78EF1AF076EF1AF08AEF21
:1034EE001AF0141E131E121E111E101E0F1E0E1E7B
:1034FE000D6C000E0E220F22102211221222132208
:10350E001422010E166E0CBE91EF1AF08FEF1AF008
:10351E00A3EF1AF00C1E0B1E0A1E091E081E071E14
:10352E00061E056C000E06220722082209220A2218
:10353E000B220C22010E161A20EE17F0070EDE6A71
:10354E00E806FDE20D500E100F10101011101210A3
:10355E0013101410D8B4B6EF1AF0B8EF1AF00AEF31
:10356E001BF0010E156EC6EF1AF0D8900D360E3602
:10357E000F3610361136123613361436152A14AE8F
:10358E00CBEF1AF0CDEF1AF0BCEF1AF0D890173639
:10359E00183619361A361B361C361D361E360D5089
:1035AE00055C0E5006580F50075810500858115011
:1035BE00095812500A5813500B5814500C58D8A0D2
:1035CE00EBEF1AF0EDEF1AF0FEEF1AF00D50055E6C
:1035DE000E50065A0F50075A1050085A1150095AD9
:1035EE0012500A5A13500B5A14500C5A1780D89076
:1035FE00143213321232113210320F320E320D32A9
:10360E00152ECDEF1AF01650D8B410EF1BF012EFA6
:10361E001BF022EF1BF01E1E1D1E1C1E1B1E1A1E53
:10362E00191E181E176C000E182219221A221B22A0
:10363E001C221D221E2217C005F018C006F019C04C
:10364E0007F01AC008F01BC009F01CC00AF01DC01C
:10365E000BF01EC00CF01200000E166E0CBE3CEFEE
:10366E001BF03AEF1BF04EEF1BF00C1E0B1E0A1E4A
:10367E00091E081E071E061E056C000E06220722D6
:10368E00082209220A220B220C22010E166E14BEEB
:10369E0055EF1BF053EF1BF065EF1BF0141E131EBE
:1036AE00121E111E101E0F1E0E1E0D6C000E0E226F
:1036BE000F22102211221222132214220D500E104C
:1036CE000F1010101110121013101410D8B472EF36
:1036DE001BF074EF1BF0BCEF1BF0010E156E82EFAA
:1036EE001BF0D8900D360E360F36103611361236B8
:1036FE0013361436152A14AE87EF1BF089EF1BF024
:10370E0078EF1BF00D50055C0E5006580F50075801
:10371E00105008581150095812500A5813500B588F
:10372E0014500C58D8A09EEF1BF0A0EF1BF0B0EF7A
:10373E001BF00D50055E0E50065A0F50075A1050D2
:10374E00085A1150095A12500A5A13500B5A145053
:10375E000C5AD890143213321232113210320F32F8
:10376E000E320D32152E89EF1BF01650D8B4C2EF63
:10377E001BF0C4EF1BF0D4EF1BF00C1E0B1E0A1E29
:10378E00091E081E071E061E056C000E06220722C5
:10379E00082209220A220B220C2205C005F006C0BF
:1037AE0006F007C007F008C008F009C009F00AC00B
:1037BE000AF00BC00BF00CC00CF012004134423476
:1037CE00486E4850D8A4EEEF1BF0F0EF1BF0FAEF66
:1037DE001BF0000E3F6E000E406E000E416E000E8E
:1037EE00426E67EF1CF03FC043F040C044F041C052
:1037FE0045F042C046F0200E0AEF1CF0D89046323B
:10380E00453244324332E82E05EF1CF04350476EEA
:10381E00418EFF0E3F16FF0E4016FF0E4116000E94
:10382E004216960E485E48BE21EF1CF01FEF1CF0AC
:10383E0037EF1CF04850800A970FD8B029EF1CF0D4
:10384E002BEF1CF02DEF1CF0F0EF1BF0D890423256
:10385E00413240323F32483E2DEF1CF04FEF1CF00C
:10386E001F0E48643DEF1CF03FEF1CF047EF1CF0BD
:10387E00F0EF1BF0D8903F364036413642364806C0
:10388E004850D8A44DEF1CF04FEF1CF041EF1CF048
:10389E004750D8B455EF1CF057EF1CF05FEF1CF0FB
:1038AE00421E411E401E3F6C000E4022412242220B
:1038BE003FC03FF040C040F041C041F042C042F036
:1038CE001200000E05140D6E000E06140E6E800E04
:1038DE0007140F6E7F0E0814106E0D500E100F1081
:1038EE001010D8A47DEF1CF07FEF1CF087EF1CF0BA
:1038FE00000E056E000E066E000E076E000E086EB0
:10390E00000E09140D6E000E0A140E6E800E0B14AE
:10391E000F6E7F0E0C14106E0D500E100F10101037
:10392E00D8A49CEF1CF09EEF1CF0A6EF1CF0000E2E
:10393E00096E000E0A6E000E0B6E000E0C6E08AEB7
:10394E00ABEF1CF0ADEF1CF0B6EF1CF0056C061ED5
:10395E00D8B0062A071ED8B0072A800E08560CAE1D
:10396E00BBEF1CF0BDEF1CF0C6EF1CF0096C0A1E7D
:10397E00D8B00A2A0B1ED8B00B2A800E0C56000E99
:10398E00051A000E061A000E071A800E081A000EEF
:10399E00091A000E0A1A000E0B1A800E0C1A095084
:1039AE00055C0A5006580B5007580C500858D8B0F2
:1039BE00E3EF1CF0E5EF1CF0E8EF1CF0D890E9EF18
:1039CE001CF0D880120007500810D8B4F1EF1CF08C
:1039DE00F3EF1CF0FCEF1CF007500810D8A4FAEF20
:1039EE001CF0FCEF1CF001EF1DF00550E0EC21F097
:1039FE004EEF1DF020EE04F00750D9260850DA22C3
:103A0E00DE50DE10D8B40EEF1DF010EF1DF02BEFD0
:103A1E001DF020EE04F00750D9260850DA2210EEE1
:103A2E0002F00750E1260850E222DE50E65CE65036
:103A3E00800A0D6EDE50800A0D58D8B029EF1DF0A9
:103A4E002BEF1DF04EEF1DF020EE02F00750D926A1
:103A5E000850DA22DECF09F0DDCF0AF007C0D9FF19
:103A6E0008C0DAFFDECF0BF0DDCF0CF009500B24CF
:103A7E00D96E0A500C20DA6E05C0DFFF20EE02F080
:103A8E000750D9260850DA22DE2A000EDD22120057
:103A9E000001B8A155EF1DF057EF1DF061EF1DF0BD
:103AAE0017C00EF018C00FF015C010F016C011F0B0
:103ABE00FCEC1FF01ABE66EF1DF068EF1DF06EEF06
:103ACE001DF019C01EF01AC01FF072EF1DF0000E8F
:103ADE001F6E000E1E6E000E1D6E000E1C6E84EF0D
:103AEE001DF0000E066E200E056E15C007F016C0F6
:103AFE0008F0EAEC1CF01C4A1D2A1E501C5C1D50DE
:103B0E00800A1B6E1F50800A1B58D8A091EF1DF023
:103B1E0093EF1DF078EF1DF00001B8B199EF1DF095
:103B2E009BEF1DF0A5EF1DF017C00EF018C00FF0A3
:103B3E0015C010F016C011F0FCEC1FF017C005F008
:103B4E0018C006F0B7EC20F01E500524156E1F505D
:103B5E000620166E120011C005F012C006F013C03A
:103B6E0007F014C008F015C009F016C00AF017C00F
:103B7E000BF018C00CF068EC1CF0D8A0C9EF1DF0CB
:103B8E00CBEF1DF0EAEF1DF019C005F01AC006F0DC
:103B9E001BC007F01CC008F011C009F012C00AF0DB
:103BAE0013C00BF014C00CF068EC1CF0D8A0E2EFC0
:103BBE001DF0E4EF1DF0EAEF1DF0000E126E010E87
:103BCE00116EEEEF1DF0000E126E000E116E120051
:103BDE009F01850358012B016904AA0100015304BA
:103BEE00AE0103026705F501DB01CA04E101BD0167
:103BFE00E50379019F0189052F0217022C06790230
:103C0E009904F400B70091099E002C01C906A80082
:103C1E00EB009C069300EF00F009FA004E016E09CE
:103C2E00ED00F800F909B1003C01AD08E9004F01C3
:103C3E00100A1601870132037E01C100E8C04EF062
:103C4E00E9C04FF0000E0001B36F000EB26F43EFEC
:103C5E001EF0E6C044F0E7C045F04E0E466E000E74
:103C6E00476EEAC048F0EBC049F08CEC15F04450BA
:103C7E000001B2274550B3234EC0F6FF4FC0F7FFE9
:103C8E00000EF86E0800F5500009D8A451EF1EF092
:103C9E0053EF1EF030EF1EF0B2C0E6F0B3C0E7F007
:103CAE00120089EC1FF020EE08F01050D9261150AA
:103CBE00DA2209C0DEFF0AC0DDFF39EC1FF020EE6C
:103CCE000AF01050D9261150DA2209C0DEFF0AC0C0
:103CDE00DDFF61EC1FF020EE0CF01050D9261150D4
:103CEE00DA2209C0DEFF0AC0DDFFB1EC1FF020EEC4
:103CFE000EF01050D9261150DA2209C0DEFF0AC08C
:103D0E00DDFF1200DE0EF66E3B0EF76E000EF86E45
:103D1E0002EE00F010EE6CF00900F5CFEEFFE5506C
:103D2E00E150FAE1380EF66E410EF76E000EF86EA7
:103D3E0001EEA2F010EE36F00900F5CFEEFFE550E1
:103D4E00E150FAE100EE60F07A0EEE6AE806FDE16F
:103D5E00556A546A536A526A569056920001C5EFDC
:103D6E000BF089EC1FF010C0D9FF11C0DAFF09C0AB
:103D7E00DEFF0AC0DDFF39EC1FF020EE02F010501E
:103D8E00D9261150DA2209C0DEFF0AC0DDFF61EC30
:103D9E001FF020EE04F01050D9261150DA2209C07F
:103DAE00DEFF0AC0DDFFB1EC1FF020EE06F0105072
:103DBE00D9261150DA2209C0DEFF0AC0DDFF12003B
:103DCE00F00E0001F66F000EF76FECC0F8F0EDC0CC
:103DDE00F9F0000EFB6F000EFA6F000EFD6F000E75
:103DEE00FC6FF80EE66F000EE76FEEC0E8F0EFC066
:103DFE00E9F0F60EEA6F000EEB6F25EC1EF00001F7
:103E0E00FA51EC25D96EFB51ED21DA6E000EDF6E04
:103E1E001200010E0B6E200E05180610D8B41AEF04
:103E2E001FF01CEF1FF035EF1FF0F70E076EFF0EA1
:103E3E00086E05C009F006C00AF0075009260850A2
:103E4E000A220A5009E1050E095CD8A031EF1FF0D5
:103E5E0033EF1FF035EF1FF0000E0B6E0BC005F0A9
:103E6E00066A1200D6EC21F0520EC5EC21F0B60E09
:103E7E00C5EC21F0DBEC21F0530EC5EC21F0010E68
:103E8E003FEC20F00B6E0B500E6E0F6A000E3FECE7
:103E9E0020F00B6E0B500D6E0C6A0E500C100E6E49
:103EAE000F500D100F6ED1EC21F00EC009F00FC0A7
:103EBE000AF01200D6EC21F0520EC5EC21F0B80E2D
:103ECE00C5EC21F0DBEC21F0530EC5EC21F0010E18
:103EDE003FEC20F00B6E0B500E6E0F6A000E3FEC97
:103EEE0020F00B6E0B500D6E0C6A0E500C100E6EF9
:103EFE000F500D100F6ED1EC21F00EC009F00FC057
:103F0E000AF01200D6EC21F0520EC5EC21F0B40EE0
:103F1E00C5EC21F0DBEC21F0530EC5EC21F0010EC7
:103F2E003FEC20F00B6E0B500E6E0F6A000E3FEC46
:103F3E0020F00B6E0B500D6E0C6A0E500C100E6EA8
:103F4E000F500D100F6ED1EC21F00EC009F00FC006
:103F5E000AF01200D6EC21F0520EC5EC21F0BA0E8A
:103F6E00C5EC21F0DBEC21F0530EC5EC21F0010E77
:103F7E003FEC20F00B6E0B500E6E0F6A000E3FECF6
:103F8E0020F00B6E0B500D6E0C6A0E500C100E6E58
:103F9E000F500D100F6ED1EC21F00EC009F00FC0B6
:103FAE000AF01200000E3B1A000E3C1A000E3D1ACB
:103FBE00800E3E1A37C005F038C006F039C007F043
:103FCE003AC008F03BC009F03CC00AF03DC00BF00F
:103FDE003EC00CF04AEC0FF005C037F006C038F0CA
:103FEE0007C039F008C03AF01200000E146E000E31
:103FFE00136E0DEF20F012C005F0066A10C007F028
:10400E0011C008F0EAEC1CF0134A142A13500E24C7
:10401E00D96E14500F20DA6EDF50126E1250D8A4E3
:10402E001BEF20F01DEF20F002EF20F01200859420
:10403E00839E879C85987D947B9E7F9C7D98BD50AA
:10404E008F0B4009BD6EE00EBE16BF50F00B01097E
:10405E00BF6E630EBC6EBD8E0A0E0E01746F0B0E1C
:10406E00696F000EA36E000EA06EA48EA18E1200BC
:10407E00076E59EC21F00E01DA8759EC21F0D5CEFE
:10408E0008F059EC21F00750D8B450EF20F054EF5F
:10409E0020F0066A062A55EF20F0066A063A064612
:1040AE000E01DA510618DF0B0618DA6FDA8908509E
:1040BE00120018BE6DEF20F0185006E11704D8B0AC
:1040CE006BEF20F06DEF20F07BEF20F017C019F0B2
:1040DE0018C01AF0191E1A1E194A1A2A19C017F0FA
:1040EE001AC018F07FEF20F017C017F018C018F0A4
:1040FE001200D00E076EFF0E086E05C009F006C046
:10410E000AF00750092608500A220A500AE10A0E40
:10411E00095CD8A095EF20F098EF20F0010E99EFF2
:10412E0020F0000E056E066A12002F006E050703C2
:10413E0051097C061B0386068A0457026F0AC105C5
:10414E00E102250B6F0513037609DF033402B10874
:10415E00E30514038E0A760678032F00170012006B
:10416E0005C007F006C008F0BFEF20F0054A062A8A
:10417E0005C0D9FF06C0DAFFDF50D8A4C9EF20F082
:10418E00CBEF20F0BDEF20F00750055C056E085018
:10419E000658066E12001AEC21F0010E076E000E84
:1041AE0090EC21F03F0E096E550EE82EFED7092E2B
:1041BE00FCD700F0030E076E000E90EC21F0D50E2A
:1041CE00076E010E90EC21F01200F7EF20F006C002
:1041DE00D9FF07C0DAFFDF502FEC21F0064A072A7D
:1041EE0006C0D9FF07C0DAFFDF50D8A401EF21F0D7
:1041FE0003EF21F0EEEF20F012003B0E52640AEFB7
:10420E0021F00CEF21F00EEF21F0000E526E522A2B
:10421E005204016E026A600E0124D96E000E022055
:10422E00DA6EDF5012000E01D951F00B0809D96F6A
:10423E00D98B9F0ED66F848A848CA79BA79D1D0E4B
:10424E001D6F1E0E1C6F1C0E6F6F1B0E706F1200FB
:10425E00056E3B0E536436EF21F038EF21F03AEF46
:10426E0021F0000E536E600E5324D96EDA6A000EE2
:10427E00DA2205C0DFFF532A1200016E130E5564B9
:10428E004BEF21F04DEF21F04FEF21F0000E556E68
:10429E009C0E5524D96EDA6A000EDA2201C0DFFFB9
:1042AE00552A12000E01D8B55FEF21F061EF21F013
:1042BE0059EF21F0DACE05F01F0E0516D8A46AEFDD
:1042CE0021F06CEF21F059EF21F01200055007029A
:1042DE00F3CF09F0F4CF0AF005500802F3500A2686
:1042EE0006500702F3500A2609C005F00AC006F070
:1042FE001200120E0E01626F110E156F8382E99776
:10430E00E895330EE56F000EE66FE789E88BE78FD1
:10431E001200086ED6EC21F0520EC5EC21F00850BA
:10432E008009C5EC21F00750C5EC21F0D1EC21F04D
:10433E001200ADEC21F00009D8B4A8EF21F0AAEFDD
:10434E0021F0ACEF21F00E012D85120052505318C2
:10435E00D8A4B4EF21F0B7EF21F0010EB8EF21F0A1
:10436E00000E120052505318D8A4C0EF21F0C3EF24
:10437E0021F0010EC4EF21F0000E1200066E59EC72
:10438E0021F006C0D5FE1200F28C0E012D872D9560
:10439E00F28E120059EC21F00E01DA85120059EC62
:1043AE0021F00E01DA81120059EC21F00E01DA83B0
:0443BE0012001200D7
:020000040020DA
:10000000FF0FFF0FFF0FFF0FFF0FFF0FFF0FFF0F80
:020000040030CA
:0C000000AAFFFFFF9FFFFFFFFFFFFFFFB5
:00000001FF
