:040000003BEF00F0E2
:100008005682D9CF03F0DACF04F00E0137A70FEFED
:1000180000F011EF00F014EF00F0E35195EC20F040
:100028000E0137A51AEF00F01CEF00F035EF00F0D5
:100038002DA521EF00F023EF00F035EF00F00AECDA
:1000480021F0E806D8A42BEF00F02DEF00F033EFF5
:1000580000F055EC20F00E01E46F35EF00F00E01D2
:100068002D9504C0DAFF03C0D9FF56921100D7EFCF
:020078001DF079
:100E0000006042A20D20436F6C6F75723A2025641A
:100E1000200020423A2025642E2530336420002013
:100E2000473A2025642E25303364200020523A2092
:100E300025642E25303364200000000E3E6E090E1E
:100E40003D6E20EE02F03750D9263850DA22DECF40
:100E500039F0DDCF3AF039C00BF03AC00CF00D6A32
:100E60000E6A000E42EC18F00BC01EF00CC01FF012
:100E70000DC020F00EC021F037C0D9FF38C0DAFF16
:100E8000DECF3BF0DDCF3CF03BC00BF03CC00CF0C4
:100E90000D6A0E6A000E42EC18F00BC022F00CC076
:100EA00023F00DC024F00EC025F035EC13F01EC069
:100EB0003FF01FC040F020C041F021C042F020EEC2
:100EC00004F03750D9263850DA22DECF39F0DDCFA2
:100ED0003AF039C00BF03AC00CF00D6A0E6A000E01
:100EE00042EC18F00BC01EF00CC01FF00DC020F03B
:100EF0000EC021F037C0D9FF38C0DAFFDECF3BF09B
:100F0000DDCF3CF03BC00BF03CC00CF00D6A0E6A2C
:100F1000000E42EC18F00BC022F00CC023F00DC004
:100F200024F00EC025F035EC13F01EC043F01FC0B6
:100F300044F020C045F021C046F020EE06F03750C6
:100F4000D9263850DA22DECF39F0DDCF3AF039C079
:100F50000BF03AC00CF00D6A0E6A000E42EC18F06D
:100F60000BC01EF00CC01FF00DC020F00EC021F011
:100F700037C0D9FF38C0DAFFDECF3BF0DDCF3CF021
:100F80003BC00BF03CC00CF00D6A0E6A000E42EC48
:100F900018F00BC022F00CC023F00DC024F00EC0DE
:100FA00025F035EC13F01EC047F01FC048F020C0FC
:100FB00049F021C04AF03FC011F040C012F041C0DA
:100FC00013F042C014F0330E156E330E166E330E4E
:100FD000176E3F0E186ECD0E196ECC0E1A6E4C0E9B
:100FE0001B6E3F0E1C6E31EC1DF011041210D8A4C4
:100FF000FCEF07F0FEEF07F048EF08F043C011F0F8
:1010000044C012F045C013F046C014F0EC0E156E4B
:10101000510E166E380E176E3E0E186E3D0E196E7E
:101020000A0E1A6E570E1B6E3E0E1C6E31EC1DF032
:1010300011041210D8A41FEF08F021EF08F048EFB8
:1010400008F047C011F048C012F049C013F04AC080
:1010500014F0EC0E156E510E166E380E176E3E0E15
:10106000186EA80E196EC60E1A6E4B0E1B6E3E0E33
:101070001C6E31EC1DF011041210D8A442EF08F0E0
:1010800044EF08F048EF08F0000E3E6E000E3D6E93
:101090003FC011F040C012F041C013F042C014F044
:1010A000660E156E660E166EE60E176E3E0E186E06
:1010B000480E196EE10E1A6EFA0E1B6E3E0E1C6E75
:1010C00031EC1DF011041210D8A469EF08F06BEF99
:1010D00008F0B5EF08F043C011F044C012F045C06D
:1010E00013F046C014F0C30E156EF50E166EA80E62
:1010F000176E3E0E186E480E196EE10E1A6EBA0E7D
:101100001B6E3E0E1C6E31EC1DF011041210D8A4A3
:101110008CEF08F08EEF08F0B5EF08F047C011F043
:1011200048C012F049C013F04AC014F0AE0E156E5C
:10113000470E166E610E176E3E0E186E8F0E196EEC
:10114000C20E1A6E750E1B6E3E0E1C6E31EC1DF03B
:1011500011041210D8A4AFEF08F0B1EF08F0B5EF0A
:1011600008F0000E3E6E010E3D6E3FC011F040C013
:1011700012F041C013F042C014F0850E156EEB0E54
:10118000166ED10E176E3E0E186E1F0E196E850E5E
:101190001A6EEB0E1B6E3E0E1C6E31EC1DF0110430
:1011A0001210D8A4D6EF08F0D8EF08F022EF09F01B
:1011B00043C011F044C012F045C013F046C014F013
:1011C000890E156E410E166EA00E176E3E0E186E2D
:1011D0001F0E196E850E1A6EAB0E1B6E3E0E1C6E28
:1011E00031EC1DF011041210D8A4F9EF08F0FBEF58
:1011F00008F022EF09F047C011F048C012F049C0D2
:1012000013F04AC014F0710E156E3D0E166E8A0E64
:10121000176E3E0E186E3D0E196E0A0E1A6E970E60
:101220001B6E3E0E1C6E31EC1DF011041210D8A482
:101230001CEF09F01EEF09F022EF09F0000E3E6EE0
:10124000020E3D6E3FC011F040C012F041C013F0DD
:1012500042C014F0F60E156E280E166E1C0E176E98
:101260003F0E186E000E196E000E1A6E200E1B6EC9
:101270003F0E1C6E31EC1DF011041210D8A443EF88
:1012800009F045EF09F08FEF09F043C011F044C0B9
:1012900012F045C013F046C014F0140E156EAE0ED9
:1012A000166E870E176E3E0E186E170E196ED90E3B
:1012B0001A6E8E0E1B6E3E0E1C6E31EC1DF011046C
:1012C0001210D8A466EF09F068EF09F08FEF09F06B
:1012D00047C011F048C012F049C013F04AC014F0E2
:1012E0000A0E156ED70E166E230E176E3E0E186E72
:1012F000580E196E390E1A6E340E1B6E3E0E1C6E91
:1013000031EC1DF011041210D8A489EF09F08BEF15
:1013100009F08FEF09F0000E3E6E030E3D6E3FC0E8
:1013200011F040C012F041C013F042C014F0000EA2
:10133000156E000E166E200E176E3F0E186E420EC2
:10134000196E600E1A6E250E1B6E3F0E1C6E31EC70
:101350001DF011041210D8A4B0EF09F0B2EF09F09B
:10136000FCEF09F043C011F044C012F045C013F087
:1013700046C014F01F0E156E850E166E6B0E176E9E
:101380003E0E186E8F0E196EC20E1A6E750E1B6E03
:101390003E0E1C6E31EC1DF011041210D8A4D3EFD8
:1013A00009F0D5EF09F0FCEF09F047C011F048C093
:1013B00012F049C013F04AC014F0CD0E156ECC0ED9
:1013C000166E4C0E176E3E0E186E190E196E040E28
:1013D0001A6E560E1B6E3E0E1C6E31EC1DF0110483
:1013E0001210D8A4F6EF09F0F8EF09F0FCEF09F0BD
:1013F000000E3E6E040E3D6E3FC011F040C012F074
:1014000041C013F042C014F03D0E156E0A0E166E68
:10141000370E176E3F0E186EAE0E196E470E1A6E0F
:10142000410E1B6E3F0E1C6E31EC1DF011041210AC
:10143000D8A41DEF0AF01FEF0AF069EF0AF043C0CD
:1014400011F044C012F045C013F046C014F0A40ED1
:10145000156E700E166E3D0E176E3E0E186EF60E61
:10146000196E280E1A6E5C0E1B6E3E0E1C6E31EC51
:101470001DF011041210D8A440EF0AF042EF0AF058
:1014800069EF0AF047C011F048C012F049C013F0EC
:101490004AC014F0C50E156E200E166E300E176E73
:1014A0003E0E186E100E196E580E1A6E390E1B6E07
:1014B0003E0E1C6E31EC1DF011041210D8A463EF27
:1014C0000AF065EF0AF069EF0AF0000E3E6E050EB5
:1014D0003D6E3FC011F040C012F041C013F042C059
:1014E00014F0EC0E156E510E166EF80E176E3E0EC1
:1014F000186E120E196E830E1A6E000E1B6E3F0EC2
:101500001C6E31EC1DF011041210D8A48AEF0AF001
:101510008CEF0AF0D6EF0AF043C011F044C012F08D
:1015200045C013F046C014F0F60E156E280E166E68
:101530009C0E176E3E0E186EAE0E196E470E1A6E8A
:10154000A10E1B6E3E0E1C6E31EC1DF0110412102C
:10155000D8A4ADEF0AF0AFEF0AF0D6EF0AF047C01B
:1015600011F048C012F049C013F04AC014F0480E00
:10157000156EE10E166E7A0E176E3E0E186E810E07
:10158000196E950E1A6E830E1B6E3E0E1C6E31EC9C
:101590001DF011041210D8A4D0EF0AF0D2EF0AF017
:1015A000D6EF0AF0000E3E6E060E3D6E3FC011F003
:1015B00040C012F041C013F042C014F01F0E156E6F
:1015C000850E166E0B0E176E3F0E186E7B0E196E83
:1015D000140E1A6E0E0E1B6E3F0E1C6E31EC1DF0BB
:1015E00011041210D8A4F7EF0AF0F9EF0AF043EF54
:1015F0000BF043C011F044C012F045C013F046C0D8
:1016000014F0290E156E5C0E166E8F0E176E3E0EC0
:10161000186E980E196E6E0E1A6E920E1B6E3E0E9E
:101620001C6E31EC1DF011041210D8A41AEF0BF04F
:101630001CEF0BF043EF0BF047C011F048C012F065
:1016400049C013F04AC014F0660E156E660E166E91
:10165000660E176E3E0E186E1F0E196E850E1A6EF0
:101660006B0E1B6E3E0E1C6E31EC1DF01104121041
:10167000D8A43DEF0BF03FEF0BF043EF0BF0000E63
:101680003E6E070E3D6E3FC011F040C012F041C0EB
:1016900013F042C014F0BA0E156E490E166E0C0E01
:1016A000176E3F0E186E290E196E5C0E1A6E0F0E15
:1016B0001B6E3F0E1C6E31EC1DF011041210D8A4ED
:1016C00064EF0BF066EF0BF0B0EF0BF043C011F0DE
:1016D00044C012F045C013F046C014F0140E156E4D
:1016E000AE0E166E870E176E3E0E186E170E196E22
:1016F000D90E1A6E8E0E1B6E3E0E1C6E31EC1DF056
:1017000011041210D8A487EF0BF089EF0BF0B0EFA3
:101710000BF047C011F048C012F049C013F04AC0A6
:1017200014F0170E156ED90E166E4E0E176E3E0E75
:10173000186E870E196E160E1A6E590E1B6E3E0E1F
:101740001C6E31EC1DF011041210D8A4AAEF0BF09E
:10175000ACEF0BF0B0EF0BF0000E3E6E080E3D6EDE
:101760003DC037F03EC038F01200000E066E630E2A
:10177000056E90EC1FF023EC20F0D1EC20F01CEC77
:1017800021F086840E01B495000E02016A6F010EED
:101790006B6FA30E6C6F0F0E6D6F7D0E6E6F0F0E65
:1017A0006F6F040E706F000E726F630E716F000E1C
:1017B000736F010E746FA00E756F0F0E766F7F0E34
:1017C000776F0F0E786F060E796F000E7B6F630ECA
:1017D0007A6F000E7D6F000E7C6F000E7F6F000E23
:1017E0007E6F000E816F000E806F000E836F000E03
:1017F000826F7F928792799881987E9E869E849E42
:101800007C9E7F8279887E8E7C0E106E020E116E19
:1018100009EC1EF07C0E376E020E386E1DEC07F0E0
:1018200037C050F238C051F27EC20BF07FC20CF0CC
:101830000D6A0E6A000E42EC18F00BC01EF00CC0D0
:101840001FF00DC020F00EC021F07CC20BF07DC255
:101850000CF00D6A0E6A000E42EC18F00BC022F07C
:101860000CC023F00DC024F00EC025F035EC13F0B1
:101870001EC058F21FC059F220C05AF221C05BF2BC
:1018800080C20BF081C20CF00D6A0E6A000E42ECB1
:1018900018F00BC01EF00CC01FF00DC020F00EC0E1
:1018A00021F07CC20BF07DC20CF00D6A0E6A000EB6
:1018B00042EC18F00BC022F00CC023F00DC024F055
:1018C0000EC025F035EC13F01EC05CF21FC05DF2B7
:1018D00020C05EF221C05FF282C20BF083C20CF026
:1018E0000D6A0E6A000E42EC18F00BC01EF00CC020
:1018F0001FF00DC020F00EC021F07CC20BF07DC2A5
:101900000CF00D6A0E6A000E42EC18F00BC022F0CB
:101910000CC023F00DC024F00EC025F035EC13F000
:101920001EC060F21FC061F220C062F221C063F2EB
:10193000050E516E0F0E506EF10EE82EFED7502E92
:10194000FCD7512EFAD700F0000E226E000E236E47
:10195000800E246E3F0E256E58C21EF059C21FF035
:101960005AC220F05BC221F035EC13F01EC03FF0EC
:101970001FC040F020C041F021C042F064EC1BF0D9
:101980003FC064F240C065F2030E086EE80E076EB9
:1019900064C205F065C206F0BEEC20F005C00BF095
:1019A00006C00CF00D6A0E6A000E42EC18F00BC077
:1019B0003BF00CC03CF00DC03DF00EC03EF0000E00
:1019C000226E000E236E800E246E3F0E256E000EDA
:1019D000096E000E0A6E7A0E0B6E440E0C6E58C223
:1019E00005F059C206F05AC207F05BC208F020ECBD
:1019F00011F005C01EF006C01FF007C020F008C09F
:101A000021F035EC13F01EC037F01FC038F020C0B5
:101A100039F021C03AF02AEC1FF037C03FF038C04F
:101A200040F039C041F03AC042F064EC1BF03FC0D6
:101A300052F240C053F2140E0001726F020E736F27
:101A40002C0E746F0E0E756F64C276F065C277F05F
:101A500052C278F053C279F038EC1EF0140E066EC4
:101A6000020E076E3DEC20F0F1EC20F0050E516EF9
:101A70000F0E506EF10EE82EFED7502EFCD7512ED1
:101A8000FAD700F0000E226E000E236E800E246E38
:101A90003F0E256E5CC21EF05DC21FF05EC220F0DC
:101AA0005FC221F035EC13F01EC03FF01FC040F0C4
:101AB00020C041F021C042F064EC1BF03FC066F250
:101AC00040C067F2030E086EE80E076E66C205F0AE
:101AD00067C206F0BEEC20F005C00BF006C00CF0AB
:101AE0000D6A0E6A000E42EC18F00BC03BF00CC001
:101AF0003CF00DC03DF00EC03EF0000E226E000E18
:101B0000236E800E246E3F0E256E000E096E000EB1
:101B10000A6E7A0E0B6E440E0C6E5CC205F05DC24E
:101B200006F05EC207F05FC208F020EC11F005C0BD
:101B30001EF006C01FF007C020F008C021F035ECF1
:101B400013F01EC037F01FC038F020C039F021C09C
:101B50003AF02AEC1FF037C03FF038C040F039C0EF
:101B600041F03AC042F064EC1BF03FC054F240C078
:101B700055F2280E0001726F020E736F1F0E746F04
:101B80000E0E756F66C276F067C277F054C278F0B9
:101B900055C279F038EC1EF0280E066E020E076E64
:101BA0003DEC20F0F1EC20F0050E516E0F0E506E62
:101BB000F10EE82EFED7502EFCD7512EFAD700F0AA
:101BC000000E226E000E236E800E246E3F0E256ED8
:101BD00060C21EF061C21FF062C220F063C221F039
:101BE00035EC13F01EC03FF01FC040F020C041F0A4
:101BF00021C042F064EC1BF03FC068F240C069F2C3
:101C0000030E086EE80E076E68C205F069C206F0A2
:101C1000BEEC20F005C00BF006C00CF00D6A0E6A99
:101C2000000E42EC18F00BC03BF00CC03CF00DC0B5
:101C30003DF00EC03EF0000E226E000E236E800EB0
:101C4000246E3F0E256E000E096E000E0A6E7A0E8F
:101C50000B6E440E0C6E60C205F061C206F062C2EB
:101C600007F063C208F020EC11F005C01EF006C0BA
:101C70001FF007C020F008C021F035EC13F01EC0A3
:101C800037F01FC038F020C039F021C03AF02AECFC
:101C90001FF037C03FF038C040F039C041F03AC0C3
:101CA00042F064EC1BF03FC056F240C057F23C0ECD
:101CB0000001726F020E736F120E746F0E0E756F4D
:101CC00068C276F069C277F056C278F057C279F0F0
:101CD00038EC1EF03C0E066E020E076E3DEC20F056
:101CE000F1EC20F0050E516E0F0E506EF10EE82E45
:101CF000FED7502EFCD7512EFAD700F0000E00016F
:101D0000726F020E736F050E746F0E0E756F50C2F8
:101D100076F051C277F038EC1EF0000E066E020E1F
:101D2000076E3DEC20F0F1EC20F0050E516E0F0E29
:101D3000506EF10EE82EFED7502EFCD7512EFAD75A
:101D400000F07F9279987E9E290E516E960E506E0D
:101D50007F0EE82EFED7502EFCD7512EFAD700F07A
:101D6000290E516E960E506E7F0EE82EFED7502E25
:101D7000FCD7512EFAD700F001EF0CF03BEF00F04A
:101D80000850800B116E08500824136E07AECBEF7D
:101D90000EF0CDEF0EF0CEEF0EF013801350D8B44E
:101DA000D4EF0EF0D6EF0EF0EBEF0EF01328D8A420
:101DB000DCEF0EF0DEEF0EF0E6EF0EF0000E056E3B
:101DC000000E066E000E076E000E086E078E000EE7
:101DD000086EF3EF0EF0000E056E000E066E000E9C
:101DE000076E000E086E0C50800B126E1150121808
:101DF000D8B4FDEF0EF0FFEF0EF000EF0FF0118CF6
:101E00000C500C24126E0BAE08EF0FF00AEF0FF01F
:101E10000BEF0FF012801250D8B411EF0FF013EF48
:101E20000FF028EF0FF01228D8A419EF0FF01BEFD6
:101E30000FF023EF0FF0000E096E000E0A6E000E79
:101E40000B6E000E0C6E0B8E000E0C6E30EF0FF052
:101E5000000E096E000E0A6E000E0B6E000E0C6E68
:101E60001350125CD8B037EF0FF039EF0FF060EF7E
:101E70000FF011AC3EEF0FF040EF0FF042EF0FF01C
:101E8000800E111A13C014F012C013F014C012F017
:101E900005C014F009C005F014C009F006C014F024
:101EA0000AC006F014C00AF007C014F00BC007F017
:101EB00014C00BF008C014F00CC008F014C00CF0F3
:101EC000000E146E135012C00DF00E6A0D5E000E5F
:101ED0000E5A0EBE75EF0FF00E5009E11A0E0D5C92
:101EE000D8A075EF0FF077EF0FF0AEEF0FF00550C1
:101EF000061007100810D8A480EF0FF083EF0FF042
:101F0000010E84EF0FF0000E146E000E056E000E31
:101F1000066E000E076E000E086E12C013F0B7EFCB
:101F20000FF014A096EF0FF098EF0FF09EEF0FF068
:101F3000D89014300109146EA0EF0FF0D89014322D
:101F400005A0A5EF0FF0A7EF0FF0A8EF0FF0148E8C
:101F500008340832073206320532132A1250135C55
:101F6000D8A0B5EF0FF0B7EF0FF091EF0FF011BC65
:101F7000BCEF0FF0BEEF0FF0FEEF0FF01350D8A440
:101F8000C4EF0FF0C6EF0FF0D0EF0FF0000E056EAC
:101F9000000E066E000E076E000E086E1FEF11F0A9
:101FA000095005260A5006220B5007220C50082221
:101FB00008A0DDEF0FF0DFEF0FF08BEF10F014A0B3
:101FC000E4EF0FF0E6EF0FF0ECEF0FF0D8901430E5
:101FD0000109146EEEEF0FF0D890143205A0F3EF64
:101FE0000FF0F5EF0FF0F6EF0FF0148E0834083213
:101FF000073206320532132A8BEF10F00950055CC8
:102000000A5006580B5007580850800A0D6E0C50A5
:10201000800A0D58D8B00FEF10F011EF10F03CEF20
:1020200010F00550095C0D6E06500A580E6E0750F0
:102030000B580F6E08500C58106EFF0E0D24056ED5
:10204000FF0E0E20066EFF0E0F20076EFF0E1020F3
:10205000086E800E111A146C1450D8A432EF10F0D0
:1020600034EF10F044EF10F0010E0526000E0622AA
:102070000722082244EF10F00950055E0A50065A64
:102080000B50075A0C50085A05500610071008103C
:10209000D8A44DEF10F04FEF10F084EF10F0145073
:1020A000D8A455EF10F057EF10F084EF10F0000EA9
:1020B000056E000E066E000E076E000E086E1FEF16
:1020C00011F0D890053606360736083614AE6BEF99
:1020D00010F06DEF10F06EEF10F0058014A073EFAC
:1020E00010F075EF10F079EF10F0D88014367BEF18
:1020F00010F0D89014361350D8B481EF10F083EF5D
:1021000010F084EF10F0130607AE89EF10F08BEF9C
:1021100010F061EF10F0000E126E14AE92EF10F09E
:1021200094EF10F0ACEF10F014C00DF07F0E0D1610
:10213000D8B49DEF10F09FEF10F0A3EF10F0010E58
:10214000126EACEF10F005A0A8EF10F0AAEF10F09F
:10215000ACEF10F09FEF10F01250D8B4B2EF10F0C7
:10216000B4EF10F0DFEF10F0010E0526000E06228E
:102170000722082208A0BFEF10F0C1EF10F0DFEF38
:1021800010F005C00DF006C00EF007C00FF008C03B
:1021900010F0103410320F320E320D320DC005F037
:1021A0000EC006F00FC007F010C008F01328D8B416
:1021B000DCEF10F0DEEF10F0DFEF10F0132A132841
:1021C000D8B4E5EF10F0E7EF10F0EFEF10F0135098
:1021D000D8A4EDEF10F0EFEF10F001EF11F0000ECA
:1021E000056E000E066E000E076E000E086E135090
:1021F000D8A4FDEF10F0FFEF10F001EF11F0000E8A
:10220000116E13A006EF11F008EF11F00BEF11F0B3
:10221000078E0CEF11F0079ED8901330086E11AEA8
:1022200014EF11F016EF11F017EF11F0088E05C042
:1022300005F006C006F007C007F008C008F012005D
:102240000850800B116E08500824176E07AE2BEF54
:1022500011F02DEF11F02EEF11F017801750D8B4B8
:1022600034EF11F036EF11F049EF11F01728D8A430
:102270003CEF11F03EEF11F046EF11F0000E056E4D
:10228000000E066E000E076E000E086E078E51EFF0
:1022900011F0000E056E000E066E000E076E000EA9
:1022A000086E0C50800B111A0C500C24126E0BAEE1
:1022B0005CEF11F05EEF11F05FEF11F01280125041
:1022C000D8B465EF11F067EF11F07AEF11F0122832
:1022D000D8A46DEF11F06FEF11F077EF11F0000E51
:1022E000096E000E0A6E000E0B6E000E0C6E0B8E49
:1022F00082EF11F0000E096E000E0A6E000E0B6EDA
:10230000000E0C6E1250D8B488EF11F08AEF11F065
:1023100092EF11F01750D8A490EF11F092EF11F056
:102320009CEF11F0000E056E000E066E000E076E9B
:10233000000E086E34EF13F00B500502F3CF1CF0C3
:10234000F4CF1DF01C50136E146A156A166A1D50E6
:10235000186E196A1A6A1B6A0A500602F3CF1CF03B
:10236000F4CF1DF01C501326000E14221522162245
:102370001D501826000E19221A221B22095007028E
:10238000F3CF1CF0F4CF1DF01C501326000E1422C6
:10239000152216221D501826000E19221A221B2261
:1023A00015C016F014C015F013C014F0136A0950CC
:1023B0000602F3CF1CF0F4CF1DF01C5013261D5065
:1023C0001422000E1522000E16220A500502F3CF29
:1023D0001CF0F4CF1DF01C5013261D501422000ECB
:1023E0001522000E162215C016F014C015F013C0E9
:1023F00014F0136A09500502F3CF1CF0F4CF1DF05E
:102400001C5013261D501422000E1522000E1622F9
:102410000B500602F3CF1CF0F4CF1DF01C50182611
:102420001D501922000E1A22000E1B220A5007020C
:10243000F3CF1CF0F4CF1DF01C5018261D501922AC
:10244000000E1A22000E1B220B500702F3CF1CF0C5
:10245000F4CF1DF01C500D6E1D500E6E0F6A106AE9
:102460000FC010F00EC00FF00DC00EF00D6A0D5031
:1024700018260E5019220F501A2210501B2213C07A
:102480000DF014C00EF015C00FF016C010F0190EAC
:102490004FEF12F0D89010320F320E320D32E82E7C
:1024A0004AEF12F00D5018260E5019220F501A2222
:1024B00010501B2215C016F014C015F013C014F0F4
:1024C000136A125017C00DF00E6A0D26000E0E2270
:1024D000820E0D241C6EFF0E0E201D6E85EF12F075
:1024E000D890183619361A361B3616AE7AEF12F017
:1024F0007CEF12F07DEF12F01880D890133614366E
:10250000153616361C06D8A01D061AAE8AEF12F034
:102510008CEF12F070EF12F0000E126E16AE93EF09
:1025200012F095EF12F0B9EF12F0FF0E13140D6ECA
:10253000FF0E14140E6EFF0E15140F6E7F0E161480
:10254000106E0D500E100F101010D8B4AAEF12F02C
:10255000ACEF12F0B0EF12F0010E126EB9EF12F004
:1025600018A0B5EF12F0B7EF12F0B9EF12F0ACEF20
:1025700012F01250D8B4BFEF12F0C1EF12F0E5EF35
:1025800012F0010E1826000E19221A221B221BA07F
:10259000CCEF12F0CEEF12F0E5EF12F018C00DF014
:1025A00019C00EF01AC00FF01BC010F0103410321A
:1025B0000F320E320D320DC018F00EC019F00FC0E0
:1025C0001AF010C01BF01C4A1D2A1DBEF0EF12F0BD
:1025D0001D5008E11C28D8A0F0EF12F0F2EF12F025
:1025E000FCEF12F0000E186E000E196E800E1A6EBF
:1025F0007F0E1B6E2AEF13F01DBE09EF13F01D5066
:1026000006E11C04D8B007EF13F009EF13F015EF43
:1026100013F0000E186E000E196E000E1A6E000EEA
:102620001B6E000E116E2AEF13F01CC017F0FF0E88
:102630001816FF0E19167F0E1A16000E1B1617A07D
:1026400024EF13F026EF13F027EF13F01A8ED89033
:1026500017301B6E11501B1218C005F019C006F080
:102660001AC007F01BC008F012002150800B2E6E1C
:1026700021502124356E20AE40EF13F042EF13F0CD
:1026800043EF13F035803550D8B449EF13F04BEFDA
:1026900013F060EF13F03528D8A451EF13F053EF87
:1026A00013F05BEF13F0000E1E6E000E1F6E000E97
:1026B000206E000E216E208E000E216E68EF13F04A
:1026C000000E1E6E000E1F6E000E206E000E216E9C
:1026D0002550800B2E1A25502524366E24AE73EF1C
:1026E00013F075EF13F076EF13F036803650D8B450
:1026F0007CEF13F07EEF13F093EF13F03628D8A49D
:1027000084EF13F086EF13F08EEF13F0000E226EBD
:10271000000E236E000E246E000E256E248E000E19
:10272000256E9BEF13F0000E226E000E236E000E3E
:10273000246E000E256E2250231024102510D8A4DC
:10274000A4EF13F0A6EF13F0BEEF13F0000E1E6E11
:10275000000E1F6E000E206E000E216E800E2012E5
:102760007F0E21122E5021121EC01EF01FC01FF01E
:1027700020C020F021C021F001EF15F03550D8A481
:10278000C4EF13F0C6EF13F0D0EF13F0000E1E6E7F
:10279000000E1F6E000E206E000E216E01EF15F070
:1027A000365035C026F0276A265E000E275A7F0E67
:1027B00026242F6E000E2720306E1EC02AF01FC068
:1027C0002BF020C02CF021C02DF0000E1E6E000E4C
:1027D0001F6E000E206E000E216E000E316E000E78
:1027E000326E000E336E000E346E000E366E31EF18
:1027F00014F03650D8B4FFEF13F001EF14F018EFD7
:1028000014F0D8902A362B362C362D36D8901E361A
:102810001F362036213634AE10EF14F012EF14F0CC
:1028200013EF14F01E80D8903136323633363436FA
:1028300022502A5C23502B5824502C5825502D58B8
:10284000D8A025EF14F027EF14F030EF14F0348CFB
:1028500022502A5E23502B5A24502C5A25502D5A90
:10286000362A190E366437EF14F039EF14F0F9EF09
:1028700013F02A502B102C102D10D8B442EF14F066
:1028800044EF14F05CEF14F031805CEF14F0D8905A
:102890001E361F362036213634AE51EF14F053EF7A
:1028A00014F054EF14F01E80D8903136323633369F
:1028B00034362F06D8A0300620AE61EF14F063EF57
:1028C00014F047EF14F0000E366E34AE6AEF14F0D9
:1028D0006CEF14F090EF14F0FF0E3114266EFF0E23
:1028E0003214276EFF0E3314286E7F0E3414296EB7
:1028F0002650271028102910D8B481EF14F083EF48
:1029000014F087EF14F0010E366E90EF14F01EA055
:102910008CEF14F08EEF14F090EF14F083EF14F0BE
:102920003650D8B496EF14F098EF14F0BCEF14F0D2
:10293000010E1E26000E1F222022212221A0A3EF1D
:1029400014F0A5EF14F0BCEF14F01EC026F01FC069
:1029500027F020C028F021C029F02934293228325C
:102960002732263226C01EF027C01FF028C020F0D4
:1029700029C021F02F4A302A30BEC7EF14F0305062
:1029800008E12F28D8A0C7EF14F0C9EF14F0D4EF56
:1029900014F0000E306E2F68000E1E6E000E1F6EBB
:1029A000000E206E000E216E30BEE1EF14F03050AC
:1029B00006E12F04D8B0DFEF14F0E1EF14F0EFEFF1
:1029C00014F0000E306E000E2F6E000E1E6E000E04
:1029D0001F6E000E206E000E216E000E2E6E2FC098
:1029E00035F035A0F6EF14F0F8EF14F0FBEF14F02B
:1029F000208EFCEF14F0209ED8903530216EB2EF7F
:102A000013F0120046C0D9FF47C0DAFFDECFF6FF51
:102A1000DDCFF7FF000EF86E0800F550250AD8A4A8
:102A200014EF15F016EF15F0AFEF16F046C0D9FF12
:102A300047C0DAFFDE2A000EDD22000E0101556FCD
:102A4000000E546F54C182F055C183F05669576926
:102A5000000E0001696F000E686F77EF15F082813C
:102A600046C0D9FF47C0DAFFDE2A000EDD2277EF2D
:102A700015F0828330EF15F0828530EF15F08287F4
:102A800030EF15F0828930EF15F0000E696F010EFE
:102A9000686F77EF15F046C0D9FF47C0DAFFDECF89
:102AA000F6FFDDCFF7FF000EF86E0800F5504A6E16
:102AB0004B6A4B50000AD8B460EF15F045EF15F0A3
:102AC0004A50200AD8B43FEF15F0030AD8B442EFB9
:102AD00015F0080AD8B43CEF15F0060AD8B42FEF69
:102AE00015F01D0AD8B439EF15F045EF15F068510F
:102AF0006911D8B47EEF15F080EF15F04BEF15F0AB
:102B000082A185EF15F087EF15F088EF15F082931D
:102B100046C0D9FF47C0DAFFDECFF6FFDDCFF7FFB3
:102B2000000EF86E0800F5502A0AD8A49AEF15F0A6
:102B30009CEF15F0C8EF15F046C0D9FF47C0DAFF8B
:102B4000DE2A000EDD2248C0D9FF49C0DAFFDFCF00
:102B50004AF0020EDE26DFCF4BF0000EDD224AC027
:102B6000D9FF4BC0DAFFDECF54F1DDCF55F10101C3
:102B700055BFBFEF15F0BDEF15F00EEF16F00001D9
:102B800082810101546D551FD8B0552B0EEF16F000
:102B900046C0D9FF47C0DAFFDECF0CF0DDCF0DF025
:102BA0001CEC19F00CC054F10DC055F1DFEF15F01D
:102BB00046C0D9FF47C0DAFFDE2A000EDD22D00E64
:102BC0004A6EFF0E4B6E46C0D9FF47C0DAFFDECF1C
:102BD000F6FFDDCFF7FF000EF86E0800F5504C6EE3
:102BE0004D6A4A504C264B504D224D500AE10A0E78
:102BF0004C5CD8A0FEEF15F001EF16F0010E02EFCD
:102C000016F0000E00016A6F6B6B6A516B11D8A44D
:102C10000CEF16F00EEF16F0D8EF15F046C0D9FF06
:102C200047C0DAFFDECFF6FFDDCFF7FF000EF86E0C
:102C30000800F550640AD8B420EF16F022EF16F021
:102C400036EF16F046C0D9FF47C0DAFFDECFF6FFF9
:102C5000DDCFF7FF000EF86E0800F550690AD8A422
:102C600034EF16F036EF16F077EF16F046C0D9FFC6
:102C700047C0DAFFDE2A000EDD2248C0D9FF49C076
:102C8000DAFFDFCF4AF0020EDE26DFCF4BF0000E78
:102C9000DD224AC0D9FF4BC0DAFFDECF60F0DDCFC6
:102CA00061F00001000E61BFFF0E626F636F646F21
:102CB000656F666F676F44C020F045C021F060C04B
:102CC00022F061C023F062C024F063C025F064C02C
:102CD00026F065C027F066C028F067C029F0CDEC6B
:102CE00016F020C044F021C045F0CCEF16F046C0ED
:102CF000D9FF47C0DAFFDECFF6FFDDCFF7FF000ECA
:102D0000F86E0800F550250AD8A489EF16F08BEF6D
:102D100016F0A2EF16F046C0D9FF47C0DAFFDE2A50
:102D2000000EDD22000E066E250E056E44C007F073
:102D300045C008F069EC1CF0000E456E010E446EB3
:102D4000CCEF16F046C0D9FF47C0DAFFDE2A000EEE
:102D5000DD22000E456E000E446ECCEF16F046C02C
:102D6000D9FF47C0DAFFDECFF6FFDDCFF7FF000E59
:102D7000F86E0800F550056E066A44C007F045C0BD
:102D800008F069EC1CF046C0D9FF47C0DAFFDE2A24
:102D9000000EDD229CEF16F0120022C03AF023C094
:102DA0003BF024C03CF025C03DF026C03EF027C0DB
:102DB0003FF028C040F029C041F041BEE2EF16F0DC
:102DC000E5EF16F0010EE6EF16F0000E386E396AE8
:102DD00038503910D8B4EFEF16F0F1EF16F001EFDC
:102DE00017F0411E401E3F1E3E1E3D1E3C1E3B1E58
:102DF0003A6C000E3B223C223D223E223F224022E2
:102E00004122010157BF07EF17F009EF17F00BEF51
:102E100017F000018293010157BF19EF17F05751C6
:102E200006E15605D8B017EF17F019EF17F01FEFAE
:102E300017F0000E356E010E346E23EF17F056C1F9
:102E400034F057C135F054C136F055C137F0385021
:102E50003910D8A42EEF17F030EF17F038EF17F035
:102E6000000182A536EF17F038EF17F03BEF17F0AF
:102E70003606D8A03706000E436E1F0E426E000EB7
:102E80000101776FC0EF17F04206D8A04306580E35
:102E90004224D96E010E4320DA6E3AC005F03BC0E1
:102EA00006F03CC007F03DC008F03EC009F03FC04E
:102EB0000AF040C00BF041C00CF00A0E0D6E000E7F
:102EC0000E6E000E0F6E000E106E000E116E000ED4
:102ED000126E000E136E000E146EB2EC1AF005C0E6
:102EE0002AF006C02BF007C02CF008C02DF009C056
:102EF0002EF00AC02FF00BC030F00CC031F02AC009
:102F000017F02CC018F0B1EC1FF01750300FDF6E27
:102F10003406D8A035063606D8A037063AC005F0E4
:102F20003BC006F03CC007F03DC008F03EC009F0D1
:102F30003FC00AF040C00BF041C00CF00A0E0D6E0D
:102F4000000E0E6E000E0F6E000E106E000E116E53
:102F5000000E126E000E136E000E146EEEEC19F0E1
:102F600005C03AF006C03BF007C03CF008C03DF099
:102F700009C03EF00AC03FF00BC040F00CC041F069
:102F800043BECBEF17F0435008E14204D8A0CBEF8B
:102F900017F0CDEF17F0FEEF17F03A503B103C1052
:102FA0003D103E103F1040104110D8A4DAEF17F04A
:102FB000DCEF17F044EF17F035BEE9EF17F03550AE
:102FC00006E13404D8B0E7EF17F0E9EF17F044EF6B
:102FD00017F037BEF4EF17F0375008E13604D8A0E9
:102FE000F4EF17F0F6EF17F0FEEF17F0000182B3E1
:102FF000FCEF17F0FEEF17F044EF17F038503910E0
:10300000D8A405EF18F007EF18F00FEF18F0000143
:1030100082A50DEF18F00FEF18F02DEF18F0420613
:10302000D8A0430638503910D8A419EF18F01BEF78
:1030300018F021EF18F0000E336E2B0E326E25EFD4
:1030400018F0000E336E2D0E326E580E4224D96EDB
:10305000010E4320DA6E32C0DFFF20C015F021C020
:1030600016F0580E4224176E010E4320186E36C01B
:1030700019F037C01AF0CEEC1CF015C020F016C0C5
:1030800021F01200136E1350D8B449EF18F04BEF33
:1030900018F06DEF18F00EBE52EF18F050EF18F068
:1030A0006DEF18F00BC00FF00CC010F00DC011F058
:1030B0000EC012F00F1E101E111E121E0F2A000E3F
:1030C0001022112212220FC015F010C016F011C0EC
:1030D00017F012C018F075EF18F00BC015F00CC007
:1030E00016F00DC017F00EC018F00B500C100D109C
:1030F0000E10D8A47EEF18F080EF18F08AEF18F0C9
:10310000000E0B6E000E0C6E000E0D6E000E0E6E9D
:103110001BEF19F0960E146E94EF18F0142AD89045
:103120001832173216321532000E15140F6E000EBB
:103130001614106E000E1714116EFE0E1814126E77
:103140000F50101011101210D8A4A9EF18F0ABEF07
:1031500018F08EEF18F0B9EF18F0142A010E1526AA
:10316000000E162217221822D89018321732163263
:103170001532000E15140F6E000E1614106E000E90
:103180001714116EFF0E1814126E0F50101011103C
:103190001210D8A4CEEF18F0D0EF18F0ADEF18F061
:1031A000D8EF18F01406D89015361636173618369C
:1031B00017BEDDEF18F0DFEF18F0E7EF18F0020EA2
:1031C0001460E5EF18F0E7EF18F0D2EF18F014B044
:1031D000ECEF18F0EEEF18F0EFEF18F0179ED89024
:1031E000143214C00FF0106A116A126A0FC012F084
:1031F000116A106A0F6A0F501512105016121150F2
:103200001712125018121350D8B409EF19F00BEF1F
:1032100019F013EF19F00EBE12EF19F010EF19F0BC
:1032200013EF19F0188E15C00BF016C00CF017C074
:103230000DF018C00EF01200000E1A6E000E196E7E
:10324000000E136E000E126E28EF19F00C4A0D2AB4
:10325000010E186E0CC0F6FF0DC0F7FF000EF86EE1
:103260000800F550200AD8B438EF19F03AEF19F0F9
:1032700059EF19F0F70E0E6EFF0E0F6E0CC0F6FF31
:103280000DC0F7FF000EF86E0800F550106E116AC1
:103290000E5010260F501122115009E1050E105C3E
:1032A000D8A055EF19F057EF19F059EF19F0000EAB
:1032B000186E18C014F0156A14501510D8A463EFD6
:1032C00019F065EF19F026EF19F06FEF19F0000E05
:1032D000136E010E126E0C4A0D2AA8EF19F00CC0E5
:1032E000F6FF0DC0F7FF000EF86E0800F5500E6EE9
:1032F0000F6A0F50000AD8B480EF19F0A8EF19F048
:103300000E502B0AD8B46BEF19F0060AD8B467EF49
:1033100019F0A8EF19F019C005F01AC006F0000E58
:10332000086E0A0E076EBEEC20F00CC0F6FF0DC052
:10333000F7FF000EF86E0800F550055E000E065A05
:10334000300E0524196E000E06201A6E6BEF19F070
:10335000D00E0E6EFF0E0F6E0CC0F6FF0DC0F7FF05
:10336000000EF86E0800F550106E116A0E5010260F
:103370000F50112211500AE10A0E105CD8A0C3EFC1
:1033800019F0C6EF19F0010EC7EF19F0000E166E16
:10339000176A16501710D8A4D0EF19F0D2EF19F011
:1033A0008BEF19F012501310D8A4D9EF19F0DBEFFE
:1033B00019F0E9EF19F019C00EF01AC00FF00E1E47
:1033C0000F1E0E4A0F2A0EC00CF00FC00DF0EDEFCD
:1033D00019F019C00CF01AC00DF01200000E166E94
:1033E00014BEF7EF19F0F5EF19F009EF1AF0141EFB
:1033F000131E121E111E101E0F1E0E1E0D6C000E2F
:103400000E220F2210221122122213221422010E48
:10341000166E0CBE10EF1AF00EEF1AF022EF1AF033
:103420000C1E0B1E0A1E091E081E071E061E056C1A
:10343000000E06220722082209220A220B220C2251
:10344000010E161A20EE17F0070EDE6AE806FDE2FE
:103450000D500E100F101010111012101310141028
:10346000D8B435EF1AF037EF1AF089EF1AF0010EE1
:10347000156E45EF1AF0D8900D360E360F36103611
:103480001136123613361436152A14AE4AEF1AF0D6
:103490004CEF1AF03BEF1AF0D89017361836193661
:1034A0001A361B361C361D361E360D50055C0E5066
:1034B00006580F500758105008581150095812500C
:1034C0000A5813500B5814500C58D8A06AEF1AF031
:1034D0006CEF1AF07DEF1AF00D50055E0E50065A93
:1034E0000F50075A1050085A1150095A12500A5AD0
:1034F00013500B5A14500C5A1780D89014321332B0
:103500001232113210320F320E320D32152E4CEFB4
:103510001AF01650D8B48FEF1AF091EF1AF0A1EF0D
:103520001AF01E1E1D1E1C1E1B1E1A1E191E181E02
:10353000176C000E182219221A221B221C221D228F
:103540001E2217C005F018C006F019C007F01AC0F7
:1035500008F01BC009F01CC00AF01DC00BF01EC013
:103560000CF01200000E166E0CBEBBEF1AF0B9EF95
:103570001AF0CDEF1AF00C1E0B1E0A1E091E081EB3
:10358000071E061E056C000E0622072208220922CD
:103590000A220B220C22010E166E14BED4EF1AF072
:1035A000D2EF1AF0E4EF1AF0141E131E121E111EB1
:1035B000101E0F1E0E1E0D6C000E0E220F2210226A
:1035C00011221222132214220D500E100F1010106F
:1035D0001110121013101410D8B4F1EF1AF0F3EF09
:1035E0001AF03BEF1BF0010E156E01EF1BF0D890A7
:1035F0000D360E360F361036113612361336143697
:10360000152A14AE06EF1BF008EF1BF0F7EF1AF0C7
:103610000D50055C0E5006580F50075810500858B2
:103620001150095812500A5813500B5814500C5886
:10363000D8A01DEF1BF01FEF1BF02FEF1BF00D505C
:10364000055E0E50065A0F50075A1050085A115076
:10365000095A12500A5A13500B5A14500C5AD89047
:10366000143213321232113210320F320E320D3246
:10367000152E08EF1BF01650D8B441EF1BF043EFA6
:103680001BF053EF1BF00C1E0B1E0A1E091E081E1A
:10369000071E061E056C000E0622072208220922BC
:1036A0000A220B220C2205C005F006C006F007C056
:1036B00007F008C008F009C009F00AC00AF00BC002
:1036C0000BF00CC00CF0120041344234486E4850EC
:1036D000D8A46DEF1BF06FEF1BF079EF1BF0000E1D
:1036E0003F6E000E406E000E416E000E426EE6EF21
:1036F0001BF03FC043F040C044F041C045F042C021
:1037000046F0200E89EF1BF0D89046324532443205
:103710004332E82E84EF1BF04350476E418EFF0E7C
:103720003F16FF0E4016FF0E4116000E4216960E73
:10373000485E48BEA0EF1BF09EEF1BF0B6EF1BF0FB
:103740004850800A970FD8B0A8EF1BF0AAEF1BF0E3
:10375000ACEF1BF06FEF1BF0D89042324132403299
:103760003F32483EACEF1BF0CEEF1BF01F0E48641B
:10377000BCEF1BF0BEEF1BF0C6EF1BF06FEF1BF0B2
:10378000D8903F3640364136423648064850D8A495
:10379000CCEF1BF0CEEF1BF0C0EF1BF04750D8B4BE
:1037A000D4EF1BF0D6EF1BF0DEEF1BF0421E411EE4
:1037B000401E3F6C000E4022412242223FC03FF09B
:1037C00040C040F041C041F042C042F01200000E43
:1037D00005140D6E000E06140E6E800E07140F6E8B
:1037E0007F0E0814106E0D500E100F101010D8A47C
:1037F000FCEF1BF0FEEF1BF006EF1CF0000E056E59
:10380000000E066E000E076E000E086E000E091404
:103810000D6E000E0A140E6E800E0B140F6E7F0ECE
:103820000C14106E0D500E100F101010D8A41BEFBA
:103830001CF01DEF1CF025EF1CF0000E096E000EB1
:103840000A6E000E0B6E000E0C6E08AE2AEF1CF016
:103850002CEF1CF035EF1CF0056C061ED8B0062AC4
:10386000071ED8B0072A800E08560CAE3AEF1CF09F
:103870003CEF1CF045EF1CF0096C0A1ED8B00A2A78
:103880000B1ED8B00B2A800E0C56000E051A000E27
:10389000061A000E071A800E081A000E091A000EEA
:1038A0000A1A000E0B1A800E0C1A0950055C0A50F9
:1038B00006580B5007580C500858D8B062EF1CF04F
:1038C00064EF1CF067EF1CF0D89068EF1CF0D88014
:1038D000120007500810D8B470EF1CF072EF1CF003
:1038E0007BEF1CF007500810D8A479EF1CF07BEF99
:1038F0001CF080EF1CF0055031EC21F0CDEF1CF0F6
:1039000020EE04F00750D9260850DA22DE50DE10EF
:10391000D8B48DEF1CF08FEF1CF0AAEF1CF020EE56
:1039200004F00750D9260850DA2210EE02F00750B2
:10393000E1260850E222DE50E65CE650800A0D6E79
:10394000DE50800A0D58D8B0A8EF1CF0AAEF1CF08A
:10395000CDEF1CF020EE02F00750D9260850DA22F5
:10396000DECF09F0DDCF0AF007C0D9FF08C0DAFFCB
:10397000DECF0BF0DDCF0CF009500B24D96E0A50CE
:103980000C20DA6E05C0DFFF20EE02F00750D926CA
:103990000850DA22DE2A000EDD221200000182A188
:1039A000D4EF1CF0D6EF1CF0E0EF1CF017C00EF0C7
:1039B00018C00FF015C010F016C011F04DEC1FF03C
:1039C0001ABEE5EF1CF0E7EF1CF0EDEF1CF019C09C
:1039D0001EF01AC01FF0F1EF1CF0000E1F6E000E5B
:1039E0001E6E000E1D6E000E1C6E03EF1DF0000E0D
:1039F000066E200E056E15C007F016C008F069ECC3
:103A00001CF01C4A1D2A1E501C5C1D50800A1B6E97
:103A10001F50800A1B58D8A010EF1DF012EF1DF0A8
:103A2000F7EF1CF0000182B118EF1DF01AEF1DF046
:103A300024EF1DF017C00EF018C00FF015C010F0E5
:103A400016C011F04DEC1FF017C005F018C006F0BD
:103A500008EC20F01E500524156E1F500620166E2F
:103A6000120011C005F012C006F013C007F014C018
:103A700008F015C009F016C00AF017C00BF018C006
:103A80000CF0E7EC1BF0D8A048EF1DF04AEF1DF05A
:103A900069EF1DF019C005F01AC006F01BC007F051
:103AA0001CC008F011C009F012C00AF013C00BF0DE
:103AB00014C00CF0E7EC1BF0D8A061EF1DF063EF31
:103AC0001DF069EF1DF0000E126E010E116E6DEF0C
:103AD0001DF0000E126E000E116E120091099E0074
:103AE0002C01C906A800EB009C069300EF00F0092A
:103AF000FA004E016E09ED00F800F909B1003C0131
:103B0000AD08E9004F01100A1601870132037E015A
:103B1000C1002F006E05070351097C061B038606B2
:103B20008A0457026F0AC105E102250B6F051303D2
:103B30007609DF033402B108E30514038E0A760622
:103B400078032F00170012006EC04EF06FC04FF0C8
:103B5000000E0101536F000E526FC2EF1DF06CC0DA
:103B600044F06DC045F04E0E466E000E476E70C0BC
:103B700048F071C049F002EC15F0445001015227A1
:103B8000455053234EC0F6FF4FC0F7FF000EF86EAE
:103B90000800F5500009D8A4D0EF1DF0D2EF1DF0B9
:103BA000AFEF1DF052C16CF053C16DF01200DA0E90
:103BB000F66E3F0EF76E000EF86E02EE84F010EE19
:103BC00036F00900F5CFEEFFE550E150FAE1DC0EEA
:103BD000F66E3A0EF76E000EF86E01EE78F010EE0B
:103BE0006CF00900F5CFEEFFE550E150FAE101EE8F
:103BF00000F0780EEE6AE806FDE10001836B826B4F
:103C0000556A546A536A526A569056920001B5EF4B
:103C10000BF0DAEC1EF010C0D9FF11C0DAFF09C0BA
:103C2000DEFF0AC0DDFF8AEC1EF020EE02F010502D
:103C3000D9261150DA2209C0DEFF0AC0DDFFB2EC3E
:103C40001EF020EE04F01050D9261150DA2209C0DF
:103C5000DEFF0AC0DDFF02EC1FF020EE06F0105080
:103C6000D9261150DA2209C0DEFF0AC0DDFF12009A
:103C7000760E00017A6F000E7B6F72C07CF073C00D
:103C80007DF0000E7F6F000E7E6F000E816F000EC4
:103C9000806F7C0E6C6F000E6D6F74C06EF075C01F
:103CA0006FF07A0E706F000E716FA4EC1DF00001C2
:103CB0007E517225D96E7F517321DA6E000EDF6E50
:103CC0001200010E0B6E200E05180610D8B46BEF13
:103CD0001EF06DEF1EF086EF1EF0F70E076EFF0E62
:103CE000086E05C009F006C00AF007500926085002
:103CF0000A220A5009E1050E095CD8A082EF1EF0E5
:103D000084EF1EF086EF1EF0000E0B6E0BC005F068
:103D1000066A12002CEC21F0520E16EC21F0B60EC1
:103D200016EC21F022EC21F0530E16EC21F0010EDE
:103D30006FEC1FF00B6E0B500E6E0F6A000E6FECE7
:103D40001FF00B6E0B500D6E0C6A0E500C100E6EA9
:103D50000F500D100F6E27EC21F00EC009F00FC0B0
:103D60000AF012002CEC21F0520E16EC21F0B80EE5
:103D700016EC21F022EC21F0530E16EC21F0010E8E
:103D80006FEC1FF00B6E0B500E6E0F6A000E6FEC97
:103D90001FF00B6E0B500D6E0C6A0E500C100E6E59
:103DA0000F500D100F6E27EC21F00EC009F00FC060
:103DB0000AF012002CEC21F0520E16EC21F0B40E99
:103DC00016EC21F022EC21F0530E16EC21F0010E3E
:103DD0006FEC1FF00B6E0B500E6E0F6A000E6FEC47
:103DE0001FF00B6E0B500D6E0C6A0E500C100E6E09
:103DF0000F500D100F6E27EC21F00EC009F00FC010
:103E00000AF012002CEC21F0520E16EC21F0BA0E42
:103E100016EC21F022EC21F0530E16EC21F0010EED
:103E20006FEC1FF00B6E0B500E6E0F6A000E6FECF6
:103E30001FF00B6E0B500D6E0C6A0E500C100E6EB8
:103E40000F500D100F6E27EC21F00EC009F00FC0BF
:103E50000AF01200000E3B1A000E3C1A000E3D1A2A
:103E6000800E3E1A37C005F038C006F039C007F0A2
:103E70003AC008F03BC009F03CC00AF03DC00BF06E
:103E80003EC00CF0C0EC0EF005C037F006C038F0B4
:103E900007C039F008C03AF01200000E146E000E90
:103EA000136E5EEF1FF012C005F0066A10C007F037
:103EB00011C008F069EC1CF0134A142A13500E24A8
:103EC000D96E14500F20DA6EDF50126E1250D8A443
:103ED0006CEF1FF06EEF1FF053EF1FF01200076E34
:103EE000AAEC20F00E01DA87AAEC20F0D5CE08F07B
:103EF000AAEC20F00750D8B480EF1FF084EF1FF039
:103F0000066A062A85EF1FF0066A063A06460E0183
:103F1000DA510618DF0B0618DA6FDA89085012003A
:103F20008594839E879C85987D947B9E7F9C7D98BD
:103F3000BD508F0B4009BD6EE00EBE16BF50F00B9A
:103F40000109BF6E630EBC6EBD8E0A0E0E01746F4A
:103F50000B0E696F000EA36E000EA06EA48EA18ED4
:103F6000120018BEBEEF1FF0185006E11704D8B0BB
:103F7000BCEF1FF0BEEF1FF0CCEF1FF017C019F021
:103F800018C01AF0191E1A1E194A1A2A19C017F059
:103F90001AC018F0D0EF1FF017C017F018C018F0B3
:103FA0001200D00E076EFF0E086E05C009F006C0A5
:103FB0000AF00750092608500A220A500AE10A0EA0
:103FC000095CD8A0E6EF1FF0E9EF1FF0010EEAEF61
:103FD0001FF0000E056E066A12009F01850358014E
:103FE0002B016904AA0100015304AE010302670515
:103FF000F501DB01CA04E101BD01E50379019F017F
:1040000089052F0217022C0679029904F400B700E3
:1040100005C007F006C008F010EF20F0054A062A98
:1040200005C0D9FF06C0DAFFDF50D8A41AEF20F090
:104030001CEF20F00EEF20F00750055C056E0850D5
:104040000658066E12006BEC20F0010E076E000E93
:10405000E1EC20F03F0E096E550EE82EFED7092E3A
:10406000FCD700F0030E076E000EE1EC20F0D50E39
:10407000076E010EE1EC20F0120048EF20F006C0C0
:10408000D9FF07C0DAFFDF5080EC20F0064A072A8C
:1040900006C0D9FF07C0DAFFDF50D8A452EF20F0E6
:1040A00054EF20F03FEF20F012003B0E52645BEF24
:1040B00020F05DEF20F05FEF20F0000E526E522AEC
:1040C0005204016E026A000E0124D96E010E022014
:1040D000DA6EDF5012000E01D951F00B0809D96FCA
:1040E000D98B9F0ED66F848A848CA79BA79D1D0EAB
:1040F0001D6F1E0E1C6F1C0E6F6F1B0E706F12005B
:10410000056E3B0E536487EF20F089EF20F08BEFB4
:1041100020F0000E536E000E5324D96EDA6A010EA1
:10412000DA2205C0DFFF532A1200016E130E556418
:104130009CEF20F09EEF20F0A0EF20F0000E556ED7
:104140003C0E5524D96EDA6A010EDA2201C0DFFF77
:10415000552A12000E01D8B5B0EF20F0B2EF20F0D2
:10416000AAEF20F0DACE05F01F0E0516D8A4BBEF9B
:1041700020F0BDEF20F0AAEF20F01200055007025A
:10418000F3CF09F0F4CF0AF005500802F3500A26E5
:1041900006500702F3500A2609C005F00AC006F0CF
:1041A0001200120E0E01626F110E156F8382E997D5
:1041B000E895330EE56F000EE66FE789E88BE78F31
:1041C0001200086E2CEC21F0520E16EC21F0085073
:1041D000800916EC21F0075016EC21F027EC21F0B5
:1041E0001200FEEC20F00009D8B4F9EF20F0FBEF4C
:1041F00020F0FDEF20F00E012D85120052505318D3
:10420000D8A405EF21F008EF21F0010E09EF21F00D
:10421000000E120052505318D8A411EF21F014EFE1
:1042200021F0010E15EF21F0000E1200066EAAEC2F
:1042300020F006C0D5FE1200F28C0E012D872D95C0
:10424000F28E1200AAEC20F00E01DA831200AAEC22
:1042500020F00E01DA851200AAEC20F00E01DA81BE
:044260001200120036
:020000040020DA
:10000000FF0FFF0FFF0FFF0FFF0FFF0FFF0FFF0F80
:020000040030CA
:0C000000AAFFFFFF9FFFFFFFFFFFFFFFB5
:00000001FF
