:0400000014EF00F009
:100008005F820E0133AB0BEF00F00DEF00F012EF43
:1000180000F0000ED46E000ED36E339B5F92110079
:10002800AFEF1BF0000E0001736F090E726F590ECF
:100038002C6E170E2D6E370E2E6E3F0E2F6E20EE85
:1000480010F05B50D9265C50DA22DECF60F0DDCFAD
:1000580061F060C001F061C002F0036A046A000E3A
:10006800DBEC12F001C028F002C029F003C02AF02E
:1000780004C02BF02BEC0CF028C045F029C046F04A
:100088002AC047F02BC048F0D00E2C6EB30E2D6E50
:10009800590E2E6E3E0E2F6E20EE0EF05B50D926B6
:1000A8005C50DA22DECF62F0DDCF63F062C001F08F
:1000B80063C002F0036A046A000EDBEC12F001C0B0
:1000C80028F002C029F003C02AF004C02BF02BEC62
:1000D8000CF028C041F029C042F02AC043F02BC0E0
:1000E80044F0CBEC09F041C068F042C069F043C06D
:1000F8006AF044C06BF0980E2C6EDD0E2D6E930ED8
:100108002E6E3D0E2F6E20EE12F05B50D9265C50FD
:10011800DA22DECF60F0DDCF61F060C001F061C0AF
:1001280002F0036A046A000EDBEC12F001C028F04A
:1001380002C029F003C02AF004C02BF02BEC0CF00D
:1001480028C045F029C046F02AC047F02BC048F027
:1001580068C041F069C042F06AC043F06BC044F027
:10016800CBEC09F041C051F042C052F043C053F00B
:1001780044C054F0CFEC16F051C074F052C075F082
:10018800000E2C6E400E2D6E1C0E2E6E460E2F6E1F
:100198005BC0D9FF5CC0DAFFDECF60F0DDCF61F075
:1001A80020EE06F05B50D9265C50DA22DECF62F0F2
:1001B800DDCF63F000016051625F6151635B62C033
:1001C80001F063C002F0036A046A000EDBEC12F06F
:1001D80001C013F002C014F003C015F004C016F0FB
:1001E8005BC0D9FF5CC0DAFFDECF64F0DDCF65F01D
:1001F80020EE0EF05B50D9265C50DA22DECF66F096
:10020800DDCF67F000016451665F6551675B66C0CA
:1002180001F067C002F0036A046A000EDBEC12F01A
:1002280001C00FF002C010F003C011F004C012F0BA
:1002380024EC10F00FC028F010C029F011C02AF0EB
:1002480012C02BF02BEC0CF028C051F029C052F052
:100258002AC053F02BC054F0CFEC16F051C06CF00C
:1002680052C06DF0000E2C6E400E2D6E1C0E2E6EC0
:10027800460E2F6E20EE02F05B50D9265C50DA2233
:10028800DECF60F0DDCF61F020EE08F05B50D926BC
:100298005C50DA22DECF62F0DDCF63F000016051FE
:1002A800625F6151635B62C001F063C002F0036A80
:1002B800046A000EDBEC12F001C013F002C014F067
:1002C80003C015F004C016F020EE02F05B50D926EA
:1002D8005C50DA22DECF64F0DDCF65F020EE10F05E
:1002E8005B50D9265C50DA22DECF66F0DDCF67F0AE
:1002F80000016451665F6551675B66C001F067C0C5
:1003080002F0036A046A000EDBEC12F001C00FF081
:1003180002C010F003C011F004C012F024EC10F079
:100328000FC028F010C029F011C02AF012C02BF01D
:100338002BEC0CF028C051F029C052F02AC053F021
:100348002BC054F0CFEC16F051C06EF052C06FF0D5
:10035800000E2C6E400E2D6E1C0E2E6E460E2F6E4D
:1003680020EE04F05B50D9265C50DA22DECF60F034
:10037800DDCF61F020EE0AF05B50D9265C50DA221E
:10038800DECF62F0DDCF63F000016051625F615142
:10039800635B62C001F063C002F0036A046A000E86
:1003A800DBEC12F001C013F002C014F003C015F02A
:1003B80004C016F020EE04F05B50D9265C50DA2217
:1003C800DECF64F0DDCF65F020EE12F05B50D92669
:1003D8005C50DA22DECF66F0DDCF67F000016451B1
:1003E800665F6551675B66C001F067C002F0036A2B
:1003F800046A000EDBEC12F001C00FF002C010F02E
:1004080003C011F004C012F024EC10F00FC028F063
:1004180010C029F011C02AF012C02BF02BEC0CF000
:1004280028C051F029C052F02AC053F02BC054F014
:10043800CFEC16F051C070F052C071F06CC001F0F2
:100448006DC002F0036A046A000EDBEC12F001C012
:100458000FF002C010F003C011F004C012F06EC01B
:1004680001F06FC002F0036A046A000EDBEC12F0C0
:1004780001C013F002C014F003C015F004C016F058
:1004880024EC10F00FC076F010C077F011C078F0AF
:1004980012C079F06CC001F06DC002F0036A046A02
:1004A800000EDBEC12F001C00FF002C010F003C028
:1004B80011F004C012F070C001F071C002F0036ABC
:1004C800046A000EDBEC12F001C013F002C014F055
:1004D80003C015F004C016F024EC10F00FC07AF039
:1004E80010C07BF011C07CF012C07DF070C001F02C
:1004F80071C002F0036A046A000EDBEC12F001C05E
:100508000FF002C010F003C011F004C012F06EC06A
:1005180001F06FC002F0036A046A000EDBEC12F00F
:1005280001C013F002C014F003C015F004C016F0A7
:1005380024EC10F00FC07EF010C07FF011C080F0E6
:1005480012C081F0000179BFAEEF02F0ACEF02F00B
:10055800B6EF02F0000E766F000E776F000E786F20
:10056800000E796F7DBFBDEF02F0BBEF02F0C5EF63
:1005780002F0000E7A6F000E7B6F000E7C6F000E8B
:100588007D6F81BFCCEF02F0CAEF02F0D4EF02F02A
:10059800000E7E6F000E7F6F000E806F000E816F61
:1005A80076C00DF077C00EF078C00FF079C010F06B
:1005B800330E116E330E126EA30E136E400E146EB0
:1005C800000E156E000E166EA40E176E410E186EF4
:1005D8000CEC19F00D040E10D8A4F5EF02F0F7EFAB
:1005E80002F04DEF03F07AC00DF07BC00EF07CC036
:1005F8000FF07DC010F0CD0E116ECC0E126E0C0EE9
:10060800136E400E146E330E156E330E166E730E87
:10061800176E400E186E0CEC19F00D040E10D8A4CD
:1006280018EF03F01AEF03F04DEF03F07EC00DF062
:100638007FC00EF080C00FF081C010F0660E116E02
:10064800660E126EE60E136E3F0E146E000E156ED9
:10065800000E166EB00E176E400E186E0CEC19F0E8
:100668000D040E10D8A43BEF03F03DEF03F04DEF5F
:1006780003F0210E0001745D030E7559D8A047EFF1
:1006880003F049EF03F04DEF03F0000E736F000E17
:10069800726F76C00DF077C00EF078C00FF079C099
:1006A80010F0CD0E116ECC0E126E4C0E136E3E0E67
:1006B800146E480E156EE10E166EFA0E176E3E0E8B
:1006C800186E0CEC19F00D040E10D8A46EEF03F0A0
:1006D80070EF03F0C6EF03F07AC00DF07BC00EF0A8
:1006E8007CC00FF07DC010F0290E116E5C0E126EEA
:1006F8008F0E136E3E0E146E3D0E156E0A0E166E9C
:10070800170E176E3F0E186E0CEC19F00D040E1034
:10071800D8A491EF03F093EF03F0C6EF03F07EC087
:100728000DF07FC00EF080C00FF081C010F0330EC6
:10073800116E330E126E330E136E3F0E146E660E6C
:10074800156E660E166E660E176E3F0E186E0CEC62
:1007580019F00D040E10D8A4B4EF03F0B6EF03F0AF
:10076800C6EF03F0440E0001745D030E7559D8A05E
:10077800C0EF03F0C2EF03F0C6EF03F0000E736F93
:10078800010E726F76C00DF077C00EF078C00FF0D2
:1007980079C010F0CD0E116ECC0E126ECC0E136E09
:1007A8003D0E146ECD0E156ECC0E166E0C0E176E19
:1007B8003F0E186E0CEC19F00D040E10D8A4E7EFDC
:1007C80003F0E9EF03F03FEF04F07AC00DF07BC0CF
:1007D8000EF07CC00FF07DC010F0CD0E116ECC0E67
:1007E800126ECC0E136E3D0E146E140E156EAE0EF8
:1007F800166EC70E176E3E0E186E0CEC19F00D042F
:100808000E10D8A40AEF04F00CEF04F03FEF04F048
:100818007EC00DF07FC00EF080C00FF081C010F0D8
:10082800000E116E000E126E800E136E3F0E146EC7
:100838009A0E156E990E166E990E176E3F0E186E5B
:100848000CEC19F00D040E10D8A42DEF04F02FEFC6
:1008580004F03FEF04F0210E0001745D030E75599A
:10086800D8A039EF04F03BEF04F03FEF04F0000E9E
:10087800736F020E726F76C00DF077C00EF078C0FD
:100888000FF079C010F09A0E116E990E126E990E33
:10089800136E3F0E146E330E156E330E166EB30EB6
:1008A800176E3F0E186E0CEC19F00D040E10D8A43C
:1008B80060EF04F062EF04F0B8EF04F07AC00DF0D6
:1008C8007BC00EF07CC00FF07DC010F0000E116EE2
:1008D800000E126EC00E136E3F0E146EEC0E156EE7
:1008E800510E166ED80E176E3F0E186E0CEC19F0DE
:1008F8000D040E10D8A483EF04F085EF04F0B8EFD0
:1009080004F07EC00DF07FC00EF080C00FF081C0F3
:1009180010F0CD0E116ECC0E126E4C0E136E3F0EF3
:10092800146E660E156E660E166E660E176E3F0E08
:10093800186E0CEC19F00D040E10D8A4A6EF04F0F4
:10094800A8EF04F0B8EF04F0530E0001745D030E35
:100958007559D8A0B2EF04F0B4EF04F0B8EF04F082
:10096800000E736F030E726F76C00DF077C00EF035
:1009780078C00FF079C010F0140E116EAE0E126E22
:10098800C70E136E3F0E146E710E156E3D0E166E69
:10099800EA0E176E3F0E186E0CEC19F00D040E10CF
:1009A800D8A4D9EF04F0DBEF04F031EF05F07AC0FA
:1009B8000DF07BC00EF07CC00FF07DC010F0A40ECF
:1009C800116E700E126E9D0E136E3F0E146E000E99
:1009D800156E000E166EC00E176E3F0E186E0CECDC
:1009E80019F00D040E10D8A4FCEF04F0FEEF04F08B
:1009F80031EF05F07EC00DF07FC00EF080C00FF023
:100A080081C010F0330E116E330E126E930E136EFA
:100A18003F0E146E660E156E660E166EA60E176ED7
:100A28003F0E186E0CEC19F00D040E10D8A41FEF31
:100A380005F021EF05F031EF05F03F0E0001745D80
:100A4800030E7559D8A02BEF05F02DEF05F031EF07
:100A580005F0000E736F040E726F76C00DF077C04C
:100A68000EF078C00FF079C010F0660E116E660EA9
:100A7800126E460E136E400E146E330E156E330E44
:100A8800166E9B0E176E400E186E0CEC19F00D04C6
:100A98000E10D8A452EF05F054EF05F0AAEF05F0B8
:100AA8007AC00DF07BC00EF07CC00FF07DC010F056
:100AB800CD0E116ECC0E126E0C0E136E400E146E0F
:100AC800B80E156E1E0E166E350E176E400E186E89
:100AD8000CEC19F00D040E10D8A475EF05F077EFA3
:100AE80005F0AAEF05F07EC00DF07FC00EF080C0C3
:100AF8000FF081C010F05C0E116E8F0E126EA20EF8
:100B0800136E3F0E146E660E156E660E166EE60EAA
:100B1800176E3F0E186E0CEC19F00D040E10D8A4C9
:100B280098EF05F09AEF05F0AAEF05F0350E0001F1
:100B3800745D030E7559D8A0A4EF05F0A6EF05F073
:100B4800AAEF05F0000E736F050E726F76C00DF0F8
:100B580077C00EF078C00FF079C010F09A0E116EC1
:100B6800990E126E190E136E3F0E146EF60E156E58
:100B7800280E166E5C0E176E3F0E186E0CEC19F0F0
:100B88000D040E10D8A4CBEF05F0CDEF05F023EF40
:100B980006F07AC00DF07BC00EF07CC00FF07DC06F
:100BA80010F09A0E116E990E126E190E136E3F0EFA
:100BB800146E9A0E156E990E166E590E176E3F0E1C
:100BC800186E0CEC19F00D040E10D8A4EEEF05F019
:100BD800F0EF05F023EF06F07EC00DF07FC00EF0B9
:100BE80080C00FF081C010F0330E116E330E126EFC
:100BF800730E136E3F0E146E290E156E5C0E166E74
:100C08008F0E176E3F0E186E0CEC19F00D040E10B7
:100C1800D8A411EF06F013EF06F023EF06F0350E17
:100C28000001745D030E7559D8A01DEF06F01FEF83
:100C380006F023EF06F0000E736F060E726F76C093
:100C48000DF077C00EF078C00FF079C010F0660E86
:100C5800116E660E126E660E136E3F0E146ECD0E7A
:100C6800156ECC0E166E8C0E176E3F0E186E0CECB1
:100C780019F00D040E10D8A444EF06F046EF06F064
:100C88009CEF06F07AC00DF07BC00EF07CC00FF030
:100C98007DC010F0CD0E116ECC0E126E4C0E136E80
:100CA8003F0E146E000E156E000E166E800E176E37
:100CB8003F0E186E0CEC19F00D040E10D8A467EF57
:100CC80006F069EF06F09CEF06F07EC00DF07FC0DD
:100CD8000EF080C00FF081C010F0330E116E330E8D
:100CE800126E730E136E3F0E146ECD0E156ECC0E73
:100CF800166E8C0E176E3F0E186E0CEC19F00D0464
:100D08000E10D8A48AEF06F08CEF06F09CEF06F0E0
:100D18007B0E0001745D030E7559D8A096EF06F09E
:100D280098EF06F09CEF06F0000E736F070E726FD7
:100D380000016D5107E1320E6C5DD8B0A6EF06F0E8
:100D4800A8EF06F0C2EF06F06F5107E1320E6E5DB4
:100D5800D8B0B1EF06F0B3EF06F0C2EF06F071516C
:100D680007E1320E705DD8B0BCEF06F0BEEF06F0BA
:100D7800C2EF06F0000E736F080E726F72C05BF060
:100D880073C05CF01200000E026E630E016E17EC69
:100D98001BF059EC1BF0C0EC1BF0E0EC1BF0F4EC82
:100DA8001BF0000E0001A66F010EA76FA30EA86F1F
:100DB8000F0EA96F7D0EAA6F0F0EAB6F040EAC6FEE
:100DC800000EAE6F630EAD6F000EAF6F010EB06F09
:100DD800A00EB16F0F0EB26F7F0EB36F0F0EB46F10
:100DE800060EB56F000EB76F630EB66F000E9F6FDD
:100DF800000E9E6F000EA16F000EA06F000EA36F75
:100E0800000EA26F000EA56F000EA46F86840E015F
:100E1800B4958686B4977F828792798881987E8EEA
:100E2800869E849E7C9E88968096000E0001836F25
:100E3800000E826F7BEF07F07C8E8EB426EF07F0F2
:100E480028EF07F021EF07F08EB42DEF07F02FEF12
:100E580007F041EF07F07C9E920E0C6E000E0D6EAF
:100E6800CFEC1AF0190E5E6E5A0E5D6EB20EE82EB9
:100E7800FED75D2EFCD75E2EFAD77C8E8EB447EF58
:100E880007F049EF07F042EF07F08EB44EEF07F096
:100E980050EF07F062EF07F07C9E920E0C6E000E8A
:100EA8000D6EF4EC1AF0190E5E6E5A0E5D6EB20EEF
:100EB800E82EFED75D2EFCD75E2EFAD780868EB63A
:100EC80068EF07F06AEF07F063EF07F08EB66FEF91
:100ED80007F071EF07F07BEF07F08096000ED46EF5
:100EE800000ED36E000E0001836F010E826F0001A9
:100EF80082518311D8B483EF07F085EF07F020EF14
:100F080007F0000E896F090E886F000E8B6F090EAF
:100F18008A6F000E8D6F090E8C6F000E856F090E9B
:100F2800846F000E8F6F000E8E6F000E876F010E9C
:100F3800866F920E0C6E000E0D6E83EC19F0000198
:100F48008E518F11D8A4ABEF07F0ADEF07F0B7EFD4
:100F580007F0920E5B6E000E5C6E16EC00F05BC044
:100F680088F05CC089F000018E058F11D8A4BFEF0E
:100F780007F0C1EF07F0CBEF07F0920E5B6E000EA3
:100F88005C6E16EC00F05BC08AF05CC08BF0020E61
:100F980000018E198F11D8A4D4EF07F0D6EF07F00F
:100FA800E0EF07F0920E5B6E000E5C6E16EC00F040
:100FB8005BC08CF05CC08DF0030E00018E198F11A0
:100FC800D8A4E9EF07F0EBEF07F0FCEF07F0920E7B
:100FD8005B6E000E5C6E16EC00F05BC084F05CC0CB
:100FE80085F0000E00018F6F000E8E6FFEEF07F088
:100FF8008E4B8F2B8A51881907E18B518919D8A4F8
:1010080008EF08F00AEF08F077EF08F08C518A191A
:1010180007E18D518B19D8A414EF08F016EF08F0EA
:1010280077EF08F084518C1907E185518D19D8A400
:1010380020EF08F022EF08F077EF08F088C090F072
:1010480089C091F0915107E1070E905DD8B02FEF5C
:1010580008F031EF08F04CEF08F090C001F091C0B3
:1010680002F0D20E036E000E046ECCC005F0CDC0A7
:1010780006F0E60E076E000E086EB4EC19F00001DB
:10108800CC4BCD2B000E876F010E866F67EF08F0F3
:10109800090E90199111D8A454EF08F056EF08F0F2
:1010A80067EF08F086058711D8A45DEF08F05FEFB9
:1010B80008F067EF08F0000ED46E000ED36E000E35
:1010C800876F000E866F000E896F090E886F000EFD
:1010D8008B6F090E8A6F000E8D6F090E8C6F000ED4
:1010E800856F090E846F90519111D8A47EEF08F096
:1010F80080EF08F096EF08F0A60E1D6E000E1E6E2B
:10110800AF0E1F6E000E206EF4EC14F0090E5E6E2A
:101118001E0E5D6EE40EE82EFED75D2EFCD75E2E09
:10112800FAD700D0000190059111D8A49EEF08F0DD
:10113800A0EF08F0B6EF08F0A60E1D6E000E1E6EAA
:10114800AF0E1F6E000E206EB5EC13F0090E5E6E2A
:101158001E0E5D6EE40EE82EFED75D2EFCD75E2EC9
:10116800FAD700D0020E000190199111D8A4BFEF50
:1011780008F0C1EF08F0D7EF08F0A60E1D6E000EBC
:101188001E6EAF0E1F6E000E206E55EC14F0090E89
:101198005E6E1E0E5D6EE40EE82EFED75D2EFCD749
:1011A8005E2EFAD700D0030E000190199111D8A431
:1011B800E0EF08F0E2EF08F0F8EF08F0A60E256E71
:1011C800000E266EAF0E276E000E286ED4EC17F0B8
:1011D800090E5E6E1E0E5D6EE40EE82EFED75D2EC5
:1011E800FCD75E2EFAD700D0040E00019019911199
:1011F800D8A401EF09F003EF09F019EF09F0A60EE2
:10120800256E000E266EAF0E276E000E286E4AEC75
:1012180018F0090E5E6E1E0E5D6EE40EE82EFED707
:101228005D2EFCD75E2EFAD700D0050E000190196E
:101238009111D8A422EF09F024EF09F03AEF09F050
:10124800A60E1D6E000E1E6EAF0E1F6E000E206ED7
:1012580093EC15F0090E5E6E1E0E5D6EE40EE82E20
:10126800FED75D2EFCD75E2EFAD700D0060E000101
:1012780090199111D8A443EF09F045EF09F05BEFFD
:1012880009F0A60E1D6E000E1E6EAF0E1F6E000E2C
:10129800206E31EC16F0090E5E6E1E0E5D6EE40EC9
:1012A800E82EFED75D2EFCD75E2EFAD700D0070EAB
:1012B800000190199111D8A464EF09F066EF09F0C4
:1012C80091EF09F0A60E2B6E000E2C6EAF0E2D6E50
:1012D800000E2E6ED20E2F6E000E306ECCC031F086
:1012E800CDC032F0E60E336E000E346E40EC0EF0D8
:1012F800090E5E6E1E0E5D6EE40EE82EFED75D2EA4
:10130800FCD75E2EFAD700D07C8E80868EB68FEF03
:1013180009F091EF09F08AEF09F0080E0001901921
:101328009111D8A49AEF09F09CEF09F0B2EF09F0F7
:10133800A60E196E000E1A6EAF0E1B6E000E1C6EF6
:10134800BFEC18F0090E5E6E1E0E5D6EE40EE82E00
:10135800FED75D2EFCD75E2EFAD700D0090E00010D
:1013680090199111D8A4BBEF09F0BDEF09F09DEFDA
:1013780007F0A60E196E000E1A6EAF0E1B6E000E49
:101388001C6E06EC1AF09DEF07F014EF00F04450C5
:10139800800B4D6E445044244F6E43AED6EF09F097
:1013A800D8EF09F0D9EF09F04F804F50D8B4DFEFEC
:1013B80009F0E1EF09F0F6EF09F04F28D8A4E7EFBC
:1013C80009F0E9EF09F0F1EF09F0000E416E000EA7
:1013D800426E000E436E000E446E438E000E446E45
:1013E800FEEF09F0000E416E000E426E000E436ED5
:1013F800000E446E4850800B4E6E4D504E18D8B4B7
:1014080008EF0AF00AEF0AF00BEF0AF04D8C48508B
:1014180048244E6E47AE13EF0AF015EF0AF016EFA8
:101428000AF04E804E50D8B41CEF0AF01EEF0AF0B6
:1014380033EF0AF04E28D8A424EF0AF026EF0AF07A
:101448002EEF0AF0000E456E000E466E000E476E37
:10145800000E486E478E000E486E3BEF0AF0000EF5
:10146800456E000E466E000E476E000E486E4F50D9
:101478004E5CD8B042EF0AF044EF0AF06BEF0AF086
:101488004DAC49EF0AF04BEF0AF04DEF0AF0800E31
:101498004D1A4FC050F04EC04FF050C04EF041C0F2
:1014A80050F045C041F050C045F042C050F046C031
:1014B80042F050C046F043C050F047C043F050C01F
:1014C80047F044C050F048C044F050C048F0000E07
:1014D800506E4F504EC049F04A6A495E000E4A5A53
:1014E8004ABE80EF0AF04A5009E11A0E495CD8A0BA
:1014F80080EF0AF082EF0AF0B9EF0AF0415042108B
:1015080043104410D8A48BEF0AF08EEF0AF0010EB6
:101518008FEF0AF0000E506E000E416E000E426E04
:10152800000E436E000E446E4EC04FF0C2EF0AF03C
:1015380050A0A1EF0AF0A3EF0AF0A9EF0AF0D890A3
:1015480050300109506EABEF0AF0D890503241A0EC
:10155800B0EF0AF0B2EF0AF0B3EF0AF0508E44345D
:1015680044324332423241324F2A4E504F5CD8A067
:10157800C0EF0AF0C2EF0AF09CEF0AF04DBCC7EFCB
:101588000AF0C9EF0AF009EF0BF04F50D8A4CFEFDB
:101598000AF0D1EF0AF0DBEF0AF0000E416E000E00
:1015A800426E000E436E000E446E2AEF0CF045505A
:1015B800412646504222475043224850442244A0E4
:1015C800E8EF0AF0EAEF0AF096EF0BF050A0EFEF21
:1015D8000AF0F1EF0AF0F7EF0AF0D890503001095D
:1015E800506EF9EF0AF0D890503241A0FEEF0AF0A1
:1015F80000EF0BF001EF0BF0508E443444324332CD
:10160800423241324F2A96EF0BF04550415C46502A
:101618004258475043584450800A496E4850800AFF
:101628004958D8B01AEF0BF01CEF0BF047EF0BF04E
:101638004150455C496E425046584A6E435047589F
:101648004B6E445048584C6EFF0E4924416EFF0EB5
:101658004A20426EFF0E4B20436EFF0E4C20446E14
:10166800800E4D1A506C5050D8A43DEF0BF03FEF50
:101678000BF04FEF0BF0010E4126000E42224322E1
:1016880044224FEF0BF04550415E4650425A4750B6
:10169800435A4850445A4150421043104410D8A469
:1016A80058EF0BF05AEF0BF08FEF0BF05050D8A417
:1016B80060EF0BF062EF0BF08FEF0BF0000E416E56
:1016C800000E426E000E436E000E446E2AEF0CF0C0
:1016D800D890413642364336443650AE76EF0BF05A
:1016E80078EF0BF079EF0BF0418050A07EEF0BF014
:1016F80080EF0BF084EF0BF0D880503686EF0BF0BC
:10170800D89050364F50D8B48CEF0BF08EEF0BF0CA
:101718008FEF0BF04F0643AE94EF0BF096EF0BF004
:101728006CEF0BF0000E4E6E50AE9DEF0BF09FEF7E
:101738000BF0B7EF0BF050C049F07F0E4916D8B444
:10174800A8EF0BF0AAEF0BF0AEEF0BF0010E4E6E08
:10175800B7EF0BF041A0B3EF0BF0B5EF0BF0B7EF1D
:101768000BF0AAEF0BF04E50D8B4BDEF0BF0BFEF63
:101778000BF0EAEF0BF0010E4126000E4222432245
:10178800442244A0CAEF0BF0CCEF0BF0EAEF0BF0C9
:1017980041C049F042C04AF043C04BF044C04CF04D
:1017A8004C344C324B324A32493249C041F04AC07B
:1017B80042F04BC043F04CC044F04F28D8B4E7EF98
:1017C8000BF0E9EF0BF0EAEF0BF04F2A4F28D8B4F3
:1017D800F0EF0BF0F2EF0BF0FAEF0BF04F50D8A44C
:1017E800F8EF0BF0FAEF0BF00CEF0CF0000E416E77
:1017F800000E426E000E436E000E446E4F50D8A489
:1018080008EF0CF00AEF0CF00CEF0CF0000E4D6E28
:101818004FA011EF0CF013EF0CF016EF0CF0438E05
:1018280017EF0CF0439ED8904F30446E4DAE1FEF2B
:101838000CF021EF0CF022EF0CF0448E41C041F087
:1018480042C042F043C043F044C044F012002B5061
:10185800800B346E2B502B243A6E2AAE36EF0CF0E8
:1018680038EF0CF039EF0CF03A803A50D8B43FEF2B
:101878000CF041EF0CF054EF0CF03A28D8A447EFE5
:101888000CF049EF0CF051EF0CF0000E286E000E32
:10189800296E000E2A6E000E2B6E2A8E5CEF0CF05D
:1018A800000E286E000E296E000E2A6E000E2B6E9A
:1018B8002F50800B341A2F502F24396E2EAE67EF1D
:1018C8000CF069EF0CF06AEF0CF039803950D8B49D
:1018D80070EF0CF072EF0CF085EF0CF03928D8A4FB
:1018E80078EF0CF07AEF0CF082EF0CF0000E2C6E13
:1018F800000E2D6E000E2E6E000E2F6E2E8E8DEFAA
:101908000CF0000E2C6E000E2D6E000E2E6E000ECA
:101918002F6E3950D8B493EF0CF095EF0CF09DEF83
:101928000CF03A50D8A49BEF0CF09DEF0CF0A7EF09
:101938000CF0000E286E000E296E000E2A6E000EA6
:101948002B6E3FEF0EF02E502802F3CF3FF0F4CF6E
:1019580040F03F50356E366A376A386A40503B6E01
:101968003C6A3D6A3E6A2D502902F3CF3FF0F4CF1E
:1019780040F03F503526000E36223722382240509C
:101988003B26000E3C223D223E222C502A02F3CF59
:101998003FF0F4CF40F03F503526000E3622372274
:1019A800382240503B26000E3C223D223E2237C0C2
:1019B80038F036C037F035C036F0356A2C50290279
:1019C800F3CF3FF0F4CF40F03F5035264050362259
:1019D800000E3722000E38222D502802F3CF3FF098
:1019E800F4CF40F03F50352640503622000E3722C3
:1019F800000E382237C038F036C037F035C036F020
:101A0800356A2C502802F3CF3FF0F4CF40F03F5016
:101A1800352640503622000E3722000E38222E502E
:101A28002902F3CF3FF0F4CF40F03F503B2640501F
:101A38003C22000E3D22000E3E222D502A02F3CFFA
:101A48003FF0F4CF40F03F503B2640503C22000E80
:101A58003D22000E3E222E502A02F3CF3FF0F4CF53
:101A680040F03F50306E4050316E326A336A32C0B7
:101A780033F031C032F030C031F0306A30503B269C
:101A880031503C2232503D2233503E2235C030F096
:101A980036C031F037C032F038C033F0190E5AEF83
:101AA8000DF0D8903332323231323032E82E55EFE1
:101AB8000DF030503B2631503C2232503D223350FD
:101AC8003E2237C038F036C037F035C036F0356AB8
:101AD80039503AC030F0316A3026000E3122820E79
:101AE80030243F6EFF0E3120406E90EF0DF0D890FD
:101AF8003B363C363D363E3638AE85EF0DF087EF47
:101B08000DF088EF0DF03B80D890353636363736F5
:101B180038363F06D8A040063DAE95EF0DF097EF5A
:101B28000DF07BEF0DF0000E396E38AE9EEF0DF024
:101B3800A0EF0DF0C4EF0DF0FF0E3514306EFF0E60
:101B48003614316EFF0E3714326E7F0E3814336E32
:101B58003050311032103310D8B4B5EF0DF0B7EF64
:101B68000DF0BBEF0DF0010E396EC4EF0DF03BA088
:101B7800C0EF0DF0C2EF0DF0C4EF0DF0B7EF0DF0B0
:101B88003950D8B4CAEF0DF0CCEF0DF0F0EF0DF0EE
:101B9800010E3B26000E3C223D223E223EA0D7EFFE
:101BA8000DF0D9EF0DF0F0EF0DF03BC030F03CC078
:101BB80031F03DC032F03EC033F03334333232328C
:101BC8003132303230C03BF031C03CF032C03DF0F1
:101BD80033C03EF03F4A402A40BEFBEF0DF0405074
:101BE80008E13F28D8A0FBEF0DF0FDEF0DF007EF5F
:101BF8000EF0000E3B6E000E3C6E800E3D6E7F0EAA
:101C08003E6E35EF0EF040BE14EF0EF0405006E188
:101C18003F04D8B012EF0EF014EF0EF020EF0EF0E4
:101C2800000E3B6E000E3C6E000E3D6E000E3E6ECA
:101C3800000E346E35EF0EF03FC03AF0FF0E3B1643
:101C4800FF0E3C167F0E3D16000E3E163AA02FEFF3
:101C58000EF031EF0EF032EF0EF03D8ED8903A30A4
:101C68003E6E34503E123BC028F03CC029F03DC0C7
:101C78002AF03EC02BF012002BC019F02CC01AF02D
:101C88002DC01BF02EC01CF0BFEC18F02BC01DF0AF
:101C98002CC01EF02DC01FF02EC020F055EC14F003
:101CA800520E366E2B0E356E000EE82EFED7352EF0
:101CB800FCD7362EFAD700D0000E3E6E000E3D6ED1
:101CC8000EEF10F03D50315C356E3E503258366E96
:101CD800D890353636362FC037F030C038F035500A
:101CE800372636503822FE0E3724D96EFF0E38209C
:101CF800DA6EDE50DE10D8A484EF0EF086EF0EF018
:101D080092EF0EF02BC01DF02CC01EF02DC01FF05E
:101D18002EC020F0B5EC13F0CCEF0FF03D50315C45
:101D2800356E3E503258366ED890353636362FC01E
:101D380037F030C038F03550372636503822FE0E8E
:101D48003724D96EFF0E3820DA6EDE04DE10D8A4F0
:101D5800B0EF0EF0B2EF0EF0BEEF0EF02BC01DF09C
:101D68002CC01EF02DC01FF02EC020F0F4EC14F093
:101D7800CCEF0FF03D50315C356E3E503258366E28
:101D8800D890353636362FC037F030C038F0355059
:101D9800372636503822FE0E3724D96EFF0E3820EB
:101DA800DA6E020EDE18DE10D8A4DDEF0EF0DFEFDB
:101DB8000EF0EBEF0EF02BC01DF02CC01EF02DC066
:101DC8001FF02EC020F055EC14F0CCEF0FF03D5072
:101DD800315C356E3E503258366ED89035363636D0
:101DE8002FC037F030C038F03550372636503822FB
:101DF800FE0E3724D96EFF0E3820DA6E030EDE1879
:101E0800DE10D8A40AEF0FF00CEF0FF018EF0FF068
:101E18002BC025F02CC026F02DC027F02EC028F0AE
:101E28004AEC18F0CCEF0FF03D50315C356E3E5067
:101E38003258366ED890353636362FC037F030C027
:101E480038F03550372636503822FE0E3724D96EF2
:101E5800FF0E3820DA6E040EDE18DE10D8A437EF35
:101E68000FF039EF0FF045EF0FF02BC025F02CC025
:101E780026F02DC027F02EC028F0D4EC17F0CCEFB8
:101E88000FF03D50315C356E3E503258366ED8906A
:101E9800353636362FC037F030C038F03550372653
:101EA80036503822FE0E3724D96EFF0E3820DA6EEF
:101EB800050EDE18DE10D8A464EF0FF066EF0FF001
:101EC80072EF0FF02BC01DF02CC01EF02DC01FF0BC
:101ED8002EC020F031EC16F0CCEF0FF03D50315C05
:101EE800356E3E503258366ED890353636362FC05D
:101EF80037F030C038F03550372636503822FE0ECD
:101F08003724D96EFF0E3820DA6E060EDE18DE1082
:101F1800D8A491EF0FF093EF0FF09FEF0FF02BC0C5
:101F28001DF02CC01EF02DC01FF02EC020F093EC29
:101F380015F0CCEF0FF03D50315C356E3E50325805
:101F4800366ED890353636362FC037F030C038F078
:101F58003550372636503822FE0E3724D96EFF0EFC
:101F68003820DA6E090EDE18DE10D8A4BEEF0FF0A6
:101F7800C0EF0FF0CCEF0FF02BC019F02CC01AF007
:101F88002DC01BF02EC01CF0BFEC18F0CCEF0FF0EA
:101F9800000E3C6E000E3B6E2BC019F02CC01AF0E0
:101FA8002DC01BF02EC01CF006EC1AF0000ED46EEB
:101FB800000ED36EEAEF0FF0D3CF3BF03C6AD4505B
:101FC800366E356A35503B1236503C123D50315C06
:101FD800356E3E503258366ED8903536363633C068
:101FE80037F034C038F03550372636503822FE0ED8
:101FF8003724D96EFF0E3820DA6EDE503B5CDE5097
:102008003C58D8A00AEF10F00CEF10F0E0EF0FF0FA
:102018003D4A3E2A31503D5C32503E58D8A017EF19
:1020280010F019EF10F066EF0EF02BC019F02CC06D
:102038001AF02DC01BF02EC01CF0BFEC18F01200D7
:102048001250800B1F6E12501224266E11AE2FEF05
:1020580010F031EF10F032EF10F026802650D8B48F
:1020680038EF10F03AEF10F04FEF10F02628D8A410
:1020780040EF10F042EF10F04AEF10F0000E0F6E34
:10208800000E106E000E116E000E126E118E000EF4
:10209800126E57EF10F0000E0F6E000E106E000E4D
:1020A800116E000E126E1650800B1F1A1650162451
:1020B800276E15AE62EF10F064EF10F065EF10F0C8
:1020C80027802750D8B46BEF10F06DEF10F082EF37
:1020D80010F02728D8A473EF10F075EF10F07DEFFB
:1020E80010F0000E136E000E146E000E156E000E2A
:1020F800166E158E000E166E8AEF10F0000E136E17
:10210800000E146E000E156E000E166E135014108D
:1021180015101610D8A493EF10F095EF10F0ADEF4E
:1021280010F0000E0F6E000E106E000E116E000EF5
:10213800126E800E11127F0E12121F5012120FC053
:102148000FF010C010F011C011F012C012F0F0EF33
:1021580011F02650D8A4B3EF10F0B5EF10F0BFEF90
:1021680010F0000E0F6E000E106E000E116E000EB5
:10217800126EF0EF11F0275026C017F0186A175E9C
:10218800000E185A7F0E1724206E000E1820216E9C
:102198000FC01BF010C01CF011C01DF012C01EF0C3
:1021A800000E0F6E000E106E000E116E000E126EF5
:1021B800000E226E000E236E000E246E000E256E99
:1021C800000E276E20EF11F02750D8B4EEEF10F074
:1021D800F0EF10F007EF11F0D8901B361C361D36C3
:1021E8001E36D8900F3610361136123625AEFFEF50
:1021F80010F001EF11F002EF11F00F80D8902236A5
:1022080023362436253613501B5C14501C581550A1
:102218001D5816501E58D8A014EF11F016EF11F0E3
:102228001FEF11F0258C13501B5E14501C5A1550CB
:102238001D5A16501E5A272A190E276426EF11F028
:1022480028EF11F0E8EF10F01B501C101D101E10A5
:10225800D8B431EF11F033EF11F04BEF11F02280C9
:102268004BEF11F0D8900F3610361136123625AED6
:1022780040EF11F042EF11F043EF11F00F80D890CA
:1022880022362336243625362006D8A0210611AE5C
:1022980050EF11F052EF11F036EF11F0000E276EEB
:1022A80025AE59EF11F05BEF11F07FEF11F0FF0E43
:1022B8002214176EFF0E2314186EFF0E2414196EC5
:1022C8007F0E25141A6E1750181019101A10D8B44A
:1022D80070EF11F072EF11F076EF11F0010E276E2A
:1022E8007FEF11F00FA07BEF11F07DEF11F07FEF82
:1022F80011F072EF11F02750D8B485EF11F087EF85
:1023080011F0ABEF11F0010E0F26000E1022112272
:10231800122212A092EF11F094EF11F0ABEF11F02E
:102328000FC017F010C018F011C019F012C01AF041
:102338001A341A3219321832173217C00FF018C06F
:1023480010F019C011F01AC012F0204A212A21BE3B
:10235800B6EF11F0215008E12028D8A0B6EF11F00F
:10236800B8EF11F0C3EF11F0000E216E2068000ED7
:102378000F6E000E106E000E116E000E126E21BE52
:10238800D0EF11F0215006E12004D8B0CEEF11F0C3
:10239800D0EF11F0DEEF11F0000E216E000E206E6E
:1023A800000E0F6E000E106E000E116E000E126EF3
:1023B800000E1F6E20C026F026A0E5EF11F0E7EF13
:1023C80011F0EAEF11F0118EEBEF11F0119ED89099
:1023D8002630126EA1EF10F0120020EE01F00E5020
:1023E800D9260F50DA22DF50D8B4FDEF11F0FFEFF5
:1023F80011F030EF12F00EC0D9FF0FC0DAFFDF5036
:10240800106E1050016E026A20EE07F00E50D926A9
:102418000F50DA22DECF03F0DDCF04F09CEC1BF086
:1024280001C007F002C008F0000E0A6E640E096EC3
:1024380049EC19F020EE07F00E50D9260F50DA2299
:10244800DECF11F0DDCF12F00750115C176E085087
:102458001258186E53EF12F00EC0D9FF0FC0DAFFF2
:10246800DF50106E1050016E026A20EE07F00E5019
:10247800D9260F50DA22DECF03F0DDCF04F09CEC32
:102488001BF001C007F002C008F0000E0A6E640ECF
:10249800096E49EC19F007C017F008C018F020EED3
:1024A80002F00E50D9260F50DA22DECF10F0DDCF21
:1024B80011F010C0D9FF11C0DAFF17C0DFFF20EEFE
:1024C80001F00E50D9260F50DA22DF50D8B46FEF42
:1024D80012F071EF12F0A6EF12F020EE04F00E5099
:1024E800D9260F50DA22DECF10F0DDCF11F010C060
:1024F800D9FF11C0DAFF10EE04F00E50E1260F509C
:10250800E222E6CF12F0E5CF13F012C0E1FF13C0CC
:10251800E2FFE750146E10EE06F00E50E1260F5061
:10252800E222E750156E010E166E152A9EEF12F084
:10253800D8901636152E9CEF12F016501410DF6E38
:10254800DAEF12F020EE04F00E50D9260F50DA22FE
:10255800DECF10F0DDCF11F010C0D9FF11C0DAFFC7
:1025680010EE04F00E50E1260F50E222E6CF12F0F2
:10257800E5CF13F012C0E1FF13C0E2FFE750146E7D
:1025880010EE06F00E50E1260F50E222E750156ECD
:10259800010E166E152AD3EF12F0D8901636152EA6
:1025A800D1EF12F01650FF0A1414DF6E1200096EF4
:1025B8000950D8B4E2EF12F0E4EF12F006EF13F08E
:1025C80004BEEBEF12F0E9EF12F006EF13F001C0D2
:1025D80005F002C006F003C007F004C008F0051EAD
:1025E800061E071E081E052A000E062207220822BC
:1025F80005C00BF006C00CF007C00DF008C00EF0C7
:102608000EEF13F001C00BF002C00CF003C00DF088
:1026180004C00EF00150021003100410D8A417EFE4
:1026280013F019EF13F023EF13F0000E016E000EF4
:10263800026E000E036E000E046EB4EF13F0960ED9
:102648000A6E2DEF13F00A2AD8900E320D320C3292
:102658000B32000E0B14056E000E0C14066E000EE5
:102668000D14076EFE0E0E14086E055006100710A6
:102678000810D8A442EF13F044EF13F027EF13F03B
:1026880052EF13F00A2A010E0B26000E0C220D221F
:102698000E22D8900E320D320C320B32000E0B1473
:1026A800056E000E0C14066E000E0D14076EFF0E5C
:1026B8000E14086E0550061007100810D8A467EF0E
:1026C80013F069EF13F046EF13F071EF13F00A06F9
:1026D800D8900B360C360D360E360DBE76EF13F04D
:1026E80078EF13F080EF13F0020E0A607EEF13F01C
:1026F80080EF13F06BEF13F00AB085EF13F087EF5C
:1027080013F088EF13F00D9ED8900A320AC005F036
:10271800066A076A086A05C008F0076A066A056A51
:1027280005500B1206500C1207500D1208500E12CD
:102738000950D8B4A2EF13F0A4EF13F0ACEF13F0E4
:1027480004BEABEF13F0A9EF13F0ACEF13F00E8E4D
:102758000BC001F00CC002F00DC003F00EC004F075
:1027680012001DC019F01EC01AF01FC01BF020C0B7
:102778001CF0BFEC18F0050E226E0F0E216EF10E44
:10278800E82EFED7212EFCD7222EFAD700F01DC046
:1027980019F01EC01AF01FC01BF020C01CF0DDECA1
:1027A80019F0210E226E780E216E980EE82EFED7B3
:1027B800212EFCD7222EFAD700D01DC019F01EC03A
:1027C8001AF01FC01BF020C01CF0BFEC18F00D0E53
:1027D800226E2D0E216ED80EE82EFED7212EFCD7A4
:1027E800222EFAD720EE01F01D50D9261E50DA22EB
:1027F800000EDF6E20EE01F01F50D9262050DA229D
:10280800010EDF6E000E246E000E236E1DC0D9FF70
:102818001EC0DAFFDF2A1FC0D9FF20C0DAFFDF2A77
:102828001DC00EF01EC00FF0F1EC11F01FC00EF02D
:1028380020C00FF0F1EC11F0A00E00D0E82EFDD76B
:10284800234A242A245009E1500E235CD8A02FEFF4
:1028580014F031EF14F00AEF14F0100E226E6C0E23
:10286800216E000EE82EFED7212EFCD7222EFAD795
:1028780000D000D01DC019F01EC01AF01FC01BF0F8
:1028880020C01CF0BFEC18F0050E226E0F0E216E52
:10289800F10EE82EFED7212EFCD7222EFAD700F013
:1028A80012001DC019F01EC01AF01FC01BF020C076
:1028B8001CF0BFEC18F0050E226E0F0E216EF10E03
:1028C800E82EFED7212EFCD7222EFAD700F01DC005
:1028D80019F01EC01AF01FC01BF020C01CF0DDEC60
:1028E80019F0210E226E780E216E980EE82EFED772
:1028F800212EFCD7222EFAD700D01DC019F01EC0F9
:102908001AF01FC01BF020C01CF0BFEC18F00D0E11
:10291800226E2D0E216ED80EE82EFED7212EFCD762
:10292800222EFAD720EE01F01D50D9261E50DA22A9
:10293800010EDF6E20EE01F01F50D9262050DA225A
:10294800000EDF6E000E246E000E236E1DC0D9FF30
:102958001EC0DAFFDF2A1FC0D9FF20C0DAFFDF2A36
:102968001DC00EF01EC00FF0F1EC11F01FC00EF0EC
:1029780020C00FF0F1EC11F0A00E00D0E82EFDD72A
:10298800234A242A245009E14B0E235CD8A0CFEF18
:1029980014F0D1EF14F0AAEF14F0210E226E780E85
:1029A800216E980EE82EFED7212EFCD7222EFAD7BC
:1029B80000D01DC019F01EC01AF01FC01BF020C0A7
:1029C8001CF0BFEC18F0050E226E0F0E216EF10EF2
:1029D800E82EFED7212EFCD7222EFAD700F01200BF
:1029E8001DC019F01EC01AF01FC01BF020C01CF03B
:1029F800BFEC18F0050E226E0F0E216EF10EE82EB8
:102A0800FED7212EFCD7222EFAD700F01DC019F0D0
:102A18001EC01AF01FC01BF020C01CF0DDEC19F01E
:102A2800210E226E780E216E980EE82EFED7212EEA
:102A3800FCD7222EFAD700D01DC019F01EC01AF0FC
:102A48001FC01BF020C01CF0BFEC18F00D0E226E4A
:102A58002D0E216ED80EE82EFED7212EFCD7222E61
:102A6800FAD720EE01F01D50D9261E50DA22010EA9
:102A7800DF6E20EE01F01F50D9262050DA22000E1A
:102A8800DF6E000E246E000E236E1DC0D9FF1EC01F
:102A9800DAFFDF2A1FC0D9FF20C0DAFFDF2A1DC0F6
:102AA8000EF01EC00FF0F1EC11F01FC00EF020C0A8
:102AB8000FF0F1EC11F0A00E00D0E82EFDD7234A5C
:102AC800242A245009E1500E235CD8A06EEF15F09B
:102AD80070EF15F049EF15F0120E226E740E216E8C
:102AE8007A0EE82EFED7212EFCD7222EFAD700D058
:102AF8001DC019F01EC01AF01FC01BF020C01CF02A
:102B0800BFEC18F0050E226E0F0E216EF10EE82EA6
:102B1800FED7212EFCD7222EFAD700F012001DC0B6
:102B280019F01EC01AF01FC01BF020C01CF0BFEC2B
:102B380018F0050E226E0F0E216EF10EE82EFED74C
:102B4800212EFCD7222EFAD700F01DC019F01EC086
:102B58001AF01FC01BF020C01CF0DDEC19F0210E8C
:102B6800226E780E216E980EE82EFED7212EFCD705
:102B7800222EFAD700D01DC019F01EC01AF01FC0AF
:102B88001BF020C01CF0BFEC18F00D0E226E2D0EAD
:102B9800216ED80EE82EFED7212EFCD7222EFAD78A
:102BA80020EE01F01D50D9261E50DA22010EDF6EEC
:102BB80020EE01F01F50D9262050DA22000EDF6ED9
:102BC800000E246E000E236E1DC0D9FF1EC0DAFF52
:102BD800DF2A1FC0D9FF20C0DAFFDF2A1DC00EF090
:102BE8001EC00FF0F1EC11F01FC00EF020C00FF066
:102BF800F1EC11F0A00E00D0E82EFDD7234A242ACC
:102C0800245009E14B0E235CD8A00DEF16F00FEF0E
:102C180016F0E8EF15F0170E226E530E216E380EDF
:102C2800E82EFED7212EFCD7222EFAD71DC019F088
:102C38001EC01AF01FC01BF020C01CF0BFEC18F01B
:102C4800050E226E0F0E216EF10EE82EFED7212EF4
:102C5800FCD7222EFAD700F012001DC019F01EC0B2
:102C68001AF01FC01BF020C01CF0BFEC18F0050EB6
:102C7800226E0F0E216EF10EE82EFED7212EFCD704
:102C8800222EFAD700F01DC019F01EC01AF01FC07E
:102C98001BF020C01CF0DDEC19F0210E226E780E1E
:102CA800216E980EE82EFED7212EFCD7222EFAD7B9
:102CB80000D01DC019F01EC01AF01FC01BF020C0A4
:102CC8001CF0BFEC18F00D0E226E2D0E216ED80EE2
:102CD800E82EFED7212EFCD7222EFAD720EE01F0BF
:102CE8001D50D9261E50DA22000EDF6E20EE01F0AC
:102CF8001F50D9262050DA22010EDF6E000E246EF6
:102D0800000E236E1DC0D9FF1EC0DAFFDF2A1FC0C8
:102D1800D9FF20C0DAFFDF2A1DC00EF01EC00FF059
:102D2800F1EC11F01FC00EF020C00FF0F1EC11F023
:102D3800A00E00D0E82EFDD7234A242A245009E10A
:102D48004B0E235CD8A0ABEF16F0ADEF16F086EF74
:102D580016F0150E226EB30E216EA40EE82EFED7C5
:102D6800212EFCD7222EFAD71DC019F01EC01AF04A
:102D78001FC01BF020C01CF0BFEC18F0050E226E1F
:102D88000F0E216EF10EE82EFED7212EFCD7222E33
:102D9800FAD700F01200533454345A6E5A50D8A45B
:102DA800D8EF16F0DAEF16F0E4EF16F0000E516ED9
:102DB800000E526E000E536E000E546E51EF17F057
:102DC80051C055F052C056F053C057F054C058F097
:102DD800200EF4EF16F0D89058325732563255324A
:102DE800E82EEFEF16F05550596E538EFF0E511620
:102DF800FF0E5216FF0E5316000E5416960E5A5E0C
:102E08005ABE0BEF17F009EF17F021EF17F05A50E1
:102E1800800A970FD8B013EF17F015EF17F017EFD8
:102E280017F0DAEF16F0D89054325332523251324A
:102E38005A3E17EF17F039EF17F01F0E5A6427EFB5
:102E480017F029EF17F031EF17F0DAEF16F0D890F6
:102E580051365236533654365A065A50D8A437EF9C
:102E680017F039EF17F02BEF17F05950D8B43FEFA0
:102E780017F041EF17F049EF17F0541E531E521E7A
:102E8800516C000E52225322542251C051F052C0AC
:102E980052F053C053F054C054F01200000E011405
:102EA800096E000E02140A6E800E03140B6E7F0E5C
:102EB80004140C6E09500A100B100C10D8A467EFFC
:102EC80017F069EF17F071EF17F0000E016E000EA2
:102ED800026E000E036E000E046E000E0514096EDD
:102EE800000E06140A6E800E07140B6E7F0E08146F
:102EF8000C6E09500A100B100C10D8A486EF17F0AE
:102F080088EF17F090EF17F0000E056E000E066EB2
:102F1800000E076E000E086E04AE95EF17F097EFDF
:102F280017F0A0EF17F0016C021ED8B0022A031E9A
:102F3800D8B0032A800E045608AEA5EF17F0A7EF05
:102F480017F0B0EF17F0056C061ED8B0062A071E5A
:102F5800D8B0072A800E0856000E011A000E021A71
:102F6800000E031A800E041A000E051A000E061A27
:102F7800000E071A800E081A0550015C0650025808
:102F88000750035808500458D8B0CDEF17F0CFEFCA
:102F980017F0D2EF17F0D890D3EF17F0D8801200BF
:102FA80025C019F026C01AF027C01BF028C01CF055
:102FB800BFEC18F0050E2A6E0F0E296EF10EE82EE2
:102FC800FED7292EFCD72A2EFAD700F020EE01F0E2
:102FD8002550D9262650DA22000EDF6E20EE01F0A9
:102FE8002750D9262850DA22000EDF6E25C0D9FFD7
:102FF80026C0DAFF460EDF6E27C0D9FF28C0DAFFE9
:10300800460EDF6E25C00EF026C00FF0F1EC11F071
:1030180027C00EF028C00FF0F1EC11F0290E2A6E2F
:10302800960E296E7F0EE82EFED7292EFCD72A2E63
:10303800FAD700F025C019F026C01AF027C01BF0F7
:1030480028C01CF0BFEC18F0310E2A6EB40E296EA1
:10305800660EE82EFED7292EFCD72A2EFAD725C0D1
:103068001DF026C01EF027C01FF028C020F0F4EC89
:1030780014F0090E2A6E1E0E296EE40EE82EFED7F5
:10308800292EFCD72A2EFAD700D0120025C019F015
:1030980026C01AF027C01BF028C01CF0BFEC18F09F
:1030A800050E2A6E0F0E296EF10EE82EFED7292E78
:1030B800FCD72A2EFAD700F020EE01F02550D926A9
:1030C8002650DA22000EDF6E20EE01F02750D926B6
:1030D8002850DA22000EDF6E25C0D9FF26C0DAFF9D
:1030E800460EDF6E27C0D9FF28C0DAFF460EDF6E16
:1030F80025C00EF026C00FF0F1EC11F027C00EF03D
:1031080028C00FF0F1EC11F0310E2A6EB40E296EC2
:10311800660EE82EFED7292EFCD72A2EFAD725C010
:1031280019F026C01AF027C01BF028C01CF0BFEC0D
:1031380018F0190E2A6E5A0E296EB20EE82EFED716
:10314800292EFCD72A2EFAD725C01DF026C01EF03E
:1031580027C01FF028C020F0B5EC13F0090E2A6E26
:103168001E0E296EE40EE82EFED7292EFCD72A2E35
:10317800FAD700D01200F3EF18F019C0D9FF1AC01F
:10318800DAFFDF50D8B4CBEF18F0CDEF18F0D2EF5C
:1031980018F019C0D9FF1AC0DAFFDF061BC0D9FF23
:1031A8001CC0DAFFDF50D8B4DCEF18F0DEEF18F0FF
:1031B800E3EF18F01BC0D9FF1CC0DAFFDF0619C007
:1031C8000EF01AC00FF0F1EC11F01BC00EF01CC08D
:1031D8000FF0F1EC11F0350EE82EFED700F019C013
:1031E800D9FF1AC0DAFFDF50D8B4FDEF18F0FFEFAF
:1031F80018F00BEF19F01BC0D9FF1CC0DAFFDF5025
:10320800D8A409EF19F00BEF19F0C1EF18F012006C
:103218000DC001F00EC002F00FC003F010C004F0A2
:1032280011C005F012C006F013C007F014C008F072
:1032380052EC17F0D8A023EF19F025EF19F044EF5E
:1032480019F015C001F016C002F017C003F018C03D
:1032580004F00DC005F00EC006F00FC007F010C056
:1032680008F052EC17F0D8A03CEF19F03EEF19F037
:1032780044EF19F0000E0E6E010E0D6E48EF19F0B6
:10328800000E0E6E000E0D6E1200000E0C6E000E7B
:103298000B6E09500A10D8B454EF19F056EF19F014
:1032A8007EEF19F0010E0D6E5EEF19F0D890093619
:1032B8000A360D2A0AAE63EF19F065EF19F05AEFD6
:1032C80019F0D8900B360C360950075C0A5008588C
:1032D800D8A071EF19F073EF19F078EF19F00950D1
:1032E800075E0A50085A0B80D8900A3209320D2E10
:1032F80065EF19F00BC007F00CC008F012002FECB6
:103308001AF020EE0CF00C50D9260D50DA2205C028
:10331800DEFF06C0DDFF57EC1AF020EE0EF00C5071
:10332800D9260D50DA2205C0DEFF06C0DDFF7FEC8E
:103338001AF020EE10F00C50D9260D50DA2205C0F4
:10334800DEFF06C0DDFFA7EC1AF020EE12F00C50ED
:10335800D9260D50DA2205C0DEFF06C0DDFF1200B7
:10336800D3CF0BF00C6AD4500A6E096A09500B12BD
:103378000A500C12D8900534D96E0634DA6E07500C
:10338800D9260850DA220BC0DEFF0CC0DDFFD8902A
:103398000534D96E0634DA6E0350D9260450DA2281
:1033A80001C0DEFF02C0DDFF000ED46E000ED36E3A
:1033B800120020EE01F01950D9261A50DA22000E18
:1033C800DF6E20EE01F01B50D9261C50DA22000EC9
:1033D800DF6E19C0D9FF1AC0DAFF320EDF6E1BC0CC
:1033E800D9FF1CC0DAFF320EDF6E19C00EF01AC00A
:1033F8000FF0F1EC11F01BC00EF01CC00FF0F1EC57
:1034080011F0120020EE01F01950D9261A50DA22D4
:10341800010EDF6E20EE01F01B50D9261C50DA2277
:10342800010EDF6E19C0D9FF1AC0DAFF0D0EDF6E6C
:103438001BC0D9FF1CC0DAFF0D0EDF6E19C00EF0DD
:103448001AC00FF0F1EC11F01BC00EF01CC00FF009
:10345800F1EC11F01200FFEC1BF0520EEEEC1BF039
:10346800B40EEEEC1BF004EC1CF0530EEEEC1BF06B
:10347800010E38EC1BF0076E07500A6E0B6A000E3F
:1034880038EC1BF0076E0750096E086A0A500810DE
:103498000A6E0B5009100B6EFAEC1BF00AC005F00F
:1034A8000BC006F01200FFEC1BF0520EEEEC1BF006
:1034B800B60EEEEC1BF004EC1CF0530EEEEC1BF019
:1034C800010E38EC1BF0076E07500A6E0B6A000EEF
:1034D80038EC1BF0076E0750096E086A0A5008108E
:1034E8000A6E0B5009100B6EFAEC1BF00AC005F0BF
:1034F8000BC006F01200FFEC1BF0520EEEEC1BF0B6
:10350800B80EEEEC1BF004EC1CF0530EEEEC1BF0C6
:10351800010E38EC1BF0076E07500A6E0B6A000E9E
:1035280038EC1BF0076E0750096E086A0A5008103D
:103538000A6E0B5009100B6EFAEC1BF00AC005F06E
:103548000BC006F01200FFEC1BF0520EEEEC1BF065
:10355800BA0EEEEC1BF004EC1CF0530EEEEC1BF074
:10356800010E38EC1BF0076E07500A6E0B6A000E4E
:1035780038EC1BF0076E0750096E086A0A500810ED
:103588000A6E0B5009100B6EFAEC1BF00AC005F01E
:103598000BC006F0120057EC1AF020EE06F00C50A3
:1035A800D9260D50DA2205C0DEFF06C0DDFF7FEC0C
:1035B8001AF020EE08F00C50D9260D50DA2205C07A
:1035C800DEFF06C0DDFFA7EC1AF020EE0AF00C5073
:1035D800D9260D50DA2205C0DEFF06C0DDFF120035
:1035E80057EC1AF00CC0D9FF0DC0DAFF05C0DEFF9A
:1035F80006C0DDFF7FEC1AF020EE02F00C50D92651
:103608000D50DA2205C0DEFF06C0DDFFA7EC1AF078
:1036180020EE04F00C50D9260D50DA2205C0DEFF4A
:1036280006C0DDFF12008594839E8598879C7D9453
:103638007B9E7D987F9CBD508F0B4009BD6EE00E30
:10364800BE16BF50F00B0109BF6E630EBC6EBD8E77
:103658000A0E0E01746F0B0E696F000EA36E000E3A
:10366800A06EA48EA18E1200036E88EC1BF00E01D2
:10367800DA8788EC1BF0D5CE04F088EC1BF00350F9
:10368800D8B449EF1BF04DEF1BF0026A022A4EEF47
:103698001BF0026A023A02460E01DA510218DF0BE9
:1036A8000218DA6FDA890450120073EC1BF0010E6D
:1036B800036E000ED0EC1BF03F0E056E550EE82E83
:1036C800FED7052EFCD700F0030E036E000ED0ECDB
:1036D8001BF0D50E036E010ED0EC1BF012000E018C
:1036E800D951F00B0809D96FD98B9F0ED66F848AF0
:1036F800848CA79BA79D1D0E1D6F1E0E1C6F1C0E94
:103708006F6F1B0E706F12000E01D8B58EEF1BF095
:1037180090EF1BF088EF1BF0DACE01F01F0E0116B8
:10372800D8A499EF1BF09BEF1BF088EF1BF0120059
:1037380001500302F3CF05F0F4CF06F00150040264
:10374800F350062602500302F350062605C001F086
:1037580006C002F0120001EE00F03C0EEE6AE80628
:10376800FDE100EEB8F0420EEE6AE806FDE15F907A
:103778005F920001C7EF06F0120E0E01626F110E84
:10378800156F8382E997E895330EE56F000EE66FB3
:10379800E789E88BE78F1200046EFFEC1BF0520EEE
:1037A800EEEC1BF004508009EEEC1BF00350EEEC3D
:1037B8001BF0FAEC1BF01200D6501F0B4009D66E16
:1037C800D6880F0ED612D588000ED46E000ED36E92
:1037D800D58E1200026E88EC1BF002C0D5FE1200D6
:1037E8000E012B81298BF28CF28E120088EC1BF0D3
:1037F8000E01DA85120088EC1BF00E01DA81120046
:0A38080088EC1BF00E01DA831200B9
:020000040020DA
:10000000FF0FFF0FFF0FFF0FFF0FFF0FFF0FFF0F80
:020000040030CA
:0C000000AAFFFFFF9FFFFFFFFFFFFFFFB5
:00000001FF
