:0400000014EF00F009
:100008005F820E0133AB0BEF00F00DEF00F012EF43
:1000180000F0000ED46E000ED36E339B5F92110079
:100028009DEF1BF0000E0001736F090E726F590EE1
:100038002C6E170E2D6E370E2E6E3F0E2F6E20EE85
:1000480010F05B50D9265C50DA22DECF60F0DDCFAD
:1000580061F060C001F061C002F0036A046A000E3A
:10006800CAEC12F001C028F002C029F003C02AF03F
:1000780004C02BF01BEC0CF028C045F029C046F05A
:100088002AC047F02BC048F0D00E2C6EB30E2D6E50
:10009800590E2E6E3E0E2F6E20EE0EF05B50D926B6
:1000A8005C50DA22DECF62F0DDCF63F062C001F08F
:1000B80063C002F0036A046A000ECAEC12F001C0C1
:1000C80028F002C029F003C02AF004C02BF01BEC72
:1000D8000CF028C041F029C042F02AC043F02BC0E0
:1000E80044F0BBEC09F041C068F042C069F043C07D
:1000F8006AF044C06BF0980E2C6EDD0E2D6E930ED8
:100108002E6E3D0E2F6E20EE12F05B50D9265C50FD
:10011800DA22DECF60F0DDCF61F060C001F061C0AF
:1001280002F0036A046A000ECAEC12F001C028F05B
:1001380002C029F003C02AF004C02BF01BEC0CF01D
:1001480028C045F029C046F02AC047F02BC048F027
:1001580068C041F069C042F06AC043F06BC044F027
:10016800BBEC09F041C051F042C052F043C053F01B
:1001780044C054F0BFEC16F051C074F052C075F092
:10018800000E2C6E400E2D6E1C0E2E6E460E2F6E1F
:100198005BC0D9FF5CC0DAFFDECF60F0DDCF61F075
:1001A80020EE06F05B50D9265C50DA22DECF62F0F2
:1001B800DDCF63F000016051625F6151635B62C033
:1001C80001F063C002F0036A046A000ECAEC12F080
:1001D80001C013F002C014F003C015F004C016F0FB
:1001E8005BC0D9FF5CC0DAFFDECF64F0DDCF65F01D
:1001F80020EE0EF05B50D9265C50DA22DECF66F096
:10020800DDCF67F000016451665F6551675B66C0CA
:1002180001F067C002F0036A046A000ECAEC12F02B
:1002280001C00FF002C010F003C011F004C012F0BA
:1002380013EC10F00FC028F010C029F011C02AF0FC
:1002480012C02BF01BEC0CF028C051F029C052F062
:100258002AC053F02BC054F0BFEC16F051C06CF01C
:1002680052C06DF0000E2C6E400E2D6E1C0E2E6EC0
:10027800460E2F6E20EE02F05B50D9265C50DA2233
:10028800DECF60F0DDCF61F020EE08F05B50D926BC
:100298005C50DA22DECF62F0DDCF63F000016051FE
:1002A800625F6151635B62C001F063C002F0036A80
:1002B800046A000ECAEC12F001C013F002C014F078
:1002C80003C015F004C016F020EE02F05B50D926EA
:1002D8005C50DA22DECF64F0DDCF65F020EE10F05E
:1002E8005B50D9265C50DA22DECF66F0DDCF67F0AE
:1002F80000016451665F6551675B66C001F067C0C5
:1003080002F0036A046A000ECAEC12F001C00FF092
:1003180002C010F003C011F004C012F013EC10F08A
:100328000FC028F010C029F011C02AF012C02BF01D
:100338001BEC0CF028C051F029C052F02AC053F031
:100348002BC054F0BFEC16F051C06EF052C06FF0E5
:10035800000E2C6E400E2D6E1C0E2E6E460E2F6E4D
:1003680020EE04F05B50D9265C50DA22DECF60F034
:10037800DDCF61F020EE0AF05B50D9265C50DA221E
:10038800DECF62F0DDCF63F000016051625F615142
:10039800635B62C001F063C002F0036A046A000E86
:1003A800CAEC12F001C013F002C014F003C015F03B
:1003B80004C016F020EE04F05B50D9265C50DA2217
:1003C800DECF64F0DDCF65F020EE12F05B50D92669
:1003D8005C50DA22DECF66F0DDCF67F000016451B1
:1003E800665F6551675B66C001F067C002F0036A2B
:1003F800046A000ECAEC12F001C00FF002C010F03F
:1004080003C011F004C012F013EC10F00FC028F074
:1004180010C029F011C02AF012C02BF01BEC0CF010
:1004280028C051F029C052F02AC053F02BC054F014
:10043800BFEC16F051C070F052C071F06CC001F002
:100448006DC002F0036A046A000ECAEC12F001C023
:100458000FF002C010F003C011F004C012F06EC01B
:1004680001F06FC002F0036A046A000ECAEC12F0D1
:1004780001C013F002C014F003C015F004C016F058
:1004880013EC10F00FC076F010C077F011C078F0C0
:1004980012C079F06CC001F06DC002F0036A046A02
:1004A800000ECAEC12F001C00FF002C010F003C039
:1004B80011F004C012F070C001F071C002F0036ABC
:1004C800046A000ECAEC12F001C013F002C014F066
:1004D80003C015F004C016F013EC10F00FC07AF04A
:1004E80010C07BF011C07CF012C07DF070C001F02C
:1004F80071C002F0036A046A000ECAEC12F001C06F
:100508000FF002C010F003C011F004C012F06EC06A
:1005180001F06FC002F0036A046A000ECAEC12F020
:1005280001C013F002C014F003C015F004C016F0A7
:1005380013EC10F00FC07EF010C07FF011C080F0F7
:1005480012C081F0000179BFAEEF02F0ACEF02F00B
:10055800B6EF02F0000E766F000E776F000E786F20
:10056800000E796F7DBFBDEF02F0BBEF02F0C5EF63
:1005780002F0000E7A6F000E7B6F000E7C6F000E8B
:100588007D6F81BFCCEF02F0CAEF02F0D4EF02F02A
:10059800000E7E6F000E7F6F000E806F000E816F61
:1005A80076C00DF077C00EF078C00FF079C010F06B
:1005B800330E116E330E126EA30E136E400E146EB0
:1005C800000E156E000E166EA40E176E410E186EF4
:1005D800FDEC18F00D040E10D8A4F5EF02F0F7EFBB
:1005E80002F04DEF03F07AC00DF07BC00EF07CC036
:1005F8000FF07DC010F0CD0E116ECC0E126E0C0EE9
:10060800136E400E146E330E156E330E166E730E87
:10061800176E400E186EFDEC18F00D040E10D8A4DD
:1006280018EF03F01AEF03F04DEF03F07EC00DF062
:100638007FC00EF080C00FF081C010F0660E116E02
:10064800660E126EE60E136E3F0E146E000E156ED9
:10065800000E166EB00E176E400E186EFDEC18F0F8
:100668000D040E10D8A43BEF03F03DEF03F04DEF5F
:1006780003F0210E0001745D030E7559D8A047EFF1
:1006880003F049EF03F04DEF03F0000E736F000E17
:10069800726F76C00DF077C00EF078C00FF079C099
:1006A80010F0CD0E116ECC0E126E4C0E136E3E0E67
:1006B800146E480E156EE10E166EFA0E176E3E0E8B
:1006C800186EFDEC18F00D040E10D8A46EEF03F0B0
:1006D80070EF03F0C6EF03F07AC00DF07BC00EF0A8
:1006E8007CC00FF07DC010F0290E116E5C0E126EEA
:1006F8008F0E136E3E0E146E3D0E156E0A0E166E9C
:10070800170E176E3F0E186EFDEC18F00D040E1044
:10071800D8A491EF03F093EF03F0C6EF03F07EC087
:100728000DF07FC00EF080C00FF081C010F0330EC6
:10073800116E330E126E330E136E3F0E146E660E6C
:10074800156E660E166E660E176E3F0E186EFDEC71
:1007580018F00D040E10D8A4B4EF03F0B6EF03F0B0
:10076800C6EF03F0440E0001745D030E7559D8A05E
:10077800C0EF03F0C2EF03F0C6EF03F0000E736F93
:10078800010E726F76C00DF077C00EF078C00FF0D2
:1007980079C010F0CD0E116ECC0E126ECC0E136E09
:1007A8003D0E146ECD0E156ECC0E166E0C0E176E19
:1007B8003F0E186EFDEC18F00D040E10D8A4E7EFEC
:1007C80003F0E9EF03F034EF04F07AC00DF07BC0DA
:1007D8000EF07CC00FF07DC010F0CD0E116ECC0E67
:1007E800126ECC0E136E3D0E146E140E156EAE0EF8
:1007F800166EC70E176E3E0E186EFDEC18F00D043F
:100808000E10D8A40AEF04F00CEF04F034EF04F053
:100818007EC00DF07FC00EF080C00FF081C010F0D8
:10082800000E116E000E126E800E136E3F0E146EC7
:100838009A0E156E990E166E990E176E3F0E186E5B
:10084800FDEC18F00D040E10D8A42DEF04F02FEFD6
:1008580004F034EF04F0000E0001736F020E726FA3
:1008680076C00DF077C00EF078C00FF079C010F0A8
:100878009A0E116E990E126E990E136E3F0E146E2B
:10088800330E156E330E166EB30E176E3F0E186EBE
:10089800FDEC18F00D040E10D8A455EF04F057EF36
:1008A80004F0ADEF04F07AC00DF07BC00EF07CC010
:1008B8000FF07DC010F0000E116E000E126EC00E0B
:1008C800136E3F0E146EEC0E156E510E166ED80E8A
:1008D800176E3F0E186EFDEC18F00D040E10D8A41C
:1008E80078EF04F07AEF04F0ADEF04F07EC00DF07D
:1008F8007FC00EF080C00FF081C010F0CD0E116ED9
:10090800CC0E126E4C0E136E3F0E146E660E156EE4
:10091800660E166E660E176E3F0E186EFDEC18F01A
:100928000D040E10D8A49BEF04F09DEF04F0ADEF7A
:1009380004F0530E0001745D030E7559D8A0A7EF9B
:1009480004F0A9EF04F0ADEF04F0000E736F030E8E
:10095800726F76C00DF077C00EF078C00FF079C0D6
:1009680010F0140E116EAE0E126EC70E136E3F0EFF
:10097800146E710E156E3D0E166EEA0E176E3F0E52
:10098800186EFDEC18F00D040E10D8A4CEEF04F08C
:10099800D0EF04F026EF05F07AC00DF07BC00EF022
:1009A8007CC00FF07DC010F0A40E116E700E126E98
:1009B8009D0E136E3F0E146E000E156E000E166E11
:1009C800C00E176E3F0E186EFDEC18F00D040E10D9
:1009D800D8A4F1EF04F0F3EF04F026EF05F07EC0A1
:1009E8000DF07FC00EF080C00FF081C010F0330E04
:1009F800116E330E126E930E136E3F0E146E660E4A
:100A0800156E660E166EA60E176E3F0E186EFDEC6E
:100A180018F00D040E10D8A414EF05F016EF05F029
:100A280026EF05F03F0E0001745D030E7559D8A03E
:100A380020EF05F022EF05F026EF05F0000E736FAA
:100A4800040E726F76C00DF077C00EF078C00FF00C
:100A580079C010F0660E116E660E126E460E136E99
:100A6800400E146E330E156E330E166E9B0E176EF7
:100A7800400E186EFDEC18F00D040E10D8A447EFC8
:100A880005F049EF05F09FEF05F07AC00DF07BC047
:100A98000EF07CC00FF07DC010F0CD0E116ECC0EA4
:100AA800126E0C0E136E400E146EB80E156E1E0EDE
:100AB800166E350E176E400E186EFDEC18F00D040C
:100AC8000E10D8A46AEF05F06CEF05F09FEF05F063
:100AD8007EC00DF07FC00EF080C00FF081C010F016
:100AE8005C0E116E8F0E126EA20E136E3F0E146EF8
:100AF800660E156E660E166EE60E176E3F0E186EB3
:100B0800FDEC18F00D040E10D8A48DEF05F08FEF52
:100B180005F09FEF05F0210E0001745D030E755975
:100B2800D8A099EF05F09BEF05F09FEF05F0000EB8
:100B3800736F050E726F76C00DF077C00EF078C037
:100B48000FF079C010F09A0E116E990E126E190EF0
:100B5800136E3F0E146EF60E156E280E166E5C0E92
:100B6800176E3F0E186EFDEC18F00D040E10D8A489
:100B7800C0EF05F0C2EF05F018EF06F07AC00DF0EF
:100B88007BC00EF07CC00FF07DC010F09A0E116E85
:100B9800990E126E190E136E3F0E146E9A0E156E84
:100BA800990E166E590E176E3F0E186EFDEC18F062
:100BB8000D040E10D8A4E3EF05F0E5EF05F018EFEB
:100BC80006F07EC00DF07FC00EF080C00FF081C02F
:100BD80010F0330E116E330E126E730E136E3F0E3D
:100BE800146E290E156E5C0E166E8F0E176E3F0E64
:100BF800186EFDEC18F00D040E10D8A406EF06F0E0
:100C080008EF06F018EF06F0350E0001745D030ECC
:100C18007559D8A012EF06F014EF06F018EF06F099
:100C2800000E736F060E726F76C00DF077C00EF06F
:100C380078C00FF079C010F0660E116E660E126E55
:100C4800660E136E3F0E146ECD0E156ECC0E166E1C
:100C58008C0E176E3F0E186EFDEC18F00D040E107A
:100C6800D8A439EF06F03BEF06F091EF06F07AC012
:100C78000DF07BC00EF07CC00FF07DC010F0CD0EE3
:100C8800116ECC0E126E4C0E136E3F0E146E000ECB
:100C9800156E000E166E800E176E3F0E186EFDEC68
:100CA80018F00D040E10D8A45CEF06F05EEF06F005
:100CB80091EF06F07EC00DF07FC00EF080C00FF0FF
:100CC80081C010F0330E116E330E126E730E136E58
:100CD8003F0E146ECD0E156ECC0E166E8C0E176E62
:100CE8003F0E186EFDEC18F00D040E10D8A47FEF1F
:100CF80006F081EF06F091EF06F07B0E0001745DBF
:100D0800030E7559D8A08BEF06F08DEF06F091EF22
:100D180006F0000E736F070E726F00016D5107E148
:100D2800320E6C5DD8B09BEF06F09DEF06F0B7EF82
:100D380006F06F5107E1320E6E5DD8B0A6EF06F0EF
:100D4800A8EF06F0B7EF06F0715107E1320E705DBB
:100D5800D8B0B1EF06F0B3EF06F0B7EF06F0000E2B
:100D6800736F080E726F72C05BF073C05CF0120094
:100D7800000E026E630E016E05EC1BF047EC1BF0D3
:100D8800AEEC1BF0CEEC1BF0190E5E6E5A0E5D6ECB
:100D9800B20EE82EFED75D2EFCD75E2EFAD7E2EC17
:100DA8001BF086840E01B4958686B497000E000168
:100DB800A66F010EA76FA30EA86F0F0EA96F7D0E69
:100DC800AA6F0F0EAB6F040EAC6F000EAE6F630E02
:100DD800AD6F000EAF6F010EB06FA00EB16F0F0EAA
:100DE800B26F7F0EB36F0F0EB46F060EB56F000EA5
:100DF800B76F630EB66F000E9F6F000E9E6F000EEA
:100E0800A16F000EA06F000EA36F000EA26F000E60
:100E1800A56F000EA46F7F828792798881987E8E55
:100E2800869E849E7C9E88968096000E836F000E18
:100E3800826F76EF07F07C8E8EB425EF07F027EFF0
:100E480007F020EF07F08EB42CEF07F02EEF07F035
:100E580040EF07F07C9E920E0C6E000E0D6EBDECFE
:100E68001AF0190E5E6E5A0E5D6EB20EE82EFED79F
:100E78005D2EFCD75E2EFAD77C8E8EB446EF07F037
:100E880048EF07F041EF07F08EB44DEF07F04FEF52
:100E980007F061EF07F07C9E920E0C6E000E0D6E4F
:100EA800E2EC1AF0190E5E6E5A0E5D6EB20EE82E66
:100EB800FED75D2EFCD75E2EFAD780868EB667EFFA
:100EC80007F069EF07F062EF07F08EB66EEF07F0F4
:100ED80070EF07F076EF07F08096000E0001836F41
:100EE800010E826F000182518311D8B47EEF07F0A2
:100EF80080EF07F01FEF07F0000E896F090E886F6B
:100F0800000E8B6F090E8A6F000E8D6F090E8C6FA5
:100F1800000E856F090E846F000E8F6F000E8E6FA6
:100F2800000E876F010E866F920E0C6E000E0D6E0E
:100F380074EC19F000018E518F11D8A4A6EF07F0B8
:100F4800A8EF07F0B2EF07F0920E5B6E000E5C6E32
:100F580016EC00F05BC088F05CC089F000018E05DB
:100F68008F11D8A4BAEF07F0BCEF07F0C6EF07F06F
:100F7800920E5B6E000E5C6E16EC00F05BC08AF0A1
:100F88005CC08BF0020E00018E198F11D8A4CFEF30
:100F980007F0D1EF07F0DBEF07F0920E5B6E000E63
:100FA8005C6E16EC00F05BC08CF05CC08DF0030E3C
:100FB80000018E198F11D8A4E4EF07F0E6EF07F0CF
:100FC800F7EF07F0920E5B6E000E5C6E16EC00F009
:100FD8005BC084F05CC085F0000E00018F6F000ECE
:100FE8008E6FF9EF07F08E4B8F2B8A51881907E126
:100FF8008B518919D8A403EF08F005EF08F070EFBA
:1010080008F08C518A1907E18D518B19D8A40FEF7C
:1010180008F011EF08F070EF08F084518C1907E11F
:1010280085518D19D8A41BEF08F01DEF08F070EF5B
:1010380008F088C090F089C091F0915107E1070E3F
:10104800905DD8B02AEF08F02CEF08F045EF08F0D3
:1010580090C001F091C002F0D20E036E000E046E33
:10106800CCC005F0CDC006F0D20E076E000E086E9B
:1010780097EC1AF0000E0001876F010E866F60EF83
:1010880008F0090E90199111D8A44DEF08F04FEF10
:1010980008F060EF08F086058711D8A456EF08F02D
:1010A80058EF08F060EF08F0000ED46E000ED36E13
:1010B800000E876F000E866F000E896F090E886F0D
:1010C800000E8B6F090E8A6F000E8D6F090E8C6FE4
:1010D800000E856F090E846F90519111D8A477EF97
:1010E80008F079EF08F08FEF08F0A60E1D6E000EDD
:1010F8001E6EAF0E1F6E000E206E82EC15F0090EEC
:101108005E6E1E0E5D6EE40EE82EFED75D2EFCD7D9
:101118005E2EFAD700D0000190059111D8A497EF60
:1011280008F099EF08F0AFEF08F0A60E1D6E000E5C
:101138001E6EAF0E1F6E000E206EA4EC13F0090E8B
:101148005E6E1E0E5D6EE40EE82EFED75D2EFCD799
:101158005E2EFAD700D0020E000190199111D8A482
:10116800B8EF08F0BAEF08F0D0EF08F0A60E1D6E41
:10117800000E1E6EAF0E1F6E000E206E44EC14F0B3
:10118800090E5E6E1E0E5D6EE40EE82EFED75D2E15
:10119800FCD75E2EFAD700D0030E000190199111EA
:1011A800D8A4D9EF08F0DBEF08F0F1EF08F0A60EAD
:1011B800256E000E266EAF0E276E000E286EC4EC4C
:1011C80017F0090E5E6E1E0E5D6EE40EE82EFED759
:1011D8005D2EFCD75E2EFAD700D0040E00019019C0
:1011E8009111D8A4FAEF08F0FCEF08F012EF09F01B
:1011F800A60E256E000E266EAF0E276E000E286E08
:101208003AEC18F0090E5E6E1E0E5D6EE40EE82EC6
:10121800FED75D2EFCD75E2EFAD700D0050E000152
:1012280090199111D8A41BEF09F01DEF09F033EFC5
:1012380009F0A60E1D6E000E1E6EAF0E1F6E000E7C
:10124800206EE3EC14F0090E5E6E1E0E5D6EE40E69
:10125800E82EFED75D2EFCD75E2EFAD700D0060EFC
:10126800000190199111D8A43CEF09F03EEF09F064
:1012780054EF09F0A60E1D6E000E1E6EAF0E1F6E07
:10128800000E206E21EC16F0090E5E6E1E0E5D6ECD
:10129800E40EE82EFED75D2EFCD75E2EFAD700D0DE
:1012A800070E000190199111D8A45DEF09F05FEFC6
:1012B80009F081EF09F0A60E2B6E000E2C6EAF0E12
:1012C8002D6E000E2E6ED20E2F6E000E306ECCC01C
:1012D80031F0CDC032F0D20E336E000E346E30ECE9
:1012E8000EF0090E5E6E1E0E5D6EE40EE82EFED741
:1012F8005D2EFCD75E2EFAD700D0080E000190199B
:101308009111D8A48AEF09F08CEF09F0A2EF09F047
:10131800A60E196E000E1A6EAF0E1B6E000E1C6E16
:10132800B0EC18F0090E5E6E1E0E5D6EE40EE82E2F
:10133800FED75D2EFCD75E2EFAD700D0090E00012D
:1013480090199111D8A4ABEF09F0ADEF09F098EF1F
:1013580007F0A60E196E000E1A6EAF0E1B6E000E69
:101368001C6ECEEC19F098EF07F014EF00F0445023
:10137800800B4D6E445044244F6E43AEC6EF09F0C7
:10138800C8EF09F0C9EF09F04F804F50D8B4CFEF3C
:1013980009F0D1EF09F0E6EF09F04F28D8A4D7EF0C
:1013A80009F0D9EF09F0E1EF09F0000E416E000EE7
:1013B800426E000E436E000E446E438E000E446E65
:1013C800EEEF09F0000E416E000E426E000E436E05
:1013D800000E446E4850800B4E6E4D504E18D8B4D7
:1013E800F8EF09F0FAEF09F0FBEF09F04D8C4850DF
:1013F80048244E6E47AE03EF0AF005EF0AF006EFF9
:101408000AF04E804E50D8B40CEF0AF00EEF0AF0F6
:1014180023EF0AF04E28D8A414EF0AF016EF0AF0CA
:101428001EEF0AF0000E456E000E466E000E476E67
:10143800000E486E478E000E486E2BEF0AF0000E25
:10144800456E000E466E000E476E000E486E4F50F9
:101458004E5CD8B032EF0AF034EF0AF05BEF0AF0D6
:101468004DAC39EF0AF03BEF0AF03DEF0AF0800E81
:101478004D1A4FC050F04EC04FF050C04EF041C012
:1014880050F045C041F050C045F042C050F046C051
:1014980042F050C046F043C050F047C043F050C03F
:1014A80047F044C050F048C044F050C048F0000E27
:1014B800506E4F504EC049F04A6A495E000E4A5A73
:1014C8004ABE70EF0AF04A5009E11A0E495CD8A0EA
:1014D80070EF0AF072EF0AF0A9EF0AF041504210DB
:1014E80043104410D8A47BEF0AF07EEF0AF0010EF7
:1014F8007FEF0AF0000E506E000E416E000E426E35
:10150800000E436E000E446E4EC04FF0B2EF0AF06C
:1015180050A091EF0AF093EF0AF099EF0AF0D890F3
:1015280050300109506E9BEF0AF0D890503241A01C
:10153800A0EF0AF0A2EF0AF0A3EF0AF0508E4434AD
:1015480044324332423241324F2A4E504F5CD8A087
:10155800B0EF0AF0B2EF0AF08CEF0AF04DBCB7EF2B
:101568000AF0B9EF0AF0F9EF0AF04F50D8A4BFEF2C
:101578000AF0C1EF0AF0CBEF0AF0000E416E000E40
:10158800426E000E436E000E446E1AEF0CF045508A
:10159800412646504222475043224850442244A004
:1015A800D8EF0AF0DAEF0AF086EF0BF050A0DFEF81
:1015B8000AF0E1EF0AF0E7EF0AF0D890503001099D
:1015C800506EE9EF0AF0D890503241A0EEEF0AF0E1
:1015D800F0EF0AF0F1EF0AF0508E4434443243320F
:1015E800423241324F2A86EF0BF04550415C46505B
:1015F8004258475043584450800A496E4850800A20
:101608004958D8B00AEF0BF00CEF0BF037EF0BF09E
:101618004150455C496E425046584A6E43504758BF
:101628004B6E445048584C6EFF0E4924416EFF0ED5
:101638004A20426EFF0E4B20436EFF0E4C20446E34
:10164800800E4D1A506C5050D8A42DEF0BF02FEF90
:101658000BF03FEF0BF0010E4126000E4222432211
:1016680044223FEF0BF04550415E4650425A4750E6
:10167800435A4850445A4150421043104410D8A489
:1016880048EF0BF04AEF0BF07FEF0BF05050D8A467
:1016980050EF0BF052EF0BF07FEF0BF0000E416EA6
:1016A800000E426E000E436E000E446E1AEF0CF0F0
:1016B800D890413642364336443650AE66EF0BF08A
:1016C80068EF0BF069EF0BF0418050A06EEF0BF064
:1016D80070EF0BF074EF0BF0D880503676EF0BF00C
:1016E800D89050364F50D8B47CEF0BF07EEF0BF00B
:1016F8007FEF0BF04F0643AE84EF0BF086EF0BF055
:101708005CEF0BF0000E4E6E50AE8DEF0BF08FEFCE
:101718000BF0A7EF0BF050C049F07F0E4916D8B474
:1017280098EF0BF09AEF0BF09EEF0BF0010E4E6E58
:10173800A7EF0BF041A0A3EF0BF0A5EF0BF0A7EF7D
:101748000BF09AEF0BF04E50D8B4ADEF0BF0AFEFB3
:101758000BF0DAEF0BF0010E4126000E4222432275
:10176800442244A0BAEF0BF0BCEF0BF0DAEF0BF019
:1017780041C049F042C04AF043C04BF044C04CF06D
:101788004C344C324B324A32493249C041F04AC09B
:1017980042F04BC043F04CC044F04F28D8B4D7EFC8
:1017A8000BF0D9EF0BF0DAEF0BF04F2A4F28D8B433
:1017B800E0EF0BF0E2EF0BF0EAEF0BF04F50D8A49C
:1017C800E8EF0BF0EAEF0BF0FCEF0BF0000E416EC8
:1017D800000E426E000E436E000E446E4F50D8A4A9
:1017E800F8EF0BF0FAEF0BF0FCEF0BF0000E4D6E7C
:1017F8004FA001EF0CF003EF0CF006EF0CF0438E56
:1018080007EF0CF0439ED8904F30446E4DAE0FEF6B
:101818000CF011EF0CF012EF0CF0448E41C041F0C7
:1018280042C042F043C043F044C044F012002B5081
:10183800800B346E2B502B243A6E2AAE26EF0CF018
:1018480028EF0CF029EF0CF03A803A50D8B42FEF7B
:101858000CF031EF0CF044EF0CF03A28D8A437EF35
:101868000CF039EF0CF041EF0CF0000E286E000E72
:10187800296E000E2A6E000E2B6E2A8E4CEF0CF08D
:10188800000E286E000E296E000E2A6E000E2B6EBA
:101898002F50800B341A2F502F24396E2EAE57EF4D
:1018A8000CF059EF0CF05AEF0CF039803950D8B4DD
:1018B80060EF0CF062EF0CF075EF0CF03928D8A44B
:1018C80068EF0CF06AEF0CF072EF0CF0000E2C6E63
:1018D800000E2D6E000E2E6E000E2F6E2E8E7DEFDA
:1018E8000CF0000E2C6E000E2D6E000E2E6E000EEB
:1018F8002F6E3950D8B483EF0CF085EF0CF08DEFD4
:101908000CF03A50D8A48BEF0CF08DEF0CF097EF59
:101918000CF0000E286E000E296E000E2A6E000EC6
:101928002B6E2FEF0EF02E502802F3CF3FF0F4CF9E
:1019380040F03F50356E366A376A386A40503B6E21
:101948003C6A3D6A3E6A2D502902F3CF3FF0F4CF3E
:1019580040F03F503526000E3622372238224050BC
:101968003B26000E3C223D223E222C502A02F3CF79
:101978003FF0F4CF40F03F503526000E3622372294
:10198800382240503B26000E3C223D223E2237C0E2
:1019980038F036C037F035C036F0356A2C50290299
:1019A800F3CF3FF0F4CF40F03F5035264050362279
:1019B800000E3722000E38222D502802F3CF3FF0B8
:1019C800F4CF40F03F50352640503622000E3722E3
:1019D800000E382237C038F036C037F035C036F040
:1019E800356A2C502802F3CF3FF0F4CF40F03F5037
:1019F800352640503622000E3722000E38222E504F
:101A08002902F3CF3FF0F4CF40F03F503B2640503F
:101A18003C22000E3D22000E3E222D502A02F3CF1A
:101A28003FF0F4CF40F03F503B2640503C22000EA0
:101A38003D22000E3E222E502A02F3CF3FF0F4CF73
:101A480040F03F50306E4050316E326A336A32C0D7
:101A580033F031C032F030C031F0306A30503B26BC
:101A680031503C2232503D2233503E2235C030F0B6
:101A780036C031F037C032F038C033F0190E4AEFB3
:101A88000DF0D8903332323231323032E82E45EF11
:101A98000DF030503B2631503C2232503D2233501D
:101AA8003E2237C038F036C037F035C036F0356AD8
:101AB80039503AC030F0316A3026000E3122820E99
:101AC80030243F6EFF0E3120406E80EF0DF0D8902D
:101AD8003B363C363D363E3638AE75EF0DF077EF87
:101AE8000DF078EF0DF03B80D89035363636373626
:101AF80038363F06D8A040063DAE85EF0DF087EF9B
:101B08000DF06BEF0DF0000E396E38AE8EEF0DF064
:101B180090EF0DF0B4EF0DF0FF0E3514306EFF0EA0
:101B28003614316EFF0E3714326E7F0E3814336E52
:101B38003050311032103310D8B4A5EF0DF0A7EFA4
:101B48000DF0ABEF0DF0010E396EB4EF0DF03BA0C8
:101B5800B0EF0DF0B2EF0DF0B4EF0DF0A7EF0DF010
:101B68003950D8B4BAEF0DF0BCEF0DF0E0EF0DF03E
:101B7800010E3B26000E3C223D223E223EA0C7EF2E
:101B88000DF0C9EF0DF0E0EF0DF03BC030F03CC0B8
:101B980031F03DC032F03EC033F0333433323232AC
:101BA8003132303230C03BF031C03CF032C03DF011
:101BB80033C03EF03F4A402A40BEEBEF0DF04050A4
:101BC80008E13F28D8A0EBEF0DF0EDEF0DF0F7EFAF
:101BD8000DF0000E3B6E000E3C6E800E3D6E7F0ECB
:101BE8003E6E25EF0EF040BE04EF0EF0405006E1C9
:101BF8003F04D8B002EF0EF004EF0EF010EF0EF035
:101C0800000E3B6E000E3C6E000E3D6E000E3E6EEA
:101C1800000E346E25EF0EF03FC03AF0FF0E3B1673
:101C2800FF0E3C167F0E3D16000E3E163AA01FEF23
:101C38000EF021EF0EF022EF0EF03D8ED8903A30E4
:101C48003E6E34503E123BC028F03CC029F03DC0E7
:101C58002AF03EC02BF012002BC019F02CC01AF04D
:101C68002DC01BF02EC01CF0B0EC18F02BC01DF0DE
:101C78002CC01EF02DC01FF02EC020F044EC14F034
:101C8800520E366E2B0E356E000EE82EFED7352E10
:101C9800FCD7362EFAD700D0000E3F6E000E3E6EEF
:101CA800FDEF0FF03E50315C356E3F503258366EC6
:101CB800D890353636362FC037F030C038F035502A
:101CC800372636503822FE0E3724D96EFF0E3820BC
:101CD800DA6EDE50DE10D8A474EF0EF076EF0EF058
:101CE80082EF0EF02BC01DF02CC01EF02DC01FF08F
:101CF8002EC020F0A4EC13F0BCEF0FF03E50315C86
:101D0800356E3F503258366ED890353636362FC03D
:101D180037F030C038F03550372636503822FE0EAE
:101D28003724D96EFF0E3820DA6EDE04DE10D8A410
:101D3800A0EF0EF0A2EF0EF0AEEF0EF02BC01DF0EC
:101D48002CC01EF02DC01FF02EC020F082EC15F024
:101D5800BCEF0FF03E50315C356E3F503258366E56
:101D6800D890353636362FC037F030C038F0355079
:101D7800372636503822FE0E3724D96EFF0E38200B
:101D8800DA6E020EDE18DE10D8A4CDEF0EF0CFEF1B
:101D98000EF0DBEF0EF02BC01DF02CC01EF02DC096
:101DA8001FF02EC020F044EC14F0BCEF0FF03E50B2
:101DB800315C356E3F503258366ED89035363636EF
:101DC8002FC037F030C038F035503726365038221B
:101DD800FE0E3724D96EFF0E3820DA6E030EDE1899
:101DE800DE10D8A4FAEF0EF0FCEF0EF008EF0FF0BB
:101DF8002BC025F02CC026F02DC027F02EC028F0CF
:101E08003AEC18F0BCEF0FF03E50315C356E3F50A5
:101E18003258366ED890353636362FC037F030C047
:101E280038F03550372636503822FE0E3724D96E12
:101E3800FF0E3820DA6E040EDE18DE10D8A427EF65
:101E48000FF029EF0FF035EF0FF02BC025F02CC065
:101E580026F02DC027F02EC028F0C4EC17F0BCEFF8
:101E68000FF03E50315C356E3F503258366ED89088
:101E7800353636362FC037F030C038F03550372673
:101E880036503822FE0E3724D96EFF0E3820DA6E0F
:101E9800050EDE18DE10D8A454EF0FF056EF0FF041
:101EA80062EF0FF02BC01DF02CC01EF02DC01FF0EC
:101EB8002EC020F021EC16F0BCEF0FF03E50315C44
:101EC800356E3F503258366ED890353636362FC07C
:101ED80037F030C038F03550372636503822FE0EED
:101EE8003724D96EFF0E3820DA6E060EDE18DE10A3
:101EF800D8A481EF0FF083EF0FF08FEF0FF02BC016
:101F08001DF02CC01EF02DC01FF02EC020F0E3ECF9
:101F180014F0BCEF0FF03E50315C356E3F50325834
:101F2800366ED890353636362FC037F030C038F098
:101F38003550372636503822FE0E3724D96EFF0E1C
:101F48003820DA6E090EDE18DE10D8A4AEEF0FF0D6
:101F5800B0EF0FF0BCEF0FF02BC019F02CC01AF047
:101F68002DC01BF02EC01CF0CEEC19F0BCEF0FF00A
:101F7800000E3D6E000E3C6E2BC019F02CC01AF0FE
:101F88002DC01BF02EC01CF0CEEC19F0000ED46E44
:101F9800000ED36ED5EF0FF0D3CF3CF03D6AD4508E
:101FA8003D263E50315C356E3F503258366ED890E3
:101FB8003536363633C037F034C038F0355037262A
:101FC80036503822FE0E3724D96EFF0E3820DA6ECE
:101FD800DE503C5C3D50800A3B6EDE50800A3B5828
:101FE800D8A0F9EF0FF0FBEF0FF0D0EF0FF03E4A5B
:101FF8003F2A31503E5C32503F58D8A006EF10F0CF
:1020080008EF10F056EF0EF02BC019F02CC01AF0A4
:102018002DC01BF02EC01CF0B0EC18F012001250AE
:10202800800B1F6E12501224266E11AE1EEF10F098
:1020380020EF10F021EF10F026802650D8B427EFBB
:1020480010F029EF10F03EEF10F02628D8A42FEF5B
:1020580010F031EF10F039EF10F0000E0F6E000E97
:10206800106E000E116E000E126E118E000E126EA2
:1020780046EF10F0000E0F6E000E106E000E116E7F
:10208800000E126E1650800B1F1A16501624276E5B
:1020980015AE51EF10F053EF10F054EF10F0278009
:1020A8002750D8B45AEF10F05CEF10F071EF10F031
:1020B8002728D8A462EF10F064EF10F06CEF10F04E
:1020C800000E136E000E146E000E156E000E166EC6
:1020D800158E000E166E79EF10F0000E136E000EBE
:1020E800146E000E156E000E166E13501410151097
:1020F8001610D8A482EF10F084EF10F09CEF10F0C7
:10210800000E0F6E000E106E000E116E000E126E95
:10211800800E11127F0E12121F5012120FC00FF0F4
:1021280010C010F011C011F012C012F0DFEF11F062
:102138002650D8A4A2EF10F0A4EF10F0AEEF10F0E4
:10214800000E0F6E000E106E000E116E000E126E55
:10215800DFEF11F0275026C017F0186A175E000E3F
:10216800185A7F0E1724206E000E1820216E0FC0FB
:102178001BF010C01CF011C01DF012C01EF0000EA4
:102188000F6E000E106E000E116E000E126E000E15
:10219800226E000E236E000E246E000E256E000EB9
:1021A800276E0FEF11F02750D8B4DDEF10F0DFEFF6
:1021B80010F0F6EF10F0D8901B361C361D361E3680
:1021C800D8900F3610361136123625AEEEEF10F0D5
:1021D800F0EF10F0F1EF10F00F80D8902236233690
:1021E8002436253613501B5C14501C5815501D58A6
:1021F80016501E58D8A003EF11F005EF11F00EEF9E
:1022080011F0258C13501B5E14501C5A15501D5A82
:1022180016501E5A272A190E276415EF11F017EFCA
:1022280011F0D7EF10F01B501C101D101E10D8B461
:1022380020EF11F022EF11F03AEF11F022803AEF7F
:1022480011F0D8900F3610361136123625AE2FEF12
:1022580011F031EF11F032EF11F00F80D8902236E3
:102268002336243625362006D8A0210611AE3FEFA6
:1022780011F041EF11F025EF11F0000E276E25AE99
:1022880048EF11F04AEF11F06EEF11F0FF0E221433
:10229800176EFF0E2314186EFF0E2414196E7F0E8E
:1022A80025141A6E1750181019101A10D8B45FEFA9
:1022B80011F061EF11F065EF11F0010E276E6EEF6E
:1022C80011F00FA06AEF11F06CEF11F06EEF11F042
:1022D80061EF11F02750D8B474EF11F076EF11F0D8
:1022E8009AEF11F0010E0F26000E10221122122271
:1022F80012A081EF11F083EF11F09AEF11F00FC0E7
:1023080017F010C018F011C019F012C01AF01A34E2
:102318001A3219321832173217C00FF018C010F0DD
:1023280019C011F01AC012F0204A212A21BEA5EFC7
:1023380011F0215008E12028D8A0A5EF11F0A7EF4F
:1023480011F0B2EF11F0000E216E2068000E0F6E32
:10235800000E106E000E116E000E126E21BEBFEF41
:1023680011F0215006E12004D8B0BDEF11F0BFEF05
:1023780011F0CDEF11F0000E216E000E206E000E50
:102388000F6E000E106E000E116E000E126E000E13
:102398001F6E20C026F026A0D4EF11F0D6EF11F062
:1023A800D9EF11F0118EDAEF11F0119ED890263086
:1023B800126E90EF10F0120020EE01F00E50D926A8
:1023C8000F50DA22DF50D8B4ECEF11F0EEEF11F035
:1023D8001FEF12F00EC0D9FF0FC0DAFFDF50106EEA
:1023E8001050016E026A20EE07F00E50D9260F50E9
:1023F800DA22DECF03F0DDCF04F08AEC1BF001C057
:1024080007F002C008F0000E0A6E640E096E3AEC7E
:1024180019F020EE07F00E50D9260F50DA22DECF41
:1024280011F0DDCF12F00750115C176E08501258EA
:10243800186E42EF12F00EC0D9FF0FC0DAFFDF505E
:10244800106E1050016E026A20EE07F00E50D92669
:102458000F50DA22DECF03F0DDCF04F08AEC1BF058
:1024680001C007F002C008F0000E0A6E640E096E83
:102478003AEC19F007C017F008C018F020EE02F087
:102488000E50D9260F50DA22DECF10F0DDCF11F032
:1024980010C0D9FF11C0DAFF17C0DFFF20EE01F02E
:1024A8000E50D9260F50DA22DF50D8B45EEF12F062
:1024B80060EF12F095EF12F020EE04F00E50D926DE
:1024C8000F50DA22DECF10F0DDCF11F010C0D9FFA7
:1024D80011C0DAFF10EE04F00E50E1260F50E22290
:1024E800E6CF12F0E5CF13F012C0E1FF13C0E2FF10
:1024F800E750146E10EE06F00E50E1260F50E2225F
:10250800E750156E010E166E152A8DEF12F0D89051
:102518001636152E8BEF12F016501410DF6EC9EF19
:1025280012F020EE04F00E50D9260F50DA22DECF3A
:1025380010F0DDCF11F010C0D9FF11C0DAFF10EE96
:1025480004F00E50E1260F50E222E6CF12F0E5CF5C
:1025580013F012C0E1FF13C0E2FFE750146E10EE53
:1025680006F00E50E1260F50E222E750156E010EDC
:10257800166E152AC2EF12F0D8901636152EC0EF37
:1025880012F01650FF0A1414DF6E1200096E09507B
:10259800D8B4D1EF12F0D3EF12F0F5EF12F004BE79
:1025A800DAEF12F0D8EF12F0F5EF12F001C005F0F3
:1025B80002C006F003C007F004C008F0051E061E9E
:1025C800071E081E052A000E06220722082205C03B
:1025D8000BF006C00CF007C00DF008C00EF0FDEFC0
:1025E80012F001C00BF002C00CF003C00DF004C0E3
:1025F8000EF00150021003100410D8A406EF13F0D7
:1026080008EF13F012EF13F0000E016E000E026EC9
:10261800000E036E000E046EA3EF13F0960E0A6E02
:102628001CEF13F00A2AD8900E320D320C320B32FE
:10263800000E0B14056E000E0C14066E000E0D1421
:10264800076EFE0E0E14086E0550061007100810CF
:10265800D8A431EF13F033EF13F016EF13F041EF76
:1026680013F00A2A010E0B26000E0C220D220E2250
:10267800D8900E320D320C320B32000E0B14056E50
:10268800000E0C14066E000E0D14076EFF0E0E14CD
:10269800086E0550061007100810D8A456EF13F05E
:1026A80058EF13F035EF13F060EF13F00A06D890E7
:1026B8000B360C360D360E360DBE65EF13F067EF90
:1026C80013F06FEF13F0020E0A606DEF13F06FEF67
:1026D80013F05AEF13F00AB074EF13F076EF13F01B
:1026E80077EF13F00D9ED8900A320AC005F0066AFB
:1026F800076A086A05C008F0076A066A056A05508D
:102708000B1206500C1207500D1208500E120950E9
:10271800D8B491EF13F093EF13F09BEF13F004BECE
:102728009AEF13F098EF13F09BEF13F00E8E0BC097
:1027380001F00CC002F00DC003F00EC004F012004E
:102748001DC019F01EC01AF01FC01BF020C01CF0DD
:10275800B0EC18F0050E226E0F0E216EF10EE82E69
:10276800FED7212EFCD7222EFAD700F01DC019F073
:102778001EC01AF01FC01BF020C01CF0A5EC19F0F9
:10278800210E226E780E216E980EE82EFED7212E8D
:10279800FCD7222EFAD700D01DC019F01EC01AF09F
:1027A8001FC01BF020C01CF0B0EC18F00D0E226EFC
:1027B8002D0E216ED80EE82EFED7212EFCD7222E04
:1027C800FAD720EE01F01D50D9261E50DA22000E4D
:1027D800DF6E20EE01F01F50D9262050DA22010EBC
:1027E800DF6E000E246E000E236E1DC0D9FF1EC0C2
:1027F800DAFFDF2A1FC0D9FF20C0DAFFDF2A1DC099
:102808000EF01EC00FF0E0EC11F01FC00EF020C05B
:102818000FF0E0EC11F0A00E00D0E82EFDD7234A0F
:10282800242A245009E14B0E235CD8A01EEF14F093
:1028380020EF14F0F9EF13F0100E226E6C0E216EDB
:10284800000EE82EFED7212EFCD7222EFAD700D074
:1028580000D01DC019F01EC01AF01FC01BF020C008
:102868001CF0B0EC18F0050E226E0F0E216EF10E62
:10287800E82EFED7212EFCD7222EFAD700F0120020
:102888001DC019F01EC01AF01FC01BF020C01CF09C
:10289800B0EC18F0050E226E0F0E216EF10EE82E28
:1028A800FED7212EFCD7222EFAD700F01DC019F032
:1028B8001EC01AF01FC01BF020C01CF0A5EC19F0B8
:1028C800210E226E780E216E980EE82EFED7212E4C
:1028D800FCD7222EFAD700D01DC019F01EC01AF05E
:1028E8001FC01BF020C01CF0B0EC18F00D0E226EBB
:1028F8002D0E216ED80EE82EFED7212EFCD7222EC3
:10290800FAD720EE01F01D50D9261E50DA22010E0A
:10291800DF6E20EE01F01F50D9262050DA22000E7B
:10292800DF6E000E246E000E236E1DC0D9FF1EC080
:10293800DAFFDF2A1FC0D9FF20C0DAFFDF2A1DC057
:102948000EF01EC00FF0E0EC11F01FC00EF020C01A
:102958000FF0E0EC11F0A00E00D0E82EFDD7234ACE
:10296800242A245009E14B0E235CD8A0BEEF14F0B2
:10297800C0EF14F099EF14F0210E226E780E216E3C
:10298800980EE82EFED7212EFCD7222EFAD700D09B
:102998001DC019F01EC01AF01FC01BF020C01CF08B
:1029A800B0EC18F0050E226E0F0E216EF10EE82E17
:1029B800FED7212EFCD7222EFAD700F012001DC018
:1029C80019F01EC01AF01FC01BF020C01CF0B0EC9C
:1029D80018F0050E226E0F0E216EF10EE82EFED7AE
:1029E800212EFCD7222EFAD700F01DC019F01EC0E8
:1029F8001AF01FC01BF020C01CF0A5EC19F0210E26
:102A0800226E780E216E980EE82EFED7212EFCD766
:102A1800222EFAD700D01DC019F01EC01AF01FC010
:102A28001BF020C01CF0B0EC18F00D0E226E2D0E1D
:102A3800216ED80EE82EFED7212EFCD7222EFAD7EB
:102A480020EE01F01D50D9261E50DA22010EDF6E4D
:102A580020EE01F01F50D9262050DA22000EDF6E3A
:102A6800000E246E000E236E1DC0D9FF1EC0DAFFB3
:102A7800DF2A1FC0D9FF20C0DAFFDF2A1DC00EF0F1
:102A88001EC00FF0E0EC11F01FC00EF020C00FF0D8
:102A9800E0EC11F0A00E00D0E82EFDD7234A242A3E
:102AA800245009E14B0E235CD8A05DEF15F05FEFD1
:102AB80015F038EF15F0160E226EEB0E216E530E40
:102AC800E82EFED7212EFCD7222EFAD700F01DC003
:102AD80019F01EC01AF01FC01BF020C01CF0B0EC8B
:102AE80018F0050E226E0F0E216EF10EE82EFED79D
:102AF800212EFCD7222EFAD700F012001DC019F0A3
:102B08001EC01AF01FC01BF020C01CF0B0EC18F05B
:102B1800050E226E0F0E216EF10EE82EFED7212E25
:102B2800FCD7222EFAD700F01DC019F01EC01AF0EB
:102B38001FC01BF020C01CF0A5EC19F0210E226E5E
:102B4800780E216E980EE82EFED7212EFCD7222E65
:102B5800FAD700D01DC019F01EC01AF01FC01BF014
:102B680020C01CF0B0EC18F00D0E226E2D0E216E58
:102B7800D80EE82EFED7212EFCD7222EFAD720EE2B
:102B880001F01D50D9261E50DA22010EDF6E20EE0C
:102B980001F01F50D9262050DA22000EDF6E000EF9
:102BA800246E000E236E1DC0D9FF1EC0DAFFDF2A77
:102BB8001FC0D9FF20C0DAFFDF2A1DC00EF01EC0DB
:102BC8000FF0E0EC11F01FC00EF020C00FF0E0ECA9
:102BD80011F0A00E00D0E82EFDD7234A242A245055
:102BE80009E14B0E235CD8A0FCEF15F0FEEF15F0C1
:102BF800D7EF15F0110E226EA40E216EB00EE82E3E
:102C0800FED7212EFCD7222EFAD700D01DC019F0EE
:102C18001EC01AF01FC01BF020C01CF0B0EC18F04A
:102C2800050E226E0F0E216EF10EE82EFED7212E14
:102C3800FCD7222EFAD700F012001DC019F01EC0D2
:102C48001AF01FC01BF020C01CF0B0EC18F0050EE5
:102C5800226E0F0E216EF10EE82EFED7212EFCD724
:102C6800222EFAD700F01DC019F01EC01AF01FC09E
:102C78001BF020C01CF0A5EC19F0210E226E780E76
:102C8800216E980EE82EFED7212EFCD7222EFAD7D9
:102C980000D01DC019F01EC01AF01FC01BF020C0C4
:102CA8001CF0B0EC18F00D0E226E2D0E216ED80E11
:102CB800E82EFED7212EFCD7222EFAD720EE01F0DF
:102CC8001D50D9261E50DA22000EDF6E20EE01F0CC
:102CD8001F50D9262050DA22010EDF6E000E246E16
:102CE800000E236E1DC0D9FF1EC0DAFFDF2A1FC0E9
:102CF800D9FF20C0DAFFDF2A1DC00EF01EC00FF07A
:102D0800E0EC11F01FC00EF020C00FF0E0EC11F065
:102D1800A00E00D0E82EFDD7234A242A245009E12A
:102D28004B0E235CD8A09BEF16F09DEF16F076EFC4
:102D380016F0150E226EB30E216EA40EE82EFED7E5
:102D4800212EFCD7222EFAD71DC019F01EC01AF06A
:102D58001FC01BF020C01CF0B0EC18F0050E226E4E
:102D68000F0E216EF10EE82EFED7212EFCD7222E53
:102D7800FAD700F01200533454345A6E5A50D8A47B
:102D8800C8EF16F0CAEF16F0D4EF16F0000E516E29
:102D9800000E526E000E536E000E546E41EF17F087
:102DA80051C055F052C056F053C057F054C058F0B7
:102DB800200EE4EF16F0D89058325732563255327A
:102DC800E82EDFEF16F05550596E538EFF0E511650
:102DD800FF0E5216FF0E5316000E5416960E5A5E2C
:102DE8005ABEFBEF16F0F9EF16F011EF17F05A5034
:102DF800800A970FD8B003EF17F005EF17F007EF29
:102E080017F0CAEF16F0D89054325332523251327A
:102E18005A3E07EF17F029EF17F01F0E5A6417EF05
:102E280017F019EF17F021EF17F0CAEF16F0D89046
:102E380051365236533654365A065A50D8A427EFCC
:102E480017F029EF17F01BEF17F05950D8B42FEFF0
:102E580017F031EF17F039EF17F0541E531E521EBA
:102E6800516C000E52225322542251C051F052C0CC
:102E780052F053C053F054C054F01200000E011425
:102E8800096E000E02140A6E800E03140B6E7F0E7C
:102E980004140C6E09500A100B100C10D8A457EF2C
:102EA80017F059EF17F061EF17F0000E016E000EE2
:102EB800026E000E036E000E046E000E0514096EFD
:102EC800000E06140A6E800E07140B6E7F0E08148F
:102ED8000C6E09500A100B100C10D8A476EF17F0DE
:102EE80078EF17F080EF17F0000E056E000E066EF3
:102EF800000E076E000E086E04AE85EF17F087EF20
:102F080017F090EF17F0016C021ED8B0022A031ECA
:102F1800D8B0032A800E045608AE95EF17F097EF45
:102F280017F0A0EF17F0056C061ED8B0062A071E8A
:102F3800D8B0072A800E0856000E011A000E021A91
:102F4800000E031A800E041A000E051A000E061A47
:102F5800000E071A800E081A0550015C0650025828
:102F68000750035808500458D8B0BDEF17F0BFEF0A
:102F780017F0C2EF17F0D890C3EF17F0D8801200FF
:102F880025C019F026C01AF027C01BF028C01CF075
:102F9800B0EC18F0050E2A6E0F0E296EF10EE82E11
:102FA800FED7292EFCD72A2EFAD700F020EE01F002
:102FB8002550D9262650DA22000EDF6E20EE01F0C9
:102FC8002750D9262850DA22000EDF6E25C0D9FFF7
:102FD80026C0DAFF3C0EDF6E27C0D9FF28C0DAFF13
:102FE8003C0EDF6E25C00EF026C00FF0E0EC11F0AD
:102FF80027C00EF028C00FF0E0EC11F0210E2A6E69
:10300800780E296E980EE82EFED7292EFCD72A2E88
:10301800FAD700D025C019F026C01AF027C01BF037
:1030280028C01CF0B0EC18F0190E2A6E5A0E296E42
:10303800B20EE82EFED7292EFCD72A2EFAD725C0A5
:103048001DF026C01EF027C01FF028C020F082EC1B
:1030580015F0090E2A6E1E0E296EE40EE82EFED714
:10306800292EFCD72A2EFAD700D0120025C019F035
:1030780026C01AF027C01BF028C01CF0B0EC18F0CE
:10308800050E2A6E0F0E296EF10EE82EFED7292E98
:10309800FCD72A2EFAD700F020EE01F02550D926C9
:1030A8002650DA22000EDF6E20EE01F02750D926D6
:1030B8002850DA22000EDF6E25C0D9FF26C0DAFFBD
:1030C8003C0EDF6E27C0D9FF28C0DAFF3C0EDF6E4A
:1030D80025C00EF026C00FF0E0EC11F027C00EF06E
:1030E80028C00FF0E0EC11F0210E2A6E780E296E40
:1030F800980EE82EFED7292EFCD72A2EFAD700D014
:1031080025C019F026C01AF027C01BF028C01CF0F3
:10311800B0EC18F0190E2A6E5A0E296EB20EE82E6F
:10312800FED7292EFCD72A2EFAD725C01DF026C097
:103138001EF027C01FF028C020F0A4EC13F0090EE1
:103148002A6E1E0E296EE40EE82EFED7292EFCD715
:103158002A2EFAD700D01200E4EF18F019C0D9FFD0
:103168001AC0DAFFDF50D8B4BCEF18F0BEEF18F081
:10317800C3EF18F019C0D9FF1AC0DAFFDF061BC069
:10318800D9FF1CC0DAFFDF50D8B4CDEF18F0CFEF6D
:1031980018F0D4EF18F01BC0D9FF1CC0DAFFDF0607
:1031A80019C00EF01AC00FF0E0EC11F01BC00EF0C1
:1031B8001CC00FF0E0EC11F0350EE82EFED700F041
:1031C80019C0D9FF1AC0DAFFDF50D8B4EEEF18F0F3
:1031D800F0EF18F0FCEF18F01BC0D9FF1CC0DAFFA5
:1031E800DF50D8A4FAEF18F0FCEF18F0B2EF18F09F
:1031F80012000DC001F00EC002F00FC003F010C0A5
:1032080004F011C005F012C006F013C007F014C096
:1032180008F042EC17F0D8A014EF19F016EF19F0E7
:1032280035EF19F015C001F016C002F017C003F011
:1032380018C004F00DC005F00EC006F00FC007F06E
:1032480010C008F042EC17F0D8A02DEF19F02FEFBE
:1032580019F035EF19F0000E0E6E010E0D6E39EFF4
:1032680019F0000E0E6E000E0D6E1200000E0C6EA0
:10327800000E0B6E09500A10D8B445EF19F047EF4D
:1032880019F06FEF19F0010E0D6E4FEF19F0D8908D
:1032980009360A360D2A0AAE54EF19F056EF19F01E
:1032A8004BEF19F0D8900B360C360950075C0A50D2
:1032B8000858D8A062EF19F064EF19F069EF19F017
:1032C8000950075E0A50085A0B80D8900A32093212
:1032D8000D2E56EF19F00BC007F00CC008F01200C5
:1032E800F7EC19F020EE0CF00C50D9260D50DA222C
:1032F80005C0DEFF06C0DDFF1FEC1AF020EE0EF061
:103308000C50D9260D50DA2205C0DEFF06C0DDFFBD
:1033180047EC1AF020EE10F00C50D9260D50DA22A6
:1033280005C0DEFF06C0DDFF6FEC1AF020EE12F0DC
:103338000C50D9260D50DA2205C0DEFF06C0DDFF8D
:10334800120020EE01F01950D9261A50DA22000E88
:10335800DF6E20EE01F01B50D9261C50DA22000E39
:10336800DF6E19C0D9FF1AC0DAFF320EDF6E1BC03C
:10337800D9FF1CC0DAFF320EDF6E19C00EF01AC07A
:103388000FF0E0EC11F01BC00EF01CC00FF0E0ECE9
:1033980011F0120020EE01F01950D9261A50DA2245
:1033A800010EDF6E20EE01F01B50D9261C50DA22E8
:1033B800010EDF6E19C0D9FF1AC0DAFF0D0EDF6EDD
:1033C8001BC0D9FF1CC0DAFF0D0EDF6E19C00EF04E
:1033D8001AC00FF0E0EC11F01BC00EF01CC00FF08B
:1033E800E0EC11F01200EDEC1BF0520EDCEC1BF0DF
:1033F800B40EDCEC1BF0F2EC1BF0530EDCEC1BF013
:10340800010E26EC1BF0076E07500A6E0B6A000EC1
:1034180026EC1BF0076E0750096E086A0A50081060
:103428000A6E0B5009100B6EE8EC1BF00AC005F091
:103438000BC006F01200EDEC1BF0520EDCEC1BF09A
:10344800B60EDCEC1BF0F2EC1BF0530EDCEC1BF0C0
:10345800010E26EC1BF0076E07500A6E0B6A000E71
:1034680026EC1BF0076E0750096E086A0A50081010
:103478000A6E0B5009100B6EE8EC1BF00AC005F041
:103488000BC006F01200EDEC1BF0520EDCEC1BF04A
:10349800B80EDCEC1BF0F2EC1BF0530EDCEC1BF06E
:1034A800010E26EC1BF0076E07500A6E0B6A000E21
:1034B80026EC1BF0076E0750096E086A0A500810C0
:1034C8000A6E0B5009100B6EE8EC1BF00AC005F0F1
:1034D8000BC006F01200EDEC1BF0520EDCEC1BF0FA
:1034E800BA0EDCEC1BF0F2EC1BF0530EDCEC1BF01C
:1034F800010E26EC1BF0076E07500A6E0B6A000ED1
:1035080026EC1BF0076E0750096E086A0A5008106F
:103518000A6E0B5009100B6EE8EC1BF00AC005F0A0
:103528000BC006F01200D3CF09F00A6AD4500A265D
:10353800D8900534D96E0634DA6E0750D92608506B
:10354800DA2209C0DEFF0AC0DDFFD8900534D96E43
:103558000634DA6E0350D9260450DA2201C0DEFFA1
:1035680002C0DDFF054A062A000ED46E000ED36E97
:1035780012001FEC1AF020EE06F00C50D9260D5060
:10358800DA2205C0DEFF06C0DDFF47EC1AF020EEA8
:1035980008F00C50D9260D50DA2205C0DEFF06C00F
:1035A800DDFF6FEC1AF020EE0AF00C50D9260D5012
:1035B800DA2205C0DEFF06C0DDFF12001FEC1AF09C
:1035C8000CC0D9FF0DC0DAFF05C0DEFF06C0DDFF65
:1035D80047EC1AF020EE02F00C50D9260D50DA22F2
:1035E80005C0DEFF06C0DDFF6FEC1AF020EE04F028
:1035F8000C50D9260D50DA2205C0DEFF06C0DDFFCB
:1036080012008594839E8598879C7D947B9E7D98E7
:103618007F9CBD508F0B4009BD6EE00EBE16BF509B
:10362800F00B0109BF6E630EBC6EBD8E0A0E0E0153
:10363800746F0B0E696F000EA36E000EA06EA48E41
:10364800A18E1200036E76EC1BF00E01DA8776EC81
:103658001BF0D5CE04F076EC1BF00350D8B437EF4E
:103668001BF03BEF1BF0026A022A3CEF1BF0026AD8
:10367800023A02460E01DA510218DF0B0218DA6F1D
:10368800DA890450120061EC1BF0010E036E000E83
:10369800BEEC1BF03F0E056E550EE82EFED7052E2C
:1036A800FCD700F0030E036E000EBEEC1BF0D50E27
:1036B800036E010EBEEC1BF012000E01D951F00B87
:1036C8000809D96FD98B9F0ED66F848A848CA79BE3
:1036D800A79D1D0E1D6F1E0E1C6F1C0E6F6F1B0EFF
:1036E800706F12000E01D8B57CEF1BF07EEF1BF057
:1036F80076EF1BF0DACE01F01F0E0116D8A487EF83
:103708001BF089EF1BF076EF1BF01200015003024B
:10371800F3CF05F0F4CF06F001500402F35006266B
:1037280002500302F350062605C001F006C002F05D
:10373800120001EE00F03C0EEE6AE806FDE100EE34
:10374800B8F01A0EEE6AE806FDE15F905F9200019C
:10375800BCEF06F0120E0E01626F110E156F838218
:10376800E997E895330EE56F000EE66FE789E88B79
:10377800E78F1200046EEDEC1BF0520EDCEC1BF030
:1037880004508009DCEC1BF00350DCEC1BF0E8EC87
:103798001BF01200D6501F0B4009D66ED6880F0EAC
:1037A800D612D588000ED46E000ED36ED58E1200B8
:1037B800026E76EC1BF002C0D5FE12000E012B81C2
:1037C800298BF28CF28E120076EC1BF00E01DA8552
:1037D800120076EC1BF00E01DA81120076EC1BF079
:0637E8000E01DA8312005D
:020000040020DA
:10000000FF0FFF0FFF0FFF0FFF0FFF0FFF0FFF0F80
:020000040030CA
:0C000000AAFFFFFF9FFFFFFFFFFFFFFFB5
:00000001FF
