:040000003BEF00F0E2
:100008005B82D9CF03F0DACF04F00E0137A70FEFE8
:1000180000F011EF00F014EF00F0E351FDEC20F0D8
:100028000E0137A51AEF00F01CEF00F035EF00F0D5
:100038002DA521EF00F023EF00F035EF00F05FEC85
:1000480021F0E806D8A42BEF00F02DEF00F033EFF5
:1000580000F0BDEC20F00E01E46F35EF00F00E016A
:100068002D9504C0DAFF03C0D9FF5B9211008CEF15
:0200780020F076
:100E000000204220523A256420473A256420423A85
:100E10002564200D0A00205720523A256420473AC5
:100E2000256420423A2564200D0A0020436F6C6F30
:100E3000723A256420423A25640D0A0020423A2580
:100E400064200020473A2564200020523A2564207F
:100E50000000000E0001BB6F090EBA6F590E306E14
:100E6000170E316E370E326E3F0E336E20EE10F0DD
:100E7000A451D926A551DA22DECFA6F0DDCFA7F006
:100E8000A6C005F0A7C006F0076A086A000E54EC79
:100E900019F005C02CF006C02DF007C02EF008C0D8
:100EA0002FF027EC13F02CC049F02DC04AF02EC0D3
:100EB0004BF02FC04CF0D00E306EB30E316E590E89
:100EC000326E3E0E336E000120EE0EF0A451D92694
:100ED000A551DA22DECFA8F0DDCFA9F0A8C005F039
:100EE000A9C006F0076A086A000E54EC19F005C0A4
:100EF0002CF006C02DF007C02EF008C02FF027EC14
:100F000013F02CC045F02DC046F02EC047F02FC086
:100F100048F0C7EC10F045C0AEF046C0AFF047C097
:100F2000B0F048C0B1F0980E306EDD0E316E930E09
:100F3000326E3D0E336E000120EE12F0A451D92620
:100F4000A551DA22DECFA6F0DDCFA7F0A6C005F0CE
:100F5000A7C006F0076A086A000E54EC19F005C035
:100F60002CF006C02DF007C02EF008C02FF027ECA3
:100F700013F02CC049F02DC04AF02EC04BF02FC00A
:100F80004CF0AEC045F0AFC046F0B0C047F0B1C0C5
:100F900048F0C7EC10F045C09CF046C09DF047C03B
:100FA0009EF048C09FF055EC1CF09CC0B2F09DC074
:100FB000B3F0000E306E400E316E1C0E326E460ED7
:100FC000336EA4C0D9FFA5C0DAFFDECFA6F0DDCF17
:100FD000A7F0000120EE06F0A451D926A551DA228F
:100FE000DECFA8F0DDCFA9F0A651A85FA751A95B7D
:100FF000A8C005F0A9C006F0076A086A000E54EC04
:1010000019F005C017F006C018F007C019F008C0A5
:101010001AF0A4C0D9FFA5C0DAFFDECFAAF0DDCF59
:10102000ABF0000120EE0EF0A451D926A551DA2232
:10103000DECFACF0DDCFADF0AA51AC5FAB51AD5B14
:10104000ACC005F0ADC006F0076A086A000E54ECAB
:1010500019F005C013F006C014F007C015F008C061
:1010600016F03CEC15F013C02CF014C02DF015C098
:101070002EF016C02FF027EC13F02CC09CF02DC0E2
:101080009DF02EC09EF02FC09FF055EC1CF09CC030
:10109000B4F09DC0B5F0000E306E400E316E1C0EE7
:1010A000326E460E336E000120EE02F0A451D926B6
:1010B000A551DA22DECFA6F0DDCFA7F020EE08F0B2
:1010C000A451D926A551DA22DECFA8F0DDCFA9F0B0
:1010D000A651A85FA751A95BA8C005F0A9C006F05A
:1010E000076A086A000E54EC19F005C017F006C034
:1010F00018F007C019F008C01AF0000120EE02F045
:10110000A451D926A551DA22DECFAAF0DDCFABF06B
:1011100020EE10F0A451D926A551DA22DECFACF092
:10112000DDCFADF0AA51AC5FAB51AD5BACC005F00B
:10113000ADC006F0076A086A000E54EC19F005C04D
:1011400013F006C014F007C015F008C016F03CEC10
:1011500015F013C02CF014C02DF015C02EF016C0E1
:101160002FF027EC13F02CC09CF02DC09DF02EC06A
:101170009EF02FC09FF055EC1CF09CC0B6F09DC0B7
:10118000B7F0000E306E400E316E1C0E326E460E01
:10119000336E000120EE04F0A451D926A551DA22C5
:1011A000DECFA6F0DDCFA7F020EE0AF0A451D926BD
:1011B000A551DA22DECFA8F0DDCFA9F0A651A85FB5
:1011C000A751A95BA8C005F0A9C006F0076A086A84
:1011D000000E54EC19F005C017F006C018F007C057
:1011E00019F008C01AF0000120EE04F0A451D9262D
:1011F000A551DA22DECFAAF0DDCFABF020EE12F05F
:10120000A451D926A551DA22DECFACF0DDCFADF066
:10121000AA51AC5FAB51AD5BACC005F0ADC006F000
:10122000076A086A000E54EC19F005C013F006C0F6
:1012300014F007C015F008C016F03CEC15F013C010
:101240002CF014C02DF015C02EF016C02FF027EC96
:1012500013F02CC09CF02DC09DF02EC09EF02FC02E
:101260009FF055EC1CF09CC0B8F09DC0B9F0B4C024
:1012700005F0B5C006F0076A086A000E54EC19F0D4
:1012800005C013F006C014F007C015F008C016F032
:10129000B6C005F0B7C006F0076A086A000E54EC45
:1012A00019F005C017F006C018F007C019F008C003
:1012B0001AF03CEC15F013C0BCF014C0BDF015C022
:1012C000BEF016C0BFF0B4C005F0B5C006F0076AA6
:1012D000086A000E54EC19F005C013F006C014F0B3
:1012E00007C015F008C016F0B8C005F0B9C006F088
:1012F000076A086A000E54EC19F005C017F006C022
:1013000018F007C019F008C01AF03CEC15F013C033
:10131000C0F014C0C1F015C0C2F016C0C3F0B8C010
:1013200005F0B9C006F0076A086A000E54EC19F01F
:1013300005C013F006C014F007C015F008C016F081
:10134000B6C005F0B7C006F0076A086A000E54EC94
:1013500019F005C017F006C018F007C019F008C052
:101360001AF03CEC15F013C0C4F014C0C5F015C061
:10137000C6F016C0C7F00001BFBFC3EF09F0C1EF50
:1013800009F0CBEF09F0000EBC6F000EBD6F000E30
:10139000BE6F000EBF6FC3BFD2EF09F0D0EF09F0F0
:1013A000DAEF09F0000EC06F000EC16F000EC26FC1
:1013B000000EC36FC7BFE1EF09F0DFEF09F0E9EFFF
:1013C00009F0000EC46F000EC56F000EC66F000E50
:1013D000C76FBCC011F0BDC012F0BEC013F0BFC0DB
:1013E00014F0330E156E330E166EA30E176E400EEC
:1013F000186E000E196E000E1A6EA40E1B6E410EB2
:101400001C6E23EC1EF011041210D8A40AEF0AF08F
:101410000CEF0AF057EF0AF0C0C011F0C1C012F093
:10142000C2C013F0C3C014F0CD0E156ECC0E166EF4
:101430000C0E176E400E186E330E196E330E1A6EA8
:10144000730E1B6E400E1C6E23EC1EF01104121066
:10145000D8A42DEF0AF02FEF0AF057EF0AF0C4C01E
:1014600011F0C5C012F0C6C013F0C7C014F0660E6C
:10147000156E660E166EE60E176E3F0E186E000E97
:10148000196E000E1A6EB00E1B6E400E1C6E23EC11
:101490001EF011041210D8A450EF0AF052EF0AF017
:1014A00057EF0AF0000E0001BB6F000EBA6FBCC010
:1014B00011F0BDC012F0BEC013F0BFC014F0CD0ECD
:1014C000156ECC0E166E4C0E176E3E0E186E480E34
:1014D000196EE10E1A6EFA0E1B6E3E0E1C6E23EC98
:1014E0001EF011041210D8A478EF0AF07AEF0AF077
:1014F000C5EF0AF0C0C011F0C1C012F0C2C013F0B5
:10150000C3C014F0290E156E5C0E166E8F0E176E8A
:101510003E0E186E3D0E196E0A0E1A6E170E1B6ED9
:101520003F0E1C6E23EC1EF011041210D8A49BEF8A
:101530000AF09DEF0AF0C5EF0AF0C4C011F0C5C073
:1015400012F0C6C013F0C7C014F0330E156E330E80
:10155000166E330E176E3F0E186E660E196E660EFF
:101560001A6E660E1B6E3F0E1C6E23EC1EF01104ED
:101570001210D8A4BEEF0AF0C0EF0AF0C5EF0AF0CF
:10158000000E0001BB6F010EBA6FBCC011F0BDC0F0
:1015900012F0BEC013F0BFC014F0CD0E156ECC0E0D
:1015A000166ECC0E176E3D0E186ECD0E196ECC0E4B
:1015B0001A6E0C0E1B6E3F0E1C6E23EC1EF01104F7
:1015C0001210D8A4E6EF0AF0E8EF0AF033EF0BF0C0
:1015D000C0C011F0C1C012F0C2C013F0C3C014F0FB
:1015E000CD0E156ECC0E166ECC0E176E3D0E186E0F
:1015F000140E196EAE0E1A6EC70E1B6E3E0E1C6ECA
:1016000023EC1EF011041210D8A409EF0BF00BEF1D
:101610000BF033EF0BF0C4C011F0C5C012F0C6C020
:1016200013F0C7C014F0000E156E000E166E800E7B
:10163000176E3F0E186E9A0E196E990E1A6E990E4D
:101640001B6E3F0E1C6E23EC1EF011041210D8A46A
:101650002CEF0BF02EEF0BF033EF0BF0000E000130
:10166000BB6F020EBA6FBCC011F0BDC012F0BEC09D
:1016700013F0BFC014F09A0E156E990E166E990EE7
:10168000176E3F0E186E330E196E330E1A6EB30EB0
:101690001B6E3F0E1C6E23EC1EF011041210D8A41A
:1016A00054EF0BF056EF0BF0A1EF0BF0C0C011F0B0
:1016B000C1C012F0C2C013F0C3C014F0000E156E0A
:1016C000000E166EC00E176E3F0E186EEC0E196EE1
:1016D000510E1A6ED80E1B6E3F0E1C6E23EC1EF0C0
:1016E00011041210D8A477EF0BF079EF0BF0A1EFF3
:1016F0000BF0C4C011F0C5C012F0C6C013F0C7C0D3
:1017000014F0CD0E156ECC0E166E4C0E176E3F0EED
:10171000186E660E196E660E1A6E660E1B6E3F0E02
:101720001C6E23EC1EF011041210D8A49AEF0BF0DB
:101730009CEF0BF0A1EF0BF0000E0001BB6F030E4E
:10174000BA6FBCC011F0BDC012F0BEC013F0BFC074
:1017500014F0140E156EAE0E166EC70E176E3F0EF9
:10176000186E710E196E3D0E1A6EEA0E1B6E3F0E4C
:101770001C6E23EC1EF011041210D8A4C2EF0BF063
:10178000C4EF0BF00FEF0CF0C0C011F0C1C012F0AD
:10179000C2C013F0C3C014F0A40E156E700E166E06
:1017A0009D0E176E3F0E186E000E196E000E1A6E0B
:1017B000C00E1B6E3F0E1C6E23EC1EF011041210A7
:1017C000D8A4E5EF0BF0E7EF0BF00FEF0CF0C4C07F
:1017D00011F0C5C012F0C6C013F0C7C014F0330E2C
:1017E000156E330E166E930E176E3F0E186E660E44
:1017F000196E660E1A6EA60E1B6E3F0E1C6E23EC43
:101800001EF011041210D8A408EF0CF00AEF0CF02F
:101810000FEF0CF0000E0001BB6F040EBA6FBCC0DE
:1018200011F0BDC012F0BEC013F0BFC014F0660EC0
:10183000156E660E166E460E176E400E186E330E3F
:10184000196E330E1A6E9B0E1B6E400E1C6E23EC2F
:101850001EF011041210D8A430EF0CF032EF0CF08F
:101860007DEF0CF0C0C011F0C1C012F0C2C013F087
:10187000C3C014F0CD0E156ECC0E166E0C0E176E86
:10188000400E186EB80E196E1E0E1A6E350E1B6EB7
:10189000400E1C6E23EC1EF011041210D8A453EF5E
:1018A0000CF055EF0CF07DEF0CF0C4C011F0C5C08A
:1018B00012F0C6C013F0C7C014F05C0E156E8F0E88
:1018C000166EA20E176E3F0E186E660E196E660E1D
:1018D0001A6EE60E1B6E3F0E1C6E23EC1EF01104FA
:1018E0001210D8A476EF0CF078EF0CF07DEF0CF02E
:1018F000000E0001BB6F050EBA6FBCC011F0BDC079
:1019000012F0BEC013F0BFC014F09A0E156E990EFF
:10191000166E190E176E3F0E186EF60E196E280E03
:101920001A6E5C0E1B6E3F0E1C6E23EC1EF0110433
:101930001210D8A49EEF0CF0A0EF0CF0EBEF0CF01F
:10194000C0C011F0C1C012F0C2C013F0C3C014F087
:101950009A0E156E990E166E190E176E3F0E186EB2
:101960009A0E196E990E1A6E590E1B6E3F0E1C6E52
:1019700023EC1EF011041210D8A4C1EF0CF0C3EF39
:101980000CF0EBEF0CF0C4C011F0C5C012F0C6C0F3
:1019900013F0C7C014F0330E156E330E166E730EAF
:1019A000176E3F0E186E290E196E5C0E1A6E8F0E92
:1019B0001B6E3F0E1C6E23EC1EF011041210D8A4F7
:1019C000E4EF0CF0E6EF0CF0EBEF0CF0000E000192
:1019D000BB6F060EBA6FBCC011F0BDC012F0BEC026
:1019E00013F0BFC014F0660E156E660E166E660E0E
:1019F000176E3F0E186ECD0E196ECC0E1A6E8C0E31
:101A00001B6E3F0E1C6E23EC1EF011041210D8A4A6
:101A10000CEF0DF00EEF0DF064EF0DF0C0C011F003
:101A2000C1C012F0C2C013F0C3C014F0CD0E156EC9
:101A3000CC0E166E4C0E176E3F0E186E000E196E01
:101A4000000E1A6E800E1B6E3F0E1C6E23EC1EF0F5
:101A500011041210D8A42FEF0DF031EF0DF064EF48
:101A60000DF0C4C011F0C5C012F0C6C013F0C7C05D
:101A700014F0330E156E330E166E730E176E3F0E86
:101A8000186ECD0E196ECC0E1A6E8C0E1B6E3F0E9C
:101A90001C6E23EC1EF011041210D8A452EF0DF0AE
:101AA00054EF0DF064EF0DF0D50E0001B25D030EA2
:101AB000B359D8A05EEF0DF060EF0DF064EF0DF0BC
:101AC000000EBB6F070EBA6F0001B55107E14B0E58
:101AD000B45DD8B06EEF0DF070EF0DF08AEF0DF041
:101AE000B75107E14B0EB65DD8B079EF0DF07BEF43
:101AF0000DF08AEF0DF0B95107E14B0EB85DD8B08B
:101B000084EF0DF086EF0DF08AEF0DF0000EBB6F45
:101B1000080EBA6FBAC0A4F0BBC0A5F01200000E48
:101B2000066E630E056EF5EC1FF072EC20F026ECED
:101B300021F071EC21F086840E01B4958686B4976D
:101B4000000E0101AA6F010EAB6FA30EAC6F0F0E5A
:101B5000AD6F7D0EAE6F0F0EAF6F040EB06F000E47
:101B6000B26F630EB16F000EB36F010EB46FA00EB3
:101B7000B56F0F0EB66F7F0EB76F0F0EB86F060EF4
:101B8000B96F000EBB6F630EBA6F000EC96F000E07
:101B9000C86F000ECB6F000ECA6F000ECD6F000E27
:101BA000CC6F000ECF6F000ECE6F7F928792799828
:101BB00081987E9E869E849E7C9E889680967F825B
:101BC00079887E8E000EA16F000EA06F99EF0EF047
:101BD0007C8E8EB4EEEF0DF0F0EF0DF0E9EF0DF02E
:101BE0008EB4F5EF0DF0F7EF0DF00BEF0EF07C9EDD
:101BF000BC0E106E010E116E8BEC1FF0190E000161
:101C0000C96F5A0EC86FB10EE82EFED7C82FFCD789
:101C1000C92FFAD700D07C8E8EB411EF0EF013EFDF
:101C20000EF00CEF0EF08EB418EF0EF01AEF0EF06F
:101C30002EEF0EF07C9EBC0E106E010E116EB0ECFD
:101C40001FF0190E0001C96F5A0EC86FB10EE82EB1
:101C5000FED7C82FFCD7C92FFAD700D0000E00013D
:101C6000A26F010EA36F160EA46F0E0EA56FC2C158
:101C7000A6F0C3C1A7F0C4C1A8F0C5C1A9F0C6C1F0
:101C8000AAF0C7C1ABF0C2EC1EF0000E066E010E4A
:101C9000076EA5EC20F046EC21F0050E0001C96F9F
:101CA0000F0EC86FF10EE82EFED7C82FFCD7C92F34
:101CB000FAD7780E0001A26F010EA36F010EA46F78
:101CC0000E0EA56FBCC1A6F0BDC1A7F0BEC1A8F0A5
:101CD000BFC1A9F0C0C1AAF0C1C1ABF0C2EC1EF0F7
:101CE000780E066E010E076EA5EC20F046EC21F092
:101CF000050E0001C96F0F0EC86FF10EE82EFED75A
:101D0000C82FFCD7C92FFAD780868EB68AEF0EF07F
:101D10008CEF0EF085EF0EF08EB691EF0EF093EF94
:101D20000EF099EF0EF08096000E0101A16F010EEA
:101D3000A06F0101A051A111D8B4A1EF0EF0A3EF43
:101D40000EF0E8EF0DF0000EA56F090EA46F000E67
:101D5000A76F090EA66F000EA36F090EA26F000EEB
:101D6000A96F000EA86FBC0E106E010E116E91ECE3
:101D70001EF00101A851A911D8A4C1EF0EF0C3EFC4
:101D80000EF0D1EF0EF0BC0E0001A46F010EA56F96
:101D900029EC07F0A4C0A4F1A5C0A5F10101A84B4E
:101DA000A92BA805A911D8A4D8EF0EF0DAEF0EF0F0
:101DB000E8EF0EF0BC0E0001A46F010EA56F29EC38
:101DC00007F0A4C0A6F1A5C0A7F10101A84BA92B5B
:101DD000020EA819A911D8A4F0EF0EF0F2EF0EF040
:101DE00002EF0FF0BC0E0001A46F010EA56F29ECED
:101DF00007F0A4C0A2F1A5C0A3F1000E0101A96FD4
:101E0000000EA86FA651A41907E1A751A519D8A4DF
:101E10000CEF0FF00EEF0FF01EEF0FF0A251A6190E
:101E200007E1A351A719D8A418EF0FF01AEF0FF08C
:101E30001EEF0FF0A4C19CF1A5C19DF1000E306E04
:101E4000400E316E1C0E326E460E336EBC51C25DBA
:101E50000001C86F0101BD51C3590001C96FC8C05D
:101E600005F0C9C006F0076A086A000E54EC19F0C4
:101E700005C017F006C018F007C019F008C01AF026
:101E80000101BC51CA5D0001CA6F0101BD51CB59AE
:101E90000001CB6FCAC005F0CBC006F0076A086A24
:101EA000000E54EC19F005C013F006C014F007C082
:101EB00015F008C016F03CEC15F013C02CF014C05F
:101EC0002DF015C02EF016C02FF027EC13F02CC00B
:101ED0009CF02DC09DF02EC09EF02FC09FF055ECC1
:101EE0001CF09CC096F19DC097F1000E306E400E24
:101EF000316E1C0E326E460E336E0101BE51C45D52
:101F00000001C86F0101BF51C5590001C96FC8C0A8
:101F100005F0C9C006F0076A086A000E54EC19F013
:101F200005C017F006C018F007C019F008C01AF075
:101F30000101BE51CC5D0001CA6F0101BF51CD59F5
:101F40000001CB6FCAC005F0CBC006F0076A086A73
:101F5000000E54EC19F005C013F006C014F007C0D1
:101F600015F008C016F03CEC15F013C02CF014C0AE
:101F70002DF015C02EF016C02FF027EC13F02CC05A
:101F80009CF02DC09DF02EC09EF02FC09FF055EC10
:101F90001CF09CC098F19DC099F1000E306E400E6F
:101FA000316E1C0E326E460E336E0101C051C65D9D
:101FB0000001C86F0101C151C7590001C96FC8C0F4
:101FC00005F0C9C006F0076A086A000E54EC19F063
:101FD00005C017F006C018F007C019F008C01AF0C5
:101FE0000101C051CE5D0001CA6F0101C151CF593D
:101FF0000001CB6FCAC005F0CBC006F0076A086AC3
:10200000000E54EC19F005C013F006C014F007C020
:1020100015F008C016F03CEC15F013C02CF014C0FD
:102020002DF015C02EF016C02FF027EC13F02CC0A9
:102030009CF02DC09DF02EC09EF02FC09FF055EC5F
:102040001CF09CC09AF19DC09BF1BC0E0001A46FD6
:10205000010EA56FA4EC1BF0A4C09EF1A5C09FF1DA
:102060001E0E0001A26F010EA36F4A0EA46F0E0E8A
:10207000A56F96C1A6F097C1A7F0C2EC1EF01E0E88
:10208000066E010E076EA5EC20F046EC21F00D0E59
:102090000001C96F2D0EC86FD70EE82EFED7C82FCE
:1020A000FCD7C92FFAD700D03C0E0001A26F010E59
:1020B000A36F430EA46F0E0EA56F98C1A6F099C131
:1020C000A7F0C2EC1EF03C0E066E010E076EA5ECEA
:1020D00020F046EC21F00D0E0001C96F2D0EC86FE7
:1020E000D70EE82EFED7C82FFCD7C92FFAD700D0BD
:1020F0005A0E0001A26F010EA36F3C0EA46F0E0ECC
:10210000A56F9AC1A6F09BC1A7F0C2EC1EF05A0EB3
:10211000066E010E076EA5EC20F046EC21F00D0EC8
:102120000001C96F2D0EC86FD70EE82EFED7C82F3D
:10213000FCD7C92FFAD700D0780E0001A26F010E8C
:10214000A36F2B0EA46F0E0EA56F9CC1A6F09DC1B0
:10215000A7F09EC1A8F09FC1A9F0C2EC1EF0780EB6
:10216000066E010E076EA5EC20F046EC21F0050E80
:102170000001C96F0F0EC86FF10EE82EFED7C82FF1
:10218000FCD7C92FFAD7B3EF0EF03BEF00F0485061
:10219000800B516E48504824536E47AED2EF10F07A
:1021A000D4EF10F0D5EF10F053805350D8B4DBEFDC
:1021B00010F0DDEF10F0F2EF10F05328D8A4E3EFA9
:1021C00010F0E5EF10F0EDEF10F0000E456E000E90
:1021D000466E000E476E000E486E478E000E486E2B
:1021E000FAEF10F0000E456E000E466E000E476EC0
:1021F000000E486E4C50800B526E51505218D8B49D
:1022000004EF11F006EF11F007EF11F0518C4C5074
:102210004C24526E4BAE0FEF11F011EF11F012EF94
:1022200011F052805250D8B418EF11F01AEF11F09B
:102230002FEF11F05228D8A420EF11F022EF11F067
:102240002AEF11F0000E496E000E4A6E000E4B6E22
:10225000000E4C6E4B8E000E4C6E37EF11F0000EE0
:10226000496E000E4A6E000E4B6E000E4C6E5350BF
:10227000525CD8B03EEF11F040EF11F067EF11F073
:1022800051AC45EF11F047EF11F049EF11F0800E1E
:10229000511A53C054F052C053F054C052F045C0CC
:1022A00054F049C045F054C049F046C054F04AC00B
:1022B00046F054C04AF047C054F04BC047F054C0F9
:1022C0004BF048C054F04CC048F054C04CF0000EE5
:1022D000546E535052C04DF04E6A4D5E000E4E5A31
:1022E0004EBE7CEF11F04E5009E11A0E4D5CD8A0A5
:1022F0007CEF11F07EEF11F0B5EF11F04550461074
:1023000047104810D8A487EF11F08AEF11F0010EA2
:102310008BEF11F0000E546E000E456E000E466EEF
:10232000000E476E000E486E52C053F0BEEF11F023
:1023300054A09DEF11F09FEF11F0A5EF11F0D89090
:1023400054300109546EA7EF11F0D890543245A0D3
:10235000ACEF11F0AEEF11F0AFEF11F0548E483446
:102360004832473246324532532A5250535CD8A045
:10237000BCEF11F0BEEF11F098EF11F051BCC3EFBC
:1023800011F0C5EF11F005EF12F05350D8A4CBEFC8
:1023900011F0CDEF11F0D7EF11F0000E456E000EE9
:1023A000466E000E476E000E486E26EF13F0495041
:1023B00045264A5046224B5047224C50482248A0BE
:1023C000E4EF11F0E6EF11F092EF12F054A0EBEF12
:1023D00011F0EDEF11F0F3EF11F0D8905430010946
:1023E000546EF5EF11F0D890543245A0FAEF11F089
:1023F000FCEF11F0FDEF11F0548E483448324732B3
:1024000046324532532A92EF12F04950455C4A5009
:1024100046584B5047584850800A4D6E4C50800AE1
:102420004D58D8B016EF12F018EF12F043EF12F03B
:102430004550495C4D6E46504A584E6E47504B5879
:102440004F6E48504C58506EFF0E4D24456EFF0E97
:102450004E20466EFF0E4F20476EFF0E5020486EF6
:10246000800E511A546C5450D8A439EF12F03BEF3F
:1024700012F04BEF12F0010E4526000E46224722C5
:1024800048224BEF12F04950455E4A50465A4B5095
:10249000475A4C50485A4550461047104810D8A447
:1024A00054EF12F056EF12F08BEF12F05450D8A404
:1024B0005CEF12F05EEF12F08BEF12F0000E456E43
:1024C000000E466E000E476E000E486E26EF13F0AB
:1024D000D890453646364736483654AE72EF12F03D
:1024E00074EF12F075EF12F0458054A07AEF12F0FD
:1024F0007CEF12F080EF12F0D880543682EF12F0A9
:10250000D89054365350D8B488EF12F08AEF12F0B6
:102510008BEF12F0530647AE90EF12F092EF12F0ED
:1025200068EF12F0000E526E54AE99EF12F09BEF6E
:1025300012F0B3EF12F054C04DF07F0E4D16D8B428
:10254000A4EF12F0A6EF12F0AAEF12F0010E526EF5
:10255000B3EF12F045A0AFEF12F0B1EF12F0B3EF0E
:1025600012F0A6EF12F05250D8B4B9EF12F0BBEF50
:1025700012F0E6EF12F0010E4526000E4622472229
:10258000482248A0C6EF12F0C8EF12F0E6EF12F0B2
:1025900045C04DF046C04EF047C04FF048C050F027
:1025A000503450324F324E324D324DC045F04EC055
:1025B00046F04FC047F050C048F05328D8B4E3EF7E
:1025C00012F0E5EF12F0E6EF12F0532A5328D8B4D8
:1025D000ECEF12F0EEEF12F0F6EF12F05350D8A439
:1025E000F4EF12F0F6EF12F008EF13F0000E456E64
:1025F000000E466E000E476E000E486E5350D8A473
:1026000004EF13F006EF13F008EF13F0000E516E15
:1026100053A00DEF13F00FEF13F012EF13F0478EEE
:1026200013EF13F0479ED8905330486E51AE1BEF16
:1026300013F01DEF13F01EEF13F0488E45C045F068
:1026400046C046F047C047F048C048F012002F503F
:10265000800B386E2F502F243E6E2EAE32EF13F0CB
:1026600034EF13F035EF13F03E803E50D8B43BEF1B
:1026700013F03DEF13F050EF13F03E28D8A443EFD2
:1026800013F045EF13F04DEF13F0000E2C6E000E1B
:102690002D6E000E2E6E000E2F6E2E8E58EF13F044
:1026A000000E2C6E000E2D6E000E2E6E000E2F6E84
:1026B0003350800B381A335033243D6E32AE63EF03
:1026C00013F065EF13F066EF13F03D803D50D8B482
:1026D0006CEF13F06EEF13F081EF13F03D28D8A4E8
:1026E00074EF13F076EF13F07EEF13F0000E306E00
:1026F000000E316E000E326E000E336E328E89EF98
:1027000013F0000E306E000E316E000E326E000EB1
:10271000336E3D50D8B48FEF13F091EF13F099EF73
:1027200013F03E50D8A497EF13F099EF13F0A3EFF6
:1027300013F0000E2C6E000E2D6E000E2E6E000E8D
:102740002F6E3BEF15F032502C02F3CF43F0F4CF55
:1027500044F04350396E3A6A3B6A3C6A44503F6EDB
:10276000406A416A426A31502D02F3CF43F0F4CF00
:1027700044F043503926000E3A223B223C2244507A
:102780003F26000E40224122422230502E02F3CF3B
:1027900043F0F4CF44F043503926000E3A223B2256
:1027A0003C2244503F26000E4022412242223BC0A0
:1027B0003CF03AC03BF039C03AF0396A30502D0253
:1027C000F3CF43F0F4CF44F04350392644503A223B
:1027D000000E3B22000E3C2231502C02F3CF43F07E
:1027E000F4CF44F04350392644503A22000E3B22A5
:1027F000000E3C223BC03CF03AC03BF039C03AF0FE
:10280000396A30502C02F3CF43F0F4CF44F04350F8
:10281000392644503A22000E3B22000E3C22325010
:102820002D02F3CF43F0F4CF44F043503F26445001
:102830004022000E4122000E422231502E02F3CFE0
:1028400043F0F4CF44F043503F2644504022000E62
:102850004122000E422232502E02F3CF43F0F4CF39
:1028600044F04350346E4450356E366A376A36C091
:1028700037F035C036F034C035F0346A34503F2676
:1028800035504022365041223750422239C034F070
:102890003AC035F03BC036F03CC037F0190E56EF69
:1028A00014F0D8903732363235323432E82E51EFC8
:1028B00014F034503F2635504022365041223750D4
:1028C00042223BC03CF03AC03BF039C03AF0396A92
:1028D0003D503EC034F0356A3426000E3522820E5B
:1028E0003424436EFF0E3520446E8CEF14F0D890E4
:1028F0003F364036413642363CAE81EF14F083EF2E
:1029000014F084EF14F03F80D89039363A363B36D5
:102910003C364306D8A0440641AE91EF14F093EF45
:1029200014F077EF14F0000E3D6E3CAE9AEF14F009
:102930009CEF14F0C0EF14F0FF0E3914346EFF0E4C
:102940003A14356EFF0E3B14366E7F0E3C14376E14
:102950003450351036103710D8B4B1EF14F0B3EF4F
:1029600014F0B7EF14F0010E3D6EC0EF14F03FA06D
:10297000BCEF14F0BEEF14F0C0EF14F0B3EF14F09E
:102980003D50D8B4C6EF14F0C8EF14F0ECEF14F0DB
:10299000010E3F26000E40224122422242A0D3EFE8
:1029A00014F0D5EF14F0ECEF14F03FC034F040C059
:1029B00035F041C036F042C037F037343732363266
:1029C0003532343234C03FF035C040F036C041F0CB
:1029D00037C042F0434A442A44BEF7EF14F0445053
:1029E00008E14328D8A0F7EF14F0F9EF14F003EF53
:1029F00015F0000E3F6E000E406E800E416E7F0E91
:102A0000426E31EF15F044BE10EF15F0445006E170
:102A10004304D8B00EEF15F010EF15F01CEF15F0D1
:102A2000000E3F6E000E406E000E416E000E426EB4
:102A3000000E386E31EF15F043C03EF0FF0E3F162A
:102A4000FF0E40167F0E4116000E42163EA02BEFE1
:102A500015F02DEF15F02EEF15F0418ED8903E3089
:102A6000426E385042123FC02CF040C02DF041C0A1
:102A70002EF042C02FF012001650800B236E16501D
:102A800016242A6E15AE47EF15F049EF15F04AEF00
:102A900015F02A802A50D8B450EF15F052EF15F0F7
:102AA00067EF15F02A28D8A458EF15F05AEF15F063
:102AB00062EF15F0000E136E000E146E000E156E10
:102AC000000E166E158E000E166E6FEF15F0000ECE
:102AD000136E000E146E000E156E000E166E1A5058
:102AE000800B231A1A501A242B6E19AE7AEF15F0A8
:102AF0007CEF15F07DEF15F02B802B50D8B483EFD1
:102B000015F085EF15F09AEF15F02B28D8A48BEF70
:102B100015F08DEF15F095EF15F0000E176E000E05
:102B2000186E000E196E000E1A6E198E000E1A6EB7
:102B3000A2EF15F0000E176E000E186E000E196E43
:102B4000000E1A6E1750181019101A10D8A4ABEFF7
:102B500015F0ADEF15F0C5EF15F0000E136E000E79
:102B6000146E000E156E000E166E800E15127F0E7E
:102B700016122350161213C013F014C014F015C00F
:102B800015F016C016F008EF17F02A50D8A4CBEFB6
:102B900015F0CDEF15F0D7EF15F0000E136E000E07
:102BA000146E000E156E000E166E08EF17F02B5007
:102BB0002AC01BF01C6A1B5E000E1C5A7F0E1B24D1
:102BC000246E000E1C20256E13C01FF014C020F0D0
:102BD00015C021F016C022F0000E136E000E146E08
:102BE000000E156E000E166E000E266E000E276E7D
:102BF000000E286E000E296E000E2B6E38EF16F0B8
:102C00002B50D8B406EF16F008EF16F01FEF16F0B1
:102C1000D8901F36203621362236D89013361436F7
:102C20001536163629AE17EF16F019EF16F01AEF13
:102C300016F01380D89026362736283629361750B6
:102C40001F5C18502058195021581A502258D8A0EB
:102C50002CEF16F02EEF16F037EF16F0298C1750E8
:102C60001F5E1850205A1950215A1A50225A2B2AE6
:102C7000190E2B643EEF16F040EF16F000EF16F041
:102C80001F50201021102210D8B449EF16F04BEF3E
:102C900016F063EF16F0268063EF16F0D890133627
:102CA00014361536163629AE58EF16F05AEF16F0D0
:102CB0005BEF16F01380D890263627362836293653
:102CC0002406D8A0250615AE68EF16F06AEF16F0B8
:102CD0004EEF16F0000E2B6E29AE71EF16F073EF6B
:102CE00016F097EF16F0FF0E26141B6EFF0E27143A
:102CF0001C6EFF0E28141D6E7F0E29141E6E1B50B5
:102D00001C101D101E10D8B488EF16F08AEF16F0B4
:102D10008EEF16F0010E2B6E97EF16F013A093EFC7
:102D200016F095EF16F097EF16F08AEF16F02B508D
:102D3000D8B49DEF16F09FEF16F0C3EF16F0010E1A
:102D40001326000E14221522162216A0AAEF16F042
:102D5000ACEF16F0C3EF16F013C01BF014C01CF05C
:102D600015C01DF016C01EF01E341E321D321C325E
:102D70001B321BC013F01CC014F01DC015F01EC088
:102D800016F0244A252A25BECEEF16F0255008E17C
:102D90002428D8A0CEEF16F0D0EF16F0DBEF16F017
:102DA000000E256E2468000E136E000E146E000EC9
:102DB000156E000E166E25BEE8EF16F0255006E1E2
:102DC0002404D8B0E6EF16F0E8EF16F0F6EF16F0B0
:102DD000000E256E000E246E000E136E000E146E93
:102DE000000E156E000E166E000E236E24C02AF023
:102DF0002AA0FDEF16F0FFEF16F002EF17F0158E88
:102E000003EF17F0159ED8902A30166EB9EF15F023
:102E1000120022C03AF023C03BF024C03CF025C091
:102E20003DF026C03EF027C03FF028C040F029C04A
:102E300041F041BE1EEF17F021EF17F0010E22EF17
:102E400017F0000E386E396A38503910D8B42BEFAD
:102E500017F02DEF17F03DEF17F0411E401E3F1EFB
:102E60003E1E3D1E3C1E3B1E3A6C000E3B223C2289
:102E70003D223E223F2240224122000179BF43EF02
:102E800017F045EF17F046EF17F07A9379BF53EF3D
:102E900017F0795106E17805D8B051EF17F053EFEC
:102EA00017F059EF17F0000E356E010E346E5DEF1E
:102EB00017F078C034F079C035F076C036F077C0BE
:102EC00037F038503910D8A468EF17F06AEF17F0D0
:102ED00071EF17F07AA56FEF17F071EF17F074EF3D
:102EE00017F03606D8A03706000E436E1F0E426E4E
:102EF000000E9B6FF8EF17F04206D8A043067C0E39
:102F00004224D96E000E4320DA6E3AC005F03BC071
:102F100006F03CC007F03DC008F03EC009F03FC0DD
:102F20000AF040C00BF041C00CF00A0E0D6E000E0E
:102F30000E6E000E0F6E000E106E000E116E000E63
:102F4000126E000E136E000E146EF2EC1AF005C035
:102F50002AF006C02BF007C02CF008C02DF009C0E5
:102F60002EF00AC02FF00BC030F00CC031F02AC098
:102F700017F02CC018F037EC20F01750300FDF6E30
:102F80003406D8A035063606D8A037063AC005F074
:102F90003BC006F03CC007F03DC008F03EC009F061
:102FA0003FC00AF040C00BF041C00CF00A0E0D6E9D
:102FB000000E0E6E000E0F6E000E106E000E116EE3
:102FC000000E126E000E136E000E146E2EEC1AF030
:102FD00005C03AF006C03BF007C03CF008C03DF029
:102FE00009C03EF00AC03FF00BC040F00CC041F0F9
:102FF00043BE03EF18F0435008E14204D8A003EFAA
:1030000018F005EF18F036EF18F03A503B103C106E
:103010003D103E103F1040104110D8A412EF18F0A0
:1030200014EF18F07CEF17F035BE21EF18F0355093
:1030300006E13404D8B01FEF18F021EF18F07CEF50
:1030400017F037BE2CEF18F0375008E13604D8A03F
:103050002CEF18F02EEF18F036EF18F000017AB3CD
:1030600034EF18F036EF18F07CEF17F038503910C5
:10307000D8A43DEF18F03FEF18F047EF18F000012B
:103080007AA545EF18F047EF18F065EF18F0420603
:10309000D8A0430638503910D8A451EF18F053EF98
:1030A00018F059EF18F0000E336E2B0E326E5DEFF4
:1030B00018F0000E336E2D0E326E7C0E4224D96E47
:1030C000000E4320DA6E32C0DFFF20C015F021C0B1
:1030D00016F07C0E4224176E000E4320186E36C088
:1030E00019F037C01AF0C0EC1DF015C020F016C062
:1030F00021F0120046C0D9FF47C0DAFFDECFF6FF4D
:10310000DDCFF7FF0800F550250AD8A48AEF18F0A4
:103110008CEF18F038EF19F046C0D9FF47C0DAFF3E
:10312000DE2A000EDD22000E0001776F000E766FA2
:1031300076C07AF077C07BF07869796946C0D9FFAC
:1031400047C0DAFFDECFF6FFDDCFF7FF0800F5500E
:10315000640AD8B4AEEF18F0B0EF18F0C2EF18F070
:1031600046C0D9FF47C0DAFFDECFF6FFDDCFF7FF5D
:103170000800F550690AD8A4C0EF18F0C2EF18F0A3
:1031800002EF19F046C0D9FF47C0DAFFDE2A000E71
:10319000DD2248C0D9FF49C0DAFFDFCF4AF0020E76
:1031A000DE26DFCF4BF0000EDD224AC0D9FF4BC038
:1031B000DAFFDECF4CF0DDCF4DF0000E4DBEFF0E3E
:1031C0004E6E4F6E506E516E526E536E44C020F074
:1031D00045C021F04CC022F04DC023F04EC024F079
:1031E0004FC025F050C026F051C027F052C028F043
:1031F00053C029F009EC17F020C044F021C045F07D
:1032000053EF19F046C0D9FF47C0DAFFDECFF6FF13
:10321000DDCFF7FF0800F550250AD8A412EF19F00A
:1032200014EF19F02BEF19F046C0D9FF47C0DAFFB1
:10323000DE2A000EDD22000E066E250E056E44C04D
:1032400007F045C008F05BEC1DF0000E456E010E66
:10325000446E53EF19F046C0D9FF47C0DAFFDE2AAB
:10326000000EDD22000E456E000E446E53EF19F085
:1032700046C0D9FF47C0DAFFDECFF6FFDDCFF7FF4C
:103280000800F550056E066A44C007F045C008F016
:103290005BEC1DF046C0D9FF47C0DAFFDE2A000E06
:1032A000DD2225EF19F012000D6E0D50D8B45BEF42
:1032B00019F05DEF19F07FEF19F008BE64EF19F017
:1032C00062EF19F07FEF19F005C009F006C00AF0AF
:1032D00007C00BF008C00CF0091E0A1E0B1E0C1EC6
:1032E000092A000E0A220B220C2209C00FF00AC084
:1032F00010F00BC011F00CC012F087EF19F005C0F0
:103300000FF006C010F007C011F008C012F0055011
:10331000061007100810D8A490EF19F092EF19F0DA
:103320009CEF19F0000E056E000E066E000E076E83
:10333000000E086E2DEF1AF0960E0E6EA6EF19F025
:103340000E2AD8901232113210320F32000E0F14A2
:10335000096E000E10140A6E000E11140B6EFE0E94
:1033600012140C6E09500A100B100C10D8A4BBEFED
:1033700019F0BDEF19F0A0EF19F0CBEF19F00E2AFC
:10338000010E0F26000E102211221222D8901232A6
:10339000113210320F32000E0F14096E000E10148D
:1033A0000A6E000E11140B6EFF0E12140C6E0950F3
:1033B0000A100B100C10D8A4E0EF19F0E2EF19F08E
:1033C000BFEF19F0EAEF19F00E06D8900F3610365D
:1033D0001136123611BEEFEF19F0F1EF19F0F9EFD7
:1033E00019F0020E0E60F7EF19F0F9EF19F0E4EFA3
:1033F00019F00EB0FEEF19F000EF1AF001EF1AF01D
:10340000119ED8900E320EC009F00A6A0B6A0C6A3F
:1034100009C00CF00B6A0A6A096A09500F120A50B7
:1034200010120B5011120C5012120D50D8B41BEF89
:103430001AF01DEF1AF025EF1AF008BE24EF1AF06B
:1034400022EF1AF025EF1AF0128E0FC005F010C00F
:1034500006F011C007F012C008F01200000E166E40
:1034600014BE37EF1AF035EF1AF049EF1AF0141EB8
:10347000131E121E111E101E0F1E0E1E0D6C000EAE
:103480000E220F2210221122122213221422010EC8
:10349000166E0CBE50EF1AF04EEF1AF062EF1AF0F3
:1034A0000C1E0B1E0A1E091E081E071E061E056C9A
:1034B000000E06220722082209220A220B220C22D1
:1034C000010E161A20EE17F0070EDE6AE806FDE27E
:1034D0000D500E100F1010101110121013101410A8
:1034E000D8B475EF1AF077EF1AF0C9EF1AF0010EA1
:1034F000156E85EF1AF0D8900D360E360F36103651
:103500001136123613361436152A14AE8AEF1AF015
:103510008CEF1AF07BEF1AF0D89017361836193660
:103520001A361B361C361D361E360D50055C0E50E5
:1035300006580F500758105008581150095812508B
:103540000A5813500B5814500C58D8A0AAEF1AF070
:10355000ACEF1AF0BDEF1AF00D50055E0E50065A92
:103560000F50075A1050085A1150095A12500A5A4F
:1035700013500B5A14500C5A1780D890143213322F
:103580001232113210320F320E320D32152E8CEFF4
:103590001AF01650D8B4CFEF1AF0D1EF1AF0E1EFCD
:1035A0001AF01E1E1D1E1C1E1B1E1A1E191E181E82
:1035B000176C000E182219221A221B221C221D220F
:1035C0001E2217C005F018C006F019C007F01AC077
:1035D00008F01BC009F01CC00AF01DC00BF01EC093
:1035E0000CF01200000E166E0CBEFBEF1AF0F9EF95
:1035F0001AF00DEF1BF00C1E0B1E0A1E091E081EF2
:10360000071E061E056C000E06220722082209224C
:103610000A220B220C22010E166E14BE14EF1BF0B0
:1036200012EF1BF024EF1BF0141E131E121E111EAE
:10363000101E0F1E0E1E0D6C000E0E220F221022E9
:1036400011221222132214220D500E100F101010EE
:103650001110121013101410D8B431EF1BF033EF07
:103660001BF07BEF1BF0010E156E41EF1BF0D890A5
:103670000D360E360F361036113612361336143616
:10368000152A14AE46EF1BF048EF1BF037EF1BF086
:103690000D50055C0E5006580F5007581050085832
:1036A0001150095812500A5813500B5814500C5806
:1036B000D8A05DEF1BF05FEF1BF06FEF1BF00D501C
:1036C000055E0E50065A0F50075A1050085A1150F6
:1036D000095A12500A5A13500B5A14500C5AD890C7
:1036E000143213321232113210320F320E320D32C6
:1036F000152E48EF1BF01650D8B481EF1BF083EF66
:103700001BF093EF1BF00C1E0B1E0A1E091E081E59
:10371000071E061E056C000E06220722082209223B
:103720000A220B220C2205C005F006C006F007C0D5
:1037300007F008C008F009C009F00AC00AF00BC081
:103740000BF00CC00CF01200590E306E170E316EDB
:10375000370E326E3F0E336E000120EE10F0A45192
:10376000D926A551DA22DECFA6F0DDCFA7F0A6C07C
:1037700005F0A7C006F0076A086A000E54EC19F0BD
:1037800005C02CF006C02DF007C02EF008C02FF0A9
:1037900027EC13F02CC049F02DC04AF02EC04BF09E
:1037A0002FC04CF0D00E306EB30E316E590E326E0B
:1037B0003E0E336E000120EE0EF0A451D926A55125
:1037C000DA22DECFA8F0DDCFA9F0A8C005F0A9C0AD
:1037D00006F0076A086A000E54EC19F005C02CF0D8
:1037E00006C02DF007C02EF008C02FF027EC13F014
:1037F0002CC045F02DC046F02EC047F02FC048F039
:10380000C7EC10F045C0AAF046C0ABF047C0ACF022
:1038100048C0ADF0980E306EDD0E316E930E326EF4
:103820003D0E336E000120EE12F0A451D926A551B1
:10383000DA22DECFA6F0DDCFA7F0A6C005F0A7C044
:1038400006F0076A086A000E54EC19F005C02CF067
:1038500006C02DF007C02EF008C02FF027EC13F0A3
:103860002CC049F02DC04AF02EC04BF02FC04CF0B8
:10387000AAC045F0ABC046F0ACC047F0ADC048F0C0
:10388000C7EC10F045C09CF046C09DF047C09EF0CC
:1038900048C09FF055EC1CF09CC0AEF09DC0AFF04E
:1038A000AEC0A4F0AFC0A5F0120000019E359F3558
:1038B000566E5650D8A45FEF1CF061EF1CF06BEF12
:1038C0001CF0000E9C6F000E9D6F000E9E6F000E90
:1038D0009F6FD8EF1CF09CC0A0F09DC0A1F09EC0CF
:1038E000A2F09FC0A3F0200E7BEF1CF0D890A33372
:1038F000A233A133A033E82E76EF1CF0A051556E11
:103900009E8FFF0E9C17FF0E9D17FF0E9E17000E39
:103910009F17960E565E56BE92EF1CF090EF1CF06D
:10392000A8EF1CF05650800A970FD8B09AEF1CF001
:103930009CEF1CF09EEF1CF061EF1CF0D8909F33C1
:103940009E339D339C33563E9EEF1CF0C0EF1CF01F
:103950001F0E5664AEEF1CF0B0EF1CF0B8EF1CF079
:1039600061EF1CF0D8909C379D379E379F375606E5
:103970005650D8A4BEEF1CF0C0EF1CF0B2EF1CF004
:103980005550D8B4C6EF1CF0C8EF1CF0D0EF1CF0B7
:103990009F1F9E1F9D1F9C6D000E9D239E239F2396
:1039A0009CC09CF09DC09DF09EC09EF09FC09FF06B
:1039B0001200000E05140D6E000E06140E6E800E21
:1039C00007140F6E7F0E0814106E0D500E100F109E
:1039D0001010D8A4EEEF1CF0F0EF1CF0F8EF1CF084
:1039E000000E056E000E066E000E076E000E086ECD
:1039F000000E09140D6E000E0A140E6E800E0B14CC
:103A00000F6E7F0E0C14106E0D500E100F10101054
:103A1000D8A40DEF1DF00FEF1DF017EF1DF0000EF5
:103A2000096E000E0A6E000E0B6E000E0C6E08AED4
:103A30001CEF1DF01EEF1DF027EF1DF0056C061E9C
:103A4000D8B0062A071ED8B0072A800E08560CAE3A
:103A50002CEF1DF02EEF1DF037EF1DF0096C0A1E44
:103A6000D8B00A2A0B1ED8B00B2A800E0C56000EB6
:103A7000051A000E061A000E071A800E081A000E0C
:103A8000091A000E0A1A000E0B1A800E0C1A0950A1
:103A9000055C0A5006580B5007580C500858D8B00F
:103AA00054EF1DF056EF1DF059EF1DF0D8905AEF6E
:103AB0001DF0D880120007500810D8B462EF1DF036
:103AC00064EF1DF06DEF1DF007500810D8A46BEFE8
:103AD0001DF06DEF1DF072EF1DF0055086EC21F02A
:103AE000BFEF1DF020EE04F00750D9260850DA226F
:103AF000DE50DE10D8B47FEF1DF081EF1DF09CEF9B
:103B00001DF020EE04F00750D9260850DA2210EEFE
:103B100002F00750E1260850E222DE50E65CE65053
:103B2000800A0D6EDE50800A0D58D8B09AEF1DF055
:103B30009CEF1DF0BFEF1DF020EE02F00750D926DC
:103B40000850DA22DECF09F0DDCF0AF007C0D9FF36
:103B500008C0DAFFDECF0BF0DDCF0CF009500B24EC
:103B6000D96E0A500C20DA6E05C0DFFF20EE02F09D
:103B70000750D9260850DA22DE2A000EDD22120074
:103B800000017AA1C6EF1DF0C8EF1DF0D2EF1DF0C5
:103B900017C00EF018C00FF015C010F016C011F0CD
:103BA000D3EC1FF01ABED7EF1DF0D9EF1DF0DFEFF9
:103BB0001DF019C01EF01AC01FF0E3EF1DF0000E3B
:103BC0001F6E000E1E6E000E1D6E000E1C6EF5EFB9
:103BD0001DF0000E066E200E056E15C007F016C013
:103BE00008F05BEC1DF01C4A1D2A1E501C5C1D5089
:103BF000800A1B6E1F50800A1B58D8A002EF1EF0CF
:103C000004EF1EF0E9EF1DF000017AB10AEF1EF09B
:103C10000CEF1EF016EF1EF017C00EF018C00FF0DC
:103C200015C010F016C011F0D3EC1FF017C005F04E
:103C300018C006F057EC20F01E500524156E1F50DA
:103C40000620166E120011C005F012C006F013C057
:103C500007F014C008F015C009F016C00AF017C02C
:103C60000BF018C00CF0D9EC1CF0D8A03AEF1EF005
:103C70003CEF1EF05BEF1EF019C005F01AC006F015
:103C80001BC007F01CC008F011C009F012C00AF0F8
:103C900013C00BF014C00CF0D9EC1CF0D8A053EFFB
:103CA0001EF055EF1EF05BEF1EF0000E126E010EBF
:103CB000116E5FEF1EF0000E126E000E116E1200FC
:103CC0009EC054F09FC055F0000E0001756F000EAD
:103CD000746F7EEF1EF09CC044F09DC045F0540E02
:103CE000466E000E476EA0C048F0A1C049F07AECC5
:103CF00018F04450000174274550752354C0F6FF56
:103D000055C0F7FF0800F5500009D8A48AEF1EF04F
:103D10008CEF1EF06BEF1EF074C09CF075C09DF030
:103D20001200EBEC1EF020EE0CF01050D9261150D2
:103D3000DA2209C0DEFF0AC0DDFF13EC1FF020EE1F
:103D40000EF01050D9261150DA2209C0DEFF0AC049
:103D5000DDFF3BEC1FF020EE10F01050D926115083
:103D6000DA2209C0DEFF0AC0DDFF63EC1FF020EE9F
:103D700012F01050D9261150DA2209C0DEFF0AC015
:103D8000DDFF1200A60E0001AC6F000EAD6FA2C0E9
:103D9000AEF0A3C0AFF0000EB16F000EB06F000E1A
:103DA000B36F000EB26FAE0E9C6F000E9D6FA4C07D
:103DB0009EF0A5C09FF0AC0EA06F000EA16F60EC4E
:103DC0001EF00001B051A225D96EB151A321DA6EC7
:103DD000000EDF6E12007CEC21F0520E6BEC21F035
:103DE000B40E6BEC21F081EC21F0530E6BEC21F062
:103DF000010E16EC20F00B6E0B500E6E0F6A000ECB
:103E000016EC20F00B6E0B500D6E0C6A0E500C1061
:103E10000E6E0F500D100F6E77EC21F00EC009F0F2
:103E20000FC00AF012007CEC21F0520E6BEC21F076
:103E3000B60E6BEC21F081EC21F0530E6BEC21F00F
:103E4000010E16EC20F00B6E0B500E6E0F6A000E7A
:103E500016EC20F00B6E0B500D6E0C6A0E500C1011
:103E60000E6E0F500D100F6E77EC21F00EC009F0A2
:103E70000FC00AF012007CEC21F0520E6BEC21F026
:103E8000B80E6BEC21F081EC21F0530E6BEC21F0BD
:103E9000010E16EC20F00B6E0B500E6E0F6A000E2A
:103EA00016EC20F00B6E0B500D6E0C6A0E500C10C1
:103EB0000E6E0F500D100F6E77EC21F00EC009F052
:103EC0000FC00AF012007CEC21F0520E6BEC21F0D6
:103ED000BA0E6BEC21F081EC21F0530E6BEC21F06B
:103EE000010E16EC20F00B6E0B500E6E0F6A000EDA
:103EF00016EC20F00B6E0B500D6E0C6A0E500C1071
:103F00000E6E0F500D100F6E77EC21F00EC009F001
:103F10000FC00AF0120013EC1FF020EE06F0105054
:103F2000D9261150DA2209C0DEFF0AC0DDFF3BECC2
:103F30001FF020EE08F01050D9261150DA2209C0E7
:103F4000DEFF0AC0DDFF63EC1FF020EE0AF0105028
:103F5000D9261150DA2209C0DEFF0AC0DDFF1200A7
:103F600013EC1FF010C0D9FF11C0DAFF09C0DEFF4B
:103F70000AC0DDFF3BEC1FF020EE02F01050D92606
:103F80001150DA2209C0DEFF0AC0DDFF63EC1FF02A
:103F900020EE04F01050D9261150DA2209C0DEFFBD
:103FA0000AC0DDFF1200000E146E000E136EE4EF67
:103FB0001FF012C005F0066A10C007F011C008F02B
:103FC0005BEC1DF0134A142A13500E24D96E1450C2
:103FD0000F20DA6EDF50126E1250D8A4F2EF1FF0ED
:103FE000F4EF1FF0D9EF1FF012008594839E879C99
:103FF00085987D947B9E7F9C7D98BD508F0B40095A
:10400000BD6EE00EBE16BF50F00B0109BF6E630E11
:10401000BC6EBD8E0A0E0E01746F0B0E696F000E22
:10402000A36E000EA06EA48EA18E1200076E12EC7D
:1040300021F00E01DA8712EC21F0D5CE08F012EC57
:1040400021F00750D8B427EF20F02BEF20F0066ABC
:10405000062A2CEF20F0066A063A06460E01DA51CF
:104060000618DF0B0618DA6FDA890850120018BE3E
:1040700044EF20F0185006E11704D8B042EF20F0CA
:1040800044EF20F052EF20F017C019F018C01AF0DA
:10409000191E1A1E194A1A2A19C017F01AC018F048
:1040A00056EF20F017C017F018C018F0120005C026
:1040B00007F006C008F05FEF20F0054A062A05C0A9
:1040C000D9FF06C0DAFFDF50D8A469EF20F06BEF0C
:1040D00020F05DEF20F00750055C056E0850065893
:1040E000066E1200D3EC20F0010E076E000E36ECC7
:1040F00021F03F0E096E550EE82EFED7092EFCD793
:1041000000F0030E076E000E36EC21F0D50E076EA0
:10411000010E36EC21F0120002EE00F03C0EEE6AC9
:10412000E806FDE100EE60F03C0EEE6AE806FDE117
:104130005A6A596A586A576A5B905B92000EF86E29
:104140000E0EF76E00018FEF0DF0B0EF20F006C0FD
:10415000D9FF07C0DAFFDF50E8EC20F0064A072A53
:1041600006C0D9FF07C0DAFFDF50D8A4BAEF20F0AD
:10417000BCEF20F0A7EF20F012003B0E5764C3EF16
:1041800020F0C5EF20F0C7EF20F0000E576E572A41
:104190005704016E026A000E0124D96E020E02203D
:1041A000DA6EDF5012000E01D951F00B0809D96FF9
:1041B000D98B9F0ED66F848A848CA79BA79D1D0EDA
:1041C0001D6F1E0E1C6F1C0E6F6F1B0E706F12008A
:1041D000056E3B0E5864EFEF20F0F1EF20F0F3EFA7
:1041E00020F0000E586E000E5824D96EDA6A020EC6
:1041F000DA2205C0DFFF582A1200016E130E5A643E
:1042000004EF21F006EF21F008EF21F0000E5A6EC6
:10421000600E5A24D96EDA6A000EDA2201C0DFFF7E
:104220005A2A12000E01D8B518EF21F01AEF21F02A
:1042300012EF21F0DACE05F01F0E0516D8A423EFF9
:1042400021F025EF21F012EF21F01200120E0E01E5
:10425000626F110E156F8382E997E895330EE56F53
:10426000000EE66FE789E88BE78F1200086E7CECA2
:1042700021F0520E6BEC21F0085080096BEC21F01C
:1042800007506BEC21F077EC21F0120053EC21F099
:104290000009D8B44EEF21F050EF21F052EF21F099
:1042A0000E012D85120057505818D8A45AEF21F04E
:1042B0005DEF21F0010E5EEF21F0000E120057506D
:1042C0005818D8A466EF21F069EF21F0010E6AEFCB
:1042D00021F0000E1200066E12EC21F006C0D5FE91
:1042E0001200F28C0E012D872D95F28E120012EC29
:1042F00021F00E01DA85120012EC21F00E01DA81B4
:0E430000120012EC21F00E01DA8312001200FE
:020000040020DA
:10000000FF0FFF0FFF0FFF0FFF0FFF0FFF0FFF0F80
:020000040030CA
:0C000000AAFFFFFF9FFFFFFFFFFFFFFFB5
:00000001FF
