:0400000014EF00F009
:100008005F820E0133AB0BEF00F00DEF00F012EF43
:1000180000F0000ED46E000ED36E339B5F92110079
:10002800F8EF1BF0000E0001736F090E726F590E86
:100038002C6E170E2D6E370E2E6E3F0E2F6E20EE85
:1000480010F05B50D9265C50DA22DECF60F0DDCFAD
:1000580061F060C001F061C002F0036A046A000E3A
:1000680023EC13F001C028F002C029F003C02AF0E5
:1000780004C02BF057EC0EF028C045F029C046F01C
:100088002AC047F02BC048F0D00E2C6EB30E2D6E50
:10009800590E2E6E3E0E2F6E20EE0EF05B50D926B6
:1000A8005C50DA22DECF62F0DDCF63F062C001F08F
:1000B80063C002F0036A046A000E23EC13F001C067
:1000C80028F002C029F003C02AF004C02BF057EC36
:1000D8000EF028C041F029C042F02AC043F02BC0DE
:1000E80044F0DEEC09F041C068F042C069F043C05A
:1000F8006AF044C06BF0980E2C6EDD0E2D6E930ED8
:100108002E6E3D0E2F6E20EE12F05B50D9265C50FD
:10011800DA22DECF60F0DDCF61F060C001F061C0AF
:1001280002F0036A046A000E23EC13F001C028F001
:1001380002C029F003C02AF004C02BF057EC0EF0DF
:1001480028C045F029C046F02AC047F02BC048F027
:1001580068C041F069C042F06AC043F06BC044F027
:10016800DEEC09F041C051F042C052F043C053F0F8
:1001780044C054F017EC17F051C074F052C075F039
:10018800000E2C6E400E2D6E1C0E2E6E460E2F6E1F
:100198005BC0D9FF5CC0DAFFDECF60F0DDCF61F075
:1001A80020EE06F05B50D9265C50DA22DECF62F0F2
:1001B800DDCF63F000016051625F6151635B62C033
:1001C80001F063C002F0036A046A000E23EC13F026
:1001D80001C013F002C014F003C015F004C016F0FB
:1001E8005BC0D9FF5CC0DAFFDECF64F0DDCF65F01D
:1001F80020EE0EF05B50D9265C50DA22DECF66F096
:10020800DDCF67F000016451665F6551675B66C0CA
:1002180001F067C002F0036A046A000E23EC13F0D1
:1002280001C00FF002C010F003C011F004C012F0BA
:100238006CEC10F00FC028F010C029F011C02AF0A3
:1002480012C02BF057EC0EF028C051F029C052F024
:100258002AC053F02BC054F017EC17F051C06CF0C3
:1002680052C06DF0000E2C6E400E2D6E1C0E2E6EC0
:10027800460E2F6E20EE02F05B50D9265C50DA2233
:10028800DECF60F0DDCF61F020EE08F05B50D926BC
:100298005C50DA22DECF62F0DDCF63F000016051FE
:1002A800625F6151635B62C001F063C002F0036A80
:1002B800046A000E23EC13F001C013F002C014F01E
:1002C80003C015F004C016F020EE02F05B50D926EA
:1002D8005C50DA22DECF64F0DDCF65F020EE10F05E
:1002E8005B50D9265C50DA22DECF66F0DDCF67F0AE
:1002F80000016451665F6551675B66C001F067C0C5
:1003080002F0036A046A000E23EC13F001C00FF038
:1003180002C010F003C011F004C012F06CEC10F031
:100328000FC028F010C029F011C02AF012C02BF01D
:1003380057EC0EF028C051F029C052F02AC053F0F3
:100348002BC054F017EC17F051C06EF052C06FF08C
:10035800000E2C6E400E2D6E1C0E2E6E460E2F6E4D
:1003680020EE04F05B50D9265C50DA22DECF60F034
:10037800DDCF61F020EE0AF05B50D9265C50DA221E
:10038800DECF62F0DDCF63F000016051625F615142
:10039800635B62C001F063C002F0036A046A000E86
:1003A80023EC13F001C013F002C014F003C015F0E1
:1003B80004C016F020EE04F05B50D9265C50DA2217
:1003C800DECF64F0DDCF65F020EE12F05B50D92669
:1003D8005C50DA22DECF66F0DDCF67F000016451B1
:1003E800665F6551675B66C001F067C002F0036A2B
:1003F800046A000E23EC13F001C00FF002C010F0E5
:1004080003C011F004C012F06CEC10F00FC028F01B
:1004180010C029F011C02AF012C02BF057EC0EF0D2
:1004280028C051F029C052F02AC053F02BC054F014
:1004380017EC17F051C070F052C071F06CC001F0A9
:100448006DC002F0036A046A000E23EC13F001C0C9
:100458000FF002C010F003C011F004C012F06EC01B
:1004680001F06FC002F0036A046A000E23EC13F077
:1004780001C013F002C014F003C015F004C016F058
:100488006CEC10F00FC076F010C077F011C078F067
:1004980012C079F06CC001F06DC002F0036A046A02
:1004A800000E23EC13F001C00FF002C010F003C0DF
:1004B80011F004C012F070C001F071C002F0036ABC
:1004C800046A000E23EC13F001C013F002C014F00C
:1004D80003C015F004C016F06CEC10F00FC07AF0F1
:1004E80010C07BF011C07CF012C07DF070C001F02C
:1004F80071C002F0036A046A000E23EC13F001C015
:100508000FF002C010F003C011F004C012F06EC06A
:1005180001F06FC002F0036A046A000E23EC13F0C6
:1005280001C013F002C014F003C015F004C016F0A7
:100538006CEC10F00FC07EF010C07FF011C080F09E
:1005480012C081F0000179BFAEEF02F0ACEF02F00B
:10055800B6EF02F0000E766F000E776F000E786F20
:10056800000E796F7DBFBDEF02F0BBEF02F0C5EF63
:1005780002F0000E7A6F000E7B6F000E7C6F000E8B
:100588007D6F81BFCCEF02F0CAEF02F0D4EF02F02A
:10059800000E7E6F000E7F6F000E806F000E816F61
:1005A80076C00DF077C00EF078C00FF079C010F06B
:1005B800330E116E330E126EA30E136E400E146EB0
:1005C800000E156E000E166EA40E176E410E186EF4
:1005D80055EC19F00D040E10D8A4F5EF02F0F7EF62
:1005E80002F04DEF03F07AC00DF07BC00EF07CC036
:1005F8000FF07DC010F0CD0E116ECC0E126E0C0EE9
:10060800136E400E146E330E156E330E166E730E87
:10061800176E400E186E55EC19F00D040E10D8A484
:1006280018EF03F01AEF03F04DEF03F07EC00DF062
:100638007FC00EF080C00FF081C010F0660E116E02
:10064800660E126EE60E136E3F0E146E000E156ED9
:10065800000E166EB00E176E400E186E55EC19F09F
:100668000D040E10D8A43BEF03F03DEF03F04DEF5F
:1006780003F0210E0001745D030E7559D8A047EFF1
:1006880003F049EF03F04DEF03F0000E736F000E17
:10069800726F76C00DF077C00EF078C00FF079C099
:1006A80010F0CD0E116ECC0E126E4C0E136E3E0E67
:1006B800146E480E156EE10E166EFA0E176E3E0E8B
:1006C800186E55EC19F00D040E10D8A46EEF03F057
:1006D80070EF03F0C6EF03F07AC00DF07BC00EF0A8
:1006E8007CC00FF07DC010F0290E116E5C0E126EEA
:1006F8008F0E136E3E0E146E3D0E156E0A0E166E9C
:10070800170E176E3F0E186E55EC19F00D040E10EB
:10071800D8A491EF03F093EF03F0C6EF03F07EC087
:100728000DF07FC00EF080C00FF081C010F0330EC6
:10073800116E330E126E330E136E3F0E146E660E6C
:10074800156E660E166E660E176E3F0E186E55EC19
:1007580019F00D040E10D8A4B4EF03F0B6EF03F0AF
:10076800C6EF03F0440E0001745D030E7559D8A05E
:10077800C0EF03F0C2EF03F0C6EF03F0000E736F93
:10078800010E726F76C00DF077C00EF078C00FF0D2
:1007980079C010F0CD0E116ECC0E126ECC0E136E09
:1007A8003D0E146ECD0E156ECC0E166E0C0E176E19
:1007B8003F0E186E55EC19F00D040E10D8A4E7EF93
:1007C80003F0E9EF03F03FEF04F07AC00DF07BC0CF
:1007D8000EF07CC00FF07DC010F0CD0E116ECC0E67
:1007E800126ECC0E136E3D0E146E140E156EAE0EF8
:1007F800166EC70E176E3E0E186E55EC19F00D04E6
:100808000E10D8A40AEF04F00CEF04F03FEF04F048
:100818007EC00DF07FC00EF080C00FF081C010F0D8
:10082800000E116E000E126E800E136E3F0E146EC7
:100838009A0E156E990E166E990E176E3F0E186E5B
:1008480055EC19F00D040E10D8A42DEF04F02FEF7D
:1008580004F03FEF04F0210E0001745D030E75599A
:10086800D8A039EF04F03BEF04F03FEF04F0000E9E
:10087800736F020E726F76C00DF077C00EF078C0FD
:100888000FF079C010F09A0E116E990E126E990E33
:10089800136E3F0E146E330E156E330E166EB30EB6
:1008A800176E3F0E186E55EC19F00D040E10D8A4F3
:1008B80060EF04F062EF04F0B8EF04F07AC00DF0D6
:1008C8007BC00EF07CC00FF07DC010F0000E116EE2
:1008D800000E126EC00E136E3F0E146EEC0E156EE7
:1008E800510E166ED80E176E3F0E186E55EC19F095
:1008F8000D040E10D8A483EF04F085EF04F0B8EFD0
:1009080004F07EC00DF07FC00EF080C00FF081C0F3
:1009180010F0CD0E116ECC0E126E4C0E136E3F0EF3
:10092800146E660E156E660E166E660E176E3F0E08
:10093800186E55EC19F00D040E10D8A4A6EF04F0AB
:10094800A8EF04F0B8EF04F0530E0001745D030E35
:100958007559D8A0B2EF04F0B4EF04F0B8EF04F082
:10096800000E736F030E726F76C00DF077C00EF035
:1009780078C00FF079C010F0140E116EAE0E126E22
:10098800C70E136E3F0E146E710E156E3D0E166E69
:10099800EA0E176E3F0E186E55EC19F00D040E1086
:1009A800D8A4D9EF04F0DBEF04F031EF05F07AC0FA
:1009B8000DF07BC00EF07CC00FF07DC010F0A40ECF
:1009C800116E700E126E9D0E136E3F0E146E000E99
:1009D800156E000E166EC00E176E3F0E186E55EC93
:1009E80019F00D040E10D8A4FCEF04F0FEEF04F08B
:1009F80031EF05F07EC00DF07FC00EF080C00FF023
:100A080081C010F0330E116E330E126E930E136EFA
:100A18003F0E146E660E156E660E166EA60E176ED7
:100A28003F0E186E55EC19F00D040E10D8A41FEFE8
:100A380005F021EF05F031EF05F03F0E0001745D80
:100A4800030E7559D8A02BEF05F02DEF05F031EF07
:100A580005F0000E736F040E726F76C00DF077C04C
:100A68000EF078C00FF079C010F0660E116E660EA9
:100A7800126E460E136E400E146E330E156E330E44
:100A8800166E9B0E176E400E186E55EC19F00D047D
:100A98000E10D8A452EF05F054EF05F0AAEF05F0B8
:100AA8007AC00DF07BC00EF07CC00FF07DC010F056
:100AB800CD0E116ECC0E126E0C0E136E400E146E0F
:100AC800B80E156E1E0E166E350E176E400E186E89
:100AD80055EC19F00D040E10D8A475EF05F077EF5A
:100AE80005F0AAEF05F07EC00DF07FC00EF080C0C3
:100AF8000FF081C010F05C0E116E8F0E126EA20EF8
:100B0800136E3F0E146E660E156E660E166EE60EAA
:100B1800176E3F0E186E55EC19F00D040E10D8A480
:100B280098EF05F09AEF05F0AAEF05F0350E0001F1
:100B3800745D030E7559D8A0A4EF05F0A6EF05F073
:100B4800AAEF05F0000E736F050E726F76C00DF0F8
:100B580077C00EF078C00FF079C010F09A0E116EC1
:100B6800990E126E190E136E3F0E146EF60E156E58
:100B7800280E166E5C0E176E3F0E186E55EC19F0A7
:100B88000D040E10D8A4CBEF05F0CDEF05F023EF40
:100B980006F07AC00DF07BC00EF07CC00FF07DC06F
:100BA80010F09A0E116E990E126E190E136E3F0EFA
:100BB800146E9A0E156E990E166E590E176E3F0E1C
:100BC800186E55EC19F00D040E10D8A4EEEF05F0D0
:100BD800F0EF05F023EF06F07EC00DF07FC00EF0B9
:100BE80080C00FF081C010F0330E116E330E126EFC
:100BF800730E136E3F0E146E290E156E5C0E166E74
:100C08008F0E176E3F0E186E55EC19F00D040E106E
:100C1800D8A411EF06F013EF06F023EF06F0350E17
:100C28000001745D030E7559D8A01DEF06F01FEF83
:100C380006F023EF06F0000E736F060E726F76C093
:100C48000DF077C00EF078C00FF079C010F0660E86
:100C5800116E660E126E660E136E3F0E146ECD0E7A
:100C6800156ECC0E166E8C0E176E3F0E186E55EC68
:100C780019F00D040E10D8A444EF06F046EF06F064
:100C88009CEF06F07AC00DF07BC00EF07CC00FF030
:100C98007DC010F0CD0E116ECC0E126E4C0E136E80
:100CA8003F0E146E000E156E000E166E800E176E37
:100CB8003F0E186E55EC19F00D040E10D8A467EF0E
:100CC80006F069EF06F09CEF06F07EC00DF07FC0DD
:100CD8000EF080C00FF081C010F0330E116E330E8D
:100CE800126E730E136E3F0E146ECD0E156ECC0E73
:100CF800166E8C0E176E3F0E186E55EC19F00D041B
:100D08000E10D8A48AEF06F08CEF06F09CEF06F0E0
:100D18007B0E0001745D030E7559D8A096EF06F09E
:100D280098EF06F09CEF06F0000E736F070E726FD7
:100D380000016D5107E1320E6C5DD8B0A6EF06F0E8
:100D4800A8EF06F0C2EF06F06F5107E1320E6E5DB4
:100D5800D8B0B1EF06F0B3EF06F0C2EF06F071516C
:100D680007E1320E705DD8B0BCEF06F0BEEF06F0BA
:100D7800C2EF06F0000E736F080E726F72C05BF060
:100D880073C05CF01200000E026E630E016E60EC20
:100D98001BF0A2EC1BF009EC1CF029EC1CF03DEC5C
:100DA8001CF0000E0001A66F010EA76FA30EA86F1E
:100DB8000F0EA96F7D0EAA6F0F0EAB6F040EAC6FEE
:100DC800000EAE6F630EAD6F000EAF6F010EB06F09
:100DD800A00EB16F0F0EB26F7F0EB36F0F0EB46F10
:100DE800060EB56F000EB76F630EB66F000E9F6FDD
:100DF800000E9E6F000EA16F000EA06F000EA36F75
:100E0800000EA26F000EA56F000EA46F86840E015F
:100E1800B4958686B4977F828792798881987E8EEA
:100E2800869E849E7C9E88968096000E0001836F25
:100E3800000E826F7BEF07F07C8E8EB426EF07F0F2
:100E480028EF07F021EF07F08EB42DEF07F02FEF12
:100E580007F041EF07F07C9E920E0C6E000E0D6EAF
:100E680018EC1BF0190E5E6E5A0E5D6EB20EE82E6F
:100E7800FED75D2EFCD75E2EFAD77C8E8EB447EF58
:100E880007F049EF07F042EF07F08EB44EEF07F096
:100E980050EF07F062EF07F07C9E920E0C6E000E8A
:100EA8000D6E3DEC1BF0190E5E6E5A0E5D6EB20EA5
:100EB800E82EFED75D2EFCD75E2EFAD780868EB63A
:100EC80068EF07F06AEF07F063EF07F08EB66FEF91
:100ED80007F071EF07F07BEF07F08096000ED46EF5
:100EE800000ED36E000E0001836F010E826F0001A9
:100EF80082518311D8B483EF07F085EF07F020EF14
:100F080007F0000E896F090E886F000E8B6F090EAF
:100F18008A6F000E8D6F090E8C6F000E856F090E9B
:100F2800846F000E8F6F000E8E6F000E876F010E9C
:100F3800866F920E0C6E000E0D6ECCEC19F000014F
:100F48008E518F11D8A4ABEF07F0ADEF07F0B7EFD4
:100F580007F0920E5B6E000E5C6E16EC00F05BC044
:100F680088F05CC089F000018E058F11D8A4BFEF0E
:100F780007F0C1EF07F0CBEF07F0920E5B6E000EA3
:100F88005C6E16EC00F05BC08AF05CC08BF0020E61
:100F980000018E198F11D8A4D4EF07F0D6EF07F00F
:100FA800E0EF07F0920E5B6E000E5C6E16EC00F040
:100FB8005BC08CF05CC08DF0030E00018E198F11A0
:100FC800D8A4E9EF07F0EBEF07F0FCEF07F0920E7B
:100FD8005B6E000E5C6E16EC00F05BC084F05CC0CB
:100FE80085F0000E00018F6F000E8E6FFEEF07F088
:100FF8008E4B8F2B8A51881907E18B518919D8A4F8
:1010080008EF08F00AEF08F077EF08F08C518A191A
:1010180007E18D518B19D8A414EF08F016EF08F0EA
:1010280077EF08F084518C1907E185518D19D8A400
:1010380020EF08F022EF08F077EF08F088C090F072
:1010480089C091F0915107E1090E905DD8B02FEF5A
:1010580008F031EF08F04CEF08F090C001F091C0B3
:1010680002F03C0E036E010E046ECCC005F0CDC03C
:1010780006F0D20E076E000E086EFDEC19F00001A6
:10108800CC4BCD2B000E876F010E866F67EF08F0F3
:10109800090E90199111D8A454EF08F056EF08F0F2
:1010A80067EF08F086058711D8A45DEF08F05FEFB9
:1010B80008F067EF08F0000ED46E000ED36E000E35
:1010C800876F000E866F000E896F090E886F000EFD
:1010D8008B6F090E8A6F000E8D6F090E8C6F000ED4
:1010E800856F090E846F90519111D8A47EEF08F096
:1010F80080EF08F096EF08F0A60E1D6E000E1E6E2B
:10110800AF0E1F6E000E206E9DEC14F0090E5E6E81
:101118001E0E5D6EE40EE82EFED75D2EFCD75E2E09
:10112800FAD700D0000190059111D8A49EEF08F0DD
:10113800A0EF08F0B6EF08F0A60E1D6E000E1E6EAA
:10114800AF0E1F6E000E206EFDEC13F0090E5E6EE2
:101158001E0E5D6EE40EE82EFED75D2EFCD75E2EC9
:10116800FAD700D0020E000190199111D8A4BFEF50
:1011780008F0C1EF08F0D7EF08F0A60E1D6E000EBC
:101188001E6EAF0E1F6E000E206E3CEC15F0090EA1
:101198005E6E1E0E5D6EE40EE82EFED75D2EFCD749
:1011A8005E2EFAD700D0030E000190199111D8A431
:1011B800E0EF08F0E2EF08F0F8EF08F0A60E256E71
:1011C800000E266EAF0E276E000E286E1CEC18F06F
:1011D800090E5E6E1E0E5D6EE40EE82EFED75D2EC5
:1011E800FCD75E2EFAD700D0040E00019019911199
:1011F800D8A401EF09F003EF09F019EF09F0A60EE2
:10120800256E000E266EAF0E276E000E286E92EC2D
:1012180018F0090E5E6E1E0E5D6EE40EE82EFED707
:101228005D2EFCD75E2EFAD700D0050E000190196E
:101238009111D8A422EF09F024EF09F03AEF09F050
:10124800A60E1D6E000E1E6EAF0E1F6E000E206ED7
:10125800DBEC15F0090E5E6E1E0E5D6EE40EE82ED8
:10126800FED75D2EFCD75E2EFAD700D0060E000101
:1012780090199111D8A443EF09F045EF09F05BEFFD
:1012880009F0A60E1D6E000E1E6EAF0E1F6E000E2C
:10129800206E79EC16F0090E5E6E1E0E5D6EE40E81
:1012A800E82EFED75D2EFCD75E2EFAD700D0070EAB
:1012B800000190199111D8A464EF09F066EF09F0C4
:1012C80091EF09F0A60E256E000E266EAF0E276E62
:1012D800000E286E3C0E296E010E2A6ECCC02BF033
:1012E800CDC02CF0D20E2D6E000E2E6E3EEC0CF002
:1012F800090E5E6E1E0E5D6EE40EE82EFED75D2EA4
:10130800FCD75E2EFAD700D07C8E80868EB68FEF03
:1013180009F091EF09F08AEF09F0080E0001901921
:101328009111D8A49AEF09F09CEF09F0C5EF09F0E4
:10133800A60E256E000E266EAF0E276E000E286EC6
:101348003C0E296E010E2A6ECCC02BF0CDC02CF0BD
:10135800D20E2D6E000E2E6E3EEC0CF0090E5E6E57
:101368001E0E5D6EE40EE82EFED75D2EFCD75E2EB7
:10137800FAD700D08EB6C3EF09F0C5EF09F0BEEF7B
:1013880009F0090E000190199111D8A4CEEF09F0C7
:10139800D0EF09F09DEF07F0A60E196E000E1A6E39
:1013A800AF0E1B6E000E1C6E4FEC1AF09DEF07F08F
:1013B80014EF00F04450800B4D6E445044244F6E9F
:1013C80043AEE9EF09F0EBEF09F0ECEF09F04F80DD
:1013D8004F50D8B4F2EF09F0F4EF09F009EF0AF032
:1013E8004F28D8A4FAEF09F0FCEF09F004EF0AF04F
:1013F800000E416E000E426E000E436E000E446EEB
:10140800438E000E446E11EF0AF0000E416E000E7E
:10141800426E000E436E000E446E4850800B4E6EB6
:101428004D504E18D8B41BEF0AF01DEF0AF01EEF0E
:101438000AF04D8C485048244E6E47AE26EF0AF00D
:1014480028EF0AF029EF0AF04E804E50D8B42FEF5B
:101458000AF031EF0AF046EF0AF04E28D8A437EF29
:101468000AF039EF0AF041EF0AF0000E456E000E5F
:10147800466E000E476E000E486E478E000E486E90
:101488004EEF0AF0000E456E000E466E000E476ED7
:10149800000E486E4F504E5CD8B055EF0AF057EF2B
:1014A8000AF07EEF0AF04DAC5CEF0AF05EEF0AF04E
:1014B80060EF0AF0800E4D1A4FC050F04EC04FF04A
:1014C80050C04EF041C050F045C041F050C045F00A
:1014D80042C050F046C042F050C046F043C050F001
:1014E80047C043F050C047F044C050F048C044F0F3
:1014F80050C048F0000E506E4F504EC049F04A6A36
:10150800495E000E4A5A4ABE93EF0AF04A5009E172
:101518001A0E495CD8A093EF0AF095EF0AF0CCEFC9
:101528000AF04150421043104410D8A49EEF0AF02C
:10153800A1EF0AF0010EA2EF0AF0000E506E000EA5
:10154800416E000E426E000E436E000E446E4EC099
:101558004FF0D5EF0AF050A0B4EF0AF0B6EF0AF05A
:10156800BCEF0AF0D89050300109506EBEEF0AF077
:10157800D890503241A0C3EF0AF0C5EF0AF0C6EF89
:101588000AF0508E443444324332423241324F2AB8
:101598004E504F5CD8A0D3EF0AF0D5EF0AF0AFEF6A
:1015A8000AF04DBCDAEF0AF0DCEF0AF01CEF0BF0A2
:1015B8004F50D8A4E2EF0AF0E4EF0AF0EEEF0AF099
:1015C800000E416E000E426E000E436E000E446E19
:1015D8003DEF0CF0455041264650422247504322E9
:1015E8004850442244A0FBEF0AF0FDEF0AF0A9EFAF
:1015F8000BF050A002EF0BF004EF0BF00AEF0BF02A
:10160800D89050300109506E0CEF0BF0D890503242
:1016180041A011EF0BF013EF0BF014EF0BF0508E0D
:10162800443444324332423241324F2AA9EF0BF05C
:101638004550415C46504258475043584450800AF0
:10164800496E4850800A4958D8B02DEF0BF02FEF5B
:101658000BF05AEF0BF04150455C496E425046582A
:101668004A6E435047584B6E445048584C6EFF0ED4
:101678004924416EFF0E4A20426EFF0E4B20436EF6
:10168800FF0E4C20446E800E4D1A506C5050D8A45A
:1016980050EF0BF052EF0BF062EF0BF0010E41260A
:1016A800000E42224322442262EF0BF04550415E75
:1016B8004650425A4750435A4850445A41504210A3
:1016C80043104410D8A46BEF0BF06DEF0BF0A2EFB2
:1016D8000BF05050D8A473EF0BF075EF0BF0A2EF9E
:1016E8000BF0000E416E000E426E000E436E000EAF
:1016F800446E3DEF0CF0D8904136423643364436BE
:1017080050AE89EF0BF08BEF0BF08CEF0BF04180B4
:1017180050A091EF0BF093EF0BF097EF0BF0D88000
:10172800503699EF0BF0D89050364F50D8B49FEF01
:101738000BF0A1EF0BF0A2EF0BF04F0643AEA7EFB3
:101748000BF0A9EF0BF07FEF0BF0000E4E6E50AED2
:10175800B0EF0BF0B2EF0BF0CAEF0BF050C049F04E
:101768007F0E4916D8B4BBEF0BF0BDEF0BF0C1EFFD
:101778000BF0010E4E6ECAEF0BF041A0C6EF0BF056
:10178800C8EF0BF0CAEF0BF0BDEF0BF04E50D8B41A
:10179800D0EF0BF0D2EF0BF0FDEF0BF0010E41266E
:1017A800000E42224322442244A0DDEF0BF0DFEF7B
:1017B8000BF0FDEF0BF041C049F042C04AF043C0C6
:1017C8004BF044C04CF04C344C324B324A32493224
:1017D80049C041F04AC042F04BC043F04CC044F00D
:1017E8004F28D8B4FAEF0BF0FCEF0BF0FDEF0BF03D
:1017F8004F2A4F28D8B403EF0CF005EF0CF00DEF8B
:101808000CF04F50D8A40BEF0CF00DEF0CF01FEFBD
:101818000CF0000E416E000E426E000E436E000E7C
:10182800446E4F50D8A41BEF0CF01DEF0CF01FEFC7
:101838000CF0000E4D6E4FA024EF0CF026EF0CF0CC
:1018480029EF0CF0438E2AEF0CF0439ED8904F30CE
:10185800446E4DAE32EF0CF034EF0CF035EF0CF077
:10186800448E41C041F042C042F043C043F044C0FE
:1018780044F0120025C019F026C01AF027C01BF04A
:1018880028C01CF008EC19F025C01DF026C01EF079
:1018980027C01FF028C020F03CEC15F0520E306E27
:1018A8002B0E2F6E000EE82EFED72F2EFCD7302ED3
:1018B800FAD700D0000E386E000E376E41EF0EF0EA
:1018C80037502B5C2F6E38502C58306ED8902F36EE
:1018D800303629C031F02AC032F02F50312630502E
:1018E8003222FE0E3124D96EFF0E3220DA6EDE501F
:1018F800DE10D8A482EF0CF084EF0CF090EF0CF01F
:1019080025C01DF026C01EF027C01FF028C020F0FB
:10191800FDEC13F0FFEF0DF037502B5C2F6E3850B5
:101928002C58306ED8902F36303629C031F02AC066
:1019380032F02F50312630503222FE0E3124D96E2B
:10194800FF0E3220DA6EDE04DE10D8A4AEEF0CF003
:10195800B0EF0CF0BCEF0CF025C01DF026C01EF057
:1019680027C01FF028C020F09DEC14F0FFEF0DF009
:1019780037502B5C2F6E38502C58306ED8902F363D
:10198800303629C031F02AC032F02F50312630507D
:101998003222FE0E3124D96EFF0E3220DA6E020E8C
:1019A800DE18DE10D8A4DBEF0CF0DDEF0CF0E9EF69
:1019B8000CF025C01DF026C01EF027C01FF028C05F
:1019C80020F03CEC15F0FFEF0DF037502B5C2F6E3C
:1019D80038502C58306ED8902F36303629C031F018
:1019E8002AC032F02F50312630503222FE0E3124D8
:1019F800D96EFF0E3220DA6E030EDE18DE10D8A480
:101A080008EF0DF00AEF0DF041EF0DF025C01DF0C5
:101A180026C01EF027C01FF028C020F0FDEC13F0F0
:101A280025C019F026C01AF027C01BF028C01CF0EA
:101A380026EC1AF0310E306EB40E2F6E660EE82EBC
:101A4800FED72F2EFCD7302EFAD725C019F026C086
:101A58001AF027C01BF028C01CF008EC19F0050E7E
:101A6800306E0F0E2F6EF10EE82EFED72F2EFCD7FC
:101A7800302EFAD700F0FFEF0DF037502B5C2F6EA9
:101A880038502C58306ED8902F36303629C031F067
:101A98002AC032F02F50312630503222FE0E312427
:101AA800D96EFF0E3220DA6E040EDE18DE10D8A4CE
:101AB80060EF0DF062EF0DF078EF0DF025C01DF02E
:101AC80026C01EF027C01FF028C020F09DEC14F09F
:101AD80025C019F026C01AF027C01BF028C01CF03A
:101AE80026EC1AF01EEF0DF037502B5C2F6E385095
:101AF8002C58306ED8902F36303629C031F02AC095
:101B080032F02F50312630503222FE0E3124D96E59
:101B1800FF0E3220DA6E050EDE18DE10D8A497EF1D
:101B28000DF099EF0DF0A5EF0DF025C01DF026C0C2
:101B38001EF027C01FF028C020F079EC16F0FFEF48
:101B48000DF037502B5C2F6E38502C58306ED890D3
:101B58002F36303629C031F02AC032F02F503126C6
:101B680030503222FE0E3124D96EFF0E3220DA6E4A
:101B7800060EDE18DE10D8A4C4EF0DF0C6EF0DF087
:101B8800D2EF0DF025C01DF026C01EF027C01FF0B3
:101B980028C020F0DBEC15F0FFEF0DF037502B5C80
:101BA8002F6E38502C58306ED8902F36303629C0CA
:101BB80031F02AC032F02F50312630503222FE0E3A
:101BC8003124D96EFF0E3220DA6E090EDE18DE10CF
:101BD800D8A4F1EF0DF0F3EF0DF0FFEF0DF025C0F5
:101BE80019F026C01AF027C01BF028C01CF008EC1A
:101BF80019F0FFEF0DF0000E366E000E356E25C0A1
:101C080019F026C01AF027C01BF028C01CF04FECB2
:101C18001AF0000ED46E000ED36E1DEF0EF0D3CF67
:101C280035F0366AD450306E2F6A2F503512305046
:101C3800361237502B5C2F6E38502C58306ED89097
:101C48002F3630362DC031F02EC032F02F503126CD
:101C580030503222FE0E3124D96EFF0E3220DA6E59
:101C6800DE50355CDE503658D8A03DEF0EF03FEF21
:101C78000EF013EF0EF0374A382A2B50375C2C50F1
:101C88003858D8A04AEF0EF04CEF0EF064EF0CF085
:101C980025C019F026C01AF027C01BF028C01CF078
:101CA80008EC19F012002B50800B346E2B502B24AB
:101CB8003A6E2AAE62EF0EF064EF0EF065EF0EF0AA
:101CC8003A803A50D8B46BEF0EF06DEF0EF080EF1B
:101CD8000EF03A28D8A473EF0EF075EF0EF07DEFF2
:101CE8000EF0000E286E000E296E000E2A6E000EF1
:101CF8002B6E2A8E88EF0EF0000E286E000E296ECD
:101D0800000E2A6E000E2B6E2F50800B341A2F50A7
:101D18002F24396E2EAE93EF0EF095EF0EF096EF5E
:101D28000EF039803950D8B49CEF0EF09EEF0EF0CB
:101D3800B1EF0EF03928D8A4A4EF0EF0A6EF0EF0FC
:101D4800AEEF0EF0000E2C6E000E2D6E000E2E6EF5
:101D5800000E2F6E2E8EB9EF0EF0000E2C6E000EB8
:101D68002D6E000E2E6E000E2F6E3950D8B4BFEFB8
:101D78000EF0C1EF0EF0C9EF0EF03A50D8A4C7EF3D
:101D88000EF0C9EF0EF0D3EF0EF0000E286E000E25
:101D9800296E000E2A6E000E2B6E6BEF10F02E507F
:101DA8002802F3CF3FF0F4CF40F03F50356E366A4B
:101DB800376A386A40503B6E3C6A3D6A3E6A2D502D
:101DC8002902F3CF3FF0F4CF40F03F503526000E04
:101DD80036223722382240503B26000E3C223D2234
:101DE8003E222C502A02F3CF3FF0F4CF40F03F5070
:101DF8003526000E36223722382240503B26000E68
:101E08003C223D223E2237C038F036C037F035C07C
:101E180036F0356A2C502902F3CF3FF0F4CF40F06A
:101E28003F50352640503622000E3722000E382209
:101E38002D502802F3CF3FF0F4CF40F03F50352625
:101E480040503622000E3722000E382237C038F0B4
:101E580036C037F035C036F0356A2C502802F3CF3B
:101E68003FF0F4CF40F03F50352640503622000E68
:101E78003722000E38222E502902F3CF3FF0F4CF3C
:101E880040F03F503B2640503C22000E3D22000EC1
:101E98003E222D502A02F3CF3FF0F4CF40F03F50BE
:101EA8003B2640503C22000E3D22000E3E222E5082
:101EB8002A02F3CF3FF0F4CF40F03F50306E40504D
:101EC800316E326A336A32C033F031C032F030C01A
:101ED80031F0306A30503B2631503C2232503D229E
:101EE80033503E2235C030F036C031F037C032F0C2
:101EF80038C033F0190E86EF0FF0D89033323232F3
:101F080031323032E82E81EF0FF030503B2631501D
:101F18003C2232503D2233503E2237C038F036C082
:101F280037F035C036F0356A39503AC030F0316A8A
:101F38003026000E3122820E30243F6EFF0E3120F3
:101F4800406EBCEF0FF0D8903B363C363D363E36FF
:101F580038AEB1EF0FF0B3EF0FF0B4EF0FF03B80F6
:101F6800D89035363636373638363F06D8A040064C
:101F78003DAEC1EF0FF0C3EF0FF0A7EF0FF0000E6B
:101F8800396E38AECAEF0FF0CCEF0FF0F0EF0FF06C
:101F9800FF0E3514306EFF0E3614316EFF0E3714F7
:101FA800326E7F0E3814336E3050311032103310C9
:101FB800D8B4E1EF0FF0E3EF0FF0E7EF0FF0010E09
:101FC800396EF0EF0FF03BA0ECEF0FF0EEEF0FF0F3
:101FD800F0EF0FF0E3EF0FF03950D8B4F6EF0FF051
:101FE800F8EF0FF01CEF10F0010E3B26000E3C221C
:101FF8003D223E223EA003EF10F005EF10F01CEF4B
:1020080010F03BC030F03CC031F03DC032F03EC073
:1020180033F03334333232323132303230C03BF085
:1020280031C03CF032C03DF033C03EF03F4A402A58
:1020380040BE27EF10F0405008E13F28D8A027EF16
:1020480010F029EF10F033EF10F0000E3B6E000E89
:102058003C6E800E3D6E7F0E3E6E61EF10F040BE0E
:1020680040EF10F0405006E13F04D8B03EEF10F0CA
:1020780040EF10F04CEF10F0000E3B6E000E3C6E7F
:10208800000E3D6E000E3E6E000E346E61EF10F0D5
:102098003FC03AF0FF0E3B16FF0E3C167F0E3D1672
:1020A800000E3E163AA05BEF10F05DEF10F05EEF09
:1020B80010F03D8ED8903A303E6E34503E123BC000
:1020C80028F03CC029F03DC02AF03EC02BF0120099
:1020D8001250800B1F6E12501224266E11AE77EF2D
:1020E80010F079EF10F07AEF10F026802650D8B46F
:1020F80080EF10F082EF10F097EF10F02628D8A4A8
:1021080088EF10F08AEF10F092EF10F0000E0F6ECB
:10211800000E106E000E116E000E126E118E000E63
:10212800126E9FEF10F0000E0F6E000E106E000E74
:10213800116E000E126E1650800B1F1A16501624C0
:10214800276E15AEAAEF10F0ACEF10F0ADEF10F05F
:1021580027802750D8B4B3EF10F0B5EF10F0CAEFCE
:1021680010F02728D8A4BBEF10F0BDEF10F0C5EF92
:1021780010F0000E136E000E146E000E156E000E99
:10218800166E158E000E166ED2EF10F0000E136E3E
:10219800000E146E000E156E000E166E13501410FD
:1021A80015101610D8A4DBEF10F0DDEF10F0F5EFE6
:1021B80010F0000E0F6E000E106E000E116E000E65
:1021C800126E800E11127F0E12121F5012120FC0C3
:1021D8000FF010C010F011C011F012C012F038EF5B
:1021E80012F02650D8A4FBEF10F0FDEF10F007EF27
:1021F80011F0000E0F6E000E106E000E116E000E24
:10220800126E38EF12F0275026C017F0186A175EC2
:10221800000E185A7F0E1724206E000E1820216E0B
:102228000FC01BF010C01CF011C01DF012C01EF032
:10223800000E0F6E000E106E000E116E000E126E64
:10224800000E226E000E236E000E246E000E256E08
:10225800000E276E68EF11F02750D8B436EF11F052
:1022680038EF11F04FEF11F0D8901B361C361D36A1
:102278001E36D8900F3610361136123625AE47EF77
:1022880011F049EF11F04AEF11F00F80D890223683
:1022980023362436253613501B5C14501C58155011
:1022A8001D5816501E58D8A05CEF11F05EEF11F0C3
:1022B80067EF11F0258C13501B5E14501C5A1550F3
:1022C8001D5A16501E5A272A190E27646EEF11F050
:1022D80070EF11F030EF11F01B501C101D101E1084
:1022E800D8B479EF11F07BEF11F093EF11F0228061
:1022F80093EF11F0D8900F3610361136123625AEFE
:1023080088EF11F08AEF11F08BEF11F00F80D89061
:1023180022362336243625362006D8A0210611AECB
:1023280098EF11F09AEF11F07EEF11F0000E276E82
:1023380025AEA1EF11F0A3EF11F0C7EF11F0FF0EDA
:102348002214176EFF0E2314186EFF0E2414196E34
:102358007F0E25141A6E1750181019101A10D8B4B9
:10236800B8EF11F0BAEF11F0BEEF11F0010E276EC1
:10237800C7EF11F00FA0C3EF11F0C5EF11F0C7EFD1
:1023880011F0BAEF11F02750D8B4CDEF11F0CFEF1C
:1023980011F0F3EF11F0010E0F26000E102211229A
:1023A800122212A0DAEF11F0DCEF11F0F3EF11F0C6
:1023B8000FC017F010C018F011C019F012C01AF0B1
:1023C8001A341A3219321832173217C00FF018C0DF
:1023D80010F019C011F01AC012F0204A212A21BEAB
:1023E800FEEF11F0215008E12028D8A0FEEF11F0EF
:1023F80000EF12F00BEF12F0000E216E2068000EB5
:102408000F6E000E106E000E116E000E126E21BEC1
:1024180018EF12F0215006E12004D8B016EF12F0A0
:1024280018EF12F026EF12F0000E216E000E206E4B
:10243800000E0F6E000E106E000E116E000E126E62
:10244800000E1F6E20C026F026A02DEF12F02FEFF1
:1024580012F032EF12F0118E33EF12F0119ED89075
:102468002630126EE9EF10F0120020EE01F00E5047
:10247800D9260F50DA22DF50D8B445EF12F047EFD3
:1024880012F078EF12F00EC0D9FF0FC0DAFFDF505C
:10249800106E1050016E026A20EE07F00E50D92619
:1024A8000F50DA22DECF03F0DDCF04F0E5EC1BF0AD
:1024B80001C007F002C008F0000E0A6E640E096E33
:1024C80092EC19F020EE07F00E50D9260F50DA22C0
:1024D800DECF11F0DDCF12F00750115C176E0850F7
:1024E8001258186E9BEF12F00EC0D9FF0FC0DAFF1A
:1024F800DF50106E1050016E026A20EE07F00E5089
:10250800D9260F50DA22DECF03F0DDCF04F0E5EC58
:102518001BF001C007F002C008F0000E0A6E640E3E
:10252800096E92EC19F007C017F008C018F020EEF9
:1025380002F00E50D9260F50DA22DECF10F0DDCF90
:1025480011F010C0D9FF11C0DAFF17C0DFFF20EE6D
:1025580001F00E50D9260F50DA22DF50D8B4B7EF69
:1025680012F0B9EF12F0EEEF12F020EE04F00E5078
:10257800D9260F50DA22DECF10F0DDCF11F010C0CF
:10258800D9FF11C0DAFF10EE04F00E50E1260F500B
:10259800E222E6CF12F0E5CF13F012C0E1FF13C03C
:1025A800E2FFE750146E10EE06F00E50E1260F50D1
:1025B800E222E750156E010E166E152AE6EF12F0AC
:1025C800D8901636152EE4EF12F016501410DF6E60
:1025D80022EF13F020EE04F00E50D9260F50DA2225
:1025E800DECF10F0DDCF11F010C0D9FF11C0DAFF37
:1025F80010EE04F00E50E1260F50E222E6CF12F062
:10260800E5CF13F012C0E1FF13C0E2FFE750146EEC
:1026180010EE06F00E50E1260F50E222E750156E3C
:10262800010E166E152A1BEF13F0D8901636152ECC
:1026380019EF13F01650FF0A1414DF6E1200096E1A
:102648000950D8B42AEF13F02CEF13F04EEF13F023
:1026580004BE33EF13F031EF13F04EEF13F001C067
:1026680005F002C006F003C007F004C008F0051E1C
:10267800061E071E081E052A000E0622072208222B
:1026880005C00BF006C00CF007C00DF008C00EF036
:1026980056EF13F001C00BF002C00CF003C00DF0B0
:1026A80004C00EF00150021003100410D8A45FEF0C
:1026B80013F061EF13F06BEF13F0000E016E000ED4
:1026C800026E000E036E000E046EFCEF13F0960E01
:1026D8000A6E75EF13F00A2AD8900E320D320C32BA
:1026E8000B32000E0B14056E000E0C14066E000E55
:1026F8000D14076EFE0E0E14086E05500610071016
:102708000810D8A48AEF13F08CEF13F06FEF13F0D2
:102718009AEF13F00A2A010E0B26000E0C220D2246
:102728000E22D8900E320D320C320B32000E0B14E2
:10273800056E000E0C14066E000E0D14076EFF0ECB
:102748000E14086E0550061007100810D8A4AFEF35
:1027580013F0B1EF13F08EEF13F0B9EF13F00A0690
:10276800D8900B360C360D360E360DBEBEEF13F074
:10277800C0EF13F0C8EF13F0020E0A60C6EF13F0B3
:10278800C8EF13F0B3EF13F00AB0CDEF13F0CFEFAB
:1027980013F0D0EF13F00D9ED8900A320AC005F05E
:1027A800066A076A086A05C008F0076A066A056AC1
:1027B80005500B1206500C1207500D1208500E123D
:1027C8000950D8B4EAEF13F0ECEF13F0F4EF13F07C
:1027D80004BEF3EF13F0F1EF13F0F4EF13F00E8EE5
:1027E8000BC001F00CC002F00DC003F00EC004F0E5
:1027F80012001DC019F01EC01AF01FC01BF020C027
:102808001CF008EC19F0050E226E0F0E216EF10E69
:10281800E82EFED7212EFCD7222EFAD700F01DC0B5
:1028280019F01EC01AF01FC01BF020C01CF026ECC7
:102838001AF0210E226E780E216E980EE82EFED721
:10284800212EFCD7222EFAD700D01DC019F01EC0A9
:102858001AF01FC01BF020C01CF008EC19F00D0E78
:10286800226E2D0E216ED80EE82EFED7212EFCD713
:10287800222EFAD720EE01F01D50D9261E50DA225A
:10288800000EDF6E20EE01F01F50D9262050DA220C
:10289800010EDF6E000E246E000E236E1DC0D9FFE0
:1028A8001EC0DAFFDF2A1FC0D9FF20C0DAFFDF2AE7
:1028B8001DC00EF01EC00FF039EC12F01FC00EF054
:1028C80020C00FF039EC12F0A00E00D0E82EFDD792
:1028D800234A242A245009E1500E235CD8A077EF1C
:1028E80014F079EF14F052EF14F0100E226E6C0E03
:1028F800216E000EE82EFED7212EFCD7222EFAD705
:1029080000D000D01DC019F01EC01AF01FC01BF067
:1029180020C01CF008EC19F0050E226E0F0E216E77
:10292800F10EE82EFED7212EFCD7222EFAD700F082
:1029380012001DC019F01EC01AF01FC01BF020C0E5
:102948001CF008EC19F0050E226E0F0E216EF10E28
:10295800E82EFED7212EFCD7222EFAD700F01DC074
:1029680019F01EC01AF01FC01BF020C01CF026EC86
:102978001AF0210E226E780E216E980EE82EFED7E0
:10298800212EFCD7222EFAD700D01DC019F01EC068
:102998001AF01FC01BF020C01CF008EC19F00D0E37
:1029A800226E2D0E216ED80EE82EFED7212EFCD7D2
:1029B800222EFAD720EE01F01D50D9261E50DA2219
:1029C800010EDF6E20EE01F01F50D9262050DA22CA
:1029D800000EDF6E000E246E000E236E1DC0D9FFA0
:1029E8001EC0DAFFDF2A1FC0D9FF20C0DAFFDF2AA6
:1029F8001DC00EF01EC00FF039EC12F01FC00EF013
:102A080020C00FF039EC12F0A00E00D0E82EFDD750
:102A1800234A242A245009E1500E235CD8A017EF3A
:102A280015F019EF15F0F2EF14F0110E226EA40E46
:102A3800216EB00EE82EFED7212EFCD7222EFAD713
:102A480000D01DC019F01EC01AF01FC01BF020C016
:102A58001CF008EC19F0050E226E0F0E216EF10E17
:102A6800E82EFED7212EFCD7222EFAD700F012002E
:102A78001DC019F01EC01AF01FC01BF020C01CF0AA
:102A880008EC19F0050E226E0F0E216EF10EE82EDD
:102A9800FED7212EFCD7222EFAD700F01DC019F040
:102AA8001EC01AF01FC01BF020C01CF026EC1AF044
:102AB800210E226E780E216E980EE82EFED7212E5A
:102AC800FCD7222EFAD700D01DC019F01EC01AF06C
:102AD8001FC01BF020C01CF008EC19F00D0E226E70
:102AE8002D0E216ED80EE82EFED7212EFCD7222ED1
:102AF800FAD720EE01F01D50D9261E50DA22010E19
:102B0800DF6E20EE01F01F50D9262050DA22000E89
:102B1800DF6E000E246E000E236E1DC0D9FF1EC08E
:102B2800DAFFDF2A1FC0D9FF20C0DAFFDF2A1DC065
:102B38000EF01EC00FF039EC12F01FC00EF020C0CE
:102B48000FF039EC12F0A00E00D0E82EFDD7234A82
:102B5800242A245009E14B0E235CD8A0B6EF15F0C7
:102B6800B8EF15F091EF15F0210E226E780E216E58
:102B7800980EE82EFED7212EFCD7222EFAD700D0A9
:102B88001DC019F01EC01AF01FC01BF020C01CF099
:102B980008EC19F0050E226E0F0E216EF10EE82ECC
:102BA800FED7212EFCD7222EFAD700F012001DC026
:102BB80019F01EC01AF01FC01BF020C01CF008EC52
:102BC80019F0050E226E0F0E216EF10EE82EFED7BB
:102BD800212EFCD7222EFAD700F01DC019F01EC0F6
:102BE8001AF01FC01BF020C01CF026EC1AF0210EB2
:102BF800226E780E216E980EE82EFED7212EFCD775
:102C0800222EFAD700D01DC019F01EC01AF01FC01E
:102C18001BF020C01CF008EC19F00D0E226E2D0ED2
:102C2800216ED80EE82EFED7212EFCD7222EFAD7F9
:102C380020EE01F01D50D9261E50DA22010EDF6E5B
:102C480020EE01F01F50D9262050DA22000EDF6E48
:102C5800000E246E000E236E1DC0D9FF1EC0DAFFC1
:102C6800DF2A1FC0D9FF20C0DAFFDF2A1DC00EF0FF
:102C78001EC00FF039EC12F01FC00EF020C00FF08C
:102C880039EC12F0A00E00D0E82EFDD7234A242AF2
:102C9800245009E14B0E235CD8A055EF16F057EFEE
:102CA80016F030EF16F0170E226E530E216E380E06
:102CB800E82EFED7212EFCD7222EFAD71DC019F0F8
:102CC8001EC01AF01FC01BF020C01CF008EC19F041
:102CD800050E226E0F0E216EF10EE82EFED7212E64
:102CE800FCD7222EFAD700F012001DC019F01EC022
:102CF8001AF01FC01BF020C01CF008EC19F0050EDC
:102D0800226E0F0E216EF10EE82EFED7212EFCD773
:102D1800222EFAD700F01DC019F01EC01AF01FC0ED
:102D28001BF020C01CF026EC1AF0210E226E780E43
:102D3800216E980EE82EFED7212EFCD7222EFAD728
:102D480000D01DC019F01EC01AF01FC01BF020C013
:102D58001CF008EC19F00D0E226E2D0E216ED80E07
:102D6800E82EFED7212EFCD7222EFAD720EE01F02E
:102D78001D50D9261E50DA22000EDF6E20EE01F01B
:102D88001F50D9262050DA22010EDF6E000E246E65
:102D9800000E236E1DC0D9FF1EC0DAFFDF2A1FC038
:102DA800D9FF20C0DAFFDF2A1DC00EF01EC00FF0C9
:102DB80039EC12F01FC00EF020C00FF039EC12F001
:102DC800A00E00D0E82EFDD7234A242A245009E17A
:102DD8004B0E235CD8A0F3EF16F0F5EF16F0CEEF0C
:102DE80016F0150E226EB30E216EA40EE82EFED735
:102DF800212EFCD7222EFAD71DC019F01EC01AF0BA
:102E08001FC01BF020C01CF008EC19F0050E226E44
:102E18000F0E216EF10EE82EFED7212EFCD7222EA2
:102E2800FAD700F01200533454345A6E5A50D8A4CA
:102E380020EF17F022EF17F02CEF17F0000E516E6D
:102E4800000E526E000E536E000E546E99EF17F07E
:102E580051C055F052C056F053C057F054C058F006
:102E6800200E3CEF17F0D890583257325632553270
:102E7800E82E37EF17F05550596E538EFF0E511646
:102E8800FF0E5216FF0E5316000E5416960E5A5E7B
:102E98005ABE53EF17F051EF17F069EF17F05A5079
:102EA800800A970FD8B05BEF17F05DEF17F05FEF70
:102EB80017F022EF17F0D890543253325232513271
:102EC8005A3E5FEF17F081EF17F01F0E5A646FEF4D
:102ED80017F071EF17F079EF17F022EF17F0D8908D
:102EE80051365236533654365A065A50D8A47FEFC4
:102EF80017F081EF17F073EF17F05950D8B487EF38
:102F080017F089EF17F091EF17F0541E531E521E59
:102F1800516C000E52225322542251C051F052C01B
:102F280052F053C053F054C054F01200000E011474
:102F3800096E000E02140A6E800E03140B6E7F0ECB
:102F480004140C6E09500A100B100C10D8A4AFEF23
:102F580017F0B1EF17F0B9EF17F0000E016E000E81
:102F6800026E000E036E000E046E000E0514096E4C
:102F7800000E06140A6E800E07140B6E7F0E0814DE
:102F88000C6E09500A100B100C10D8A4CEEF17F0D5
:102F9800D0EF17F0D8EF17F0000E056E000E066E92
:102FA800000E076E000E086E04AEDDEF17F0DFEFBF
:102FB80017F0E8EF17F0016C021ED8B0022A031EC2
:102FC800D8B0032A800E045608AEEDEF17F0EFEFE5
:102FD80017F0F8EF17F0056C061ED8B0062A071E82
:102FE800D8B0072A800E0856000E011A000E021AE1
:102FF800000E031A800E041A000E051A000E061A97
:10300800000E071A800E081A0550015C0650025877
:103018000750035808500458D8B015EF18F017EFA8
:1030280018F01AEF18F0D8901BEF18F0D88012009B
:1030380025C019F026C01AF027C01BF028C01CF0C4
:1030480008EC19F0050E2A6E0F0E296EF10EE82E07
:10305800FED7292EFCD72A2EFAD700F020EE01F051
:103068002550D9262650DA22000EDF6E20EE01F018
:103078002750D9262850DA22000EDF6E25C0D9FF46
:1030880026C0DAFF460EDF6E27C0D9FF28C0DAFF58
:10309800460EDF6E25C00EF026C00FF039EC12F098
:1030A80027C00EF028C00FF039EC12F0290E2A6E56
:1030B800960E296E7F0EE82EFED7292EFCD72A2ED3
:1030C800FAD700F025C019F026C01AF027C01BF067
:1030D80028C01CF008EC19F0310E2A6EB40E296EC7
:1030E800660EE82EFED7292EFCD72A2EFAD725C041
:1030F8001DF026C01EF027C01FF028C020F09DEC50
:1031080014F0090E2A6E1E0E296EE40EE82EFED764
:10311800292EFCD72A2EFAD700D0120025C019F084
:1031280026C01AF027C01BF028C01CF008EC19F0C4
:10313800050E2A6E0F0E296EF10EE82EFED7292EE7
:10314800FCD72A2EFAD700F020EE01F02550D92618
:103158002650DA22000EDF6E20EE01F02750D92625
:103168002850DA22000EDF6E25C0D9FF26C0DAFF0C
:10317800460EDF6E27C0D9FF28C0DAFF460EDF6E85
:1031880025C00EF026C00FF039EC12F027C00EF063
:1031980028C00FF039EC12F02D0E2A6EA50E296EFC
:1031A800720EE82EFED7292EFCD72A2EFAD700D089
:1031B80025C019F026C01AF027C01BF028C01CF043
:1031C80008EC19F0190E2A6E5A0E296EB20EE82E66
:1031D800FED7292EFCD72A2EFAD725C01DF026C0E7
:1031E8001EF027C01FF028C020F0FDEC13F0090ED8
:1031F8002A6E1E0E296EE40EE82EFED7292EFCD765
:103208002A2EFAD700D012003CEF19F019C0D9FFC6
:103218001AC0DAFFDF50D8B414EF19F016EF19F01E
:103228001BEF19F019C0D9FF1AC0DAFFDF061BC05F
:10323800D9FF1CC0DAFFDF50D8B425EF19F027EF0B
:1032480019F02CEF19F01BC0D9FF1CC0DAFFDF06FC
:1032580019C00EF01AC00FF039EC12F01BC00EF0B6
:103268001CC00FF039EC12F0350EE82EFED700F036
:1032780019C0D9FF1AC0DAFFDF50D8B446EF19F0E9
:1032880048EF19F054EF19F01BC0D9FF1CC0DAFF42
:10329800DF50D8A452EF19F054EF19F00AEF19F0E3
:1032A80012000DC001F00EC002F00FC003F010C0F4
:1032B80004F011C005F012C006F013C007F014C0E6
:1032C80008F09AEC17F0D8A06CEF19F06EEF19F02F
:1032D8008DEF19F015C001F016C002F017C003F009
:1032E80018C004F00DC005F00EC006F00FC007F0BE
:1032F80010C008F09AEC17F0D8A085EF19F087EF06
:1033080019F08DEF19F0000E0E6E010E0D6E91EF93
:1033180019F0000E0E6E000E0D6E1200000E0C6EEF
:10332800000E0B6E09500A10D8B49DEF19F09FEFEC
:1033380019F0C7EF19F0010E0D6EA7EF19F0D8902C
:1033480009360A360D2A0AAEACEF19F0AEEF19F0BD
:10335800A3EF19F0D8900B360C360950075C0A50C9
:103368000858D8A0BAEF19F0BCEF19F0C1EF19F05E
:103378000950075E0A50085A0B80D8900A32093261
:103388000D2EAEEF19F00BC007F00CC008F01200BC
:1033980078EC1AF020EE0CF00C50D9260D50DA22F9
:1033A80005C0DEFF06C0DDFFA0EC1AF020EE0EF02F
:1033B8000C50D9260D50DA2205C0DEFF06C0DDFF0D
:1033C800C8EC1AF020EE10F00C50D9260D50DA2275
:1033D80005C0DEFF06C0DDFFF0EC1AF020EE12F0AB
:1033E8000C50D9260D50DA2205C0DEFF06C0DDFFDD
:1033F8001200D3CF0BF00C6AD4500A6E096A095038
:103408000B120A500C12D8900534D96E0634DA6EB5
:103418000750D9260850DA220BC0DEFF0CC0DDFFAA
:10342800D8900534D96E0634DA6E0350D926045084
:10343800DA2201C0DEFF02C0DDFF000ED46E000EEE
:10344800D36E120020EE01F01950D9261A50DA2254
:10345800000EDF6E20EE01F01B50D9261C50DA2238
:10346800000EDF6E19C0D9FF1AC0DAFF320EDF6E08
:103478001BC0D9FF1CC0DAFF320EDF6E19C00EF078
:103488001AC00FF039EC12F01BC00EF01CC00FF080
:1034980039EC12F0120020EE01F01950D9261A501A
:1034A800DA22010EDF6E20EE01F01B50D9261C50E7
:1034B800DA22010EDF6E19C0D9FF1AC0DAFF0D0E2D
:1034C800DF6E1BC0D9FF1CC0DAFF0D0EDF6E19C0FE
:1034D8000EF01AC00FF039EC12F01BC00EF01CC031
:1034E8000FF039EC12F0120048EC1CF0520E37ECD9
:1034F8001CF0B40E37EC1CF04DEC1CF0530E37ECFE
:103508001CF0010E81EC1BF0076E07500A6E0B6A67
:10351800000E81EC1BF0076E0750096E086A0A500E
:1035280008100A6E0B5009100B6E43EC1CF00AC011
:1035380005F00BC006F0120048EC1CF0520E37ECF8
:103548001CF0B60E37EC1CF04DEC1CF0530E37ECAB
:103558001CF0010E81EC1BF0076E07500A6E0B6A17
:10356800000E81EC1BF0076E0750096E086A0A50BE
:1035780008100A6E0B5009100B6E43EC1CF00AC0C1
:1035880005F00BC006F0120048EC1CF0520E37ECA8
:103598001CF0B80E37EC1CF04DEC1CF0530E37EC59
:1035A8001CF0010E81EC1BF0076E07500A6E0B6AC7
:1035B800000E81EC1BF0076E0750096E086A0A506E
:1035C80008100A6E0B5009100B6E43EC1CF00AC071
:1035D80005F00BC006F0120048EC1CF0520E37EC58
:1035E8001CF0BA0E37EC1CF04DEC1CF0530E37EC07
:1035F8001CF0010E81EC1BF0076E07500A6E0B6A77
:10360800000E81EC1BF0076E0750096E086A0A501D
:1036180008100A6E0B5009100B6E43EC1CF00AC020
:1036280005F00BC006F01200A0EC1AF020EE06F030
:103638000C50D9260D50DA2205C0DEFF06C0DDFF8A
:10364800C8EC1AF020EE08F00C50D9260D50DA22FA
:1036580005C0DEFF06C0DDFFF0EC1AF020EE0AF030
:103668000C50D9260D50DA2205C0DEFF06C0DDFF5A
:103678001200A0EC1AF00CC0D9FF0DC0DAFF05C08B
:10368800DEFF06C0DDFFC8EC1AF020EE02F00C5099
:10369800D9260D50DA2205C0DEFF06C0DDFFF0ECAA
:1036A8001AF020EE04F00C50D9260D50DA2205C08D
:1036B800DEFF06C0DDFF12008594839E8598879CF7
:1036C8007D947B9E7D987F9CBD508F0B4009BD6E7D
:1036D800E00EBE16BF50F00B0109BF6E630EBC6E44
:1036E800BD8E0A0E0E01746F0B0E696F000EA36E6D
:1036F800000EA06EA48EA18E1200036ED1EC1BF0FA
:103708000E01DA87D1EC1BF0D5CE04F0D1EC1BF01A
:103718000350D8B492EF1BF096EF1BF0026A022A0E
:1037280097EF1BF0026A023A02460E01DA510218BC
:10373800DF0B0218DA6FDA8904501200BCEC1BF0B8
:10374800010E036E000E19EC1CF03F0E056E550EAF
:10375800E82EFED7052EFCD700F0030E036E000EF0
:1037680019EC1CF0D50E036E010E19EC1CF01200BA
:103778000E01D951F00B0809D96FD98B9F0ED66F5E
:10378800848A848CA79BA79D1D0E1D6F1E0E1C6F1F
:103798001C0E6F6F1B0E706F12000E01D8B5D7EF9D
:1037A8001BF0D9EF1BF0D1EF1BF0DACE01F01F0EA2
:1037B8000116D8A4E2EF1BF0E4EF1BF0D1EF1BF0E9
:1037C800120001500302F3CF05F0F4CF06F00150C8
:1037D8000402F350062602500302F350062605C0E1
:1037E80001F006C002F0120001EE00F05A0EEE6A77
:1037F800E806FDE100EEB8F0380EEE6AE806FDE1F5
:103808005F905F920001C7EF06F0120E0E01626F23
:10381800110E156F8382E997E895330EE56F000E58
:10382800E66FE789E88BE78F1200046E48EC1CF01E
:10383800520E37EC1CF00450800937EC1CF0035092
:1038480037EC1CF043EC1CF01200D6501F0B40095B
:10385800D66ED6880F0ED612D588000ED46E000EFE
:10386800D36ED58E1200026ED1EC1BF002C0D5FECD
:1038780012000E012B81298BF28CF28E1200D1ECF2
:103888001BF00E01DA851200D1EC1BF00E01DA8173
:0C3898001200D1EC1BF00E01DA831200CC
:020000040020DA
:10000000FF0FFF0FFF0FFF0FFF0FFF0FFF0FFF0F80
:020000040030CA
:0C000000AAFFFFFF9FFFFFFFFFFFFFFFB5
:00000001FF
