:040000003BEF00F0E2
:100008005A82D9CF03F0DACF04F00E0137A70FEFE9
:1000180000F011EF00F014EF00F0E3513AEC1CF09F
:100028000E0137A51AEF00F01CEF00F035EF00F0D5
:100038002DA521EF00F023EF00F035EF00F0AFEC35
:100048001CF0E806D8A42BEF00F02DEF00F033EFFA
:1000580000F0FAEC1BF00E01E46F35EF00F00E0132
:100068002D9504C0DAFF03C0D9FF5A92110063EF3F
:020078001CF07A
:100E000000204220523A256420473A256420423A85
:100E10002564200D0A00205720523A256420473AC5
:100E2000256420423A2564200D0A0020436F6C6F30
:100E3000723A2564200D0A0020423A2564200020E1
:100E4000473A2564200020523A2564200000000E15
:100E50000001E76F090EE66F000E306E400E316E36
:100E60001C0E326E460E336E4FC0D9FF50C0DAFFF3
:100E7000DECFD8F0DDCFD9F020EE06F04F50D926E6
:100E80005050DA22DECFDAF0DDCFDBF0D851DA5F76
:100E9000D951DB5BDAC005F0DBC006F0076A086AEF
:100EA000000E90EC15F005C017F006C018F007C052
:100EB00019F008C01AF04FC0D9FF50C0DAFFDECFDA
:100EC000DCF0DDCFDDF020EE0CF04F50D926505095
:100ED000DA22DECFDEF0DDCFDFF00001DC51DE5FB5
:100EE000DD51DF5BDEC005F0DFC006F0076A086A8F
:100EF000000E90EC15F005C013F006C014F007C00A
:100F000015F008C016F078EC11F013C02CF014C0E6
:100F10002DF015C02EF016C02FF063EC0FF02CC092
:100F200045F02DC046F02EC047F02FC048F0E0EC51
:100F300017F045C0E0F046C0E1F0000E306E400E04
:100F4000316E1C0E326E460E336E20EE02F04F50A4
:100F5000D9265050DA22DECFD8F0DDCFD9F020EEFE
:100F600008F04F50D9265050DA22DECFDAF0DDCF2C
:100F7000DBF00001D851DA5FD951DB5BDAC005F054
:100F8000DBC006F0076A086A000E90EC15F005C099
:100F900017F006C018F007C019F008C01AF020EECC
:100FA00002F04F50D9265050DA22DECFDCF0DDCFF0
:100FB000DDF020EE0EF04F50D9265050DA22DECF71
:100FC000DEF0DDCFDFF00001DC51DE5FDD51DF5B05
:100FD000DEC005F0DFC006F0076A086A000E90EC7C
:100FE00015F005C013F006C014F007C015F008C0D6
:100FF00016F078EC11F013C02CF014C02DF015C0D1
:101000002EF016C02FF063EC0FF02CC045F02DC071
:1010100046F02EC047F02FC048F0E0EC17F045C076
:10102000E2F046C0E3F0000E306E400E316E1C0E52
:10103000326E460E336E20EE04F04F50D9265050DB
:10104000DA22DECFD8F0DDCFD9F020EE0AF04F5013
:10105000D9265050DA22DECFDAF0DDCFDBF0000106
:10106000D851DA5FD951DB5BDAC005F0DBC006F09E
:10107000076A086A000E90EC15F005C017F006C06C
:1010800018F007C019F008C01AF020EE04F04F5015
:10109000D9265050DA22DECFDCF0DDCFDDF020EEB5
:1010A00010F04F50D9265050DA22DECFDEF0DDCFDF
:1010B000DFF00001DC51DE5FDD51DF5BDEC005F0FB
:1010C000DFC006F0076A086A000E90EC15F005C054
:1010D00013F006C014F007C015F008C016F078EC45
:1010E00011F013C02CF014C02DF015C02EF016C056
:1010F0002FF063EC0FF02CC045F02DC046F02EC051
:1011000047F02FC048F0E0EC17F045C0E4F046C0CF
:10111000E5F0E0C005F0E1C006F0076A086A000EDD
:1011200090EC15F005C013F006C014F007C015F0E0
:1011300008C016F0E2C005F0E3C006F0076A086ACE
:10114000000E90EC15F005C017F006C018F007C0AF
:1011500019F008C01AF078EC11F013C0E8F014C0D0
:10116000E9F015C0EAF016C0EBF0E0C005F0E1C010
:1011700006F0076A086A000E90EC15F005C013F03F
:1011800006C014F007C015F008C016F0E4C005F062
:10119000E5C006F0076A086A000E90EC15F005C07D
:1011A00017F006C018F007C019F008C01AF078EC64
:1011B00011F013C0ECF014C0EDF015C0EEF016C045
:1011C000EFF0E4C005F0E5C006F0076A086A000E1B
:1011D00090EC15F005C013F006C014F007C015F030
:1011E00008C016F0E2C005F0E3C006F0076A086A1E
:1011F000000E90EC15F005C017F006C018F007C0FF
:1012000019F008C01AF078EC11F013C0F0F014C017
:10121000F1F015C0F2F016C0F3F0E8C011F0E9C02B
:1012200012F0EAC013F0EBC014F0330E156E330E5B
:10123000166EA30E176E400E186E660E196E660EB1
:101240001A6E1E0E1B6E410E1C6EADEC19F01104D1
:101250001210D8A42EEF09F030EF09F07BEF09F05F
:10126000ECC011F0EDC012F0EEC013F0EFC014F0BE
:10127000CD0E156ECC0E166E0C0E176E400E186E3F
:101280009A0E196E990E1A6E590E1B6E400E1C6E38
:10129000ADEC19F011041210D8A451EF09F053EF7E
:1012A00009F07BEF09F0F0C011F0F1C012F0F2C0CC
:1012B00013F0F3C014F0660E156E660E166EE60E91
:1012C000176E3F0E186E660E196E660E1A6E460E7B
:1012D0001B6E400E1C6EADEC19F011041210D8A458
:1012E00074EF09F076EF09F07BEF09F0000E0001D2
:1012F000E76F000EE66FE8C011F0E9C012F0EAC037
:1013000013F0EBC014F0CD0E156ECC0E166E4C0E15
:10131000176E3E0E186E480E196EE10E1A6EFA0E1A
:101320001B6E3E0E1C6EADEC19F011041210D8A409
:101330009CEF09F09EEF09F0E9EF09F0ECC011F025
:10134000EDC012F0EEC013F0EFC014F09A0E156E5F
:10135000990E166E990E176E3E0E186E3D0E196E92
:101360000A0E1A6E170E1B6E3F0E1C6EADEC19F0B6
:1013700011041210D8A4BFEF09F0C1EF09F0E9EF92
:1013800009F0F0C011F0F1C012F0F2C013F0F3C098
:1013900014F0330E156E330E166E330E176E3F0EAD
:1013A000186E660E196E660E1A6E660E1B6E3F0E76
:1013B0001C6EADEC19F011041210D8A4E2EF09F084
:1013C000E4EF09F0E9EF09F0000E0001E76F010E0C
:1013D000E66FE8C011F0E9C012F0EAC013F0EBC00C
:1013E00014F0CD0E156ECC0E166ECC0E176E3D0E93
:1013F000186ECD0E196ECC0E1A6E0C0E1B6E3F0EB3
:101400001C6EADEC19F011041210D8A40AEF0AF00A
:101410000CEF0AF057EF0AF0ECC011F0EDC012F03B
:10142000EEC013F0EFC014F0CD0E156ECC0E166E9C
:10143000CC0E176E3D0E186E140E196EAE0E1A6E8F
:10144000C70E1B6E3E0E1C6EADEC19F0110412108F
:10145000D8A42DEF0AF02FEF0AF057EF0AF0F0C0F2
:1014600011F0F1C012F0F2C013F0F3C014F0000E4E
:10147000156E000E166E800E176E3F0E186E9A0EC9
:10148000196E990E1A6E990E1B6E3F0E1C6EADEC06
:1014900019F011041210D8A450EF0AF052EF0AF01C
:1014A00057EF0AF0000E0001E76F020EE66FE8C08A
:1014B00011F0E9C012F0EAC013F0EBC014F09A0E7C
:1014C000156E990E166E990E176E3F0E186E330E2E
:1014D000196E330E1A6EB30E1B6E3F0E1C6EADEC02
:1014E00019F011041210D8A478EF0AF07AEF0AF07C
:1014F000C5EF0AF0ECC011F0EDC012F0EEC013F031
:10150000EFC014F0000E156E000E166EC00E176EB2
:101510003F0E186EEC0E196E510E1A6ED80E1B6E21
:101520003F0E1C6EADEC19F011041210D8A49BEF05
:101530000AF09DEF0AF0C5EF0AF0F0C011F0F1C01B
:1015400012F0F2C013F0F3C014F0CD0E156ECC0EF5
:10155000166E4C0E176E3F0E186E660E196E660EE6
:101560001A6E660E1B6E3F0E1C6EADEC19F0110468
:101570001210D8A4BEEF0AF0C0EF0AF0C5EF0AF0CF
:10158000000E0001E76F030EE66FE8C011F0E9C03E
:1015900012F0EAC013F0EBC014F0CD0E156ECC0EB5
:1015A000166ECC0E176E3F0E186E710E196E3D0E34
:1015B0001A6EEA0E1B6E3F0E1C6EADEC19F0110494
:1015C0001210D8A4E6EF0AF0E8EF0AF033EF0BF0C0
:1015D000ECC011F0EDC012F0EEC013F0EFC014F04B
:1015E000660E156E660E166EA60E176E3F0E186E00
:1015F000000E196E000E1A6EC00E1B6E3F0E1C6E92
:10160000ADEC19F011041210D8A409EF0BF00BEF98
:101610000BF033EF0BF0F0C011F0F1C012F0F2C09C
:1016200013F0F3C014F0330E156E330E166E930ED6
:10163000176E3F0E186E660E196E660E1A6EA60EA7
:101640001B6E3F0E1C6EADEC19F011041210D8A4E5
:101650002CEF0BF02EEF0BF033EF0BF0000E000130
:10166000E76F040EE66FE8C011F0E9C012F0EAC0BF
:1016700013F0EBC014F0000E156E000E166E600E27
:10168000176E400E186E330E196E330E1A6E9B0EC7
:101690001B6E400E1C6EADEC19F011041210D8A494
:1016A00054EF0BF056EF0BF0A1EF0BF0ECC011F084
:1016B000EDC012F0EEC013F0EFC014F0CD0E156EB9
:1016C000CC0E166E0C0E176E400E186EB80E196EFC
:1016D0001E0E1A6E350E1B6E400E1C6EADEC19F010
:1016E00011041210D8A477EF0BF079EF0BF0A1EFF3
:1016F0000BF0F0C011F0F1C012F0F2C013F0F3C023
:1017000014F0A40E156E700E166EBD0E176E3F0E01
:10171000186E660E196E660E1A6EE60E1B6E3F0E82
:101720001C6EADEC19F011041210D8A49AEF0BF056
:101730009CEF0BF0A1EF0BF0000E0001E76F050E20
:10174000E66FE8C011F0E9C012F0EAC013F0EBC098
:1017500014F09A0E156E990E166E190E176E3F0E36
:10176000186EF60E196E280E1A6E5C0E1B6E3F0E6A
:101770001C6EADEC19F011041210D8A4C2EF0BF0DE
:10178000C4EF0BF00FEF0CF0ECC011F0EDC012F055
:10179000EEC013F0EFC014F09A0E156E990E166E8F
:1017A000190E176E3F0E186E9A0E196E990E1A6E5C
:1017B000590E1B6E3F0E1C6EADEC19F01104121089
:1017C000D8A4E5EF0BF0E7EF0BF00FEF0CF0F0C053
:1017D00011F0F1C012F0F2C013F0F3C014F0330EA8
:1017E000156E330E166E730E176E3F0E186E290EA1
:1017F000196E5C0E1A6E8F0E1B6E3F0E1C6EADECDA
:1018000019F011041210D8A408EF0CF00AEF0CF034
:101810000FEF0CF0000E0001E76F060EE66FE8C058
:1018200011F0E9C012F0EAC013F0EBC014F0660E3C
:10183000156E660E166E660E176E3F0E186ECD0E86
:10184000196ECC0E1A6E8C0E1B6E3F0E1C6EADEC1C
:1018500019F011041210D8A430EF0CF032EF0CF094
:101860007DEF0CF0ECC011F0EDC012F0EEC013F003
:10187000EFC014F0CD0E156ECC0E166E4C0E176E1A
:101880003F0E186E000E196E000E1A6E800E1B6E43
:101890003F0E1C6EADEC19F011041210D8A453EFDA
:1018A0000CF055EF0CF07DEF0CF0F0C011F0F1C032
:1018B00012F0F2C013F0F3C014F0330E156E330EB5
:1018C000166E730E176E3F0E186ECD0E196ECC0E7F
:1018D0001A6E8C0E1B6E3F0E1C6EADEC19F01104CF
:1018E0001210D8A476EF0CF078EF0CF07DEF0CF02E
:1018F000000E0001E76F070EE66F0001E15109E1FC
:10190000640EE05DD8A087EF0CF089EF0CF09FEF3C
:101910000CF0E35109E1640EE25DD8A092EF0CF007
:1019200094EF0CF09FEF0CF0E55107E1640EE45DDD
:10193000D8B09DEF0CF09FEF0CF0A3EF0CF0000E71
:10194000E76F080EE66FE6C04FF0E7C050F01200F8
:10195000000E066E630E056E4BEC1BF0C8EC1BF020
:1019600076EC1CF0C1EC1CF086840E01B4958686E2
:10197000B497000E0101A06F010EA16FA30EA26F1C
:101980000F0EA36F7D0EA46F0F0EA56F040EA66F32
:10199000000EA86F630EA76F000EA96F010EAA6F4D
:1019A000A00EAB6F0F0EAC6F7F0EAD6F0F0EAE6F54
:1019B000060EAF6F000EB16F630EB06F000EBF6FFB
:1019C000000EBE6F000EC16F000EC06F000EC36F21
:1019D000000EC26F7F928792799881987E9E869E34
:1019E000849E7C9E889680967F8279887E8E000E6B
:1019F0009F6F000E9E6FAEEF0DF07C8E8EB403EFE6
:101A00000DF005EF0DF0FEEF0CF08EB40AEF0DF0C7
:101A10000CEF0DF020EF0DF07C9EB20E106E010E5B
:101A2000116EE1EC1AF0190E0001F56F5A0EF46F09
:101A3000B10EE82EFED7F42FFCD7F52FFAD700D041
:101A40007C8E8EB426EF0DF028EF0DF021EF0DF017
:101A50008EB42DEF0DF02FEF0DF043EF0DF07C9EC7
:101A6000B20E106E010E116E06EC1BF0190E000185
:101A7000F56F5A0EF46FB10EE82EFED7F42FFCD797
:101A8000F52FFAD700D0000E0001DE6F010EDF6FD8
:101A9000160EE06F0E0EE16FB8C1E2F0B9C1E3F0CF
:101AA000BAC1E4F0BBC1E5F0BCC1E6F0BDC1E7F0EE
:101AB0001BEC1AF0000E066E010E076EE2EC1BF036
:101AC00096EC1CF0050E0001F56F0F0EF46FF10E91
:101AD000E82EFED7F42FFCD7F52FFAD7780E0001A9
:101AE000DE6F010EDF6F010EE06F0E0EE16FB2C10F
:101AF000E2F0B3C1E3F0B4C1E4F0B5C1E5F0B6C1C2
:101B0000E6F0B7C1E7F01BEC1AF0780E066E010E96
:101B1000076EE2EC1BF096EC1CF0050E0001F56F71
:101B20000F0EF46FF10EE82EFED7F42FFCD7F52F31
:101B3000FAD780868EB69FEF0DF0A1EF0DF09AEFE9
:101B40000DF08EB6A6EF0DF0A8EF0DF0AEEF0DF094
:101B50008096000E01019F6F010E9E6F01019E5144
:101B60009F11D8B4B6EF0DF0B8EF0DF0FDEF0CF00B
:101B7000B20E106E010E116EBCEC1AF0B20E4F6E6A
:101B8000010E506E27EC07F04FC09CF150C09DF144
:101B9000000E306E400E316E1C0E326E460E336EED
:101BA0000101B251B85D0001F46F0101B351B9599F
:101BB0000001F56FF4C005F0F5C006F0076A086A89
:101BC000000E90EC15F005C017F006C018F007C025
:101BD00019F008C01AF00101B251BE5D0001F66FA4
:101BE0000101B351BF590001F76FF6C005F0F7C00E
:101BF00006F0076A086A000E90EC15F005C013F0B5
:101C000006C014F007C015F008C016F078EC11F00B
:101C100013C02CF014C02DF015C02EF016C02FF0FC
:101C200063EC0FF02CC045F02DC046F02EC047F0FD
:101C30002FC048F0E0EC17F045C096F146C097F190
:101C4000000E306E400E316E1C0E326E460E336E3C
:101C50000101B451BA5D0001F46F0101B551BB59E6
:101C60000001F56FF4C005F0F5C006F0076A086AD8
:101C7000000E90EC15F005C017F006C018F007C074
:101C800019F008C01AF00101B451C05D0001F66FEF
:101C90000101B551C1590001F76FF6C005F0F7C059
:101CA00006F0076A086A000E90EC15F005C013F004
:101CB00006C014F007C015F008C016F078EC11F05B
:101CC00013C02CF014C02DF015C02EF016C02FF04C
:101CD00063EC0FF02CC045F02DC046F02EC047F04D
:101CE0002FC048F0E0EC17F045C098F146C099F1DC
:101CF000000E306E400E316E1C0E326E460E336E8C
:101D00000101B651BC5D0001F46F0101B751BD592D
:101D10000001F56FF4C005F0F5C006F0076A086A27
:101D2000000E90EC15F005C017F006C018F007C0C3
:101D300019F008C01AF00101B651C25D0001F66F3A
:101D40000101B751C3590001F76FF6C005F0F7C0A4
:101D500006F0076A086A000E90EC15F005C013F053
:101D600006C014F007C015F008C016F078EC11F0AA
:101D700013C02CF014C02DF015C02EF016C02FF09B
:101D800063EC0FF02CC045F02DC046F02EC047F09C
:101D90002FC048F0E0EC17F045C09AF146C09BF127
:101DA0001E0E0001DE6F010EDF6F460EE06F0E0E9D
:101DB000E16F96C1E2F097C1E3F01BEC1AF01E0E42
:101DC000066E010E076EE2EC1BF096EC1CF00D0E99
:101DD0000001F56F2D0EF46FD70EE82EFED7F42F0D
:101DE000FCD7F52FFAD700D03C0E0001DE6F010EB4
:101DF000DF6F3F0EE06F0E0EE16F98C1E2F099C108
:101E0000E3F01BEC1AF03C0E066E010E076EE2ECDE
:101E10001BF096EC1CF00D0E0001F56F2D0EF46F0B
:101E2000D70EE82EFED7F42FFCD7F52FFAD700D027
:101E30005A0E0001DE6F010EDF6F380EE06F0E0EDE
:101E4000E16F9AC1E2F09BC1E3F01BEC1AF05A0E6D
:101E5000066E010E076EE2EC1BF096EC1CF00D0E08
:101E60000001F56F2D0EF46FD70EE82EFED7F42F7C
:101E7000FCD7F52FFAD700D0780E0001DE6F010EE7
:101E8000DF6F2B0EE06F0E0EE16F9CC1E2F09DC183
:101E9000E3F01BEC1AF0780E066E010E076EE2EC12
:101EA0001BF096EC1CF0050E0001F56F0F0EF46FA1
:101EB000F10EE82EFED7F42FFCD7F52FFAD7B8EFA6
:101EC0000DF03BEF00F02F50800B386E2F502F2479
:101ED0003E6E2EAE6EEF0FF070EF0FF071EF0FF061
:101EE0003E803E50D8B477EF0FF079EF0FF08CEFD3
:101EF0000FF03E28D8A47FEF0FF081EF0FF089EFAD
:101F00000FF0000E2C6E000E2D6E000E2E6E000EC9
:101F10002F6E2E8E94EF0FF0000E2C6E000E2D6E95
:101F2000000E2E6E000E2F6E3350800B381A335079
:101F300033243D6E32AE9FEF0FF0A1EF0FF0A2EF12
:101F40000FF03D803D50D8B4A8EF0FF0AAEF0FF08E
:101F5000BDEF0FF03D28D8A4B0EF0FF0B2EF0FF0B7
:101F6000BAEF0FF0000E306E000E316E000E326EC2
:101F7000000E336E328EC5EF0FF0000E306E000E85
:101F8000316E000E326E000E336E3D50D8B4CBEF82
:101F90000FF0CDEF0FF0D5EF0FF03E50D8A4D3EFF8
:101FA0000FF0D5EF0FF0DFEF0FF0000E2C6E000EEC
:101FB0002D6E000E2E6E000E2F6E77EF11F0325048
:101FC0002C02F3CF43F0F4CF44F04350396E3A6A19
:101FD0003B6A3C6A44503F6E406A416A426A3150F3
:101FE0002D02F3CF43F0F4CF44F043503926000ED6
:101FF0003A223B223C2244503F26000E40224122FE
:10200000422230502E02F3CF43F0F4CF44F043503D
:102010003926000E3A223B223C2244503F26000E35
:102020004022412242223BC03CF03AC03BF039C042
:102030003AF0396A30502D02F3CF43F0F4CF44F038
:102040004350392644503A22000E3B22000E3C22D7
:1020500031502C02F3CF43F0F4CF44F043503926F3
:1020600044503A22000E3B22000E3C223BC03CF082
:102070003AC03BF039C03AF0396A30502C02F3CF05
:1020800043F0F4CF44F04350392644503A22000E36
:102090003B22000E3C2232502D02F3CF43F0F4CF0E
:1020A00044F043503F2644504022000E4122000E8F
:1020B000422231502E02F3CF43F0F4CF44F043508C
:1020C0003F2644504022000E4122000E4222325050
:1020D0002E02F3CF43F0F4CF44F04350346E44501B
:1020E000356E366A376A36C037F035C036F034C0E0
:1020F00035F0346A34503F26355040223650412264
:102100003750422239C034F03AC035F03BC036F087
:102110003CC037F0190E92EF10F0D89037323632BB
:1021200035323432E82E8DEF10F034503F263550E2
:10213000402236504122375042223BC03CF03AC048
:102140003BF039C03AF0396A3D503EC034F0356A50
:102150003426000E3522820E3424436EFF0E3520C5
:10216000446EC8EF10F0D8903F36403641364236C4
:102170003CAEBDEF10F0BFEF10F0C0EF10F03F80AD
:10218000D89039363A363B363C364306D8A044061A
:1021900041AECDEF10F0CFEF10F0B3EF10F0000E26
:1021A0003D6E3CAED6EF10F0D8EF10F0FCEF10F023
:1021B000FF0E3914346EFF0E3A14356EFF0E3B14C9
:1021C000366E7F0E3C14376E345035103610371093
:1021D000D8B4EDEF10F0EFEF10F0F3EF10F0010EC8
:1021E0003D6EFCEF10F03FA0F8EF10F0FAEF10F0AA
:1021F000FCEF10F0EFEF10F03D50D8B402EF11F00B
:1022000004EF11F028EF11F0010E3F26000E4022DE
:102210004122422242A00FEF11F011EF11F028EFFE
:1022200011F03FC034F040C035F041C036F042C03C
:1022300037F03734373236323532343234C03FF04B
:1022400035C040F036C041F037C042F0434A442A1E
:1022500044BE33EF11F0445008E14328D8A033EFD7
:1022600011F035EF11F03FEF11F0000E3F6E000E50
:10227000406E800E416E7F0E426E6DEF11F044BED7
:102280004CEF11F0445006E14304D8B04AEF11F08E
:102290004CEF11F058EF11F0000E3F6E000E406E43
:1022A000000E416E000E426E000E386E6DEF11F0A2
:1022B00043C03EF0FF0E3F16FF0E40167F0E411644
:1022C000000E42163EA067EF11F069EF11F06AEFC1
:1022D00011F0418ED8903E30426E385042123FC0CD
:1022E0002CF040C02DF041C02EF042C02FF0120063
:1022F0001650800B236E165016242A6E15AE83EFEF
:1023000011F085EF11F086EF11F02A802A50D8B431
:102310008CEF11F08EEF11F0A3EF11F02A28D8A462
:1023200094EF11F096EF11F09EEF11F0000E136E86
:10233000000E146E000E156E000E166E158E000E39
:10234000166EABEF11F0000E136E000E146E000E41
:10235000156E000E166E1A50800B231A1A501A248E
:102360002B6E19AEB6EF11F0B8EF11F0B9EF11F016
:102370002B802B50D8B4BFEF11F0C1EF11F0D6EF86
:1023800011F02B28D8A4C7EF11F0C9EF11F0D1EF4D
:1023900011F0000E176E000E186E000E196E000E72
:1023A0001A6E198E000E1A6EDEEF11F0000E176E07
:1023B000000E186E000E196E000E1A6E17501810CF
:1023C00019101A10D8A4E7EF11F0E9EF11F001EF9E
:1023D00012F0000E136E000E146E000E156E000E3D
:1023E000166E800E15127F0E16122350161213C091
:1023F00013F014C014F015C015F016C016F044EF19
:1024000013F02A50D8A407EF12F009EF12F013EFDF
:1024100012F0000E136E000E146E000E156E000EFC
:10242000166E44EF13F02B502AC01BF01C6A1B5E83
:10243000000E1C5A7F0E1B24246E000E1C20256EDD
:1024400013C01FF014C020F015C021F016C022F0F8
:10245000000E136E000E146E000E156E000E166E3A
:10246000000E266E000E276E000E286E000E296EDE
:10247000000E2B6E74EF12F02B50D8B442EF12F016
:1024800044EF12F05BEF12F0D8901F362036213661
:102490002236D890133614361536163629AE53EF39
:1024A00012F055EF12F056EF12F01380D890263646
:1024B00027362836293617501F5C185020581950D7
:1024C00021581A502258D8A068EF12F06AEF12F083
:1024D00073EF12F0298C17501F5E1850205A1950B4
:1024E000215A1A50225A2B2A190E2B647AEF12F015
:1024F0007CEF12F03CEF12F01F5020102110221040
:10250000D8B485EF12F087EF12F09FEF12F026801B
:102510009FEF12F0D890133614361536163629AEC2
:1025200094EF12F096EF12F097EF12F01380D8901C
:1025300026362736283629362406D8A0250615AE95
:10254000A4EF12F0A6EF12F08AEF12F0000E2B6E3D
:1025500029AEADEF12F0AFEF12F0D3EF12F0FF0E95
:1025600026141B6EFF0E27141C6EFF0E28141D6E02
:102570007F0E29141E6E1B501C101D101E10D8B487
:10258000C4EF12F0C6EF12F0CAEF12F0010E2B6E7C
:10259000D3EF12F013A0CFEF12F0D1EF12F0D3EF80
:1025A00012F0C6EF12F02B50D8B4D9EF12F0DBEFD7
:1025B00012F0FFEF12F0010E1326000E1422152266
:1025C000162216A0E6EF12F0E8EF12F0FFEF12F07D
:1025D00013C01BF014C01CF015C01DF016C01EF077
:1025E0001E341E321D321C321B321BC013F01CC0A5
:1025F00014F01DC015F01EC016F0244A252A25BE71
:102600000AEF13F0255008E12428D8A00AEF13F0B0
:102610000CEF13F017EF13F0000E256E2468000E78
:10262000136E000E146E000E156E000E166E25BE93
:1026300024EF13F0255006E12404D8B022EF13F064
:1026400024EF13F032EF13F0000E256E000E246E0F
:10265000000E136E000E146E000E156E000E166E38
:10266000000E236E24C02AF02AA039EF13F03BEFAE
:1026700013F03EEF13F0158E3FEF13F0159ED89038
:102680002A30166EF5EF11F0120022C03AF023C086
:102690003BF024C03CF025C03DF026C03EF027C0F2
:1026A0003FF028C040F029C041F041BE5AEF13F07E
:1026B0005DEF13F0010E5EEF13F0000E386E396A15
:1026C00038503910D8B467EF13F069EF13F079EF91
:1026D00013F0411E401E3F1E3E1E3D1E3C1E3B1E73
:1026E0003A6C000E3B223C223D223E223F224022F9
:1026F00041220001B5BF7FEF13F081EF13F082EFAD
:1027000013F0B693B5BF8FEF13F0B55106E1B405E2
:10271000D8B08DEF13F08FEF13F095EF13F0000E9C
:10272000356E010E346E99EF13F0B4C034F0B5C0BD
:1027300035F0B2C036F0B3C037F038503910D8A4F5
:10274000A4EF13F0A6EF13F0ADEF13F0B6A5ABEFC7
:1027500013F0ADEF13F0B0EF13F03606D8A0370644
:10276000000E436E1F0E426E000ED76F34EF14F052
:102770004206D8A04306B80E4224D96E000E43206C
:10278000DA6E3AC005F03BC006F03CC007F03DC031
:1027900008F03EC009F03FC00AF040C00BF041C055
:1027A0000CF00A0E0D6E000E0E6E000E0F6E000E77
:1027B000106E000E116E000E126E000E136E000EE3
:1027C000146E2EEC17F005C02AF006C02BF007C0DF
:1027D0002CF008C02DF009C02EF00AC02FF00BC05D
:1027E00030F00CC031F02AC017F02CC018F08DEC7E
:1027F0001BF01750300FDF6E3406D8A035063606B2
:10280000D8A037063AC005F03BC006F03CC007F040
:102810003DC008F03EC009F03FC00AF040C00BF0D8
:1028200041C00CF00A0E0D6E000E0E6E000E0F6E03
:10283000000E106E000E116E000E126E000E136E62
:10284000000E146E6AEC16F005C03AF006C03BF0BC
:1028500007C03CF008C03DF009C03EF00AC03FF0A0
:102860000BC040F00CC041F043BE3FEF14F04350AA
:1028700008E14204D8A03FEF14F041EF14F072EFEA
:1028800014F03A503B103C103D103E103F104010E9
:102890004110D8A44EEF14F050EF14F0B8EF13F03D
:1028A00035BE5DEF14F0355006E13404D8B05BEF6F
:1028B00014F05DEF14F0B8EF13F037BE68EF14F0CA
:1028C000375008E13604D8A068EF14F06AEF14F02E
:1028D00072EF14F00001B6B370EF14F072EF14F061
:1028E000B8EF13F038503910D8A479EF14F07BEF1B
:1028F00014F083EF14F00001B6A581EF14F083EF1C
:1029000014F0A1EF14F04206D8A043063850391055
:10291000D8A48DEF14F08FEF14F095EF14F0000EA3
:10292000336E2B0E326E99EF14F0000E336E2D0EB7
:10293000326EB80E4224D96E000E4320DA6E32C0D9
:10294000DFFF20C015F021C016F0B80E4224176E2C
:10295000000E4320186E36C019F037C01AF04AEC4A
:1029600019F015C020F016C021F0120046C0D9FFA2
:1029700047C0DAFFDECFF6FFDDCFF7FF0800F550E6
:10298000250AD8A4C6EF14F0C8EF14F074EF15F0C0
:1029900046C0D9FF47C0DAFFDE2A000EDD22000E56
:1029A0000001B36F000EB26FB2C0B6F0B3C0B7F0A3
:1029B000B469B56946C0D9FF47C0DAFFDECFF6FF7C
:1029C000DDCFF7FF0800F550640AD8B4EAEF14F041
:1029D000ECEF14F0FEEF14F046C0D9FF47C0DAFF69
:1029E000DECFF6FFDDCFF7FF0800F550690AD8A467
:1029F000FCEF14F0FEEF14F03EEF15F046C0D9FFE7
:102A000047C0DAFFDE2A000EDD2248C0D9FF49C0E8
:102A1000DAFFDFCF4AF0020EDE26DFCF4BF0000EEA
:102A2000DD224AC0D9FF4BC0DAFFDECF4CF0DDCF4C
:102A30004DF0000E4DBEFF0E4E6E4F6E506E516E3D
:102A4000526E536E44C020F045C021F04CC022F0BD
:102A50004DC023F04EC024F04FC025F050C026F0EA
:102A600051C027F052C028F053C029F045EC13F0B4
:102A700020C044F021C045F08FEF15F046C0D9FFCB
:102A800047C0DAFFDECFF6FFDDCFF7FF0800F550D5
:102A9000250AD8A44EEF15F050EF15F067EF15F0AA
:102AA00046C0D9FF47C0DAFFDE2A000EDD22000E45
:102AB000066E250E056E44C007F045C008F0E5EC33
:102AC00018F0000E456E010E446E8FEF15F046C0F3
:102AD000D9FF47C0DAFFDE2A000EDD22000E456E68
:102AE000000E446E8FEF15F046C0D9FF47C0DAFFE5
:102AF000DECFF6FFDDCFF7FF0800F550056E066A62
:102B000044C007F045C008F0E5EC18F046C0D9FF16
:102B100047C0DAFFDE2A000EDD2261EF15F0120059
:102B20000D6E0D50D8B497EF15F099EF15F0BBEF7F
:102B300015F008BEA0EF15F09EEF15F0BBEF15F0F5
:102B400005C009F006C00AF007C00BF008C00CF081
:102B5000091E0A1E0B1E0C1E092A000E0A220B2239
:102B60000C2209C00FF00AC010F00BC011F00CC00D
:102B700012F0C3EF15F005C00FF006C010F007C04B
:102B800011F008C012F00550061007100810D8A464
:102B9000CCEF15F0CEEF15F0D8EF15F0000E056E66
:102BA000000E066E000E076E000E086E69EF16F03E
:102BB000960E0E6EE2EF15F00E2AD89012321132F8
:102BC00010320F32000E0F14096E000E10140A6E30
:102BD000000E11140B6EFE0E12140C6E09500A102A
:102BE0000B100C10D8A4F7EF15F0F9EF15F0DCEF8F
:102BF00015F007EF16F00E2A010E0F26000E102218
:102C000011221222D8901232113210320F32000EDD
:102C10000F14096E000E10140A6E000E11140B6EC4
:102C2000FF0E12140C6E09500A100B100C10D8A4D1
:102C30001CEF16F01EEF16F0FBEF15F026EF16F066
:102C40000E06D8900F3610361136123611BE2BEF05
:102C500016F02DEF16F035EF16F0020E0E6033EF82
:102C600016F035EF16F020EF16F00EB03AEF16F032
:102C70003CEF16F03DEF16F0119ED8900E320EC0CC
:102C800009F00A6A0B6A0C6A09C00CF00B6A0A6A3E
:102C9000096A09500F120A5010120B5011120C50F1
:102CA00012120D50D8B457EF16F059EF16F061EF2D
:102CB00016F008BE60EF16F05EEF16F061EF16F04A
:102CC000128E0FC005F010C006F011C007F012C040
:102CD00008F01200000E166E14BE73EF16F071EFBE
:102CE00016F085EF16F0141E131E121E111E101E74
:102CF0000F1E0E1E0D6C000E0E220F22102211222E
:102D0000122213221422010E166E0CBE8CEF16F046
:102D10008AEF16F09EEF16F00C1E0B1E0A1E091EFF
:102D2000081E071E061E056C000E0622072208223A
:102D300009220A220B220C22010E161A20EE17F08D
:102D4000070EDE6AE806FDE20D500E100F1010109F
:102D50001110121013101410D8B4B1EF16F0B3EF15
:102D600016F005EF17F0010E156EC1EF16F0D890B2
:102D70000D360E360F36103611361236133614361F
:102D8000152A14AEC6EF16F0C8EF16F0B7EF16F01E
:102D9000D8901736183619361A361B361C361D369B
:102DA0001E360D50055C0E5006580F500758105037
:102DB00008581150095812500A5813500B58145003
:102DC0000C58D8A0E6EF16F0E8EF16F0F9EF16F081
:102DD0000D50055E0E50065A0F50075A1050085AF3
:102DE0001150095A12500A5A13500B5A14500C5AC7
:102DF0001780D890143213321232113210320F323F
:102E00000E320D32152EC8EF16F01650D8B40BEF57
:102E100017F00DEF17F01DEF17F01E1E1D1E1C1EE4
:102E20001B1E1A1E191E181E176C000E18221922BE
:102E30001A221B221C221D221E2217C005F018C0B8
:102E400006F019C007F01AC008F01BC009F01CC03A
:102E50000AF01DC00BF01EC00CF01200000E166E22
:102E60000CBE37EF17F035EF17F049EF17F00C1ED7
:102E70000B1E0A1E091E081E071E061E056C000EEC
:102E800006220722082209220A220B220C22010E06
:102E9000166E14BE50EF17F04EEF17F060EF17F0FC
:102EA000141E131E121E111E101E0F1E0E1E0D6C60
:102EB000000E0E220F22102211221222132214229F
:102EC0000D500E100F1010101110121013101410BE
:102ED000D8B46DEF17F06FEF17F0B7EF17F0010EE2
:102EE000156E7DEF17F0D8900D360E360F36103672
:102EF0001136123613361436152A14AE82EF17F037
:102F000084EF17F073EF17F00D50055C0E50065864
:102F10000F500758105008581150095812500A58AD
:102F200013500B5814500C58D8A099EF17F09BEF82
:102F300017F0ABEF17F00D50055E0E50065A0F500C
:102F4000075A1050085A1150095A12500A5A135071
:102F50000B5A14500C5AD8901432133212321132C8
:102F600010320F320E320D32152E84EF17F016503C
:102F7000D8B4BDEF17F0BFEF17F0CFEF17F00C1E6E
:102F80000B1E0A1E091E081E071E061E056C000EDB
:102F900006220722082209220A220B220C2205C03F
:102FA00005F006C006F007C007F008C008F009C029
:102FB00009F00AC00AF00BC00BF00CC00CF01200B4
:102FC000473448344E6E4E50D8A4E9EF17F0EBEF7B
:102FD00017F0F5EF17F0000E456E000E466E000E6E
:102FE000476E000E486E62EF18F045C049F046C0CB
:102FF0004AF047C04BF048C04CF0200E05EF18F0E7
:10300000D8904C324B324A324932E82E00EF18F059
:1030100049504D6E478EFF0E4516FF0E4616FF0EA9
:103020004716000E4816960E4E5E4EBE1CEF18F068
:103030001AEF18F032EF18F04E50800A970FD8B000
:1030400024EF18F026EF18F028EF18F0EBEF17F048
:10305000D89048324732463245324E3E28EF18F07B
:103060004AEF18F01F0E4E6438EF18F03AEF18F0E0
:1030700042EF18F0EBEF17F0D8904536463647365A
:1030800048364E064E50D8A448EF18F04AEF18F0D4
:103090003CEF18F04D50D8B450EF18F052EF18F044
:1030A0005AEF18F0481E471E461E456C000E462279
:1030B0004722482245C045F046C046F047C047F089
:1030C00048C048F01200000E05140D6E000E0614E4
:1030D0000E6E800E07140F6E7F0E0814106E0D50CA
:1030E0000E100F101010D8A478EF18F07AEF18F027
:1030F00082EF18F0000E056E000E066E000E076ED1
:10310000000E086E000E09140D6E000E0A140E6EED
:10311000800E0B140F6E7F0E0C14106E0D500E10DF
:103120000F101010D8A497EF18F099EF18F0A1EF36
:1031300018F0000E096E000E0A6E000E0B6E000EE7
:103140000C6E08AEA6EF18F0A8EF18F0B1EF18F06B
:10315000056C061ED8B0062A071ED8B0072A800EB6
:1031600008560CAEB6EF18F0B8EF18F0C1EF18F033
:10317000096C0A1ED8B00A2A0B1ED8B00B2A800E82
:103180000C56000E051A000E061A000E071A800EC5
:10319000081A000E091A000E0A1A000E0B1A800EE9
:1031A0000C1A0950055C0A5006580B5007580C5071
:1031B0000858D8B0DEEF18F0E0EF18F0E3EF18F0A1
:1031C000D890E4EF18F0D880120007500810D8B457
:1031D000ECEF18F0EEEF18F0F7EF18F007500810CA
:1031E000D8A4F5EF18F0F7EF18F0FCEF18F0055041
:1031F000D6EC1CF049EF19F020EE04F00750D92668
:103200000850DA22DE50DE10D8B409EF19F00BEFC7
:1032100019F026EF19F020EE04F00750D9260850D7
:10322000DA2210EE02F00750E1260850E222DE50CA
:10323000E65CE650800A0D6EDE50800A0D58D8B06C
:1032400024EF19F026EF19F049EF19F020EE02F003
:103250000750D9260850DA22DECF09F0DDCF0AF078
:1032600007C0D9FF08C0DAFFDECF0BF0DDCF0CF0CE
:1032700009500B24D96E0A500C20DA6E05C0DFFF0E
:1032800020EE02F00750D9260850DA22DE2A000E7E
:10329000DD2212000001B6A150EF19F052EF19F033
:1032A0005CEF19F017C00EF018C00FF015C010F049
:1032B00016C011F029EC1BF01ABE61EF19F063EF94
:1032C00019F069EF19F019C01EF01AC01FF06DEF68
:1032D00019F0000E1F6E000E1E6E000E1D6E000E09
:1032E0001C6E7FEF19F0000E066E200E056E15C0E5
:1032F00007F016C008F0E5EC18F01C4A1D2A1E5015
:103300001C5C1D50800A1B6E1F50800A1B58D8A0E1
:103310008CEF19F08EEF19F073EF19F00001B6B1D0
:1033200094EF19F096EF19F0A0EF19F017C00EF016
:1033300018C00FF015C010F016C011F029EC1BF0EA
:1033400017C005F018C006F0ADEC1BF01E500524A8
:10335000156E1F500620166E120011C005F012C027
:1033600006F013C007F014C008F015C009F016C02D
:103370000AF017C00BF018C00CF063EC18F0D8A0DE
:10338000C4EF19F0C6EF19F0E5EF19F019C005F018
:103390001AC006F01BC007F01CC008F011C009F0ED
:1033A00012C00AF013C00BF014C00CF063EC18F05C
:1033B000D8A0DDEF19F0DFEF19F0E5EF19F0000EFE
:1033C000126E010E116EE9EF19F0000E126E000E72
:1033D000116E1200DAC054F0DBC055F0000E00018F
:1033E000B16F000EB06F08EF1AF0D8C044F0D9C02A
:1033F00045F0540E466E000E476EDCC048F0DDC04E
:1034000049F0B6EC14F044500001B0274550B12308
:1034100054C0F6FF55C0F7FF0800F5500009D8A4C6
:1034200014EF1AF016EF1AF0F5EF19F0B0C0D8F05B
:10343000B1C0D9F01200E20E0001E86F000EE96F92
:10344000DEC0EAF0DFC0EBF0000EED6F000EEC6FB7
:10345000000EEF6F000EEE6FEA0ED86F000ED96F00
:10346000E0C0DAF0E1C0DBF0E80EDC6F000EDD6FEB
:10347000EAEC19F00001EC51DE25D96EED51DF21A7
:10348000DA6E000EDF6E1200CCEC1CF0520EBBECBC
:103490001CF0B60EBBEC1CF0D1EC1CF0530EBBECD8
:1034A0001CF0010E6CEC1BF00B6E0B500E6E0F6AD5
:1034B000000E6CEC1BF00B6E0B500D6E0C6A0E5078
:1034C0000C100E6E0F500D100F6EC7EC1CF00EC0DE
:1034D00009F00FC00AF01200CCEC1CF0520EBBEC4D
:1034E0001CF0B80EBBEC1CF0D1EC1CF0530EBBEC86
:1034F0001CF0010E6CEC1BF00B6E0B500E6E0F6A85
:10350000000E6CEC1BF00B6E0B500D6E0C6A0E5027
:103510000C100E6E0F500D100F6EC7EC1CF00EC08D
:1035200009F00FC00AF01200CCEC1CF0520EBBECFC
:103530001CF0BA0EBBEC1CF0D1EC1CF0530EBBEC33
:103540001CF0010E6CEC1BF00B6E0B500E6E0F6A34
:10355000000E6CEC1BF00B6E0B500D6E0C6A0E50D7
:103560000C100E6E0F500D100F6EC7EC1CF00EC03D
:1035700009F00FC00AF0120044EC1AF020EE0CF033
:103580001050D9261150DA2209C0DEFF0AC0DDFF33
:103590006CEC1AF020EE0EF01050D9261150DA2201
:1035A00009C0DEFF0AC0DDFF94EC1AF020EE10F037
:1035B0001050D9261150DA2209C0DEFF0AC0DDFF03
:1035C000120044EC1AF020EE06F01050D9261150EB
:1035D000DA2209C0DEFF0AC0DDFF6CEC1AF020EE33
:1035E00008F01050D9261150DA2209C0DEFF0AC0B7
:1035F000DDFF94EC1AF020EE0AF01050D92611509D
:10360000DA2209C0DEFF0AC0DDFF120044EC1AF026
:1036100010C0D9FF11C0DAFF09C0DEFF0AC0DDFF0C
:103620006CEC1AF020EE02F01050D9261150DA227C
:1036300009C0DEFF0AC0DDFF94EC1AF020EE04F0B2
:103640001050D9261150DA2209C0DEFF0AC0DDFF72
:103650001200000E146E000E136E3AEF1BF012C033
:1036600005F0066A10C007F011C008F0E5EC18F08C
:10367000134A142A13500E24D96E14500F20DA6EF8
:10368000DF50126E1250D8A448EF1BF04AEF1BF027
:103690002FEF1BF012008594839E879C85987D9464
:1036A0007B9E7F9C7D98BD508F0B4009BD6EE00EC8
:1036B000BE16BF50F00B0109BF6E630EBC6EBD8E0F
:1036C0000A0E0E01746F0B0E696F000EA36E000ED2
:1036D000A06EA48EA18E1200076E4FEC1CF00E019E
:1036E000DA874FEC1CF0D5CE08F04FEC1CF00750F9
:1036F000D8B47DEF1BF081EF1BF0066A062A82EF3B
:103700001BF0066A063A06460E01DA510618DF0B70
:103710000618DA6FDA890850120018BE9AEF1BF00B
:10372000185006E11704D8B098EF1BF09AEF1BF081
:10373000A8EF1BF017C019F018C01AF0191E1A1EB6
:10374000194A1A2A19C017F01AC018F0ACEF1BF06A
:1037500017C017F018C018F0120005C007F006C017
:1037600008F0B5EF1BF0054A062A05C0D9FF06C0D0
:10377000DAFFDF50D8A4BFEF1BF0C1EF1BF0B3EFAF
:103780001BF00750055C056E08500658066E1200C7
:1037900010EC1CF0010E076E000E86EC1CF03F0EC4
:1037A000096E550EE82EFED7092EFCD700F0030E49
:1037B000076E000E86EC1CF0D50E076E010E86EC2F
:1037C0001CF01200EDEF1BF006C0D9FF07C0DAFFB6
:1037D000DF5025EC1CF0064A072A06C0D9FF07C0B7
:1037E000DAFFDF50D8A4F7EF1BF0F9EF1BF0E4EF9E
:1037F0001BF012003B0E566400EF1CF002EF1CF0B1
:1038000004EF1CF0000E566E562A5604016E026A32
:10381000600E0124D96E000E0220DA6EDF50120015
:103820000E01D951F00B0809D96FD98B9F0ED66FB5
:10383000848A848CA79BA79D1D0E1D6F1E0E1C6F76
:103840001C0E6F6F1B0E706F1200056E3B0E5764DF
:103850002CEF1CF02EEF1CF030EF1CF0000E576E1A
:10386000600E5724D96EDA6A000EDA2205C0DFFF37
:10387000572A1200016E130E596441EF1CF043EFFA
:103880001CF045EF1CF0000E596E9C0E5924D96EA9
:10389000DA6A000EDA2201C0DFFF592A12000E0197
:1038A000D8B555EF1CF057EF1CF04FEF1CF0DACEF7
:1038B00005F01F0E0516D8A460EF1CF062EF1CF097
:1038C0004FEF1CF0120000EE60F0780EEE6AE80692
:1038D000FDE1596A586A576A566A5A905A92000E20
:1038E000F86E0E0EF76E0001A8EF0CF0120E0E012E
:1038F000626F110E156F8382E997E895330EE56FBD
:10390000000EE66FE789E88BE78F1200086ECCECBB
:103910001CF0520EBBEC1CF008508009BBEC1CF0F4
:103920000750BBEC1CF0C7EC1CF01200A3EC1CF021
:103930000009D8B49EEF1CF0A0EF1CF0A2EF1CF021
:103940000E012D85120056505718D8A4AAEF1CF06E
:10395000ADEF1CF0010EAEEF1CF0000E1200565041
:103960005718D8A4B6EF1CF0B9EF1CF0010EBAEF4F
:103970001CF0000E1200066E4FEC1CF006C0D5FEC7
:103980001200F28C0E012D872D95F28E12004FEC55
:103990001CF00E01DA8512004FEC1CF00E01DA81EA
:0E39A00012004FEC1CF00E01DA831200120030
:020000040020DA
:10000000FF0FFF0FFF0FFF0FFF0FFF0FFF0FFF0F80
:020000040030CA
:0C000000AAFFFFFF9FFFFFFFFFFFFFFFB5
:00000001FF
