:04000000BEEFE6F079
:020000040001F9
:10CCEA00E1ECE6F00E01DA831200E1ECE6F00E0167
:10CCFA00DA811200E1ECE6F00E01DA8512000E018B
:10CD0A002B81298BF28CF28E1200026EE1ECE6F096
:10CD1A0002C0D5FE1200D6501F0B4009D66ED68827
:10CD2A000F0ED612D588000ED46E000ED36ED58E95
:10CD3A001200046E7AECE6F0520E8AECE6F0045029
:10CD4A0080098AECE6F003508AECE6F07FECE6F024
:10CD5A001200120E0E01626F110E156F8382E9978F
:10CD6A00E895330EE56F000EE66FE789E88BE78FEB
:10CD7A00120001EE00F0B40EEE6AE806FDE100EEE4
:10CD8A00B6F01B0EEE6AE806FDE15F6A0001A7EF46
:10CD9A00F6F001500302F3CF05F0F4CF06F001508C
:10CDAA000402F350062602500302F350062605C079
:10CDBA0001F006C002F012000E01D8B5E7EFE6F066
:10CDCA00E9EFE6F0E1EFE6F0DACE01F01F0E011628
:10CDDA00D8A4F2EFE6F0F4EFE6F0E1EFE6F01200A5
:10CDEA000E01D951F00B0809D96FD98B9F0ED66F56
:10CDFA00848A848CA79BA79D1D0E1D6F1E0E1C6F17
:10CE0A001C0E6F6F1B0E706F1200F5ECE6F0010E30
:10CE1A00036E000E9EECE6F03F0E056E550EE82EF0
:10CE2A00FED7052EFCD700F0030E036E000E9EEC13
:10CE3A00E6F0D50E036E010E9EECE6F01200036ECC
:10CE4A00E1ECE6F00E01DA87E1ECE6F0D5CE04F08B
:10CE5A00E1ECE6F00350D8B435EFE7F039EFE7F04C
:10CE6A00026A022A3AEFE7F0026A023A02460E0121
:10CE7A00DA510218DF0B0218DA6FDA89045012004D
:10CE8A008594839E8598879C7D947B9E7D987F9CC4
:10CE9A00BD508F0B4009BD6EE00EBE16BF50F00BA1
:10CEAA000109BF6E630EBC6EBD8E0A0E0E01746F51
:10CEBA000B0E696F000EA36E000EA06EA48EA18EDB
:10CECA001200FEECE7F00CC0D9FF0DC0DAFF05C076
:10CEDA00DEFF06C0DDFFD6ECE7F020EE02F00C50D4
:10CEEA00D9260D50DA2205C0DEFF06C0DDFFAEEC02
:10CEFA00E7F020EE04F00C50D9260D50DA2205C0D6
:10CF0A00DEFF06C0DDFF1200FEECE7F020EE06F0C1
:10CF1A000C50D9260D50DA2205C0DEFF06C0DDFF0F
:10CF2A00D6ECE7F020EE08F00C50D9260D50DA22A4
:10CF3A0005C0DEFF06C0DDFFAEECE7F020EE0AF02A
:10CF4A000C50D9260D50DA2205C0DEFF06C0DDFFDF
:10CF5A0012007AECE6F0520E8AECE6F0BA0E8AEC8F
:10CF6A00E6F075ECE6F0530E8AECE6F0010E24ECDE
:10CF7A00E7F0076E07500A6E0B6A000E24ECE7F022
:10CF8A00076E0750096E086A0A5008100A6E0B509D
:10CF9A0009100B6E7FECE6F00AC005F00BC006F034
:10CFAA0012007AECE6F0520E8AECE6F0B80E8AEC41
:10CFBA00E6F075ECE6F0530E8AECE6F0010E24EC8E
:10CFCA00E7F0076E07500A6E0B6A000E24ECE7F0D2
:10CFDA00076E0750096E086A0A5008100A6E0B504D
:10CFEA0009100B6E7FECE6F00AC005F00BC006F0E4
:10CFFA0012007AECE6F0520E8AECE6F0B60E8AECF3
:10D00A00E6F075ECE6F0530E8AECE6F0010E24EC3D
:10D01A00E7F0076E07500A6E0B6A000E24ECE7F081
:10D02A00076E0750096E086A0A5008100A6E0B50FC
:10D03A0009100B6E7FECE6F00AC005F00BC006F093
:10D04A0012007AECE6F0520E8AECE6F0B40E8AECA4
:10D05A00E6F075ECE6F0530E8AECE6F0010E24ECED
:10D06A00E7F0076E07500A6E0B6A000E24ECE7F031
:10D07A00076E0750096E086A0A5008100A6E0B50AC
:10D08A0009100B6E7FECE6F00AC005F00BC006F043
:10D09A00120020EE01F01950D9261A50DA22010E98
:10D0AA00DF6E20EE01F01B50D9261C50DA22010E49
:10D0BA00DF6E19C0D9FF1AC0DAFF0D0EDF6E1BC072
:10D0CA00D9FF1CC0DAFF0D0EDF6E19C00EF01AC0B0
:10D0DA000FF07BECEFF01BC00EF01CC00FF07BECE6
:10D0EA00EFF0120020EE01F01950D9261A50DA2278
:10D0FA00000EDF6E20EE01F01B50D9261C50DA22FA
:10D10A00000EDF6E19C0D9FF1AC0DAFF320EDF6EC9
:10D11A001BC0D9FF1CC0DAFF320EDF6E19C00EF039
:10D12A001AC00FF07BECEFF01BC00EF01CC00FF022
:10D13A007BECEFF0120026ECE8F020EE0CF00C503D
:10D14A00D9260D50DA2205C0DEFF06C0DDFFFEEC4F
:10D15A00E7F020EE0EF00C50D9260D50DA2205C069
:10D16A00DEFF06C0DDFFD6ECE7F020EE10F00C5033
:10D17A00D9260D50DA2205C0DEFF06C0DDFFAEEC6F
:10D18A00E7F020EE12F00C50D9260D50DA2205C035
:10D19A00DEFF06C0DDFF1200000E0C6E000E0B6EE5
:10D1AA0009500A10D8B4DCEFE8F0DEEFE8F006EF39
:10D1BA00E9F0010E0D6EE6EFE8F0D89009360A366E
:10D1CA000D2A0AAEEBEFE8F0EDEFE8F0E2EFE8F057
:10D1DA00D8900B360C360950075C0A500858D8A06C
:10D1EA00F9EFE8F0FBEFE8F000EFE9F00950075E2D
:10D1FA000A50085A0B80D8900A3209320D2EEDEFE8
:10D20A00E8F00BC007F00CC008F012000DC001F0E6
:10D21A000EC002F00FC003F010C004F011C005F0F8
:10D22A0012C006F013C007F014C008F081ECEAF04F
:10D23A00D8A022EFE9F024EFE9F043EFE9F015C0B6
:10D24A0001F016C002F017C003F018C004F00DC0B8
:10D25A0005F00EC006F00FC007F010C008F081EC10
:10D26A00EAF0D8A03BEFE9F03DEFE9F043EFE9F04F
:10D27A00000E0E6E010E0D6E47EFE9F0000E0E6EF7
:10D28A00000E0D6E12007CEFE9F019C0D9FF1AC02A
:10D29A00DAFFDF50D8B454EFE9F056EFE9F05BEF6C
:10D2AA00E9F019C0D9FF1AC0DAFFDF061BC0D9FF9F
:10D2BA001CC0DAFFDF50D8B465EFE9F067EFE9F098
:10D2CA006CEFE9F01BC0D9FF1CC0DAFFDF0619C0FA
:10D2DA000EF01AC00FF07BECEFF01BC00EF01CC072
:10D2EA000FF07BECEFF0350EE82EFED700F019C0F8
:10D2FA00D9FF1AC0DAFFDF50D8B486EFE9F088EF19
:10D30A00E9F094EFE9F01BC0D9FF1CC0DAFFDF5047
:10D31A00D8A492EFE9F094EFE9F04AEFE9F01200AD
:10D32A0025C019F026C01AF027C01BF028C01CF02F
:10D33A0048ECE9F0050E2A6E0F0E296EF10EE82E62
:10D34A00FED7292EFCD72A2EFAD700F020EE01F0BC
:10D35A002550D9262650DA22000EDF6E20EE01F083
:10D36A002750D9262850DA22000EDF6E25C0D9FFB1
:10D37A0026C0DAFF3C0EDF6E27C0D9FF28C0DAFFCD
:10D38A003C0EDF6E25C00EF026C00FF07BECEFF0EE
:10D39A0027C00EF028C00FF07BECEFF0290E2A6EA2
:10D3AA00960E296E7F0EE82EFED7292EFCD72A2E3E
:10D3BA00FAD700F025C019F026C01AF027C01BF0D2
:10D3CA0028C01CF048ECE9F0190E2A6E5A0E296E94
:10D3DA00B20EE82EFED7292EFCD72A2EFAD725C060
:10D3EA001DF026C01EF027C01FF028C020F001EC57
:10D3FA00EEF0090E2A6E1E0E296EE40EE82EFED7F6
:10D40A00292EFCD72A2EFAD700D0120025C019F0EF
:10D41A0026C01AF027C01BF028C01CF048ECE9F01F
:10D42A00050E2A6E0F0E296EF10EE82EFED7292E52
:10D43A00FCD72A2EFAD700F020EE01F02550D92683
:10D44A002650DA22000EDF6E20EE01F02750D92690
:10D45A002850DA22000EDF6E25C0D9FF26C0DAFF77
:10D46A003C0EDF6E27C0D9FF28C0DAFF3C0EDF6E04
:10D47A0025C00EF026C00FF07BECEFF027C00EF0AF
:10D48A0028C00FF07BECEFF0290E2A6E960E296E5B
:10D49A007F0EE82EFED7292EFCD72A2EFAD700F0C7
:10D4AA0025C019F026C01AF027C01BF028C01CF0AE
:10D4BA0048ECE9F0190E2A6E5A0E296EB20EE82EC1
:10D4CA00FED7292EFCD72A2EFAD725C01DF026C052
:10D4DA001EF027C01FF028C020F024ECECF0090E43
:10D4EA002A6E1E0E296EE40EE82EFED7292EFCD7D0
:10D4FA002A2EFAD700D01200000E0114096E000E6F
:10D50A0002140A6E800E03140B6E7F0E04140C6E46
:10D51A0009500A100B100C10D8A496EFEAF098EFF5
:10D52A00EAF0A0EFEAF0000E016E000E026E000EA5
:10D53A00036E000E046E000E0514096E000E06142A
:10D54A000A6E800E07140B6E7F0E08140C6E0950BB
:10D55A000A100B100C10D8A4B5EFEAF0B7EFEAF0F6
:10D56A00BFEFEAF0000E056E000E066E000E076EA3
:10D57A00000E086E04AEC4EFEAF0C6EFEAF0CFEF91
:10D58A00EAF0016C021ED8B0022A031ED8B0032AA0
:10D59A00800E045608AED4EFEAF0D6EFEAF0DFEFD9
:10D5AA00EAF0056C061ED8B0062A071ED8B0072A6C
:10D5BA00800E0856000E011A000E021A000E031AF7
:10D5CA00800E041A000E051A000E061A000E071A1B
:10D5DA00800E081A0550015C06500258075003587D
:10D5EA0008500458D8B0FCEFEAF0FEEFEAF001EF79
:10D5FA00EBF0D89002EFEBF0D88012005334543499
:10D60A005A6E5A50D8A40CEFEBF00EEFEBF018EF6D
:10D61A00EBF0000E516E000E526E000E536E000EAD
:10D62A00546E85EFEBF051C055F052C056F053C01E
:10D63A0057F054C058F0200E28EFEBF0D89058322B
:10D64A00573256325532E82E23EFEBF05550596EC9
:10D65A00538EFF0E5116FF0E5216FF0E5316000E72
:10D66A005416960E5A5E5ABE3FEFEBF03DEFEBF0C2
:10D67A0055EFEBF05A50800A970FD8B047EFEBF00E
:10D68A0049EFEBF04BEFEBF00EEFEBF0D8905432A2
:10D69A005332523251325A3E4BEFEBF06DEFEBF010
:10D6AA001F0E5A645BEFEBF05DEFEBF065EFEBF00A
:10D6BA000EEFEBF0D89051365236533654365A069E
:10D6CA005A50D8A46BEFEBF06DEFEBF05FEFEBF095
:10D6DA005950D8B473EFEBF075EFEBF07DEFEBF048
:10D6EA00541E531E521E516C000E522253225422B3
:10D6FA0051C051F052C052F053C053F054C054F0CC
:10D70A0012001DC019F01EC01AF01FC01BF020C065
:10D71A001CF048ECE9F0050E226E0F0E216EF10E98
:10D72A00E82EFED7212EFCD7222EFAD700F01DC0F4
:10D73A0019F01EC01AF01FC01BF020C01CF077ECB5
:10D74A00E8F0210E226E780E216E980EE82EFED792
:10D75A00212EFCD7222EFAD700D01DC019F01EC0E8
:10D76A001AF01FC01BF020C01CF048ECE9F00D0EA7
:10D77A00226E2D0E216ED80EE82EFED7212EFCD752
:10D78A00222EFAD720EE01F01D50D9261E50DA2299
:10D79A00000EDF6E20EE01F01F50D9262050DA224B
:10D7AA00010EDF6E000E246E000E236E1DC0D9FF1F
:10D7BA001EC0DAFFDF2A1FC0D9FF20C0DAFFDF2A26
:10D7CA001DC00EF01EC00FF07BECEFF01FC00EF074
:10D7DA0020C00FF07BECEFF0A00E00D0E82EFDD7B2
:10D7EA00234A242A245009E14B0E235CD8A000EFD7
:10D7FA00ECF002EFECF0DBEFEBF0150E226EB30E5D
:10D80A00216EA40EE82EFED7212EFCD7222EFAD79F
:10D81A001DC019F01EC01AF01FC01BF020C01CF05A
:10D82A0048ECE9F0050E226E0F0E216EF10EE82E7D
:10D83A00FED7212EFCD7222EFAD700F012001DC0E7
:10D84A0019F01EC01AF01FC01BF020C01CF048ECD3
:10D85A00E9F0050E226E0F0E216EF10EE82EFED7AC
:10D86A00212EFCD7222EFAD700F01DC019F01EC0B7
:10D87A001AF01FC01BF020C01CF077ECE8F0210E54
:10D88A00226E780E216E980EE82EFED7212EFCD736
:10D89A00222EFAD700D01DC019F01EC01AF01FC0E0
:10D8AA001BF020C01CF048ECE9F00D0E226E2D0E84
:10D8BA00216ED80EE82EFED7212EFCD7222EFAD7BB
:10D8CA0020EE01F01D50D9261E50DA22010EDF6E1D
:10D8DA0020EE01F01F50D9262050DA22000EDF6E0A
:10D8EA00000E246E000E236E1DC0D9FF1EC0DAFF83
:10D8FA00DF2A1FC0D9FF20C0DAFFDF2A1DC00EF0C1
:10D90A001EC00FF07BECEFF01FC00EF020C00FF02E
:10D91A007BECEFF0A00E00D0E82EFDD7234A242A94
:10D92A00245009E14B0E235CD8A09EEFECF0A0EF47
:10D93A00ECF079EFECF0100E226ED40E216EE60EAA
:10D94A00E82EFED7212EFCD7222EFAD700D01DC0F2
:10D95A0019F01EC01AF01FC01BF020C01CF048ECC2
:10D96A00E9F0050E226E0F0E216EF10EE82EFED79B
:10D97A00212EFCD7222EFAD700F012001DC019F072
:10D98A001EC01AF01FC01BF020C01CF048ECE9F0C2
:10D99A00050E226E0F0E216EF10EE82EFED7212EF5
:10D9AA00FCD7222EFAD700F01DC019F01EC01AF0BB
:10D9BA001FC01BF020C01CF077ECE8F0210E226E8D
:10D9CA00780E216E980EE82EFED7212EFCD7222E35
:10D9DA00FAD700D01DC019F01EC01AF01FC01BF0E4
:10D9EA0020C01CF048ECE9F00D0E226E2D0E216EBF
:10D9FA00D80EE82EFED7212EFCD7222EFAD720EEFB
:10DA0A0001F01D50D9261E50DA22010EDF6E20EEDB
:10DA1A0001F01F50D9262050DA22000EDF6E000EC8
:10DA2A00246E000E236E1DC0D9FF1EC0DAFFDF2A46
:10DA3A001FC0D9FF20C0DAFFDF2A1DC00EF01EC0AA
:10DA4A000FF07BECEFF01FC00EF020C00FF07BEC64
:10DA5A00EFF0A00E00D0E82EFDD7234A242A245046
:10DA6A0009E14B0E235CD8A03DEFEDF03FEFEDF05E
:10DA7A0018EFEDF0160E226EEB0E216E530EE82E05
:10DA8A00FED7212EFCD7222EFAD700F01DC019F09E
:10DA9A001EC01AF01FC01BF020C01CF048ECE9F0B1
:10DAAA00050E226E0F0E216EF10EE82EFED7212EE4
:10DABA00FCD7222EFAD700F012001DC019F01EC0A2
:10DACA001AF01FC01BF020C01CF048ECE9F0050E4C
:10DADA00226E0F0E216EF10EE82EFED7212EFCD7F4
:10DAEA00222EFAD700F01DC019F01EC01AF01FC06E
:10DAFA001BF020C01CF077ECE8F0210E226E780EA5
:10DB0A00216E980EE82EFED7212EFCD7222EFAD7A8
:10DB1A0000D01DC019F01EC01AF01FC01BF020C093
:10DB2A001CF048ECE9F00D0E226E2D0E216ED80E77
:10DB3A00E82EFED7212EFCD7222EFAD720EE01F0AE
:10DB4A001D50D9261E50DA22010EDF6E20EE01F09A
:10DB5A001F50D9262050DA22000EDF6E000E246EE6
:10DB6A00000E236E1DC0D9FF1EC0DAFFDF2A1FC0B8
:10DB7A00D9FF20C0DAFFDF2A1DC00EF01EC00FF049
:10DB8A007BECEFF01FC00EF020C00FF07BECEFF043
:10DB9A00A00E00D0E82EFDD7234A242A245009E1FA
:10DBAA004B0E235CD8A0DCEFEDF0DEEFEDF0B7EF23
:10DBBA00EDF0210E226E780E216E980EE82EFED719
:10DBCA00212EFCD7222EFAD700D01DC019F01EC074
:10DBDA001AF01FC01BF020C01CF048ECE9F0050E3B
:10DBEA00226E0F0E216EF10EE82EFED7212EFCD7E3
:10DBFA00222EFAD700F012001DC019F01EC01AF02A
:10DC0A001FC01BF020C01CF048ECE9F0050E226E84
:10DC1A000F0E216EF10EE82EFED7212EFCD7222EF2
:10DC2A00FAD700F01DC019F01EC01AF01FC01BF071
:10DC3A0020C01CF077ECE8F0210E226E780E216EDF
:10DC4A00980EE82EFED7212EFCD7222EFAD700D026
:10DC5A001DC019F01EC01AF01FC01BF020C01CF016
:10DC6A0048ECE9F00D0E226E2D0E216ED80EE82E2C
:10DC7A00FED7212EFCD7222EFAD720EE01F01D5016
:10DC8A00D9261E50DA22000EDF6E20EE01F01F5058
:10DC9A00D9262050DA22010EDF6E000E246E000E05
:10DCAA00236E1DC0D9FF1EC0DAFFDF2A1FC0D9FFAD
:10DCBA0020C0DAFFDF2A1DC00EF01EC00FF07BEC79
:10DCCA00EFF01FC00EF020C00FF07BECEFF0A00EBB
:10DCDA0000D0E82EFDD7234A242A245009E14B0E0E
:10DCEA00235CD8A07BEFEEF07DEFEEF056EFEEF07E
:10DCFA00100E226E6C0E216E000EE82EFED7212E1B
:10DD0A00FCD7222EFAD700D000D01DC019F01EC0B1
:10DD1A001AF01FC01BF020C01CF048ECE9F0050EF9
:10DD2A00226E0F0E216EF10EE82EFED7212EFCD7A1
:10DD3A00222EFAD700F01200096E0950D8B4A8EFC3
:10DD4A00EEF0AAEFEEF0CCEFEEF004BEB1EFEEF09B
:10DD5A00AFEFEEF0CCEFEEF001C005F002C006F036
:10DD6A0003C007F004C008F0051E061E071E081EA1
:10DD7A00052A000E06220722082205C00BF006C05B
:10DD8A000CF007C00DF008C00EF0D4EFEEF001C0A1
:10DD9A000BF002C00CF003C00DF004C00EF00150ED
:10DDAA00021003100410D8A4DDEFEEF0DFEFEEF05E
:10DDBA00E9EFEEF0000E016E000E026E000E036E29
:10DDCA00000E046E7AEFEFF0960E0A6EF3EFEEF0A5
:10DDDA000A2AD8900E320D320C320B32000E0B1476
:10DDEA00056E000E0C14066E000E0D14076EFE0E64
:10DDFA000E14086E0550061007100810D8A408EF74
:10DE0A00EFF00AEFEFF0EDEFEEF018EFEFF00A2A7D
:10DE1A00010E0B26000E0C220D220E22D8900E3275
:10DE2A000D320C320B32000E0B14056E000E0C1460
:10DE3A00066E000E0D14076EFF0E0E14086E0550C6
:10DE4A00061007100810D8A42DEFEFF02FEFEFF00F
:10DE5A000CEFEFF037EFEFF00A06D8900B360C36DE
:10DE6A000D360E360DBE3CEFEFF03EEFEFF046EF0B
:10DE7A00EFF0020E0A6044EFEFF046EFEFF031EFF9
:10DE8A00EFF00AB04BEFEFF04DEFEFF04EEFEFF09F
:10DE9A000D9ED8900A320AC005F0066A076A086A17
:10DEAA0005C008F0076A066A056A05500B12065093
:10DEBA000C1207500D1208500E120950D8B468EF10
:10DECA00EFF06AEFEFF072EFEFF004BE71EFEFF0F0
:10DEDA006FEFEFF072EFEFF00E8E0BC001F00CC097
:10DEEA0002F00DC003F00EC004F0120020EE01F0A3
:10DEFA000E50D9260F50DA22DF50D8B487EFEFF050
:10DF0A0089EFEFF0BAEFEFF00EC0D9FF0FC0DAFFDA
:10DF1A00DF50106E1050016E026A20EE07F00E50AC
:10DF2A00D9260F50DA22DECF03F0DDCF04F0CEEC93
:10DF3A00E6F001C007F002C008F0000E0A6E640E97
:10DF4A00096ED1ECE8F020EE07F00E50D9260F50FA
:10DF5A00DA22DECF11F0DDCF12F00750115C176E16
:10DF6A0008501258186EDDEFEFF00EC0D9FF0FC03F
:10DF7A00DAFFDF50106E1050016E026A20EE07F0D1
:10DF8A000E50D9260F50DA22DECF03F0DDCF04F08F
:10DF9A00CEECE6F001C007F002C008F0000E0A6EEF
:10DFAA00640E096ED1ECE8F007C017F008C018F04B
:10DFBA0020EE02F00E50D9260F50DA22DECF10F0F2
:10DFCA00DDCF11F010C0D9FF11C0DAFF17C0DFFF93
:10DFDA0020EE01F00E50D9260F50DA22DF50D8B4C5
:10DFEA00F9EFEFF0FBEFEFF030EFF0F020EE04F096
:10DFFA000E50D9260F50DA22DECF10F0DDCF11F005
:10E00A0010C0D9FF11C0DAFF10EE04F00E50E1265D
:10E01A000F50E222E6CF12F0E5CF13F012C0E1FF73
:10E02A0013C0E2FFE750146E10EE06F00E50E12620
:10E03A000F50E222E750156E010E166E152A28EFD0
:10E04A00F0F0D8901636152E26EFF0F01650141070
:10E05A00DF6E64EFF0F020EE04F00E50D9260F5078
:10E06A00DA22DECF10F0DDCF11F010C0D9FF11C0D7
:10E07A00DAFF10EE04F00E50E1260F50E222E6CF4E
:10E08A0012F0E5CF13F012C0E1FF13C0E2FFE75030
:10E09A00146E10EE06F00E50E1260F50E222E75001
:10E0AA00156E010E166E152A5DEFF0F0D890163631
:10E0BA00152E5BEFF0F01650FF0A1414DF6E1200F3
:10E0CA001250800B1F6E12501224266E11AE70EF82
:10E0DA00F0F072EFF0F073EFF0F026802650D8B42B
:10E0EA0079EFF0F07BEFF0F090EFF0F02628D8A46B
:10E0FA0081EFF0F083EFF0F08BEFF0F0000E0F6E8F
:10E10A00000E106E000E116E000E126E118E000EB1
:10E11A00126E98EFF0F0000E0F6E000E106E000EE9
:10E12A00116E000E126E1650800B1F1A165016240E
:10E13A00276E15AEA3EFF0F0A5EFF0F0A6EFF0F022
:10E14A0027802750D8B4ACEFF0F0AEEFF0F0C3EF71
:10E15A00F0F02728D8A4B4EFF0F0B6EFF0F0BEEF55
:10E16A00F0F0000E136E000E146E000E156E000E07
:10E17A00166E158E000E166ECBEFF0F0000E136EB3
:10E18A00000E146E000E156E000E166E135014104B
:10E19A0015101610D8A4D4EFF0F0D6EFF0F0EEEF89
:10E1AA00F0F0000E0F6E000E106E000E116E000ED3
:10E1BA00126E800E11127F0E12121F5012120FC011
:10E1CA000FF010C010F011C011F012C012F031EFB0
:10E1DA00F2F02650D8A4F4EFF0F0F6EFF0F000EFEA
:10E1EA00F1F0000E0F6E000E106E000E116E000E92
:10E1FA00126E31EFF2F0275026C017F0186A175E38
:10E20A00000E185A7F0E1724206E000E1820216E59
:10E21A000FC01BF010C01CF011C01DF012C01EF080
:10E22A00000E0F6E000E106E000E116E000E126EB2
:10E23A00000E226E000E236E000E246E000E256E56
:10E24A00000E276E61EFF1F02750D8B42FEFF1F0EE
:10E25A0031EFF1F048EFF1F0D8901B361C361D363D
:10E26A001E36D8900F3610361136123625AE40EFCC
:10E27A00F1F042EFF1F043EFF1F00F80D89022363F
:10E28A0023362436253613501B5C14501C5815505F
:10E29A001D5816501E58D8A055EFF1F057EFF1F05F
:10E2AA0060EFF1F0258C13501B5E14501C5A155068
:10E2BA001D5A16501E5A272A190E276467EFF1F0C5
:10E2CA0069EFF1F029EFF1F01B501C101D101E1020
:10E2DA00D8B472EFF1F074EFF1F08CEFF1F0228024
:10E2EA008CEFF1F0D8900F3610361136123625AE73
:10E2FA0081EFF1F083EFF1F084EFF1F00F80D89025
:10E30A0022362336243625362006D8A0210611AE19
:10E31A0091EFF1F093EFF1F077EFF1F0000E276E45
:10E32A0025AE9AEFF1F09CEFF1F0C0EFF1F0FF0E9D
:10E33A002214176EFF0E2314186EFF0E2414196E82
:10E34A007F0E25141A6E1750181019101A10D8B407
:10E35A00B1EFF1F0B3EFF1F0B7EFF1F0010E276E84
:10E36A00C0EFF1F00FA0BCEFF1F0BEEFF1F0C0EF9B
:10E37A00F1F0B3EFF1F02750D8B4C6EFF1F0C8EFDF
:10E38A00F1F0ECEFF1F0010E0F26000E102211222F
:10E39A00122212A0D3EFF1F0D5EFF1F0ECEFF1F089
:10E3AA000FC017F010C018F011C019F012C01AF0FF
:10E3BA001A341A3219321832173217C00FF018C02D
:10E3CA0010F019C011F01AC012F0204A212A21BEF9
:10E3DA00F7EFF1F0215008E12028D8A0F7EFF1F08B
:10E3EA00F9EFF1F004EFF2F0000E216E2068000E52
:10E3FA000F6E000E106E000E116E000E126E21BE10
:10E40A0011EFF2F0215006E12004D8B00FEFF2F03C
:10E41A0011EFF2F01FEFF2F0000E216E000E206EE7
:10E42A00000E0F6E000E106E000E116E000E126EB0
:10E43A00000E1F6E20C026F026A026EFF2F028EF6D
:10E44A00F2F02BEFF2F0118E2CEFF2F0119ED89031
:10E45A002630126EE2EFF0F012002B50800B346E71
:10E46A002B502B243A6E2AAE3DEFF2F03FEFF2F03A
:10E47A0040EFF2F03A803A50D8B446EFF2F048EF63
:10E48A00F2F05BEFF2F03A28D8A44EEFF2F050EF38
:10E49A00F2F058EFF2F0000E286E000E296E000E10
:10E4AA002A6E000E2B6E2A8E63EFF2F0000E286E93
:10E4BA00000E296E000E2A6E000E2B6E2F50800B56
:10E4CA00341A2F502F24396E2EAE6EEFF2F070EF01
:10E4DA00F2F071EFF2F039803950D8B477EFF2F0F8
:10E4EA0079EFF2F08CEFF2F03928D8A47FEFF2F04E
:10E4FA0081EFF2F089EFF2F0000E2C6E000E2D6E15
:10E50A00000E2E6E000E2F6E2E8E94EFF2F0000E7D
:10E51A002C6E000E2D6E000E2E6E000E2F6E3950D0
:10E52A00D8B49AEFF2F09CEFF2F0A4EFF2F03A507E
:10E53A00D8A4A2EFF2F0A4EFF2F0AEEFF2F0000EE0
:10E54A00286E000E296E000E2A6E000E2B6E46EF04
:10E55A00F4F02E502802F3CF3FF0F4CF40F03F50B2
:10E56A00356E366A376A386A40503B6E3C6A3D6A95
:10E57A003E6A2D502902F3CF3FF0F4CF40F03F50CE
:10E58A003526000E36223722382240503B26000E0E
:10E59A003C223D223E222C502A02F3CF3FF0F4CFF8
:10E5AA0040F03F503526000E36223722382240509E
:10E5BA003B26000E3C223D223E2237C038F036C0B0
:10E5CA0037F035C036F0356A2C502902F3CF3FF0C8
:10E5DA00F4CF40F03F50352640503622000E372205
:10E5EA00000E38222D502802F3CF3FF0F4CF40F02E
:10E5FA003F50352640503622000E3722000E382270
:10E60A0037C038F036C037F035C036F0356A2C508E
:10E61A002802F3CF3FF0F4CF40F03F503526405068
:10E62A003622000E3722000E38222E502902F3CF4E
:10E63A003FF0F4CF40F03F503B2640503C22000EC2
:10E64A003D22000E3E222D502A02F3CF3FF0F4CF96
:10E65A0040F03F503B2640503C22000E3D22000E27
:10E66A003E222E502A02F3CF3FF0F4CF40F03F5023
:10E67A00306E4050316E326A336A32C033F031C084
:10E68A0032F030C031F0306A30503B2631503C22F3
:10E69A0032503D2233503E2235C030F036C031F080
:10E6AA0037C032F038C033F0190E61EFF3F0D8906A
:10E6BA003332323231323032E82E5CEFF3F03050FE
:10E6CA003B2631503C2232503D2233503E2237C045
:10E6DA0038F036C037F035C036F0356A39503AC0AE
:10E6EA0030F0316A3026000E3122820E30243F6E1D
:10E6FA00FF0E3120406E97EFF3F0D8903B363C3650
:10E70A003D363E3638AE8CEFF3F08EEFF3F08FEFF6
:10E71A00F3F03B80D89035363636373638363F06F2
:10E72A00D8A040063DAE9CEFF3F09EEFF3F082EFE7
:10E73A00F3F0000E396E38AEA5EFF3F0A7EFF3F061
:10E74A00CBEFF3F0FF0E3514306EFF0E3614316E38
:10E75A00FF0E3714326E7F0E3814336E305031107C
:10E76A0032103310D8B4BCEFF3F0BEEFF3F0C2EFBF
:10E77A00F3F0010E396ECBEFF3F03BA0C7EFF3F0E5
:10E78A00C9EFF3F0CBEFF3F0BEEFF3F03950D8B4A2
:10E79A00D1EFF3F0D3EFF3F0F7EFF3F0010E3B26EE
:10E7AA00000E3C223D223E223EA0DEEFF3F0E0EFD7
:10E7BA00F3F0F7EFF3F03BC030F03CC031F03DC06E
:10E7CA0032F03EC033F03334333232323132303207
:10E7DA0030C03BF031C03CF032C03DF033C03EF0B7
:10E7EA003F4A402A40BE02EFF4F0405008E13F2879
:10E7FA00D8A002EFF4F004EFF4F00EEFF4F0000EFC
:10E80A003B6E000E3C6E800E3D6E7F0E3E6E3CEF00
:10E81A00F4F040BE1BEFF4F0405006E13F04D8B0DC
:10E82A0019EFF4F01BEFF4F027EFF4F0000E3B6E53
:10E83A00000E3C6E000E3D6E000E3E6E000E346EF3
:10E84A003CEFF4F03FC03AF0FF0E3B16FF0E3C16C9
:10E85A007F0E3D16000E3E163AA036EFF4F038EF62
:10E86A00F4F039EFF4F03D8ED8903A303E6E3450E1
:10E87A003E123BC028F03CC029F03DC02AF03EC001
:10E88A002BF012004450800B4D6E445044244F6EBE
:10E89A0043AE52EFF4F054EFF4F055EFF4F04F803A
:10E8AA004F50D8B45BEFF4F05DEFF4F072EFF4F090
:10E8BA004F28D8A463EFF4F065EFF4F06DEFF4F0AD
:10E8CA00000E416E000E426E000E436E000E446E44
:10E8DA00438E000E446E7AEFF4F0000E416E000E85
:10E8EA00426E000E436E000E446E4850800B4E6E10
:10E8FA004D504E18D8B484EFF4F086EFF4F087EF59
:10E90A00F4F04D8C485048244E6E47AE8FEFF4F029
:10E91A0091EFF4F092EFF4F04E804E50D8B498EFA5
:10E92A00F4F09AEFF4F0AFEFF4F04E28D8A4A0EF89
:10E93A00F4F0A2EFF4F0AAEFF4F0000E456E000E28
:10E94A00466E000E476E000E486E478E000E486EE9
:10E95A00B7EFF4F0000E456E000E466E000E476EDD
:10E96A00000E486E4F504E5CD8B0BEEFF4F0C0EFC8
:10E97A00F4F0E7EFF4F04DACC5EFF4F0C7EFF4F0C4
:10E98A00C9EFF4F0800E4D1A4FC050F04EC04FF050
:10E99A0050C04EF041C050F045C041F050C045F063
:10E9AA0042C050F046C042F050C046F043C050F05A
:10E9BA0047C043F050C047F044C050F048C044F04C
:10E9CA0050C048F0000E506E4F504EC049F04A6A8F
:10E9DA00495E000E4A5A4ABEFCEFF4F04A5009E179
:10E9EA001A0E495CD8A0FCEFF4F0FEEFF4F035EF14
:10E9FA00F5F04150421043104410D8A407EFF5F047
:10EA0A000AEFF5F0010E0BEFF5F0000E506E000E56
:10EA1A00416E000E426E000E436E000E446E4EC0F2
:10EA2A004FF03EEFF5F050A01DEFF5F01FEFF5F0B7
:10EA3A0025EFF5F0D89050300109506E27EFF5F028
:10EA4A00D890503241A02CEFF5F02EEFF5F02FEFD1
:10EA5A00F5F0508E443444324332423241324F2A26
:10EA6A004E504F5CD8A03CEFF5F03EEFF5F018EFB2
:10EA7A00F5F04DBC43EFF5F045EFF5F085EFF5F015
:10EA8A004F50D8A44BEFF5F04DEFF5F057EFF5F0F6
:10EA9A00000E416E000E426E000E436E000E446E72
:10EAAA00A6EFF6F0455041264650422247504322EF
:10EABA004850442244A064EFF5F066EFF5F012EFF7
:10EACA00F6F050A06BEFF5F06DEFF5F073EFF5F09F
:10EADA00D89050300109506E75EFF5F0D890503249
:10EAEA0041A07AEFF5F07CEFF5F07DEFF5F0508E6E
:10EAFA00443444324332423241324F2A12EFF6F062
:10EB0A004550415C46504258475043584450800A49
:10EB1A00496E4850800A4958D8B096EFF5F098EFF8
:10EB2A00F5F0C3EFF5F04150455C496E4250465846
:10EB3A004A6E435047584B6E445048584C6EFF0E2D
:10EB4A004924416EFF0E4A20426EFF0E4B20436E4F
:10EB5A00FF0E4C20446E800E4D1A506C5050D8A4B3
:10EB6A00B9EFF5F0BBEFF5F0CBEFF5F0010E41266A
:10EB7A00000E422243224422CBEFF5F04550415E7B
:10EB8A004650425A4750435A4850445A41504210FC
:10EB9A0043104410D8A4D4EFF5F0D6EFF5F00BEFFC
:10EBAA00F6F05050D8A4DCEFF5F0DEEFF5F00BEFFD
:10EBBA00F6F0000E416E000E426E000E436E000E1D
:10EBCA00446EA6EFF6F0D8904136423643364436C4
:10EBDA0050AEF2EFF5F0F4EFF5F0F5EFF5F0418015
:10EBEA0050A0FAEFF5F0FCEFF5F000EFF6F0D88060
:10EBFA00503602EFF6F0D89050364F50D8B408EF9E
:10EC0A00F6F00AEFF6F00BEFF6F04F0643AE10EF10
:10EC1A00F6F012EFF6F0E8EFF5F0000E4E6E50AE99
:10EC2A0019EFF6F01BEFF6F033EFF6F050C049F0AB
:10EC3A007F0E4916D8B424EFF6F026EFF6F02AEF45
:10EC4A00F6F0010E4E6E33EFF6F041A02FEFF6F01C
:10EC5A0031EFF6F033EFF6F026EFF6F04E50D8B477
:10EC6A0039EFF6F03BEFF6F066EFF6F0010E4126CB
:10EC7A00000E42224322442244A046EFF6F048EF17
:10EC8A00F6F066EFF6F041C049F042C04AF043C0E0
:10EC9A004BF044C04CF04C344C324B324A3249327D
:10ECAA0049C041F04AC042F04BC043F04CC044F066
:10ECBA004F28D8B463EFF6F065EFF6F066EFF6F09A
:10ECCA004F2A4F28D8B46CEFF6F06EEFF6F076EFD5
:10ECDA00F6F04F50D8A474EFF6F076EFF6F088EF1E
:10ECEA00F6F0000E416E000E426E000E436E000EEC
:10ECFA00446E4F50D8A484EFF6F086EFF6F088EF12
:10ED0A00F6F0000E4D6E4FA08DEFF6F08FEFF6F095
:10ED1A0092EFF6F0438E93EFF6F0439ED8904F3081
:10ED2A00446E4DAE9BEFF6F09DEFF6F09EEFF6F0D7
:10ED3A00448E41C041F042C042F043C043F044C057
:10ED4A0044F01200000E026E630E016E45ECE7F00D
:10ED5A000AECE7F0AEECE6F090ECE6F0190E5E6E27
:10ED6A005A0E5D6EB20EE82EFED75D2EFCD75E2ED1
:10ED7A00FAD784ECE6F086840E01B4958686B497B9
:10ED8A00000E0001A46F010EA56FA30EA66F0F0E51
:10ED9A00A76F7D0EA86F0F0EA96F040EAA6F000E43
:10EDAA00AC6F630EAB6F000EAD6F010EAE6FA00EAF
:10EDBA00AF6F0F0EB06F7F0EB16F0F0EB26F060EF0
:10EDCA00B36F000EB56F630EB46F000E9D6F000E29
:10EDDA009C6F000E9F6F000E9E6F000EA16F000EBB
:10EDEA00A06F000EA36F000EA26F7F928792799890
:10EDFA0081987E9E869E849E7C9E889680967F823F
:10EE0A0079887E8E000E836F000E826F64EFF7F0B2
:10EE1A007C8E8EB413EFF7F015EFF7F00EEFF7F0E4
:10EE2A008EB41AEFF7F01CEFF7F02EEFF7F07C9E96
:10EE3A00900E0C6E000E0D6E89ECE7F0190E5E6EE8
:10EE4A005A0E5D6EB20EE82EFED75D2EFCD75E2EF0
:10EE5A00FAD77C8E8EB434EFF7F036EFF7F02FEF57
:10EE6A00F7F08EB43BEFF7F03DEFF7F04FEFF7F026
:10EE7A007C9E900E0C6E000E0D6E66ECE7F0190E7D
:10EE8A005E6E5A0E5D6EB20EE82EFED75D2EFCD770
:10EE9A005E2EFAD780868EB655EFF7F057EFF7F069
:10EEAA0050EFF7F08EB65CEFF7F05EEFF7F064EF35
:10EEBA00F7F08096000E0001836F010E826F000149
:10EECA0082518311D8B46CEFF7F06EEFF7F00DEFC3
:10EEDA00F7F0000E876F090E866F000E896F090E14
:10EEEA00886F000E8B6F090E8A6F000E856F090EF0
:10EEFA00846F000E8D6F000E8C6F900E0C6E000EDC
:10EF0A000D6EA0ECE8F000018C518D11D8A490EFA1
:10EF1A00F7F092EFF7F09CEFF7F0900E5B6E000EB1
:10EF2A005C6E5AECF9F05BC086F05CC087F00001B9
:10EF3A008C058D11D8A4A4EFF7F0A6EFF7F0B0EF87
:10EF4A00F7F0900E5B6E000E5C6E5AECF9F05BC047
:10EF5A0088F05CC089F0020E00018C198D11D8A4CA
:10EF6A00B9EFF7F0BBEFF7F0C5EFF7F0900E5B6E75
:10EF7A00000E5C6E5AECF9F05BC08AF05CC08BF054
:10EF8A00030E00018C198D11D8A4CEEFF7F0D0EF43
:10EF9A00F7F0E1EFF7F0900E5B6E000E5C6E5AEC44
:10EFAA00F9F05BC084F05CC085F0000E00018D6F43
:10EFBA00000E8C6FE3EFF7F08C4B8D2B885186197E
:10EFCA0007E189518719D8A4EDEFF7F0EFEFF7F0D1
:10EFDA001BEFF8F08A51881907E18B518919D8A4D7
:10EFEA00F9EFF7F0FBEFF7F01BEFF8F084518A190D
:10EFFA0007E185518B19D8A405EFF8F007EFF8F06F
:10F00A001BEFF8F086C08EF087C08FF0000E876F76
:10F01A00090E866F000E896F090E886F000E8B6FBE
:10F02A00090E8A6F000E856F090E846F8E518F113B
:10F03A00D8A422EFF8F024EFF8F03AEFF8F0A40E93
:10F04A001D6E000E1E6EAD0E1F6E000E206E24EC9D
:10F05A00ECF0090E5E6E1E0E5D6EE40EE82EFED713
:10F06A005D2EFCD75E2EFAD700D000018E058F11D7
:10F07A00D8A442EFF8F044EFF8F05AEFF8F0A40EF3
:10F08A001D6E000E1E6EAD0E1F6E000E206E01EC80
:10F09A00EEF0090E5E6E1E0E5D6EE40EE82EFED7D1
:10F0AA005D2EFCD75E2EFAD700D0020E00018E1913
:10F0BA008F11D8A463EFF8F065EFF8F07BEFF8F062
:10F0CA00A40E1D6E000E1E6EAD0E1F6E000E206E7B
:10F0DA0062ECEDF0090E5E6E1E0E5D6EE40EE82E19
:10F0EA00FED75D2EFCD75E2EFAD700D0030E0001A4
:10F0FA008E198F11D8A484EFF8F086EFF8F09CEF00
:10F10A00F8F0A40E256E000E266EAD0E276E000EC8
:10F11A00286E0BECEAF0090E5E6E1E0E5D6EE40EB2
:10F12A00E82EFED75D2EFCD75E2EFAD700D0040E4D
:10F13A0000018E198F11D8A4A5EFF8F0A7EFF8F007
:10F14A00BDEFF8F0A40E256E000E266EAD0E276EEA
:10F15A00000E286E95ECE9F0090E5E6E1E0E5D6ECD
:10F16A00E40EE82EFED75D2EFCD75E2EFAD700D02D
:10F17A00050E00018E198F11D8A4C6EFF8F0C8EF5A
:10F18A00F8F0DEEFF8F0A40E1D6E000E1E6EAD0E46
:10F19A001F6E000E206EC3ECECF0090E5E6E1E0EA2
:10F1AA005D6EE40EE82EFED75D2EFCD75E2EFAD7F2
:10F1BA0000D0060E00018E198F11D8A4E7EFF8F0DF
:10F1CA00E9EFF8F0FFEFF8F0A40E1D6E000E1E6EC8
:10F1DA00AD0E1F6E000E206E86ECEBF0090E5E6E11
:10F1EA001E0E5D6EE40EE82EFED75D2EFCD75E2E57
:10F1FA00FAD700D0070E00018E198F11D8A408EF94
:10F20A00F9F00AEFF9F020EFF9F0A40E196E000EEA
:10F21A001A6EAD0E1B6E000E1C6E48ECE9F0090E5C
:10F22A005E6E1E0E5D6EE40EE82EFED75D2EFCD7D6
:10F23A005E2EFAD700D0080E00018E198F11D8A4BD
:10F24A0029EFF9F02BEFF9F041EFF9F0A40E1D6E5A
:10F25A00000E1E6EAD0E1F6E000E206E24ECECF03A
:10F26A00090E5E6E1E0E5D6EE40EE82EFED75D2E52
:10F27A00FCD75E2EFAD700D0090E00018E198F1125
:10F28A00D8A44AEFF9F04CEFF9F082EFF7F0A40EA8
:10F29A00196E000E1A6EAD0E1B6E000E1C6E4EEC31
:10F2AA00E8F082EFF7F000EF00F0000E0001736F54
:10F2BA00090E726F590E2C6E170E2D6E370E2E6EAA
:10F2CA003F0E2F6E20EE10F05B50D9265C50DA22EA
:10F2DA00DECF60F0DDCF61F060C001F061C002F006
:10F2EA00036A046A000EA1ECEEF001C028F002C025
:10F2FA0029F003C02AF004C02BF032ECF2F028C047
:10F30A0045F029C046F02AC047F02BC048F0D00E7D
:10F31A002C6EB30E2D6E590E2E6E3E0E2F6E20EEF3
:10F32A000EF05B50D9265C50DA22DECF62F0DDCFD8
:10F33A0063F062C001F063C002F0036A046A000E5F
:10F34A00A1ECEEF001C028F002C029F003C02AF0B7
:10F35A0004C02BF032ECF2F028C041F029C042F090
:10F36A002AC043F02BC044F047ECF4F041C068F0E7
:10F37A0042C069F043C06AF044C06BF0980E2C6E2C
:10F38A00DD0E2D6E930E2E6E3D0E2F6E20EE12F0B8
:10F39A005B50D9265C50DA22DECF60F0DDCF61F017
:10F3AA0060C001F061C002F0036A046A000EA1ECB9
:10F3BA00EEF001C028F002C029F003C02AF004C010
:10F3CA002BF032ECF2F028C045F029C046F02AC0F2
:10F3DA0047F02BC048F068C041F069C042F06AC0EB
:10F3EA0043F06BC044F047ECF4F041C051F042C026
:10F3FA0052F043C053F044C054F003ECEBF051C058
:10F40A0074F052C075F0000E2C6E400E2D6E1C0E5C
:10F41A002E6E460E2F6E5BC0D9FF5CC0DAFFDECFC0
:10F42A0060F0DDCF61F020EE06F05B50D9265C502B
:10F43A00DA22DECF62F0DDCF63F000016051625F55
:10F44A006151635B62C001F063C002F0036A046A3F
:10F45A00000EA1ECEEF001C013F002C014F003C0DC
:10F46A0015F004C016F05BC0D9FF5CC0DAFFDECF2E
:10F47A0064F0DDCF65F020EE0EF05B50D9265C50CB
:10F48A00DA22DECF66F0DDCF67F000016451665FF5
:10F49A006551675B66C001F067C002F0036A046ADF
:10F4AA00000EA1ECEEF001C00FF002C010F003C094
:10F4BA0011F004C012F065ECF0F00FC028F010C093
:10F4CA0029F011C02AF012C02BF032ECF2F028C059
:10F4DA0051F029C052F02AC053F02BC054F003EC6B
:10F4EA00EBF051C06CF052C06DF0000E2C6E400E65
:10F4FA002D6E1C0E2E6E460E2F6E20EE02F05B5005
:10F50A00D9265C50DA22DECF60F0DDCF61F020EE42
:10F51A0008F05B50D9265C50DA22DECF62F0DDCFEC
:10F52A0063F000016051625F6151635B62C001F088
:10F53A0063C002F0036A046A000EA1ECEEF001C097
:10F54A0013F002C014F003C015F004C016F020EE48
:10F55A0002F05B50D9265C50DA22DECF64F0DDCFB0
:10F56A0065F020EE10F05B50D9265C50DA22DECF2F
:10F57A0066F0DDCF67F000016451665F6551675B35
:10F58A0066C001F067C002F0036A046A000EA1ECCB
:10F59A00EEF001C00FF002C010F003C011F004C079
:10F5AA0012F065ECF0F00FC028F010C029F011C07D
:10F5BA002AF012C02BF032ECF2F028C051F029C028
:10F5CA0052F02AC053F02BC054F003ECEBF051C0B8
:10F5DA006EF052C06FF0000E2C6E400E2D6E1C0E97
:10F5EA002E6E460E2F6E20EE04F05B50D9265C502C
:10F5FA00DA22DECF60F0DDCF61F020EE0AF05B5058
:10F60A00D9265C50DA22DECF62F0DDCF63F000014A
:10F61A006051625F6151635B62C001F063C002F0D6
:10F62A00036A046A000EA1ECEEF001C013F002C0F6
:10F63A0014F003C015F004C016F020EE04F05B507D
:10F64A00D9265C50DA22DECF64F0DDCF65F020EEF9
:10F65A0012F05B50D9265C50DA22DECF66F0DDCF9D
:10F66A0067F000016451665F6551675B66C001F02F
:10F67A0067C002F0036A046A000EA1ECEEF001C052
:10F68A000FF002C010F003C011F004C012F065ECD4
:10F69A00F0F00FC028F010C029F011C02AF012C0F3
:10F6AA002BF032ECF2F028C051F029C052F02AC0F7
:10F6BA0053F02BC054F003ECEBF051C070F052C081
:10F6CA0071F06CC001F06DC002F0036A046A000EAA
:10F6DA00A1ECEEF001C00FF002C010F003C011F06F
:10F6EA0004C012F06EC001F06FC002F0036A046A2F
:10F6FA00000EA1ECEEF001C013F002C014F003C03A
:10F70A0015F004C016F065ECF0F00FC076F010C0EA
:10F71A0077F011C078F012C079F06CC001F06DC0BA
:10F72A0002F0036A046A000EA1ECEEF001C00FF0C9
:10F73A0002C010F003C011F004C012F070C001F052
:10F74A0071C002F0036A046A000EA1ECEEF001C077
:10F75A0013F002C014F003C015F004C016F065ECF3
:10F76A00F0F00FC07AF010C07BF011C07CF012C02C
:10F77A007DF070C001F071C002F0036A046A000EE5
:10F78A00A1ECEEF001C00FF002C010F003C011F0BE
:10F79A0004C012F06EC001F06FC002F0036A046A7E
:10F7AA00000EA1ECEEF001C013F002C014F003C089
:10F7BA0015F004C016F065ECF0F00FC07EF010C032
:10F7CA007FF011C080F012C081F0000179BFF2EF22
:10F7DA00FBF0F0EFFBF0FAEFFBF0000E766F000E95
:10F7EA00776F000E786F000E796F7DBF01EFFCF026
:10F7FA00FFEFFBF009EFFCF0000E7A6F000E7B6F53
:10F80A00000E7C6F000E7D6F81BF10EFFCF00EEFD3
:10F81A00FCF018EFFCF0000E7E6F000E7F6F000EFA
:10F82A00806F000E816F76C00DF077C00EF078C041
:10F83A000FF079C010F0330E116E330E126EA30E54
:10F84A00136E400E146E000E156E000E166EA40E88
:10F85A00176E410E186E0BECE9F00D040E10D8A4C9
:10F86A0039EFFCF03BEFFCF091EFFCF07AC00DF0C1
:10F87A007BC00EF07CC00FF07DC010F0CD0E116E73
:10F88A00CC0E126E0C0E136E400E146E330E156EE5
:10F89A00330E166E730E176E400E186E0BECE9F0EF
:10F8AA000D040E10D8A45CEFFCF05EEFFCF091EFB3
:10F8BA00FCF07EC00DF07FC00EF080C00FF081C05A
:10F8CA0010F0660E116E660E126EE60E136E3F0E85
:10F8DA00146E000E156E000E166EB00E176E400EE8
:10F8EA00186E0BECE9F00D040E10D8A47FEFFCF0B3
:10F8FA0081EFFCF091EFFCF0210E0001745D030E24
:10F90A007559D8A08BEFFCF08DEFFCF091EFFCF06D
:10F91A00000E736F000E726F76C00DF077C00EF096
:10F92A0078C00FF079C010F0CD0E116ECC0E126EA9
:10F93A004C0E136E3E0E146E480E156EE10E166EC8
:10F94A00FA0E176E3E0E186E0BECE9F00D040E104F
:10F95A00D8A4B2EFFCF0B4EFFCF00AEFFDF07AC0E5
:10F96A000DF07BC00EF07CC00FF07DC010F0290EA8
:10F97A00116E5C0E126E8F0E136E3E0E146E3D0EDD
:10F98A00156E0A0E166E170E176E3F0E186E0BECDA
:10F99A00E9F00D040E10D8A4D5EFFCF0D7EFFCF077
:10F9AA000AEFFDF07EC00DF07FC00EF080C00FF0B0
:10F9BA0081C010F0330E116E330E126E330E136EB9
:10F9CA003F0E146E660E156E660E166E660E176E76
:10F9DA003F0E186E0BECE9F00D040E10D8A4F8EFE8
:10F9EA00FCF0FAEFFCF00AEFFDF0440E0001745D42
:10F9FA00030E7559D8A004EFFDF006EFFDF00AEFEB
:10FA0A00FDF0000E736F010E726F76C00DF077C0B5
:10FA1A000EF078C00FF079C010F0CD0E116ECC0E3A
:10FA2A00126ECC0E136E3D0E146ECD0E156ECC0EEC
:10FA3A00166E0C0E176E3F0E186E0BECE9F00D04E5
:10FA4A000E10D8A42BEFFDF02DEFFDF078EFFDF0AE
:10FA5A007AC00DF07BC00EF07CC00FF07DC010F0B4
:10FA6A00CD0E116ECC0E126ECC0E136E3D0E146EB0
:10FA7A00140E156EAE0E166EC70E176E3E0E186E6B
:10FA8A000BECE9F00D040E10D8A44EEFFDF050EF88
:10FA9A00FDF078EFFDF07EC00DF07FC00EF080C063
:10FAAA000FF081C010F0000E116E000E126E800E63
:10FABA00136E3F0E146E9A0E156E990E166E990EEF
:10FACA00176E3F0E186E0BECE9F00D040E10D8A459
:10FADA0071EFFDF073EFFDF078EFFDF0000E00011D
:10FAEA00736F020E726F76C00DF077C00EF078C099
:10FAFA000FF079C010F09A0E116E990E126E990ECF
:10FB0A00136E3F0E146E330E156E330E166EB30E51
:10FB1A00176E3F0E186E0BECE9F00D040E10D8A408
:10FB2A0099EFFDF09BEFFDF0F1EFFDF07AC00DF0DB
:10FB3A007BC00EF07CC00FF07DC010F0000E116E7D
:10FB4A00000E126EC00E136E3F0E146EEC0E156E82
:10FB5A00510E166ED80E176E3F0E186E0BECE9F0AA
:10FB6A000D040E10D8A4BCEFFDF0BEEFFDF0F1EFCE
:10FB7A00FDF07EC00DF07FC00EF080C00FF081C096
:10FB8A0010F0CD0E116ECC0E126E4C0E136E3F0E8F
:10FB9A00146E660E156E660E166E660E176E3F0EA4
:10FBAA00186E0BECE9F00D040E10D8A4DFEFFDF08F
:10FBBA00E1EFFDF0F1EFFDF0530E0001745D030E6D
:10FBCA007559D8A0EBEFFDF0EDEFFDF0F1EFFDF088
:10FBDA00000E736F030E726F76C00DF077C00EF0D1
:10FBEA0078C00FF079C010F0140E116EAE0E126EBE
:10FBFA00C70E136E3F0E146E710E156E3D0E166E05
:10FC0A00EA0E176E3F0E186E0BECE9F00D040E109B
:10FC1A00D8A412EFFEF014EFFEF06AEFFEF07AC0FD
:10FC2A000DF07BC00EF07CC00FF07DC010F0A40E6A
:10FC3A00116E700E126E9D0E136E3F0E146E000E34
:10FC4A00156E000E166EC00E176E3F0E186E0BEC78
:10FC5A00E9F00D040E10D8A435EFFEF037EFFEF0F0
:10FC6A006AEFFEF07EC00DF07FC00EF080C00FF08C
:10FC7A0081C010F0330E116E330E126E930E136E96
:10FC8A003F0E146E660E156E660E166EA60E176E73
:10FC9A003F0E186E0BECE9F00D040E10D8A458EFC5
:10FCAA00FEF05AEFFEF06AEFFEF03F0E0001745DBF
:10FCBA00030E7559D8A064EFFEF066EFFEF06AEF06
:10FCCA00FEF0000E736F040E726F76C00DF077C0EF
:10FCDA000EF078C00FF079C010F0660E116E660E45
:10FCEA00126E460E136E400E146E330E156E330EE0
:10FCFA00166E9B0E176E400E186E0BECE9F00D0493
:10FD0A000E10D8A48BEFFEF08DEFFEF0E3EFFEF0BD
:10FD1A007AC00DF07BC00EF07CC00FF07DC010F0F1
:10FD2A00CD0E116ECC0E126E0C0E136E400E146EAA
:10FD3A00B80E156E1E0E166E350E176E400E186E24
:10FD4A000BECE9F00D040E10D8A4AEEFFEF0B0EF04
:10FD5A00FEF0E3EFFEF07EC00DF07FC00EF080C033
:10FD6A000FF081C010F05C0E116E8F0E126EA20E93
:10FD7A00136E3F0E146E660E156E660E166EE60E46
:10FD8A00176E3F0E186E0BECE9F00D040E10D8A496
:10FD9A00D1EFFEF0D3EFFEF0E3EFFEF0210E00010B
:10FDAA00745D030E7559D8A0DDEFFEF0DFEFFEF0AB
:10FDBA00E3EFFEF0000E736F050E726F76C00DF062
:10FDCA0077C00EF078C00FF079C010F09A0E116E5D
:10FDDA00990E126E190E136E3F0E146EF60E156EF4
:10FDEA00280E166E5C0E176E3F0E186E0BECE9F0BD
:10FDFA000D040E10D8A404EFFFF006EFFFF05CEF3D
:10FE0A00FFF07AC00DF07BC00EF07CC00FF07DC011
:10FE1A0010F09A0E116E990E126E190E136E3F0E95
:10FE2A00146E9A0E156E990E166E590E176E3F0EB7
:10FE3A00186E0BECE9F00D040E10D8A427EFFFF0B2
:10FE4A0029EFFFF05CEFFFF07EC00DF07FC00EF0EF
:10FE5A0080C00FF081C010F0330E116E330E126E97
:10FE6A00730E136E3F0E146E290E156E5C0E166E0F
:10FE7A008F0E176E3F0E186E0BECE9F00D040E1084
:10FE8A00D8A44AEFFFF04CEFFFF05CEFFFF0350E1D
:10FE9A000001745D030E7559D8A056EFFFF058EFB4
:10FEAA00FFF05CEFFFF0000E736F060E726F76C004
:10FEBA000DF077C00EF078C00FF079C010F0660E22
:10FECA00116E660E126E660E136E3F0E146ECD0E16
:10FEDA00156ECC0E166E8C0E176E3F0E186E0BEC4E
:10FEEA00E9F00D040E10D8A47DEFFFF07FEFFFF0CC
:10FEFA00D5EFFFF07AC00DF07BC00EF07CC00FF09A
:10FF0A007DC010F0CD0E116ECC0E126E4C0E136E1B
:10FF1A003F0E146E000E156E000E166E800E176ED2
:10FF2A003F0E186E0BECE9F00D040E10D8A4A0EFEA
:10FF3A00FFF0A2EFFFF0D5EFFFF07EC00DF07FC01B
:10FF4A000EF080C00FF081C010F0330E116E330E28
:10FF5A00126E730E136E3F0E146ECD0E156ECC0E0E
:10FF6A00166E8C0E176E3F0E186E0BECE9F00D0430
:10FF7A000E10D8A4C3EFFFF0C5EFFFF0D5EFFFF0E6
:10FF8A007B0E0001745D030E7559D8A0CFEFFFF008
:10FF9A00D1EFFFF0D5EFFFF0000E736F070E726F0F
:10FFAA0000016D5107E1320E6C5DD8B0DFEFFFF052
:10FFBA00E1EFFFF0FBEFFFF06F5107E1320E6E5DEC
:10FFCA00D8B0EAEFFFF0ECEFFFF0FBEFFFF0715172
:10FFDA0007E1320E705DD8B0F5EFFFF0F7EFFFF0F2
:10FFEA00FBEFFFF0000E736F080E726F72C05BF0CA
:06FFFA0073C05CF0120070
:020000040020DA
:10000000FF0FFF0FFF0FFF0FFF0FFF0FFF0FFF0F80
:020000040030CA
:0C000000AAFFFFFF9FFFFFFFFFFFFFFFB5
:00000001FF
