:040000003BEF00F0E2
:100008005682D9CF03F0DACF04F00E0137A70FEFED
:1000180000F011EF00F014EF00F0E35150EC1FF086
:100028000E0137A51AEF00F01CEF00F035EF00F0D5
:100038002DA521EF00F023EF00F035EF00F0C5EC1F
:100048001FF0E806D8A42BEF00F02DEF00F033EFF7
:1000580000F010EC1FF00E01E46F35EF00F00E0118
:100068002D9504C0DAFF03C0D9FF56921100DBEFCB
:020078001DF079
:100E0000006042A20D20487565313A2025642E25E8
:100E10003033640020487565323A2025642E253031
:100E200033640020487565333A2025642E2530331D
:030E30006400005B
:100E340020EE02F03F50D9264050DA22DECF43F0B4
:100E4400DDCF44F043C00BF044C00CF00D6A0E6AD1
:100E5400000ED2EC16F00BC01EF00CC01FF00DC03B
:100E640020F00EC021F03FC0D9FF40C0DAFFDECF32
:100E740045F0DDCF46F045C00BF046C00CF00D6ADE
:100E84000E6A000ED2EC16F00BC022F00CC023F058
:100E94000DC024F00EC025F0CDEC11F01EC080F082
:100EA4001FC081F020C082F021C083F020EE04F046
:100EB4003F50D9264050DA22DECF43F0DDCF44F054
:100EC40043C00BF044C00CF00D6A0E6A000ED2EC65
:100ED40016F00BC01EF00CC01FF00DC020F00EC0A9
:100EE40021F03FC0D9FF40C0DAFFDECF45F0DDCFAF
:100EF40046F045C00BF046C00CF00D6A0E6A000EB9
:100F0400D2EC16F00BC022F00CC023F00DC024F07C
:100F14000EC025F0CDEC11F01EC084F01FC085F08A
:100F240020C086F021C087F020EE06F03F50D9267D
:100F34004050DA22DECF43F0DDCF44F043C00BF063
:100F440044C00CF00D6A0E6A000ED2EC16F00BC011
:100F54001EF00CC01FF00DC020F00EC021F03FC0E9
:100F6400D9FF40C0DAFFDECF45F0DDCF46F045C003
:100F74000BF046C00CF00D6A0E6A000ED2EC16F0AF
:100F84000BC022F00CC023F00DC024F00EC025F0DD
:100F9400CDEC11F01EC078F01FC079F020C07AF0BB
:100FA40021C07BF084C005F085C006F086C007F040
:100FB40087C008F080C009F081C00AF082C00BF03D
:100FC40083C00CF077EC1AF0D8A0EBEF07F0EDEF4C
:100FD40007F0F7EF07F084C060F085C061F086C0C9
:100FE40062F087C063F0FFEF07F080C060F081C05B
:100FF40061F082C062F083C063F078C005F079C00C
:1010040006F07AC007F07BC008F060C009F061C048
:101014000AF062C00BF063C00CF077EC1AF0D8A0B1
:1010240016EF08F018EF08F022EF08F078C08CF003
:1010340079C08DF07AC08EF07BC08FF055EF08F048
:1010440084C005F085C006F086C007F087C008F0AC
:1010540080C009F081C00AF082C00BF083C00CF09C
:1010640077EC1AF0D8A039EF08F03BEF08F045EF21
:1010740008F084C064F085C065F086C066F087C05F
:1010840067F04DEF08F080C064F081C065F082C065
:1010940066F083C067F064C08CF065C08DF066C0F4
:1010A4008EF067C08FF080C005F081C006F082C06A
:1010B40007F083C008F084C009F085C00AF086C038
:1010C4000BF087C00CF077EC1AF0D8A06CEF08F0A6
:1010D4006EEF08F078EF08F084C068F085C069F01E
:1010E40086C06AF087C06BF080EF08F080C068F0BB
:1010F40081C069F082C06AF083C06BF068C005F0FB
:1011040069C006F06AC007F06BC008F078C009F047
:1011140079C00AF07AC00BF07BC00CF077EC1AF0BF
:10112400D8A097EF08F099EF08F0A3EF08F078C083
:1011340088F079C089F07AC08AF07BC08BF0D6EF52
:1011440008F080C005F081C006F082C007F083C0BB
:1011540008F084C009F085C00AF086C00BF087C08F
:101164000CF077EC1AF0D8A0BAEF08F0BCEF08F056
:10117400C6EF08F084C06CF085C06DF086C06EF0D8
:1011840087C06FF0CEEF08F080C06CF081C06DF0C6
:1011940082C06EF083C06FF06CC088F06DC089F0BF
:1011A4006EC08AF06FC08BF0000E056E000E066EE6
:1011B400000E076E000E086E8CC009F08DC00AF098
:1011C4008EC00BF08FC00CF077EC1AF0D8B0EDEFB6
:1011D40008F0EFEF08F01DEF09F088C03BF089C07C
:1011E4003CF08AC03DF08BC03EF08CC037F08DC01F
:1011F40038F08EC039F08FC03AF000EC1EF037C0E2
:101204001EF038C01FF039C020F03AC021F08CC065
:1012140022F08DC023F08EC024F08FC025F0CDECD9
:1012240011F01EC07CF01FC07DF020C07EF021C0F4
:101234007FF026EF09F0000E00017C6F000E7D6F39
:10124400000E7E6F000E7F6F7CC005F07DC006F03F
:101254007EC007F07FC008F0000E096E000E0A6E13
:10126400000E0B6E000E0C6EC1EC1BF0D8A03DEF0F
:1012740009F03FEF09F04AEF09F0000E0001746F26
:10128400000E756F000E766F000E776FAAEF0AF0EE
:101294008CC005F08DC006F08EC007F08FC008F03A
:1012A40080C009F081C00AF082C00BF083C00CF04A
:1012B400C1EC1BF0D8A061EF09F063EF09F0A3EFD4
:1012C40009F078C03BF079C03CF07AC03DF07BC0B7
:1012D4003EF084C037F085C038F086C039F087C04E
:1012E4003AF000EC1EF037C01EF038C01FF039C0D1
:1012F40020F03AC021F088C03BF089C03CF08AC09D
:101304003DF08BC03EF08CC037F08DC038F08EC0FD
:1013140039F08FC03AF000EC1EF037C022F038C02C
:1013240023F039C024F03AC025F0CDEC11F01EC0F2
:1013340074F01FC075F020C076F021C077F06EEF16
:101344000AF08CC005F08DC006F08EC007F08FC087
:1013540008F084C009F085C00AF086C00BF087C08D
:101364000CF0C1EC1BF0D8A0BAEF09F0BCEF09F007
:1013740016EF0AF088C03BF089C03CF08AC03DF00B
:101384008BC03EF08CC037F08DC038F08EC039F081
:101394008FC03AF000EC1EF037C022F038C023F0C2
:1013A40039C024F03AC025F080C03BF081C03CF045
:1013B40082C03DF083C03EF078C037F079C038F089
:1013C4007AC039F07BC03AF000EC1EF037C01EF052
:1013D40038C01FF039C020F03AC021F0CDEC11F034
:1013E4001EC070F01FC071F020C072F021C073F0F5
:1013F40070C005F071C006F072C007F073C008F049
:10140400000E096E000E0A6E000E0B6E400E0C6E7E
:1014140058EC0DF005C074F006C075F007C076F006
:1014240008C077F06EEF0AF088C03BF089C03CF04A
:101434008AC03DF08BC03EF08CC037F08DC038F0D0
:101444008EC039F08FC03AF000EC1EF037C022F0A5
:1014540038C023F039C024F03AC025F084C03BF0F2
:1014640085C03CF086C03DF087C03EF080C037F0B8
:1014740081C038F082C039F083C03AF000EC1EF02D
:1014840037C01EF038C01FF039C020F03AC021F038
:10149400CDEC11F01EC070F01FC071F020C072F0CE
:1014A40021C073F070C005F071C006F072C007F07F
:1014B40073C008F0000E096E000E0A6E800E0B6EEB
:1014C400400E0C6E58EC0DF005C074F006C075F0BB
:1014D40007C076F008C077F074C01EF075C01FF026
:1014E40076C020F077C021F0000E226E000E236E2D
:1014F400C00E246E400E256ECDEC11F01EC074F0AB
:101504001FC075F020C076F021C077F0000177BFCE
:1015140090EF0AF08EEF0AF0AAEF0AF074C005F01B
:1015240075C006F076C007F077C008F0000E096EAB
:10153400000E0A6E800E0B6E3F0E0C6E58EC0DF012
:1015440005C074F006C075F007C076F008C077F0E7
:1015540074C03FF075C040F076C041F077C042F0EF
:101564001200000E066E630E056E66EC1EF0DEECD5
:101574001EF08CEC1FF0D7EC1FF086840E01B4959E
:10158400000E0001AC6F010EAD6FA30EAE6F0F0E17
:10159400AF6F7D0EB06F0F0EB16F040EB26F000E01
:1015A400B46F630EB36F000EB56F010EB66FA00E6D
:1015B400B76F0F0EB86F7F0EB96F0F0EBA6F060EAE
:1015C400BB6F000EBD6F630EBC6F000EC16F000ECB
:1015D400C06F000EC36F000EC26F000EC56F000E09
:1015E400C46F7C868496808288927F928792799851
:1015F40081987E8E869E849E7C9EBE0E106E000E0A
:10160400116E67EC1CF07C9E8EB40BEF0BF00DEFAB
:101614000BF0FFEF0AF07C8E7F8279887E8E090EB4
:10162400516E1E0E506EE40EE82EFED7502EFCD7DF
:10163400512EFAD700D0BE0E106E000E116E67EC5C
:101644001CF0BE0E3F6E000E406E1AEC07F03FC059
:10165400A6F040C0A7F041C0A8F042C0A9F0000E17
:10166400226E000E236E800E246E3F0E256EA6C0E1
:101674001EF0A7C01FF0A8C020F0A9C021F0CDEC37
:1016840011F01EC03FF01FC040F020C041F021C047
:1016940042F0F4EC19F03FC0AAF040C0ABF0030EE6
:1016A400086EE80E076EAAC005F0ABC006F079EC30
:1016B4001FF005C00BF006C00CF00D6A0E6A000E98
:1016C400D2EC16F00BC03BF00CC03CF00DC03DF06A
:1016D4000EC03EF0000E226E000E236E800E246EAD
:1016E4003F0E256E000E096E000E0A6E7A0E0B6E0A
:1016F400440E0C6EA6C005F0A7C006F0A8C007F003
:10170400A9C008F0B8EC0FF005C01EF006C01FF029
:1017140007C020F008C021F0CDEC11F01EC037F056
:101724001FC038F020C039F021C03AF000EC1EF0A0
:1017340037C03FF038C040F039C041F03AC042F001
:10174400F4EC19F03FC0A4F040C0A5F0900E0001E5
:10175400726F000E736F050E746F0E0E756FAAC054
:1017640076F0ABC077F0A4C078F0A5C079F0E9ECCE
:101774001CF0900E066E000E076EF8EC1EF0ACEC3A
:101784001FF0090E516E1E0E506EE40EE82EFED7A9
:10179400502EFCD7512EFAD700D07F8279987E9EA6
:1017A400090E516E1E0E506EE40EE82EFED7502E1A
:1017B400FCD7512EFAD700D0BE0E106E000E116E5B
:1017C40067EC1CF0BE0E3F6E000E406E1AEC07F084
:1017D4003FC0A6F040C0A7F041C0A8F042C0A9F0A5
:1017E400000E226E000E236E800E246E3F0E256EB8
:1017F400A6C01EF0A7C01FF0A8C020F0A9C021F009
:10180400CDEC11F01EC03FF01FC040F020C041F0ED
:1018140021C042F0F4EC19F03FC0AAF040C0ABF094
:10182400030E086EE80E076EAAC005F0ABC006F002
:1018340079EC1FF005C00BF006C00CF00D6A0E6ABF
:10184400000ED2EC16F00BC03BF00CC03CF00DC007
:101854003DF00EC03EF0000E226E000E236E800E90
:10186400246E3F0E256E000E096E000E0A6E7A0E6F
:101874000B6E440E0C6EA6C005F0A7C006F0A8C0FF
:1018840007F0A9C008F0B8EC0FF005C01EF006C0C0
:101894001FF007C020F008C021F0CDEC11F01EC0ED
:1018A40037F01FC038F020C039F021C03AF000EC06
:1018B4001EF037C03FF038C040F039C041F03AC0A4
:1018C40042F0F4EC19F03FC0A4F040C0A5F0900E33
:1018D4000001726F000E736F140E746F0E0E756F2D
:1018E400AAC076F0ABC077F0A4C078F0A5C079F0B8
:1018F400E9EC1CF0900E066E000E076EF8EC1EF07C
:10190400ACEC1FF0090E516E1E0E506EE40EE82E64
:10191400FED7502EFCD7512EFAD700D07F9279886B
:101924007E9E090E516E1E0E506EE40EE82EFED7FA
:10193400502EFCD7512EFAD700D0BE0E106E000EDA
:10194400116E67EC1CF0BE0E3F6E000E406E1AEC7A
:1019540007F03FC0A6F040C0A7F041C0A8F042C0C5
:10196400A9F0000E226E000E236E800E246E3F0E30
:10197400256EA6C01EF0A7C01FF0A8C020F0A9C005
:1019840021F0CDEC11F01EC03FF01FC040F020C08C
:1019940041F021C042F0F4EC19F03FC0AAF040C07D
:1019A400ABF0030E086EE80E076EAAC005F0ABC0DC
:1019B40006F079EC1FF005C00BF006C00CF00D6AC0
:1019C4000E6A000ED2EC16F00BC03BF00CC03CF0DB
:1019D4000DC03DF00EC03EF0000E226E000E236ED0
:1019E400800E246E3F0E256E000E096E000E0A6EE8
:1019F4007A0E0B6E440E0C6EA6C005F0A7C006F05E
:101A0400A8C007F0A9C008F0B8EC0FF005C01EF09C
:101A140006C01FF007C020F008C021F0CDEC11F083
:101A24001EC037F01FC038F020C039F021C03AF092
:101A340000EC1EF037C03FF038C040F039C041F030
:101A44003AC042F0F4EC19F03FC0A4F040C0A5F055
:101A5400900E0001726F000E736F230E746F0E0EE2
:101A6400756FAAC076F0ABC077F0A4C078F0A5C0BB
:101A740079F0E9EC1CF0900E066E000E076EF8EC9F
:101A84001EF0ACEC1FF0090E516E1E0E506EE40EEB
:101A9400E82EFED7502EFCD7512EFAD700D07F92D5
:101AA40079987E9EFFEF0AF03BEF00F00850800B20
:101AB400116E08500824136E07AE63EF0DF065EF46
:101AC4000DF066EF0DF013801350D8B46CEF0DF0E9
:101AD4006EEF0DF083EF0DF01328D8A474EF0DF022
:101AE40076EF0DF07EEF0DF0000E056E000E066E23
:101AF400000E076E000E086E078E000E086E8BEF48
:101B04000DF0000E056E000E066E000E076E000E40
:101B1400086E0C50800B126E11501218D8B495EF49
:101B24000DF097EF0DF098EF0DF0118C0C500C2484
:101B3400126E0BAEA0EF0DF0A2EF0DF0A3EF0DF0BF
:101B440012801250D8B4A9EF0DF0ABEF0DF0C0EF36
:101B54000DF01228D8A4B1EF0DF0B3EF0DF0BBEFE8
:101B64000DF0000E096E000E0A6E000E0B6E000ED4
:101B74000C6E0B8E000E0C6EC8EF0DF0000E096E8D
:101B8400000E0A6E000E0B6E000E0C6E1350125CEB
:101B9400D8B0CFEF0DF0D1EF0DF0F8EF0DF011ACA0
:101BA400D6EF0DF0D8EF0DF0DAEF0DF0800E111A2C
:101BB40013C014F012C013F014C012F005C014F0D6
:101BC40009C005F014C009F006C014F00AC006F0FC
:101BD40014C00AF007C014F00BC007F014C00BF0D7
:101BE40008C014F00CC008F014C00CF0000E146E01
:101BF400135012C00DF00E6A0D5E000E0E5A0EBE8A
:101C04000DEF0EF00E5009E11A0E0D5CD8A00DEF89
:101C14000EF00FEF0EF046EF0EF005500610071011
:101C24000810D8A418EF0EF01BEF0EF0010E1CEFF5
:101C34000EF0000E146E000E056E000E066E000E01
:101C4400076E000E086E12C013F04FEF0EF014A0D2
:101C54002EEF0EF030EF0EF036EF0EF0D890143079
:101C64000109146E38EF0EF0D890143205A03DEF40
:101C74000EF03FEF0EF040EF0EF0148E08340832F1
:101C8400073206320532132A1250135CD8A04DEFE6
:101C94000EF04FEF0EF029EF0EF011BC54EF0EF0E2
:101CA40056EF0EF096EF0EF01350D8A45CEF0EF042
:101CB4005EEF0EF068EF0EF0000E056E000E066E7D
:101CC400000E076E000E086EB7EF0FF009500526E0
:101CD4000A5006220B5007220C50082208A075EF68
:101CE4000EF077EF0EF023EF0FF014A07CEF0EF060
:101CF4007EEF0EF084EF0EF0D89014300109146ECC
:101D040086EF0EF0D890143205A08BEF0EF08DEF15
:101D14000EF08EEF0EF0148E0834083207320632BD
:101D24000532132A23EF0FF00950055C0A500658B8
:101D34000B5007580850800A0D6E0C50800A0D583D
:101D4400D8B0A7EF0EF0A9EF0EF0D4EF0EF00550C7
:101D5400095C0D6E06500A580E6E07500B580F6E34
:101D640008500C58106EFF0E0D24056EFF0E0E2049
:101D7400066EFF0E0F20076EFF0E1020086E800EF9
:101D8400111A146C1450D8A4CAEF0EF0CCEF0EF054
:101D9400DCEF0EF0010E0526000E062207220822B3
:101DA400DCEF0EF00950055E0A50065A0B50075A34
:101DB4000C50085A0550061007100810D8A4E5EF77
:101DC4000EF0E7EF0EF01CEF0FF01450D8A4EDEF77
:101DD4000EF0EFEF0EF01CEF0FF0000E056E000E8C
:101DE400066E000E076E000E086EB7EF0FF0D89067
:101DF400053606360736083614AE03EF0FF005EF46
:101E04000FF006EF0FF0058014A00BEF0FF00DEFAD
:101E14000FF011EF0FF0D880143613EF0FF0D890B5
:101E240014361350D8B419EF0FF01BEF0FF01CEF5A
:101E34000FF0130607AE21EF0FF023EF0FF0F9EFC9
:101E44000EF0000E126E14AE2AEF0FF02CEF0FF00E
:101E540044EF0FF014C00DF07F0E0D16D8B435EF1B
:101E64000FF037EF0FF03BEF0FF0010E126E44EF5F
:101E74000FF005A040EF0FF042EF0FF044EF0FF02A
:101E840037EF0FF01250D8B44AEF0FF04CEF0FF0C9
:101E940077EF0FF0010E0526000E06220722082216
:101EA40008A057EF0FF059EF0FF077EF0FF005C0D0
:101EB4000DF006C00EF007C00FF008C010F010348B
:101EC40010320F320E320D320DC005F00EC006F086
:101ED4000FC007F010C008F01328D8B474EF0FF047
:101EE40076EF0FF077EF0FF0132A1328D8B47DEFB5
:101EF4000FF07FEF0FF087EF0FF01350D8A485EFAA
:101F04000FF087EF0FF099EF0FF0000E056E000E43
:101F1400066E000E076E000E086E1350D8A495EFDF
:101F24000FF097EF0FF099EF0FF0000E116E13A062
:101F34009EEF0FF0A0EF0FF0A3EF0FF0078EA4EFCA
:101F44000FF0079ED8901330086E11AEACEF0FF06F
:101F5400AEEF0FF0AFEF0FF0088E05C005F006C02E
:101F640006F007C007F008C008F012000850800B04
:101F7400116E08500824176E07AEC3EF0FF0C5EFBB
:101F84000FF0C6EF0FF017801750D8B4CCEF0FF056
:101F9400CEEF0FF0E1EF0FF01728D8A4D4EF0FF035
:101FA400D6EF0FF0DEEF0FF0000E056E000E066E9A
:101FB400000E076E000E086E078EE9EF0FF0000E9C
:101FC400056E000E066E000E076E000E086E0C50B5
:101FD400800B111A0C500C24166E0BAEF4EF0FF09C
:101FE400F6EF0FF0F7EF0FF016801650D8B4FDEFB0
:101FF4000FF0FFEF0FF012EF10F01628D8A405EF42
:1020040010F007EF10F00FEF10F0000E096E000E45
:102014000A6E000E0B6E000E0C6E0B8E1AEF10F093
:10202400000E096E000E0A6E000E0B6E000E0C6E92
:102034001650D8B420EF10F022EF10F02AEF10F071
:102044001750D8A428EF10F02AEF10F034EF10F056
:10205400000E056E000E066E000E076E000E086E72
:10206400CCEF11F00B500502F3CF1CF0F4CF1DF0B0
:102074001C50126E136A146A156A1D50186E196A80
:102084001A6A1B6A0A500602F3CF1CF0F4CF1DF043
:102094001C501226000E1322142215221D5018263D
:1020A400000E19221A221B2209500702F3CF1CF03A
:1020B400F4CF1DF01C501226000E132214221522F8
:1020C4001D501826000E19221A221B2214C015F0C6
:1020D40013C014F012C013F0126A09500602F3CFB1
:1020E4001CF0F4CF1DF01C5012261D501322000EBC
:1020F4001422000E15220A500502F3CF1CF0F4CF6F
:102104001DF01C5012261D501322000E1422000E26
:10211400152214C015F013C014F012C013F0126A83
:1021240009500502F3CF1CF0F4CF1DF01C50122609
:102134001D501322000E1422000E15220B5006020D
:10214400F3CF1CF0F4CF1DF01C5018261D5019229B
:10215400000E1A22000E1B220A500702F3CF1CF0B5
:10216400F4CF1DF01C5018261D501922000E1A22FF
:10217400000E1B220B500702F3CF1CF0F4CF1DF00E
:102184001C500D6E1D500E6E0F6A106A0FC010F0B9
:102194000EC00FF00DC00EF00D6A0D5018260E5033
:1021A40019220F501A2210501B2212C00DF013C016
:1021B4000EF014C00FF015C010F0190EE7EF10F078
:1021C400D89010320F320E320D32E82EE2EF10F0BA
:1021D4000D5018260E5019220F501A2210501B228F
:1021E40014C015F013C014F012C013F0126A165084
:1021F40017C00DF00E6A0D26000E0E22820E0D245D
:102204001C6EFF0E0E201D6E1DEF11F0D8901836B7
:1022140019361A361B3615AE12EF11F014EF11F001
:1022240015EF11F01880D89012361336143615367F
:102234001C06D8A01D061AAE22EF11F024EF11F0EF
:1022440008EF11F0000E166E15AE2BEF11F02DEF06
:1022540011F051EF11F0FF0E12140D6EFF0E131456
:102264000E6EFF0E14140F6E7F0E1514106E0D50AB
:102274000E100F101010D8B442EF11F044EF11F00B
:1022840048EF11F0010E166E51EF11F018A04DEF4A
:1022940011F04FEF11F051EF11F044EF11F016501F
:1022A400D8B457EF11F059EF11F07DEF11F0010E92
:1022B4001826000E19221A221B221BA064EF11F00B
:1022C40066EF11F07DEF11F018C00DF019C00EF09B
:1022D4001AC00FF01BC010F0103410320F320E323F
:1022E4000D320DC018F00EC019F00FC01AF010C056
:1022F4001BF01C4A1D2A1DBE88EF11F01D5008E179
:102304001C28D8A088EF11F08AEF11F094EF11F097
:10231400000E186E000E196E800E1A6E7F0E1B6E64
:10232400C2EF11F01DBEA1EF11F01D5006E11C0417
:10233400D8B09FEF11F0A1EF11F0ADEF11F0000E46
:10234400186E000E196E000E1A6E000E1B6E000E33
:10235400116EC2EF11F01CC017F0FF0E1816FF0E1D
:1023640019167F0E1A16000E1B1617A0BCEF11F0DB
:10237400BEEF11F0BFEF11F01A8ED89017301B6E1C
:1023840011501B1218C005F019C006F01AC007F04E
:102394001BC008F012002150800B2E6E2150212406
:1023A400356E20AED8EF11F0DAEF11F0DBEF11F05B
:1023B40035803550D8B4E1EF11F0E3EF11F0F8EFC8
:1023C40011F03528D8A4E9EF11F0EBEF11F0F3EF99
:1023D40011F0000E1E6E000E1F6E000E206E000E19
:1023E400216E208E000E216E00EF12F0000E1E6E84
:1023F400000E1F6E000E206E000E216E2550800B05
:102404002E1A25502524366E24AE0BEF12F00DEF54
:1024140012F00EEF12F036803650D8B414EF12F0EA
:1024240016EF12F02BEF12F03628D8A41CEF12F09E
:102434001EEF12F026EF12F0000E226E000E236E35
:10244400000E246E000E256E248E000E256E33EFD2
:1024540012F0000E226E000E236E000E246E000E8B
:10246400256E2250231024102510D8A43CEF12F01E
:102474003EEF12F056EF12F0000E1E6E000E1F6EAD
:10248400000E206E000E216E800E20127F0E21128F
:102494002E5021121EC01EF01FC01FF020C020F0BD
:1024A40021C021F099EF13F03550D8A45CEF12F05D
:1024B4005EEF12F068EF12F0000E1E6E000E1F6E3B
:1024C400000E206E000E216E99EF13F0365035C0C9
:1024D40026F0276A265E000E275A7F0E26242F6ECA
:1024E400000E2720306E1EC02AF01FC02BF020C023
:1024F4002CF021C02DF0000E1E6E000E1F6E000E7B
:10250400206E000E216E000E316E000E326E000E33
:10251400336E000E346E000E366EC9EF12F0365074
:10252400D8B497EF12F099EF12F0B0EF12F0D89000
:102534002A362B362C362D36D8901E361F362036AA
:10254400213634AEA8EF12F0AAEF12F0ABEF12F07E
:102554001E80D890313632363336343622502A5CD7
:1025640023502B5824502C5825502D58D8A0BDEF5B
:1025740012F0BFEF12F0C8EF12F0348C22502A5E32
:1025840023502B5A24502C5A25502D5A362A190ED2
:102594003664CFEF12F0D1EF12F091EF12F02A501F
:1025A4002B102C102D10D8B4DAEF12F0DCEF12F04F
:1025B400F4EF12F03180F4EF12F0D8901E361F368B
:1025C4002036213634AEE9EF12F0EBEF12F0ECEFE7
:1025D40012F01E80D89031363236333634362F0618
:1025E400D8A0300620AEF9EF12F0FBEF12F0DFEFC7
:1025F40012F0000E366E34AE02EF13F004EF13F057
:1026040028EF13F0FF0E3114266EFF0E3214276EDE
:10261400FF0E3314286E7F0E3414296E26502710B3
:1026240028102910D8B419EF13F01BEF13F01FEF83
:1026340013F0010E366E28EF13F01EA024EF13F0F2
:1026440026EF13F028EF13F01BEF13F03650D8B435
:102654002EEF13F030EF13F054EF13F0010E1E269B
:10266400000E1F222022212221A03BEF13F03DEF78
:1026740013F054EF13F01EC026F01FC027F020C043
:1026840028F021C029F02934293228322732263271
:1026940026C01EF027C01FF028C020F029C021F05A
:1026A4002F4A302A30BE5FEF13F0305008E12F2854
:1026B400D8A05FEF13F061EF13F06CEF13F0000E8E
:1026C400306E2F68000E1E6E000E1F6E000E206E00
:1026D400000E216E30BE79EF13F0305006E12F0466
:1026E400D8B077EF13F079EF13F087EF13F0000E03
:1026F400306E000E2F6E000E1E6E000E1F6E000E4A
:10270400206E000E216E000E2E6E2FC035F035A007
:102714008EEF13F090EF13F093EF13F0208E94EFFD
:1027240013F0209ED8903530216E4AEF12F012003B
:1027340046C0D9FF47C0DAFFDECFF6FFDDCFF7FF93
:10274400000EF86E0800F550250AD8A4ACEF13F07B
:10275400AEEF13F042EF15F046C0D9FF47C0DAFFE1
:10276400DE2A000EDD22000E0001F16F000EF06F74
:10277400F0C0F4F0F1C0F5F0F269F369000E696F8E
:10278400000E686F0EEF14F0F48146C0D9FF47C005
:10279400DAFFDE2A000EDD220EEF14F0F483C7EF19
:1027A40013F0F485C7EF13F0F487C7EF13F0F4893F
:1027B400C7EF13F0000E696F010E686F0EEF14F08F
:1027C40046C0D9FF47C0DAFFDECFF6FFDDCFF7FF03
:1027D400000EF86E0800F5504A6E4B6A4B50000A22
:1027E400D8B4F7EF13F0DCEF13F04A50200AD8B452
:1027F400D6EF13F0030AD8B4D9EF13F0080AD8B40B
:10280400D3EF13F0060AD8B4C6EF13F01D0AD8B4F8
:10281400D0EF13F0DCEF13F068516911D8B415EF61
:1028240014F017EF14F0E2EF13F0F4A11CEF14F01E
:102834001EEF14F01FEF14F0F49346C0D9FF47C005
:10284400DAFFDECFF6FFDDCFF7FF000EF86E0800EB
:10285400F5502A0AD8A431EF14F033EF14F05CEFEA
:1028640014F046C0D9FF47C0DAFFDE2A000EDD228D
:1028740048C0D9FF49C0DAFFDFCF4AF0020EDE2696
:10288400DFCF4BF0000EDD224AC0D9FF4BC0DAFF88
:10289400DECFF0F0DDCFF1F0F1BF55EF14F053EFE0
:1028A40014F0A2EF14F0F481F06DF11FD8B0F12B05
:1028B400A2EF14F046C0D9FF47C0DAFFDECF0CF018
:1028C400DDCF0DF0ACEC17F00CC0F0F00DC0F1F062
:1028D40073EF14F046C0D9FF47C0DAFFDE2A000EBA
:1028E400DD22D00E4A6EFF0E4B6E46C0D9FF47C0A4
:1028F400DAFFDECFF6FFDDCFF7FF000EF86E08003B
:10290400F5504C6E4D6A4A504C264B504D224D505A
:102914000AE10A0E4C5CD8A092EF14F095EF14F083
:10292400010E96EF14F0000E00016A6F6B6B6A5192
:102934006B11D8A4A0EF14F0A2EF14F06CEF14F014
:1029440046C0D9FF47C0DAFFDECFF6FFDDCFF7FF81
:10295400000EF86E0800F550640AD8B4B4EF14F011
:10296400B6EF14F0CAEF14F046C0D9FF47C0DAFF3F
:10297400DECFF6FFDDCFF7FF000EF86E0800F5504E
:10298400690AD8A4C8EF14F0CAEF14F00AEF15F0DE
:1029940046C0D9FF47C0DAFFDE2A000EDD2248C058
:1029A400D9FF49C0DAFFDFCF4AF0020EDE26DFCFBF
:1029B4004BF0000EDD224AC0D9FF4BC0DAFFDECF58
:1029C40060F0DDCF61F0000E61BFFF0E626F636FD8
:1029D400646F656F666F676F44C020F045C021F077
:1029E40060C022F061C023F062C024F063C025F00F
:1029F40064C026F065C027F066C028F067C029F0DF
:102A040060EC15F020C044F021C045F05FEF15F0F4
:102A140046C0D9FF47C0DAFFDECFF6FFDDCFF7FFB0
:102A2400000EF86E0800F550250AD8A41CEF15F026
:102A34001EEF15F035EF15F046C0D9FF47C0DAFF99
:102A4400DE2A000EDD22000E066E250E056E44C041
:102A540007F045C008F0F9EC1AF0000E456E010EBF
:102A6400446E5FEF15F046C0D9FF47C0DAFFDE2A97
:102A7400000EDD22000E456E000E446E5FEF15F071
:102A840046C0D9FF47C0DAFFDECFF6FFDDCFF7FF40
:102A9400000EF86E0800F550056E066A44C007F093
:102AA40045C008F0F9EC1AF046C0D9FF47C0DAFF78
:102AB400DE2A000EDD222FEF15F0120022C03AF0BC
:102AC40023C03BF024C03CF025C03DF026C03EF0BE
:102AD40027C03FF028C040F029C041F041BE75EF47
:102AE40015F078EF15F0010E79EF15F0000E386E41
:102AF400396A38503910D8B482EF15F084EF15F0E4
:102B040094EF15F0411E401E3F1E3E1E3D1E3C1E0E
:102B14003B1E3A6C000E3B223C223D223E223F22C9
:102B2400402241220001F3BF9AEF15F09CEF15F00B
:102B34009DEF15F0F493F3BFAAEF15F0F35106E1FE
:102B4400F205D8B0A8EF15F0AAEF15F0B0EF15F024
:102B5400000E356E010E346EB4EF15F0F2C034F091
:102B6400F3C035F0F0C036F0F1C037F0385039100A
:102B7400D8A4BFEF15F0C1EF15F0C8EF15F0F4A518
:102B8400C6EF15F0C8EF15F0CBEF15F03606D8A058
:102B94003706000E436E1F0E426E000E0101FD6FDC
:102BA40050EF16F04206D8A04306DE0E4224D96E3A
:102BB400010E4320DA6E3AC005F03BC006F03CC07B
:102BC40007F03DC008F03EC009F03FC00AF040C025
:102BD4000BF041C00CF00A0E0D6E000E0E6E000ECE
:102BE4000F6E000E106E000E116E000E126E000EAF
:102BF400136E000E146E42EC19F005C02AF006C0E4
:102C04002BF007C02CF008C02DF009C02EF00AC02C
:102C14002FF00BC030F00CC031F02AC017F02CC0DC
:102C240018F087EC1EF01750300FDF6E3406D8A072
:102C340035063606D8A037063AC005F03BC006F084
:102C44003CC007F03DC008F03EC009F03FC00AF0A8
:102C540040C00BF041C00CF00A0E0D6E000E0E6E5B
:102C6400000E0F6E000E106E000E116E000E126E2E
:102C7400000E136E000E146E7EEC18F005C03AF0D0
:102C840006C03BF007C03CF008C03DF009C03EF070
:102C94000AC03FF00BC040F00CC041F043BE5BEFF4
:102CA40016F0435008E14204D8A05BEF16F05DEF44
:102CB40016F08EEF16F03A503B103C103D103E10CB
:102CC4003F1040104110D8A46AEF16F06CEF16F0D4
:102CD400D4EF15F035BE79EF16F0355006E1340423
:102CE400D8B077EF16F079EF16F0D4EF15F037BEC1
:102CF40084EF16F0375008E13604D8A084EF16F0BC
:102D040086EF16F08EEF16F00001F4B38CEF16F098
:102D14008EEF16F0D4EF15F038503910D8A495EF93
:102D240016F097EF16F09FEF16F00001F4A59DEF53
:102D340016F09FEF16F0BDEF16F04206D8A043063A
:102D440038503910D8A4A9EF16F0ABEF16F0B1EF54
:102D540016F0000E336E2B0E326EB5EF16F0000E29
:102D6400336E2D0E326EDE0E4224D96E010E4320D8
:102D7400DA6E32C0DFFF20C015F021C016F0DE0E7F
:102D84004224176E010E4320186E36C019F037C066
:102D94001AF05EEC1BF015C020F016C021F01200F2
:102DA400136E1350D8B4D9EF16F0DBEF16F0FDEF25
:102DB40016F00EBEE2EF16F0E0EF16F0FDEF16F09F
:102DC4000BC00FF00CC010F00DC011F00EC012F0CB
:102DD4000F1E101E111E121E0F2A000E1022112289
:102DE40012220FC015F010C016F011C017F012C057
:102DF40018F005EF17F00BC015F00CC016F00DC05D
:102E040017F00EC018F00B500C100D100E10D8A4B3
:102E14000EEF17F010EF17F01AEF17F0000E0B6E0D
:102E2400000E0C6E000E0D6E000E0E6EABEF17F062
:102E3400960E146E24EF17F0142AD8901832173215
:102E440016321532000E15140F6E000E1614106E85
:102E5400000E1714116EFE0E1814126E0F5010107F
:102E640011101210D8A439EF17F03BEF17F01EEF32
:102E740017F049EF17F0142A010E1526000E16223A
:102E840017221822D8901832173216321532000E33
:102E940015140F6E000E1614106E000E1714116E1A
:102EA400FF0E1814126E0F50101011101210D8A427
:102EB4005EEF17F060EF17F03DEF17F068EF17F0D3
:102EC4001406D890153616361736183617BE6DEF19
:102ED40017F06FEF17F077EF17F0020E146075EF2D
:102EE40017F077EF17F062EF17F014B07CEF17F0DC
:102EF4007EEF17F07FEF17F0179ED890143214C0AE
:102F04000FF0106A116A126A0FC012F0116A106A87
:102F14000F6A0F501512105016121150171212503A
:102F240018121350D8B499EF17F09BEF17F0A3EFD2
:102F340017F00EBEA2EF17F0A0EF17F0A3EF17F0F3
:102F4400188E15C00BF016C00CF017C00DF018C089
:102F54000EF01200000E1A6E000E196E000E136EA3
:102F6400000E126EB8EF17F00C4A0D2A010E186EFF
:102F74000CC0F6FF0DC0F7FF000EF86E0800F55008
:102F8400200AD8B4C8EF17F0CAEF17F0E9EF17F02A
:102F9400F70E0E6EFF0E0F6E0CC0F6FF0DC0F7FF9E
:102FA400000EF86E0800F550106E116A0E501026CF
:102FB4000F501122115009E1050E105CD8A0E5EF65
:102FC40017F0E7EF17F0E9EF17F0000E186E18C0CE
:102FD40014F0156A14501510D8A4F3EF17F0F5EF98
:102FE40017F0B6EF17F0FFEF17F0000E136E010E97
:102FF400126E0C4A0D2A38EF18F00CC0F6FF0DC003
:10300400F7FF000EF86E0800F5500E6E0F6A0F50B1
:10301400000AD8B410EF18F038EF18F00E502B0A4D
:10302400D8B4FBEF17F0060AD8B4F7EF17F038EF6F
:1030340018F019C005F01AC006F0000E086E0A0E4A
:10304400076E79EC1FF00CC0F6FF0DC0F7FF000E01
:10305400F86E0800F550055E000E065A300E052481
:10306400196E000E06201A6EFBEF17F0D00E0E6ECE
:10307400FF0E0F6E0CC0F6FF0DC0F7FF000EF86ECA
:103084000800F550106E116A0E5010260F501122D0
:1030940011500AE10A0E105CD8A053EF18F056EF55
:1030A40018F0010E57EF18F0000E166E176A16503E
:1030B4001710D8A460EF18F062EF18F01BEF18F0A7
:1030C40012501310D8A469EF18F06BEF18F079EFD1
:1030D40018F019C00EF01AC00FF00E1E0F1E0E4A83
:1030E4000F2A0EC00CF00FC00DF07DEF18F019C0C0
:1030F4000CF01AC00DF01200000E166E14BE87EF0D
:1031040018F085EF18F099EF18F0141E131E121E14
:10311400111E101E0F1E0E1E0D6C000E0E220F220D
:1031240010221122122213221422010E166E0CBE3A
:10313400A0EF18F09EEF18F0B2EF18F00C1E0B1E63
:103144000A1E091E081E071E061E056C000E062216
:103154000722082209220A220B220C22010E161A27
:1031640020EE17F0070EDE6AE806FDE20D500E10A1
:103174000F1010101110121013101410D8B4C5EF42
:1031840018F0C7EF18F019EF19F0010E156ED5EF0E
:1031940018F0D8900D360E360F361036113612361A
:1031A40013361436152A14AEDAEF18F0DCEF18F0E3
:1031B400CBEF18F0D8901736183619361A361B3656
:1031C4001C361D361E360D50055C0E5006580F5029
:1031D4000758105008581150095812500A581350E3
:1031E4000B5814500C58D8A0FAEF18F0FCEF18F054
:1031F4000DEF19F00D50055E0E50065A0F50075A88
:103204001050085A1150095A12500A5A13500B5AA6
:1032140014500C5A1780D8901432133212321132CF
:1032240010320F320E320D32152EDCEF18F016501C
:10323400D8B41FEF19F021EF19F031EF19F01E1E69
:103244001D1E1C1E1B1E1A1E191E181E176C000E96
:10325400182219221A221B221C221D221E2217C0E8
:1032640005F018C006F019C007F01AC008F01BC01A
:1032740009F01CC00AF01DC00BF01EC00CF01200B7
:10328400000E166E0CBE4BEF19F049EF19F05DEF0E
:1032940019F00C1E0B1E0A1E091E081E071E061E10
:1032A400056C000E06220722082209220A220B229C
:1032B4000C22010E166E14BE64EF19F062EF19F0C1
:1032C40074EF19F0141E131E121E111E101E0F1E71
:1032D4000E1E0D6C000E0E220F221022112212223D
:1032E400132214220D500E100F1010101110121072
:1032F40013101410D8B481EF19F083EF19F0CBEF49
:1033040019F0010E156E91EF19F0D8900D360E36A6
:103314000F3610361136123613361436152A14AEFB
:1033240096EF19F098EF19F087EF19F00D50055C3E
:103334000E5006580F50075810500858115009588D
:1033440012500A5813500B5814500C58D8A0ADEF13
:1033540019F0AFEF19F0BFEF19F00D50055E0E50E4
:10336400065A0F50075A1050085A1150095A125051
:103374000A5A13500B5A14500C5AD8901432133260
:103384001232113210320F320E320D32152E98EFE6
:1033940019F01650D8B4D1EF19F0D3EF19F0E3EFC8
:1033A40019F00C1E0B1E0A1E091E081E071E061EFF
:1033B400056C000E06220722082209220A220B228B
:1033C4000C2205C005F006C006F007C007F008C0CF
:1033D40008F009C009F00AC00AF00BC00BF00CC0D9
:1033E4000CF0120041344234486E4850D8A4FDEF2A
:1033F40019F0FFEF19F009EF1AF0000E3F6E000EFE
:10340400406E000E416E000E426E76EF1AF03FC021
:1034140043F040C044F041C045F042C046F0200EA5
:1034240019EF1AF0D8904632453244324332E82E2E
:1034340014EF1AF04350476E418EFF0E3F16FF0EF5
:103444004016FF0E4116000E4216960E485E48BE08
:1034540030EF1AF02EEF1AF046EF1AF04850800AB7
:10346400970FD8B038EF1AF03AEF1AF03CEF1AF091
:10347400FFEF19F0D8904232413240323F32483E99
:103484003CEF1AF05EEF1AF01F0E48644CEF1AF08E
:103494004EEF1AF056EF1AF0FFEF19F0D8903F36BE
:1034A40040364136423648064850D8A45CEF1AF0FC
:1034B4005EEF1AF050EF1AF04750D8B464EF1AF0E8
:1034C40066EF1AF06EEF1AF0421E411E401E3F6C6A
:1034D400000E4022412242223FC03FF040C040F053
:1034E40041C041F042C042F01200000E05140D6EBE
:1034F400000E06140E6E800E07140F6E7F0E081455
:10350400106E0D500E100F101010D8A48CEF1AF07E
:103514008EEF1AF096EF1AF0000E056E000E066E8E
:10352400000E076E000E086E000E09140D6E000EDC
:103534000A140E6E800E0B140F6E7F0E0C14106E98
:103544000D500E100F101010D8A4ABEF1AF0ADEF01
:103554001AF0B5EF1AF0000E096E000E0A6E000E96
:103564000B6E000E0C6E08AEBAEF1AF0BCEF1AF038
:10357400C5EF1AF0056C061ED8B0062A071ED8B08F
:10358400072A800E08560CAECAEF1AF0CCEF1AF0D8
:10359400D5EF1AF0096C0A1ED8B00A2A0B1ED8B04F
:1035A4000B2A800E0C56000E051A000E061A000E89
:1035B400071A800E081A000E091A000E0A1A000EC5
:1035C4000B1A800E0C1A0950055C0A5006580B5051
:1035D40007580C500858D8B0F2EF1AF0F4EF1AF06C
:1035E400F7EF1AF0D890F8EF1AF0D88012000750CD
:1035F4000810D8B400EF1BF002EF1BF00BEF1BF028
:1036040007500810D8A409EF1BF00BEF1BF010EFC4
:103614001BF00550ECEC1FF05DEF1BF020EE04F006
:103624000750D9260850DA22DE50DE10D8B41DEF38
:103634001BF01FEF1BF03AEF1BF020EE04F00750D5
:10364400D9260850DA2210EE02F00750E12608507D
:10365400E222DE50E65CE650800A0D6EDE50800AFF
:103664000D58D8B038EF1BF03AEF1BF05DEF1BF0AC
:1036740020EE02F00750D9260850DA22DECF09F0F6
:10368400DDCF0AF007C0D9FF08C0DAFFDECF0BF0A8
:10369400DDCF0CF009500B24D96E0A500C20DA6EE1
:1036A40005C0DFFF20EE02F00750D9260850DA22C9
:1036B400DE2A000EDD2212000001F4A164EF1BF0EB
:1036C40066EF1BF070EF1BF017C00EF018C00FF080
:1036D40015C010F016C011F023EC1EF01ABE75EFE1
:1036E4001BF077EF1BF07DEF1BF019C01EF01AC022
:1036F4001FF081EF1BF0000E1F6E000E1E6E000EF9
:103704001D6E000E1C6E93EF1BF0000E066E200E55
:10371400056E15C007F016C008F0F9EC1AF01C4A43
:103724001D2A1E501C5C1D50800A1B6E1F50800AEF
:103734001B58D8A0A0EF1BF0A2EF1BF087EF1BF0E3
:103744000001F4B1A8EF1BF0AAEF1BF0B4EF1BF0DB
:1037540017C00EF018C00FF015C010F016C011F00D
:1037640023EC1EF017C005F018C006F0C3EC1EF0E1
:103774001E500524156E1F500620166E1200000EF2
:1037840005140D6E000E06140E6E800E07140F6ED7
:103794007F0E0814106E0D500E100F101010D8A4C8
:1037A400D6EF1BF0D8EF1BF0E0EF1BF0000E056E18
:1037B400000E066E000E076E000E086E000E091451
:1037C4000D6E000E0A140E6E800E0B140F6E7F0E1B
:1037D4000C14106E0D500E100F101010D8A4F5EF2D
:1037E4001BF0F7EF1BF0FFEF1BF0000E096E000E4D
:1037F4000A6E000E0B6E000E0C6E095005180FE1D8
:103804000A5006180CE10B50071809E10C5008186F
:10381400D8B40FEF1CF011EF1CF014EF1CF0D8908B
:1038240015EF1CF0D88012009F01850358012B016D
:103834006904AA0100015304AE0103026705F501FE
:10384400DB01CA04E101BD01E50379019F0189059A
:103854002F0217022C0679029904F400B70091098B
:103864009E002C01C906A800EB009C069300EF0003
:10387400F009FA004E016E09ED00F800F909B100F3
:103884003C01AD08E9004F01100A1601870132031B
:103894007E01C1002F006E05070351097C061B033E
:1038A40086068A0457026F0AC105E102250B6F05DB
:1038B40013037609DF033402B108E30514038E0A07
:1038C400760678032F00170012008BEC1DF010C051
:1038D400D9FF11C0DAFF09C0DEFF0AC0DDFF150EF3
:1038E400126EC60EE82EFED7122EFCD700D03BEC8B
:1038F4001DF020EE02F01050D9261150DA2209C032
:10390400DEFF0AC0DDFF150E126EC60EE82EFED7CE
:10391400122EFCD700D063EC1DF020EE04F0105002
:10392400D9261150DA2209C0DEFF0AC0DDFF150EC8
:10393400126EC60EE82EFED7122EFCD700D0B3ECC2
:103944001DF020EE06F01050D9261150DA2209C0DD
:10395400DEFF0AC0DDFF150E126EC60EE82EFED77E
:10396400122EFCD700D012006EC04EF06FC04FF084
:10397400000E0001EF6F000EEE6FD4EF1CF06CC070
:1039840044F06DC045F04E0E466E000E476E70C09A
:1039940048F071C049F09AEC13F044500001EE274E
:1039A4004550EF234EC0F6FF4FC0F7FF000EF86EF0
:1039B4000800F5500009D8A4E2EF1CF0E4EF1CF075
:1039C400C1EF1CF0EEC06CF0EFC06DF01200760E8B
:1039D40000017A6F000E7B6F72C07CF073C07DF0C3
:1039E400000E7F6F000E7E6F000E816F000E806FE1
:1039F4007C0E6C6F000E6D6F74C06EF075C06FF04E
:103A04007A0E706F000E716FB6EC1CF000017E51DF
:103A14007225D96E7F517321DA6E000EDF6E1200AB
:103A2400010E0B6E200E05180610D8B41CEF1DF005
:103A34001EEF1DF037EF1DF0F70E076EFF0E086E38
:103A440005C009F006C00AF00750092608500A22EA
:103A54000A5009E1050E095CD8A033EF1DF035EFDB
:103A64001DF037EF1DF0000E0B6E0BC005F0066A5B
:103A74001200E7EC1FF0520ED1EC1FF0B60ED1ECA1
:103A84001FF0DDEC1FF0530ED1EC1FF0010E45ECDE
:103A94001EF00B6E0B500E6E0F6A000E45EC1EF0FE
:103AA4000B6E0B500D6E0C6A0E500C100E6E0F50F8
:103AB4000D100F6EE2EC1FF00EC009F00FC00AF0FB
:103AC4001200E7EC1FF0520ED1EC1FF0B80ED1EC4F
:103AD4001FF0DDEC1FF0530ED1EC1FF0010E45EC8E
:103AE4001EF00B6E0B500E6E0F6A000E45EC1EF0AE
:103AF4000B6E0B500D6E0C6A0E500C100E6E0F50A8
:103B04000D100F6EE2EC1FF00EC009F00FC00AF0AA
:103B14001200E7EC1FF0520ED1EC1FF0B40ED1EC02
:103B24001FF0DDEC1FF0530ED1EC1FF0010E45EC3D
:103B34001EF00B6E0B500E6E0F6A000E45EC1EF05D
:103B44000B6E0B500D6E0C6A0E500C100E6E0F5057
:103B54000D100F6EE2EC1FF00EC009F00FC00AF05A
:103B64001200E7EC1FF0520ED1EC1FF0BA0ED1ECAC
:103B74001FF0DDEC1FF0530ED1EC1FF0010E45ECED
:103B84001EF00B6E0B500E6E0F6A000E45EC1EF00D
:103B94000B6E0B500D6E0C6A0E500C100E6E0F5007
:103BA4000D100F6EE2EC1FF00EC009F00FC00AF00A
:103BB40012002C0EF66E380EF76E000EF86E01EE43
:103BC40000F010EEA2F00900F5CFEEFFE550E15051
:103BD400FAE101EEA2F05C0EEE6AE806FDE100EE09
:103BE400D8F01E0EEE6AE806FDE1556A546A536A7F
:103BF400526A569056920001B3EF0AF0000E3B1A37
:103C0400000E3C1A000E3D1A800E3E1A37C005F015
:103C140038C006F039C007F03AC008F03BC009F0DC
:103C24003CC00AF03DC00BF03EC00CF058EC0DF067
:103C340005C037F006C038F007C039F008C03AF0C4
:103C44001200000E146E000E136E34EF1EF012C03C
:103C540005F0066A10C007F011C008F0F9EC1AF07C
:103C6400134A142A13500E24D96E14500F20DA6EFE
:103C7400DF50126E1250D8A442EF1EF044EF1EF033
:103C840029EF1EF01200076E65EC1FF00E01DA87B3
:103C940065EC1FF0D5CE08F065EC1FF00750D8B4E2
:103CA40056EF1EF05AEF1EF0066A062A5BEF1EF06E
:103CB400066A063A06460E01DA510618DF0B0618A4
:103CC400DA6FDA89085012008594839E879C859860
:103CD4007D947B9E7F9C7D98BD508F0B4009BD6E6B
:103CE400E00EBE16BF50F00B0109BF6E630EBC6E32
:103CF400BD8E0A0E0E01746F0B0E696F000EA36E5B
:103D0400000EA06EA48EA18E120018BE94EF1EF0B9
:103D1400185006E11704D8B092EF1EF094EF1EF08D
:103D2400A2EF1EF017C019F018C01AF0191E1A1EBF
:103D3400194A1A2A19C017F01AC018F0A6EF1EF073
:103D440017C017F018C018F01200D00E076EFF0E3F
:103D5400086E05C009F006C00AF00750092608508D
:103D64000A220A500AE10A0E095CD8A0BCEF1EF030
:103D7400BFEF1EF0010EC0EF1EF0000E056E066AC6
:103D8400120005C007F006C008F0CBEF1EF0054A8C
:103D9400062A05C0D9FF06C0DAFFDF50D8A4D5EF44
:103DA4001EF0D7EF1EF0C9EF1EF00750055C056E3C
:103DB40008500658066E120026EC1FF0010E076E1E
:103DC400000E9CEC1FF03F0E096E550EE82EFED738
:103DD400092EFCD700F0030E076E000E9CEC1FF0BA
:103DE400D50E076E010E9CEC1FF0120003EF1FF0BE
:103DF40006C0D9FF07C0DAFFDF503BEC1FF0064ACC
:103E0400072A06C0D9FF07C0DAFFDF50D8A40DEF98
:103E14001FF00FEF1FF0FAEF1EF012003B0E52647A
:103E240016EF1FF018EF1FF01AEF1FF0000E526E7E
:103E3400522A5204016E026AA20E0124D96E010EA6
:103E44000220DA6EDF5012000E01D951F00B08097E
:103E5400D96FD98B9F0ED66F848A848CA79BA79D1C
:103E64001D0E1D6F1E0E1C6F1C0E6F6F1B0E706FD0
:103E74001200056E3B0E536442EF1FF044EF1FF037
:103E840046EF1FF0000E536EA20E5324D96EDA6A69
:103E9400010EDA2205C0DFFF532A1200016E130E51
:103EA400556457EF1FF059EF1FF05BEF1FF0000E42
:103EB400556ED80E5524D96EDA6A000EDA2201C086
:103EC400DFFF552A12000E01D8B56BEF1FF06DEF1E
:103ED4001FF065EF1FF0DACE05F01F0E0516D8A40B
:103EE40076EF1FF078EF1FF065EF1FF0120005501A
:103EF4000702F3CF09F0F4CF0AF005500802F3509B
:103F04000A2606500702F3500A2609C005F00AC023
:103F140006F01200120E0E01626F110E156F8382ED
:103F2400E997E895330EE56F000EE66FE789E88BB5
:103F3400E78F1200086EE7EC1FF0520ED1EC1FF071
:103F440008508009D1EC1FF00750D1EC1FF0E2ECCF
:103F54001FF01200B9EC1FF00009D8B4B4EF1FF041
:103F6400B6EF1FF0B8EF1FF00E012D85120052506E
:103F74005318D8A4C0EF1FF0C3EF1FF0010EC4EF15
:103F84001FF0000E120052505318D8A4CCEF1FF0AB
:103F9400CFEF1FF0010ED0EF1FF0000E1200066EDF
:103FA40065EC1FF006C0D5FE1200F28C0E012D87C1
:103FB4002D95F28E120065EC1FF00E01DA831200CB
:103FC40065EC1FF00E01DA85120065EC1FF00E019E
:063FD400DA811200120068
:020000040020DA
:10000000FF0FFF0FFF0FFF0FFF0FFF0FFF0FFF0F80
:020000040030CA
:0C000000AAFFFFFF9FFFFFFFFFFFFFFFB5
:00000001FF
