:0400000014EF00F009
:100008005F820E0133AB0BEF00F00DEF00F012EF43
:1000180000F0000ED46E000ED36E339B5F92110079
:1000280099EF1BF0000E0001736F090E726F590EE5
:100038002C6E170E2D6E370E2E6E3F0E2F6E20EE85
:1000480010F05B50D9265C50DA22DECF60F0DDCFAD
:1000580061F060C001F061C002F0036A046A000E3A
:10006800C4EC12F001C028F002C029F003C02AF045
:1000780004C02BF014EC0CF028C045F029C046F061
:100088002AC047F02BC048F0D00E2C6EB30E2D6E50
:10009800590E2E6E3E0E2F6E20EE0EF05B50D926B6
:1000A8005C50DA22DECF62F0DDCF63F062C001F08F
:1000B80063C002F0036A046A000EC4EC12F001C0C7
:1000C80028F002C029F003C02AF004C02BF014EC79
:1000D8000CF028C041F029C042F02AC043F02BC0E0
:1000E80044F0B4EC09F041C068F042C069F043C084
:1000F8006AF044C06BF0980E2C6EDD0E2D6E930ED8
:100108002E6E3D0E2F6E20EE12F05B50D9265C50FD
:10011800DA22DECF60F0DDCF61F060C001F061C0AF
:1001280002F0036A046A000EC4EC12F001C028F061
:1001380002C029F003C02AF004C02BF014EC0CF024
:1001480028C045F029C046F02AC047F02BC048F027
:1001580068C041F069C042F06AC043F06BC044F027
:10016800B4EC09F041C051F042C052F043C053F022
:1001780044C054F0B8EC16F051C074F052C075F099
:10018800000E2C6E400E2D6E1C0E2E6E460E2F6E1F
:100198005BC0D9FF5CC0DAFFDECF60F0DDCF61F075
:1001A80020EE06F05B50D9265C50DA22DECF62F0F2
:1001B800DDCF63F000016051625F6151635B62C033
:1001C80001F063C002F0036A046A000EC4EC12F086
:1001D80001C013F002C014F003C015F004C016F0FB
:1001E8005BC0D9FF5CC0DAFFDECF64F0DDCF65F01D
:1001F80020EE0EF05B50D9265C50DA22DECF66F096
:10020800DDCF67F000016451665F6551675B66C0CA
:1002180001F067C002F0036A046A000EC4EC12F031
:1002280001C00FF002C010F003C011F004C012F0BA
:100238000DEC10F00FC028F010C029F011C02AF002
:1002480012C02BF014EC0CF028C051F029C052F069
:100258002AC053F02BC054F0B8EC16F051C06CF023
:1002680052C06DF0000E2C6E400E2D6E1C0E2E6EC0
:10027800460E2F6E20EE02F05B50D9265C50DA2233
:10028800DECF60F0DDCF61F020EE08F05B50D926BC
:100298005C50DA22DECF62F0DDCF63F000016051FE
:1002A800625F6151635B62C001F063C002F0036A80
:1002B800046A000EC4EC12F001C013F002C014F07E
:1002C80003C015F004C016F020EE02F05B50D926EA
:1002D8005C50DA22DECF64F0DDCF65F020EE10F05E
:1002E8005B50D9265C50DA22DECF66F0DDCF67F0AE
:1002F80000016451665F6551675B66C001F067C0C5
:1003080002F0036A046A000EC4EC12F001C00FF098
:1003180002C010F003C011F004C012F00DEC10F090
:100328000FC028F010C029F011C02AF012C02BF01D
:1003380014EC0CF028C051F029C052F02AC053F038
:100348002BC054F0B8EC16F051C06EF052C06FF0EC
:10035800000E2C6E400E2D6E1C0E2E6E460E2F6E4D
:1003680020EE04F05B50D9265C50DA22DECF60F034
:10037800DDCF61F020EE0AF05B50D9265C50DA221E
:10038800DECF62F0DDCF63F000016051625F615142
:10039800635B62C001F063C002F0036A046A000E86
:1003A800C4EC12F001C013F002C014F003C015F041
:1003B80004C016F020EE04F05B50D9265C50DA2217
:1003C800DECF64F0DDCF65F020EE12F05B50D92669
:1003D8005C50DA22DECF66F0DDCF67F000016451B1
:1003E800665F6551675B66C001F067C002F0036A2B
:1003F800046A000EC4EC12F001C00FF002C010F045
:1004080003C011F004C012F00DEC10F00FC028F07A
:1004180010C029F011C02AF012C02BF014EC0CF017
:1004280028C051F029C052F02AC053F02BC054F014
:10043800B8EC16F051C070F052C071F06CC001F009
:100448006DC002F0036A046A000EC4EC12F001C029
:100458000FF002C010F003C011F004C012F06EC01B
:1004680001F06FC002F0036A046A000EC4EC12F0D7
:1004780001C013F002C014F003C015F004C016F058
:100488000DEC10F00FC076F010C077F011C078F0C6
:1004980012C079F06CC001F06DC002F0036A046A02
:1004A800000EC4EC12F001C00FF002C010F003C03F
:1004B80011F004C012F070C001F071C002F0036ABC
:1004C800046A000EC4EC12F001C013F002C014F06C
:1004D80003C015F004C016F00DEC10F00FC07AF050
:1004E80010C07BF011C07CF012C07DF070C001F02C
:1004F80071C002F0036A046A000EC4EC12F001C075
:100508000FF002C010F003C011F004C012F06EC06A
:1005180001F06FC002F0036A046A000EC4EC12F026
:1005280001C013F002C014F003C015F004C016F0A7
:100538000DEC10F00FC07EF010C07FF011C080F0FD
:1005480012C081F0000179BFAEEF02F0ACEF02F00B
:10055800B6EF02F0000E766F000E776F000E786F20
:10056800000E796F7DBFBDEF02F0BBEF02F0C5EF63
:1005780002F0000E7A6F000E7B6F000E7C6F000E8B
:100588007D6F81BFCCEF02F0CAEF02F0D4EF02F02A
:10059800000E7E6F000E7F6F000E806F000E816F61
:1005A80076C00DF077C00EF078C00FF079C010F06B
:1005B800330E116E330E126EA30E136E400E146EB0
:1005C800000E156E000E166EA40E176E410E186EF4
:1005D800F6EC18F00D040E10D8A4F5EF02F0F7EFC2
:1005E80002F04DEF03F07AC00DF07BC00EF07CC036
:1005F8000FF07DC010F0CD0E116ECC0E126E0C0EE9
:10060800136E400E146E330E156E330E166E730E87
:10061800176E400E186EF6EC18F00D040E10D8A4E4
:1006280018EF03F01AEF03F04DEF03F07EC00DF062
:100638007FC00EF080C00FF081C010F0660E116E02
:10064800660E126EE60E136E3F0E146E000E156ED9
:10065800000E166EB00E176E400E186EF6EC18F0FF
:100668000D040E10D8A43BEF03F03DEF03F04DEF5F
:1006780003F0210E0001745D030E7559D8A047EFF1
:1006880003F049EF03F04DEF03F0000E736F000E17
:10069800726F76C00DF077C00EF078C00FF079C099
:1006A80010F0CD0E116ECC0E126E4C0E136E3E0E67
:1006B800146E480E156EE10E166EFA0E176E3E0E8B
:1006C800186EF6EC18F00D040E10D8A46EEF03F0B7
:1006D80070EF03F0C6EF03F07AC00DF07BC00EF0A8
:1006E8007CC00FF07DC010F0290E116E5C0E126EEA
:1006F8008F0E136E3E0E146E3D0E156E0A0E166E9C
:10070800170E176E3F0E186EF6EC18F00D040E104B
:10071800D8A491EF03F093EF03F0C6EF03F07EC087
:100728000DF07FC00EF080C00FF081C010F0330EC6
:10073800116E330E126E330E136E3F0E146E660E6C
:10074800156E660E166E660E176E3F0E186EF6EC78
:1007580018F00D040E10D8A4B4EF03F0B6EF03F0B0
:10076800C6EF03F0440E0001745D030E7559D8A05E
:10077800C0EF03F0C2EF03F0C6EF03F0000E736F93
:10078800010E726F76C00DF077C00EF078C00FF0D2
:1007980079C010F0CD0E116ECC0E126ECC0E136E09
:1007A8003D0E146ECD0E156ECC0E166E0C0E176E19
:1007B8003F0E186EF6EC18F00D040E10D8A4E7EFF3
:1007C80003F0E9EF03F03FEF04F07AC00DF07BC0CF
:1007D8000EF07CC00FF07DC010F0CD0E116ECC0E67
:1007E800126ECC0E136E3D0E146E140E156EAE0EF8
:1007F800166EC70E176E3E0E186EF6EC18F00D0446
:100808000E10D8A40AEF04F00CEF04F03FEF04F048
:100818007EC00DF07FC00EF080C00FF081C010F0D8
:10082800000E116E000E126E800E136E3F0E146EC7
:100838009A0E156E990E166E990E176E3F0E186E5B
:10084800F6EC18F00D040E10D8A42DEF04F02FEFDD
:1008580004F03FEF04F0210E0001745D030E75599A
:10086800D8A039EF04F03BEF04F03FEF04F0000E9E
:10087800736F020E726F76C00DF077C00EF078C0FD
:100888000FF079C010F09A0E116E990E126E990E33
:10089800136E3F0E146E330E156E330E166EB30EB6
:1008A800176E3F0E186EF6EC18F00D040E10D8A453
:1008B80060EF04F062EF04F0B8EF04F07AC00DF0D6
:1008C8007BC00EF07CC00FF07DC010F0000E116EE2
:1008D800000E126EC00E136E3F0E146EEC0E156EE7
:1008E800510E166ED80E176E3F0E186EF6EC18F0F5
:1008F8000D040E10D8A483EF04F085EF04F0B8EFD0
:1009080004F07EC00DF07FC00EF080C00FF081C0F3
:1009180010F0CD0E116ECC0E126E4C0E136E3F0EF3
:10092800146E660E156E660E166E660E176E3F0E08
:10093800186EF6EC18F00D040E10D8A4A6EF04F00B
:10094800A8EF04F0B8EF04F0530E0001745D030E35
:100958007559D8A0B2EF04F0B4EF04F0B8EF04F082
:10096800000E736F030E726F76C00DF077C00EF035
:1009780078C00FF079C010F0140E116EAE0E126E22
:10098800C70E136E3F0E146E710E156E3D0E166E69
:10099800EA0E176E3F0E186EF6EC18F00D040E10E6
:1009A800D8A4D9EF04F0DBEF04F031EF05F07AC0FA
:1009B8000DF07BC00EF07CC00FF07DC010F0A40ECF
:1009C800116E700E126E9D0E136E3F0E146E000E99
:1009D800156E000E166EC00E176E3F0E186EF6ECF2
:1009E80018F00D040E10D8A4FCEF04F0FEEF04F08C
:1009F80031EF05F07EC00DF07FC00EF080C00FF023
:100A080081C010F0330E116E330E126E930E136EFA
:100A18003F0E146E660E156E660E166EA60E176ED7
:100A28003F0E186EF6EC18F00D040E10D8A41FEF48
:100A380005F021EF05F031EF05F03F0E0001745D80
:100A4800030E7559D8A02BEF05F02DEF05F031EF07
:100A580005F0000E736F040E726F76C00DF077C04C
:100A68000EF078C00FF079C010F0660E116E660EA9
:100A7800126E460E136E400E146E330E156E330E44
:100A8800166E9B0E176E400E186EF6EC18F00D04DD
:100A98000E10D8A452EF05F054EF05F0AAEF05F0B8
:100AA8007AC00DF07BC00EF07CC00FF07DC010F056
:100AB800CD0E116ECC0E126E0C0E136E400E146E0F
:100AC800B80E156E1E0E166E350E176E400E186E89
:100AD800F6EC18F00D040E10D8A475EF05F077EFBA
:100AE80005F0AAEF05F07EC00DF07FC00EF080C0C3
:100AF8000FF081C010F05C0E116E8F0E126EA20EF8
:100B0800136E3F0E146E660E156E660E166EE60EAA
:100B1800176E3F0E186EF6EC18F00D040E10D8A4E0
:100B280098EF05F09AEF05F0AAEF05F0350E0001F1
:100B3800745D030E7559D8A0A4EF05F0A6EF05F073
:100B4800AAEF05F0000E736F050E726F76C00DF0F8
:100B580077C00EF078C00FF079C010F09A0E116EC1
:100B6800990E126E190E136E3F0E146EF60E156E58
:100B7800280E166E5C0E176E3F0E186EF6EC18F007
:100B88000D040E10D8A4CBEF05F0CDEF05F023EF40
:100B980006F07AC00DF07BC00EF07CC00FF07DC06F
:100BA80010F09A0E116E990E126E190E136E3F0EFA
:100BB800146E9A0E156E990E166E590E176E3F0E1C
:100BC800186EF6EC18F00D040E10D8A4EEEF05F030
:100BD800F0EF05F023EF06F07EC00DF07FC00EF0B9
:100BE80080C00FF081C010F0330E116E330E126EFC
:100BF800730E136E3F0E146E290E156E5C0E166E74
:100C08008F0E176E3F0E186EF6EC18F00D040E10CE
:100C1800D8A411EF06F013EF06F023EF06F0350E17
:100C28000001745D030E7559D8A01DEF06F01FEF83
:100C380006F023EF06F0000E736F060E726F76C093
:100C48000DF077C00EF078C00FF079C010F0660E86
:100C5800116E660E126E660E136E3F0E146ECD0E7A
:100C6800156ECC0E166E8C0E176E3F0E186EF6ECC7
:100C780018F00D040E10D8A444EF06F046EF06F065
:100C88009CEF06F07AC00DF07BC00EF07CC00FF030
:100C98007DC010F0CD0E116ECC0E126E4C0E136E80
:100CA8003F0E146E000E156E000E166E800E176E37
:100CB8003F0E186EF6EC18F00D040E10D8A467EF6E
:100CC80006F069EF06F09CEF06F07EC00DF07FC0DD
:100CD8000EF080C00FF081C010F0330E116E330E8D
:100CE800126E730E136E3F0E146ECD0E156ECC0E73
:100CF800166E8C0E176E3F0E186EF6EC18F00D047B
:100D08000E10D8A48AEF06F08CEF06F09CEF06F0E0
:100D18007B0E0001745D030E7559D8A096EF06F09E
:100D280098EF06F09CEF06F0000E736F070E726FD7
:100D380000016D5107E1320E6C5DD8B0A6EF06F0E8
:100D4800A8EF06F0C2EF06F06F5107E1320E6E5DB4
:100D5800D8B0B1EF06F0B3EF06F0C2EF06F071516C
:100D680007E1320E705DD8B0BCEF06F0BEEF06F0BA
:100D7800C2EF06F0000E736F080E726F72C05BF060
:100D880073C05CF01200000E026E630E016E01EC7F
:100D98001BF043EC1BF0AAEC1BF0CAEC1BF0DEECDA
:100DA8001BF0000E0001A66F010EA76FA30EA86F1F
:100DB8000F0EA96F7D0EAA6F0F0EAB6F040EAC6FEE
:100DC800000EAE6F630EAD6F000EAF6F010EB06F09
:100DD800A00EB16F0F0EB26F7F0EB36F0F0EB46F10
:100DE800060EB56F000EB76F630EB66F000E9F6FDD
:100DF800000E9E6F000EA16F000EA06F000EA36F75
:100E0800000EA26F000EA56F000EA46F86840E015F
:100E1800B4958686B4977F828792798881987E8EEA
:100E2800869E849E7C9E88968096000E0001836F25
:100E3800000E826F7BEF07F07C8E8EB426EF07F0F2
:100E480028EF07F021EF07F08EB42DEF07F02FEF12
:100E580007F041EF07F07C9E920E0C6E000E0D6EAF
:100E6800B9EC1AF0190E5E6E5A0E5D6EB20EE82ECF
:100E7800FED75D2EFCD75E2EFAD77C8E8EB447EF58
:100E880007F049EF07F042EF07F08EB44EEF07F096
:100E980050EF07F062EF07F07C9E920E0C6E000E8A
:100EA8000D6EDEEC1AF0190E5E6E5A0E5D6EB20E05
:100EB800E82EFED75D2EFCD75E2EFAD780868EB63A
:100EC80068EF07F06AEF07F063EF07F08EB66FEF91
:100ED80007F071EF07F07BEF07F08096000ED46EF5
:100EE800000ED36E000E0001836F010E826F0001A9
:100EF80082518311D8B483EF07F085EF07F020EF14
:100F080007F0000E896F090E886F000E8B6F090EAF
:100F18008A6F000E8D6F090E8C6F000E856F090E9B
:100F2800846F000E8F6F000E8E6F000E876F010E9C
:100F3800866F920E0C6E000E0D6E6DEC19F00001AE
:100F48008E518F11D8A4ABEF07F0ADEF07F0B7EFD4
:100F580007F0920E5B6E000E5C6E16EC00F05BC044
:100F680088F05CC089F000018E058F11D8A4BFEF0E
:100F780007F0C1EF07F0CBEF07F0920E5B6E000EA3
:100F88005C6E16EC00F05BC08AF05CC08BF0020E61
:100F980000018E198F11D8A4D4EF07F0D6EF07F00F
:100FA800E0EF07F0920E5B6E000E5C6E16EC00F040
:100FB8005BC08CF05CC08DF0030E00018E198F11A0
:100FC800D8A4E9EF07F0EBEF07F0FCEF07F0920E7B
:100FD8005B6E000E5C6E16EC00F05BC084F05CC0CB
:100FE80085F0000E00018F6F000E8E6FFEEF07F088
:100FF8008E4B8F2B8A51881907E18B518919D8A4F8
:1010080008EF08F00AEF08F077EF08F08C518A191A
:1010180007E18D518B19D8A414EF08F016EF08F0EA
:1010280077EF08F084518C1907E185518D19D8A400
:1010380020EF08F022EF08F077EF08F088C090F072
:1010480089C091F0915107E1080E905DD8B02FEF5B
:1010580008F031EF08F04CEF08F090C001F091C0B3
:1010680002F0D20E036E000E046ECCC005F0CDC0A7
:1010780006F0E60E076E000E086E9EEC19F00001F1
:10108800CC4BCD2B000E876F010E866F67EF08F0F3
:10109800090E90199111D8A454EF08F056EF08F0F2
:1010A80067EF08F086058711D8A45DEF08F05FEFB9
:1010B80008F067EF08F0000ED46E000ED36E000E35
:1010C800876F000E866F000E896F090E886F000EFD
:1010D8008B6F090E8A6F000E8D6F090E8C6F000ED4
:1010E800856F090E846F90519111D8A47EEF08F096
:1010F80080EF08F096EF08F0A60E1D6E000E1E6E2B
:10110800AF0E1F6E000E206EDDEC14F0090E5E6E41
:101118001E0E5D6EE40EE82EFED75D2EFCD75E2E09
:10112800FAD700D0000190059111D8A49EEF08F0DD
:10113800A0EF08F0B6EF08F0A60E1D6E000E1E6EAA
:10114800AF0E1F6E000E206E9EEC13F0090E5E6E41
:101158001E0E5D6EE40EE82EFED75D2EFCD75E2EC9
:10116800FAD700D0020E000190199111D8A4BFEF50
:1011780008F0C1EF08F0D7EF08F0A60E1D6E000EBC
:101188001E6EAF0E1F6E000E206E3EEC14F0090EA0
:101198005E6E1E0E5D6EE40EE82EFED75D2EFCD749
:1011A8005E2EFAD700D0030E000190199111D8A431
:1011B800E0EF08F0E2EF08F0F8EF08F0A60E256E71
:1011C800000E266EAF0E276E000E286EBDEC17F0CF
:1011D800090E5E6E1E0E5D6EE40EE82EFED75D2EC5
:1011E800FCD75E2EFAD700D0040E00019019911199
:1011F800D8A401EF09F003EF09F019EF09F0A60EE2
:10120800256E000E266EAF0E276E000E286E33EC8C
:1012180018F0090E5E6E1E0E5D6EE40EE82EFED707
:101228005D2EFCD75E2EFAD700D0050E000190196E
:101238009111D8A422EF09F024EF09F03AEF09F050
:10124800A60E1D6E000E1E6EAF0E1F6E000E206ED7
:101258007CEC15F0090E5E6E1E0E5D6EE40EE82E37
:10126800FED75D2EFCD75E2EFAD700D0060E000101
:1012780090199111D8A443EF09F045EF09F05BEFFD
:1012880009F0A60E1D6E000E1E6EAF0E1F6E000E2C
:10129800206E1AEC16F0090E5E6E1E0E5D6EE40EE0
:1012A800E82EFED75D2EFCD75E2EFAD700D0070EAB
:1012B800000190199111D8B464EF09F066EF09F0B4
:1012C80070EF09F0080E90199111D8A46EEF09F08B
:1012D80070EF09F09BEF09F0A60E2B6E000E2C6E36
:1012E800AF0E2D6E000E2E6ED20E2F6E000E306ECB
:1012F800CCC031F0CDC032F0E60E336E000E346E45
:1013080029EC0EF0090E5E6E1E0E5D6EE40EE82EE0
:10131800FED75D2EFCD75E2EFAD700D07C8E808655
:101328008EB699EF09F09BEF09F094EF09F0090EDA
:10133800000190199111D8A4A4EF09F0A6EF09F0C3
:101348009DEF07F0A60E196E000E1A6EAF0E1B6EFB
:10135800000E1C6EF0EC19F09DEF07F014EF00F092
:101368004450800B4D6E445044244F6E43AEBFEF43
:1013780009F0C1EF09F0C2EF09F04F804F50D8B41F
:10138800C8EF09F0CAEF09F0DFEF09F04F28D8A439
:10139800D0EF09F0D2EF09F0DAEF09F0000E416E54
:1013A800000E426E000E436E000E446E438E000E19
:1013B800446EE7EF09F0000E416E000E426E000E1B
:1013C800436E000E446E4850800B4E6E4D504E18C2
:1013D800D8B4F1EF09F0F3EF09F0F4EF09F04D8C10
:1013E800485048244E6E47AEFCEF09F0FEEF09F076
:1013F800FFEF09F04E804E50D8B405EF0AF007EF22
:101408000AF01CEF0AF04E28D8A40DEF0AF00FEFEF
:101418000AF017EF0AF0000E456E000E466E000E39
:10142800476E000E486E478E000E486E24EF0AF095
:10143800000E456E000E466E000E476E000E486E9A
:101448004F504E5CD8B02BEF0AF02DEF0AF054EF56
:101458000AF04DAC32EF0AF034EF0AF036EF0AF03A
:10146800800E4D1A4FC050F04EC04FF050C04EF095
:1014780041C050F045C041F050C045F042C050F066
:1014880046C042F050C046F043C050F047C043F059
:1014980050C047F044C050F048C044F050C048F035
:1014A800000E506E4F504EC049F04A6A495E000E19
:1014B8004A5A4ABE69EF0AF04A5009E11A0E495CD5
:1014C800D8A069EF0AF06BEF0AF0A2EF0AF04150DA
:1014D800421043104410D8A474EF0AF077EF0AF0D2
:1014E800010E78EF0AF0000E506E000E416E000EED
:1014F800426E000E436E000E446E4EC04FF0ABEFCE
:101508000AF050A08AEF0AF08CEF0AF092EF0AF086
:10151800D89050300109506E94EF0AF0D8905032AC
:1015280041A099EF0AF09BEF0AF09CEF0AF0508E69
:10153800443444324332423241324F2A4E504F5C97
:10154800D8A0A9EF0AF0ABEF0AF085EF0AF04DBC7E
:10155800B0EF0AF0B2EF0AF0F2EF0AF04F50D8A459
:10156800B8EF0AF0BAEF0AF0C4EF0AF0000E416EC5
:10157800000E426E000E436E000E446E13EF0CF028
:101588004550412646504222475043224850442263
:1015980044A0D1EF0AF0D3EF0AF07FEF0BF050A090
:1015A800D8EF0AF0DAEF0AF0E0EF0AF0D8905030FE
:1015B8000109506EE2EF0AF0D890503241A0E7EFEF
:1015C8000AF0E9EF0AF0EAEF0AF0508E44344432A8
:1015D8004332423241324F2A7FEF0BF04550415C93
:1015E80046504258475043584450800A496E485024
:1015F800800A4958D8B003EF0BF005EF0BF030EF35
:101608000BF04150455C496E425046584A6E435073
:1016180047584B6E445048584C6EFF0E4924416E53
:10162800FF0E4A20426EFF0E4B20436EFF0E4C20E9
:10163800446E800E4D1A506C5050D8A426EF0BF013
:1016480028EF0BF038EF0BF0010E4126000E422276
:101658004322442238EF0BF04550415E4650425A2F
:101668004750435A4850445A41504210431044107E
:10167800D8A441EF0BF043EF0BF078EF0BF050508C
:10168800D8A449EF0BF04BEF0BF078EF0BF0000EFE
:10169800416E000E426E000E436E000E446E13EF54
:1016A8000CF0D890413642364336443650AE5FEFA0
:1016B8000BF061EF0BF062EF0BF0418050A067EF89
:1016C8000BF069EF0BF06DEF0BF0D88050366FEF31
:1016D8000BF0D89050364F50D8B475EF0BF077EF29
:1016E8000BF078EF0BF04F0643AE7DEF0BF07FEF7A
:1016F8000BF055EF0BF0000E4E6E50AE86EF0BF070
:1017080088EF0BF0A0EF0BF050C049F07F0E4916A0
:10171800D8B491EF0BF093EF0BF097EF0BF0010EAD
:101728004E6EA0EF0BF041A09CEF0BF09EEF0BF07C
:10173800A0EF0BF093EF0BF04E50D8B4A6EF0BF0E0
:10174800A8EF0BF0D3EF0BF0010E4126000E42225A
:101758004322442244A0B3EF0BF0B5EF0BF0D3EFD4
:101768000BF041C049F042C04AF043C04BF044C0BE
:101778004CF04C344C324B324A32493249C041F079
:101788004AC042F04BC043F04CC044F04F28D8B494
:10179800D0EF0BF0D2EF0BF0D3EF0BF04F2A4F281E
:1017A800D8B4D9EF0BF0DBEF0BF0E3EF0BF04F50B1
:1017B800D8A4E1EF0BF0E3EF0BF0F5EF0BF0000E20
:1017C800416E000E426E000E436E000E446E4F5086
:1017D800D8A4F1EF0BF0F3EF0BF0F5EF0BF0000EE0
:1017E8004D6E4FA0FAEF0BF0FCEF0BF0FFEF0BF094
:1017F800438E00EF0CF0439ED8904F30446E4DAEB0
:1018080008EF0CF00AEF0CF00BEF0CF0448E41C01F
:1018180041F042C042F043C043F044C044F01200DB
:101828002B50800B346E2B502B243A6E2AAE1FEFB0
:101838000CF021EF0CF022EF0CF03A803A50D8B4BB
:1018480028EF0CF02AEF0CF03DEF0CF03A28D8A462
:1018580030EF0CF032EF0CF03AEF0CF0000E286E7F
:10186800000E296E000E2A6E000E2B6E2A8E45EF92
:101878000CF0000E286E000E296E000E2A6E000E67
:101888002B6E2F50800B341A2F502F24396E2EAE0A
:1018980050EF0CF052EF0CF053EF0CF03980395048
:1018A800D8B459EF0CF05BEF0CF06EEF0CF0392860
:1018B800D8A461EF0CF063EF0CF06BEF0CF0000EA6
:1018C8002C6E000E2D6E000E2E6E000E2F6E2E8EBC
:1018D80076EF0CF0000E2C6E000E2D6E000E2E6EA4
:1018E800000E2F6E3950D8B47CEF0CF07EEF0CF060
:1018F80086EF0CF03A50D8A484EF0CF086EF0CF089
:1019080090EF0CF0000E286E000E296E000E2A6E65
:10191800000E2B6E28EF0EF02E502802F3CF3FF06A
:10192800F4CF40F03F50356E366A376A386A405017
:101938003B6E3C6A3D6A3E6A2D502902F3CF3FF068
:10194800F4CF40F03F503526000E36223722382299
:1019580040503B26000E3C223D223E222C502A02BB
:10196800F3CF3FF0F4CF40F03F503526000E36223B
:101978003722382240503B26000E3C223D223E2290
:1019880037C038F036C037F035C036F0356A2C50DD
:101998002902F3CF3FF0F4CF40F03F5035264050B6
:1019A8003622000E3722000E38222D502802F3CF9F
:1019B8003FF0F4CF40F03F50352640503622000E1D
:1019C8003722000E382237C038F036C037F035C01D
:1019D80036F0356A2C502802F3CF3FF0F4CF40F0B0
:1019E8003F50352640503622000E3722000E38224E
:1019F8002E502902F3CF3FF0F4CF40F03F503B2662
:101A080040503C22000E3D22000E3E222D502A025C
:101A1800F3CF3FF0F4CF40F03F503B2640503C22FC
:101A2800000E3D22000E3E222E502A02F3CF3FF038
:101A3800F4CF40F03F50306E4050316E326A336A16
:101A480032C033F031C032F030C031F0306A30503B
:101A58003B2631503C2232503D2233503E2235C085
:101A680030F036C031F037C032F038C033F0190EDC
:101A780043EF0DF0D8903332323231323032E82E23
:101A88003EEF0DF030503B2631503C2232503D2283
:101A980033503E2237C038F036C037F035C036F004
:101AA800356A39503AC030F0316A3026000E31229A
:101AB800820E30243F6EFF0E3120406E79EF0DF01C
:101AC800D8903B363C363D363E3638AE6EEF0DF09C
:101AD80070EF0DF071EF0DF03B80D890353636364B
:101AE800373638363F06D8A040063DAE7EEF0DF0BB
:101AF80080EF0DF064EF0DF0000E396E38AE87EF11
:101B08000DF089EF0DF0ADEF0DF0FF0E3514306ECE
:101B1800FF0E3614316EFF0E3714326E7F0E3814F6
:101B2800336E3050311032103310D8B49EEF0DF0B0
:101B3800A0EF0DF0A4EF0DF0010E396EADEF0DF032
:101B48003BA0A9EF0DF0ABEF0DF0ADEF0DF0A0EF5E
:101B58000DF03950D8B4B3EF0DF0B5EF0DF0D9EF63
:101B68000DF0010E3B26000E3C223D223E223EA0F7
:101B7800C0EF0DF0C2EF0DF0D9EF0DF03BC030F023
:101B88003CC031F03DC032F03EC033F03334333224
:101B980032323132303230C03BF031C03CF032C0EA
:101BA8003DF033C03EF03F4A402A40BEE4EF0DF01E
:101BB800405008E13F28D8A0E4EF0DF0E6EF0DF023
:101BC800F0EF0DF0000E3B6E000E3C6E800E3D6E89
:101BD8007F0E3E6E1EEF0EF040BEFDEF0DF0405042
:101BE80006E13F04D8B0FBEF0DF0FDEF0DF009EF73
:101BF8000EF0000E3B6E000E3C6E000E3D6E000EA9
:101C08003E6E000E346E1EEF0EF03FC03AF0FF0E2F
:101C18003B16FF0E3C167F0E3D16000E3E163AA0F0
:101C280018EF0EF01AEF0EF01BEF0EF03D8ED89065
:101C38003A303E6E34503E123BC028F03CC029F08A
:101C48003DC02AF03EC02BF012002BC019F02CC06A
:101C58001AF02DC01BF02EC01CF0A9EC18F02BC0F8
:101C68001DF02CC01EF02DC01FF02EC020F03EEC41
:101C780014F0520E366E2B0E356E000EE82EFED77F
:101C8800352EFCD7362EFAD700D0000E3E6E000E49
:101C98003D6EF7EF0FF03D50315C356E3E503258D7
:101CA800366ED890353636362FC037F030C038F01B
:101CB8003550372636503822FE0E3724D96EFF0E9F
:101CC8003820DA6EDE50DE10D8A46DEF0EF06FEF1C
:101CD8000EF07BEF0EF02BC01DF02CC01EF02DC0B7
:101CE8001FF02EC020F09EEC13F0B5EF0FF03D5022
:101CF800315C356E3E503258366ED89035363636B1
:101D08002FC037F030C038F03550372636503822DB
:101D1800FE0E3724D96EFF0E3820DA6EDE04DE1090
:101D2800D8A499EF0EF09BEF0EF0A7EF0EF02BC0A2
:101D38001DF02CC01EF02DC01FF02EC020F0DDECD1
:101D480014F0B5EF0FF03D50315C356E3E5032580F
:101D5800366ED890353636362FC037F030C038F06A
:101D68003550372636503822FE0E3724D96EFF0EEE
:101D78003820DA6E020EDE18DE10D8A4C6EF0EF098
:101D8800C8EF0EF0D4EF0EF02BC01DF02CC01EF0E3
:101D98002DC01FF02EC020F03EEC14F0B5EF0FF070
:101DA8003D50315C356E3E503258366ED8903536DF
:101DB80036362FC037F030C038F035503726365019
:101DC8003822FE0E3724D96EFF0E3820DA6E030E45
:101DD800DE18DE10D8A4F3EF0EF0F5EF0EF001EFE9
:101DE8000FF02BC025F02CC026F02DC027F02EC0F8
:101DF80028F033EC18F0B5EF0FF03D50315C356E3C
:101E08003E503258366ED890353636362FC037F0B9
:101E180030C038F03550372636503822FE0E372479
:101E2800D96EFF0E3820DA6E040EDE18DE10D8A444
:101E380020EF0FF022EF0FF02EEF0FF02BC025F060
:101E48002CC026F02DC027F02EC028F0BDEC17F0CE
:101E5800B5EF0FF03D50315C356E3E503258366E5E
:101E6800D890353636362FC037F030C038F0355078
:101E7800372636503822FE0E3724D96EFF0E38200A
:101E8800DA6E050EDE18DE10D8A44DEF0FF04FEF16
:101E98000FF05BEF0FF02BC01DF02CC01EF02DC013
:101EA8001FF02EC020F01AEC16F0B5EF0FF03D50E1
:101EB800315C356E3E503258366ED89035363636EF
:101EC8002FC037F030C038F035503726365038221A
:101ED800FE0E3724D96EFF0E3820DA6E060EDE1895
:101EE800DE10D8A47AEF0FF07CEF0FF088EF0FF038
:101EF8002BC01DF02CC01EF02DC01FF02EC020F0EE
:101F08007CEC15F0B5EF0FF03D50315C356E3E506E
:101F18003258366ED890353636362FC037F030C046
:101F280038F03550372636503822FE0E3724D96E11
:101F3800FF0E3820DA6E090EDE18DE10D8A4A7EFDF
:101F48000FF0A9EF0FF0B5EF0FF02BC019F02CC070
:101F58001AF02DC01BF02EC01CF0A9EC18F0B5EF3C
:101F68000FF0000E3C6E000E3B6E2BC019F02CC01B
:101F78001AF02DC01BF02EC01CF0F0EC19F0000E6A
:101F8800D46E000ED36ED3EF0FF0D3CF3BF03C6A84
:101F9800D450366E356A35503B1236503C123D509F
:101FA800315C356E3E503258366ED89035363636FE
:101FB80033C037F034C038F0355037263650382221
:101FC800FE0E3724D96EFF0E3820DA6EDE503B5CE9
:101FD800DE503C58D8A0F3EF0FF0F5EF0FF0C9EF43
:101FE8000FF03D4A3E2A31503D5C32503E58D8A051
:101FF80000EF10F002EF10F04FEF0EF02BC019F0C9
:102008002CC01AF02DC01BF02EC01CF0A9EC18F043
:1020180012001250800B1F6E12501224266E11AE41
:1020280018EF10F01AEF10F01BEF10F02680265072
:10203800D8B421EF10F023EF10F038EF10F0262875
:10204800D8A429EF10F02BEF10F033EF10F0000EAA
:102058000F6E000E106E000E116E000E126E118EB5
:10206800000E126E40EF10F0000E0F6E000E106E94
:10207800000E116E000E126E1650800B1F1A1650AD
:102088001624276E15AE4BEF10F04DEF10F04EEF03
:1020980010F027802750D8B454EF10F056EF10F006
:1020A8006BEF10F02728D8A45CEF10F05EEF10F06B
:1020B80066EF10F0000E136E000E146E000E156E13
:1020C800000E166E158E000E166E73EF10F0000ED1
:1020D800136E000E146E000E156E000E166E135061
:1020E800141015101610D8A47CEF10F07EEF10F025
:1020F80096EF10F0000E0F6E000E106E000E116EAF
:10210800000E126E800E11127F0E12121F50121244
:102118000FC00FF010C010F011C011F012C012F073
:10212800D9EF11F02650D8A49CEF10F09EEF10F0D4
:10213800A8EF10F0000E0F6E000E106E000E116E5C
:10214800000E126ED9EF11F0275026C017F0186A4A
:10215800175E000E185A7F0E1724206E000E1820E6
:10216800216E0FC01BF010C01CF011C01DF012C072
:102178001EF0000E0F6E000E106E000E116E000E97
:10218800126E000E226E000E236E000E246E000EDC
:10219800256E000E276E09EF11F02750D8B4D7EF3F
:1021A80010F0D9EF10F0F0EF10F0D8901B361C3675
:1021B8001D361E36D8900F3610361136123625AE1B
:1021C800E8EF10F0EAEF10F0EBEF10F00F80D89086
:1021D800223623362436253613501B5C14501C58DF
:1021E80015501D5816501E58D8A0FDEF10F0FFEFDF
:1021F80010F008EF11F0258C13501B5E14501C5A78
:1022080015501D5A16501E5A272A190E27640FEF0B
:1022180011F011EF11F0D1EF10F01B501C101D1030
:102228001E10D8B41AEF11F01CEF11F034EF11F0B2
:10223800228034EF11F0D8900F361036113612364E
:1022480025AE29EF11F02BEF11F02CEF11F00F80D4
:10225800D89022362336243625362006D8A02106E3
:1022680011AE39EF11F03BEF11F01FEF11F0000E36
:10227800276E25AE42EF11F044EF11F068EF11F030
:10228800FF0E2214176EFF0E2314186EFF0E24146F
:10229800196E7F0E25141A6E1750181019101A107F
:1022A800D8B459EF11F05BEF11F05FEF11F0010EA8
:1022B800276E68EF11F00FA064EF11F066EF11F0D0
:1022C80068EF11F05BEF11F02750D8B46EEF11F002
:1022D80070EF11F094EF11F0010E0F26000E10228E
:1022E8001122122212A07BEF11F07DEF11F094EF72
:1022F80011F00FC017F010C018F011C019F012C07B
:102308001AF01A341A3219321832173217C00FF06D
:1023180018C010F019C011F01AC012F0204A212A72
:1023280021BE9FEF11F0215008E12028D8A09FEF8F
:1023380011F0A1EF11F0ACEF11F0000E216E206842
:10234800000E0F6E000E106E000E116E000E126E53
:1023580021BEB9EF11F0215006E12004D8B0B7EF43
:1023680011F0B9EF11F0C7EF11F0000E216E000E59
:10237800206E000E0F6E000E106E000E116E000E15
:10238800126E000E1F6E20C026F026A0CEEF11F0B0
:10239800D0EF11F0D3EF11F0118ED4EF11F0119EA0
:1023A800D8902630126E8AEF10F0120020EE01F05D
:1023B8000E50D9260F50DA22DF50D8B4E6EF11F0CC
:1023C800E8EF11F019EF12F00EC0D9FF0FC0DAFFD5
:1023D800DF50106E1050016E026A20EE07F00E50AA
:1023E800D9260F50DA22DECF03F0DDCF04F086ECD9
:1023F8001BF001C007F002C008F0000E0A6E640E60
:10240800096E33EC19F020EE07F00E50D9260F5064
:10241800DA22DECF11F0DDCF12F00750115C176E13
:1024280008501258186E3CEF12F00EC0D9FF0FC0BA
:10243800DAFFDF50106E1050016E026A20EE07F0CE
:102448000E50D9260F50DA22DECF03F0DDCF04F08C
:1024580086EC1BF001C007F002C008F0000E0A6EFF
:10246800640E096E33EC19F007C017F008C018F0B5
:1024780020EE02F00E50D9260F50DA22DECF10F0EF
:10248800DDCF11F010C0D9FF11C0DAFF17C0DFFF90
:1024980020EE01F00E50D9260F50DA22DF50D8B4C2
:1024A80058EF12F05AEF12F08FEF12F020EE04F00E
:1024B8000E50D9260F50DA22DECF10F0DDCF11F002
:1024C80010C0D9FF11C0DAFF10EE04F00E50E1265B
:1024D8000F50E222E6CF12F0E5CF13F012C0E1FF71
:1024E80013C0E2FFE750146E10EE06F00E50E1261E
:1024F8000F50E222E750156E010E166E152A87EF6F
:1025080012F0D8901636152E85EF12F016501410CA
:10251800DF6EC3EF12F020EE04F00E50D9260F50F4
:10252800DA22DECF10F0DDCF11F010C0D9FF11C0D4
:10253800DAFF10EE04F00E50E1260F50E222E6CF4B
:1025480012F0E5CF13F012C0E1FF13C0E2FFE7502D
:10255800146E10EE06F00E50E1260F50E222E750FE
:10256800156E010E166E152ABCEF12F0D8901636AD
:10257800152EBAEF12F01650FF0A1414DF6E12006F
:10258800096E0950D8B4CBEF12F0CDEF12F0EFEF8F
:1025980012F004BED4EF12F0D2EF12F0EFEF12F007
:1025A80001C005F002C006F003C007F004C008F03F
:1025B800051E061E071E081E052A000E06220722F3
:1025C800082205C00BF006C00CF007C00DF008C0CB
:1025D8000EF0F7EF12F001C00BF002C00CF003C0D0
:1025E8000DF004C00EF00150021003100410D8A41E
:1025F80000EF13F002EF13F00CEF13F0000E016E72
:10260800000E026E000E036E000E046E9DEF13F0B6
:10261800960E0A6E16EF13F00A2AD8900E320D3273
:102628000C320B32000E0B14056E000E0C14066EE5
:10263800000E0D14076EFE0E0E14086E05500610DF
:1026480007100810D8A42BEF13F02DEF13F010EF9C
:1026580013F03BEF13F00A2A010E0B26000E0C2292
:102668000D220E22D8900E320D320C320B32000E93
:102678000B14056E000E0C14066E000E0D14076E7A
:10268800FF0E0E14086E0550061007100810D8A487
:1026980050EF13F052EF13F02FEF13F05AEF13F03F
:1026A8000A06D8900B360C360D360E360DBE5FEF87
:1026B80013F061EF13F069EF13F0020E0A6067EF91
:1026C80013F069EF13F054EF13F00AB06EEF13F044
:1026D80070EF13F071EF13F00D9ED8900A320AC014
:1026E80005F0066A076A086A05C008F0076A066AFC
:1026F800056A05500B1206500C1207500D120850AF
:102708000E120950D8B48BEF13F08DEF13F095EF3C
:1027180013F004BE94EF13F092EF13F095EF13F05B
:102728000E8E0BC001F00CC002F00DC003F00EC0FD
:1027380004F012001DC019F01EC01AF01FC01BF0D3
:1027480020C01CF0A9EC18F0050E226E0F0E216EA9
:10275800F10EE82EFED7212EFCD7222EFAD700F054
:102768001DC019F01EC01AF01FC01BF020C01CF0BD
:10277800C7EC19F0210E226E780E216E980EE82E05
:10278800FED7212EFCD7222EFAD700D01DC019F073
:102798001EC01AF01FC01BF020C01CF0A9EC18F0D6
:1027A8000D0E226E2D0E216ED80EE82EFED7212E8C
:1027B800FCD7222EFAD720EE01F01D50D9261E5044
:1027C800DA22000EDF6E20EE01F01F50D9262050CD
:1027D800DA22010EDF6E000E246E000E236E1DC07D
:1027E800D9FF1EC0DAFFDF2A1FC0D9FF20C0DAFFD9
:1027F800DF2A1DC00EF01EC00FF0DAEC11F01FC06A
:102808000EF020C00FF0DAEC11F0A00E00D0E82E88
:10281800FDD7234A242A245009E1500E235CD8A06E
:1028280018EF14F01AEF14F0F3EF13F0100E226EF5
:102838006C0E216E000EE82EFED7212EFCD7222E1C
:10284800FAD700D000D01DC019F01EC01AF01FC062
:102858001BF020C01CF0A9EC18F0050E226E0F0E1C
:10286800216EF10EE82EFED7212EFCD7222EFAD7A4
:1028780000F012001DC019F01EC01AF01FC01BF096
:1028880020C01CF0A9EC18F0050E226E0F0E216E68
:10289800F10EE82EFED7212EFCD7222EFAD700F013
:1028A8001DC019F01EC01AF01FC01BF020C01CF07C
:1028B800C7EC19F0210E226E780E216E980EE82EC4
:1028C800FED7212EFCD7222EFAD700D01DC019F032
:1028D8001EC01AF01FC01BF020C01CF0A9EC18F095
:1028E8000D0E226E2D0E216ED80EE82EFED7212E4B
:1028F800FCD7222EFAD720EE01F01D50D9261E5003
:10290800DA22010EDF6E20EE01F01F50D92620508A
:10291800DA22000EDF6E000E246E000E236E1DC03C
:10292800D9FF1EC0DAFFDF2A1FC0D9FF20C0DAFF97
:10293800DF2A1DC00EF01EC00FF0DAEC11F01FC028
:102948000EF020C00FF0DAEC11F0A00E00D0E82E47
:10295800FDD7234A242A245009E14B0E235CD8A032
:10296800B8EF14F0BAEF14F093EF14F0210E226EC2
:10297800780E216E980EE82EFED7212EFCD7222E37
:10298800FAD700D01DC019F01EC01AF01FC01BF0E6
:1029980020C01CF0A9EC18F0050E226E0F0E216E57
:1029A800F10EE82EFED7212EFCD7222EFAD700F002
:1029B80012001DC019F01EC01AF01FC01BF020C065
:1029C8001CF0A9EC18F0050E226E0F0E216EF10E08
:1029D800E82EFED7212EFCD7222EFAD700F01DC0F4
:1029E80019F01EC01AF01FC01BF020C01CF0C7EC65
:1029F80019F0210E226E780E216E980EE82EFED761
:102A0800212EFCD7222EFAD700D01DC019F01EC0E7
:102A18001AF01FC01BF020C01CF0A9EC18F00D0E16
:102A2800226E2D0E216ED80EE82EFED7212EFCD751
:102A3800222EFAD720EE01F01D50D9261E50DA2298
:102A4800010EDF6E20EE01F01F50D9262050DA2249
:102A5800000EDF6E000E246E000E236E1DC0D9FF1F
:102A68001EC0DAFFDF2A1FC0D9FF20C0DAFFDF2A25
:102A78001DC00EF01EC00FF0DAEC11F01FC00EF0F2
:102A880020C00FF0DAEC11F0A00E00D0E82EFDD730
:102A9800234A242A245009E1500E235CD8A057EF7A
:102AA80015F059EF15F032EF15F0110E226EA40E45
:102AB800216EB00EE82EFED7212EFCD7222EFAD793
:102AC80000D01DC019F01EC01AF01FC01BF020C096
:102AD8001CF0A9EC18F0050E226E0F0E216EF10EF7
:102AE800E82EFED7212EFCD7222EFAD700F01200AE
:102AF8001DC019F01EC01AF01FC01BF020C01CF02A
:102B0800A9EC18F0050E226E0F0E216EF10EE82EBC
:102B1800FED7212EFCD7222EFAD700F01DC019F0BF
:102B28001EC01AF01FC01BF020C01CF0C7EC19F023
:102B3800210E226E780E216E980EE82EFED7212ED9
:102B4800FCD7222EFAD700D01DC019F01EC01AF0EB
:102B58001FC01BF020C01CF0A9EC18F00D0E226E4F
:102B68002D0E216ED80EE82EFED7212EFCD7222E50
:102B7800FAD720EE01F01D50D9261E50DA22010E98
:102B8800DF6E20EE01F01F50D9262050DA22000E09
:102B9800DF6E000E246E000E236E1DC0D9FF1EC00E
:102BA800DAFFDF2A1FC0D9FF20C0DAFFDF2A1DC0E5
:102BB8000EF01EC00FF0DAEC11F01FC00EF020C0AE
:102BC8000FF0DAEC11F0A00E00D0E82EFDD7234A62
:102BD800242A245009E14B0E235CD8A0F6EF15F007
:102BE800F8EF15F0D1EF15F0170E226E530E216E87
:102BF800380EE82EFED7212EFCD7222EFAD71DC07C
:102C080019F01EC01AF01FC01BF020C01CF0A9EC60
:102C180018F0050E226E0F0E216EF10EE82EFED76B
:102C2800212EFCD7222EFAD700F012001DC019F071
:102C38001EC01AF01FC01BF020C01CF0A9EC18F031
:102C4800050E226E0F0E216EF10EE82EFED7212EF4
:102C5800FCD7222EFAD700F01DC019F01EC01AF0BA
:102C68001FC01BF020C01CF0C7EC19F0210E226E0B
:102C7800780E216E980EE82EFED7212EFCD7222E34
:102C8800FAD700D01DC019F01EC01AF01FC01BF0E3
:102C980020C01CF0A9EC18F00D0E226E2D0E216E2E
:102CA800D80EE82EFED7212EFCD7222EFAD720EEFA
:102CB80001F01D50D9261E50DA22000EDF6E20EEDC
:102CC80001F01F50D9262050DA22010EDF6E000EC7
:102CD800246E000E236E1DC0D9FF1EC0DAFFDF2A46
:102CE8001FC0D9FF20C0DAFFDF2A1DC00EF01EC0AA
:102CF8000FF0DAEC11F01FC00EF020C00FF0DAEC84
:102D080011F0A00E00D0E82EFDD7234A242A245023
:102D180009E14B0E235CD8A094EF16F096EF16F05D
:102D28006FEF16F0150E226EB30E216EA40EE82E6C
:102D3800FED7212EFCD7222EFAD71DC019F01EC0AF
:102D48001AF01FC01BF020C01CF0A9EC18F0050EEB
:102D5800226E0F0E216EF10EE82EFED7212EFCD723
:102D6800222EFAD700F01200533454345A6E5A50B7
:102D7800D8A4C1EF16F0C3EF16F0CDEF16F0000E91
:102D8800516E000E526E000E536E000E546E3AEFE6
:102D980017F051C055F052C056F053C057F054C008
:102DA80058F0200EDDEF16F0D890583257325632D0
:102DB8005532E82ED8EF16F05550596E538EFF0E47
:102DC8005116FF0E5216FF0E5316000E5416960E8D
:102DD8005A5E5ABEF4EF16F0F2EF16F00AEF17F04B
:102DE8005A50800A970FD8B0FCEF16F0FEEF16F095
:102DF80000EF17F0C3EF16F0D89054325332523226
:102E080051325A3E00EF17F022EF17F01F0E5A64A6
:102E180010EF17F012EF17F01AEF17F0C3EF16F0D4
:102E2800D89051365236533654365A065A50D8A48A
:102E380020EF17F022EF17F014EF17F05950D8B41D
:102E480028EF17F02AEF17F032EF17F0541E531E31
:102E5800521E516C000E52225322542251C051F07E
:102E680052C052F053C053F054C054F01200000E38
:102E78000114096E000E02140A6E800E03140B6E04
:102E88007F0E04140C6E09500A100B100C10D8A4F5
:102E980050EF17F052EF17F05AEF17F0000E016ECF
:102EA800000E026E000E036E000E046E000E051476
:102EB800096E000E06140A6E800E07140B6E7F0E44
:102EC80008140C6E09500A100B100C10D8A46FEFE0
:102ED80017F071EF17F079EF17F0000E056E000E7E
:102EE800066E000E076E000E086E04AE7EEF17F039
:102EF80080EF17F089EF17F0016C021ED8B0022A94
:102F0800031ED8B0032A800E045608AE8EEF17F0C1
:102F180090EF17F099EF17F0056C061ED8B0062A47
:102F2800071ED8B0072A800E0856000E011A000E98
:102F3800021A000E031A800E041A000E051A000E5B
:102F4800061A000E071A800E081A0550015C065072
:102F580002580750035808500458D8B0B6EF17F075
:102F6800B8EF17F0BBEF17F0D890BCEF17F0D88088
:102F7800120025C019F026C01AF027C01BF028C07F
:102F88001CF0A9EC18F0050E2A6E0F0E296EF10E32
:102F9800E82EFED7292EFCD72A2EFAD700F020EEED
:102FA80001F02550D9262650DA22000EDF6E20EED9
:102FB80001F02750D9262850DA22000EDF6E25C0EE
:102FC800D9FF26C0DAFF460EDF6E27C0D9FF28C01A
:102FD800DAFF460EDF6E25C00EF026C00FF0DAECE1
:102FE80011F027C00EF028C00FF0DAEC11F0290E0E
:102FF8002A6E960E296E7F0EE82EFED7292EFCD754
:103008002A2EFAD700F025C019F026C01AF027C0DA
:103018001BF028C01CF0A9EC18F0310E2A6EB40E73
:10302800296E660EE82EFED7292EFCD72A2EFAD74F
:1030380025C01DF026C01EF027C01FF028C020F0B4
:10304800DDEC14F0090E2A6E1E0E296EE40EE82E31
:10305800FED7292EFCD72A2EFAD700D0120025C079
:1030680019F026C01AF027C01BF028C01CF0A9ECE4
:1030780018F0050E2A6E0F0E296EF10EE82EFED7F7
:10308800292EFCD72A2EFAD700F020EE01F0255081
:10309800D9262650DA22000EDF6E20EE01F02750E6
:1030A800D9262850DA22000EDF6E25C0D9FF26C0A7
:1030B800DAFF460EDF6E27C0D9FF28C0DAFF460EBA
:1030C800DF6E25C00EF026C00FF0DAEC11F027C035
:1030D8000EF028C00FF0DAEC11F02D0E2A6EA50EB6
:1030E800296E720EE82EFED7292EFCD72A2EFAD783
:1030F80000D025C019F026C01AF027C01BF028C040
:103108001CF0A9EC18F0190E2A6E5A0E296EB20E90
:10311800E82EFED7292EFCD72A2EFAD725C01DF077
:1031280026C01EF027C01FF028C020F09EEC13F028
:10313800090E2A6E1E0E296EE40EE82EFED7292EE1
:10314800FCD72A2EFAD700D01200DDEF18F019C0EC
:10315800D9FF1AC0DAFFDF50D8B4B5EF18F0B7EFCF
:1031680018F0BCEF18F019C0D9FF1AC0DAFFDF0653
:103178001BC0D9FF1CC0DAFFDF50D8B4C6EF18F067
:10318800C8EF18F0CDEF18F01BC0D9FF1CC0DAFF4C
:10319800DF0619C00EF01AC00FF0DAEC11F01BC0F0
:1031A8000EF01CC00FF0DAEC11F0350EE82EFED749
:1031B80000F019C0D9FF1AC0DAFFDF50D8B4E7EF22
:1031C80018F0E9EF18F0F5EF18F01BC0D9FF1CC094
:1031D800DAFFDF50D8A4F3EF18F0F5EF18F0ABEFF3
:1031E80018F012000DC001F00EC002F00FC003F07D
:1031F80010C004F011C005F012C006F013C007F0AB
:1032080014C008F03BEC17F0D8A00DEF19F00FEF41
:1032180019F02EEF19F015C001F016C002F017C012
:1032280003F018C004F00DC005F00EC006F00FC082
:1032380007F010C008F03BEC17F0D8A026EF19F003
:1032480028EF19F02EEF19F0000E0E6E010E0D6E1C
:1032580032EF19F0000E0E6E000E0D6E1200000E09
:103268000C6E000E0B6E09500A10D8B43EEF19F020
:1032780040EF19F068EF19F0010E0D6E48EF19F0E4
:10328800D89009360A360D2A0AAE4DEF19F04FEFDD
:1032980019F044EF19F0D8900B360C360950075C3A
:1032A8000A500858D8A05BEF19F05DEF19F062EFEB
:1032B80019F00950075E0A50085A0B80D8900A3254
:1032C80009320D2E4FEF19F00BC007F00CC008F0B3
:1032D800120019EC1AF020EE0CF00C50D9260D5003
:1032E800DA2205C0DEFF06C0DDFF41EC1AF020EE51
:1032F8000EF00C50D9260D50DA2205C0DEFF06C0AC
:10330800DDFF69EC1AF020EE10F00C50D9260D50B4
:10331800DA2205C0DEFF06C0DDFF91EC1AF020EED0
:1033280012F00C50D9260D50DA2205C0DEFF06C077
:10333800DDFF1200D3CF0BF00C6AD4500A6E096A75
:1033480009500B120A500C12D8900534D96E063465
:10335800DA6E0750D9260850DA220BC0DEFF0CC0FF
:10336800DDFFD8900534D96E0634DA6E0350D926BD
:103378000450DA2201C0DEFF02C0DDFF000ED46E69
:10338800000ED36E120020EE01F01950D9261A5003
:10339800DA22000EDF6E20EE01F01B50D9261C50F9
:1033A800DA22000EDF6E19C0D9FF1AC0DAFF320E1A
:1033B800DF6E1BC0D9FF1CC0DAFF320EDF6E19C0EA
:1033C8000EF01AC00FF0DAEC11F01BC00EF01CC0A2
:1033D8000FF0DAEC11F0120020EE01F01950D926A6
:1033E8001A50DA22010EDF6E20EE01F01B50D926AA
:1033F8001C50DA22010EDF6E19C0D9FF1AC0DAFF9D
:103408000D0EDF6E1BC0D9FF1CC0DAFF0D0EDF6E7C
:1034180019C00EF01AC00FF0DAEC11F01BC00EF054
:103428001CC00FF0DAEC11F01200E9EC1BF0520EA0
:10343800D8EC1BF0B40ED8EC1BF0EEEC1BF0530EDE
:10344800D8EC1BF0010E22EC1BF0076E07500A6E39
:103458000B6A000E22EC1BF0076E0750096E086A13
:103468000A5008100A6E0B5009100B6EE4EC1BF0A2
:103478000AC005F00BC006F01200E9EC1BF0520E72
:10348800D8EC1BF0B60ED8EC1BF0EEEC1BF0530E8C
:10349800D8EC1BF0010E22EC1BF0076E07500A6EE9
:1034A8000B6A000E22EC1BF0076E0750096E086AC3
:1034B8000A5008100A6E0B5009100B6EE4EC1BF052
:1034C8000AC005F00BC006F01200E9EC1BF0520E22
:1034D800D8EC1BF0B80ED8EC1BF0EEEC1BF0530E3A
:1034E800D8EC1BF0010E22EC1BF0076E07500A6E99
:1034F8000B6A000E22EC1BF0076E0750096E086A73
:103508000A5008100A6E0B5009100B6EE4EC1BF001
:103518000AC005F00BC006F01200E9EC1BF0520ED1
:10352800D8EC1BF0BA0ED8EC1BF0EEEC1BF0530EE7
:10353800D8EC1BF0010E22EC1BF0076E07500A6E48
:103548000B6A000E22EC1BF0076E0750096E086A22
:103558000A5008100A6E0B5009100B6EE4EC1BF0B1
:103568000AC005F00BC006F0120041EC1AF020EE7C
:1035780006F00C50D9260D50DA2205C0DEFF06C031
:10358800DDFF69EC1AF020EE08F00C50D9260D503A
:10359800DA2205C0DEFF06C0DDFF91EC1AF020EE4E
:1035A8000AF00C50D9260D50DA2205C0DEFF06C0FD
:1035B800DDFF120041EC1AF00CC0D9FF0DC0DAFF94
:1035C80005C0DEFF06C0DDFF69EC1AF020EE02F050
:1035D8000C50D9260D50DA2205C0DEFF06C0DDFFEB
:1035E80091EC1AF020EE04F00C50D9260D50DA2296
:1035F80005C0DEFF06C0DDFF12008594839E859816
:10360800879C7D947B9E7D987F9CBD508F0B400945
:10361800BD6EE00EBE16BF50F00B0109BF6E630E03
:10362800BC6EBD8E0A0E0E01746F0B0E696F000E14
:10363800A36E000EA06EA48EA18E1200036E72EC13
:103648001BF00E01DA8772EC1BF0D5CE04F072EC99
:103658001BF00350D8B433EF1BF037EF1BF0026AAE
:10366800022A38EF1BF0026A023A02460E01DA51CA
:103678000218DF0B0218DA6FDA89045012005DECC9
:103688001BF0010E036E000EBAEC1BF03F0E056E28
:10369800550EE82EFED7052EFCD700F0030E036E5C
:1036A800000EBAEC1BF0D50E036E010EBAEC1BF03F
:1036B80012000E01D951F00B0809D96FD98B9F0E52
:1036C800D66F848A848CA79BA79D1D0E1D6F1E0E26
:1036D8001C6F1C0E6F6F1B0E706F12000E01D8B599
:1036E80078EF1BF07AEF1BF072EF1BF0DACE01F0E7
:1036F8001F0E0116D8A483EF1BF085EF1BF072EFA5
:103708001BF0120001500302F3CF05F0F4CF06F0CE
:1037180001500402F350062602500302F350062615
:1037280005C001F006C002F0120001EE00F03C0EE8
:10373800EE6AE806FDE100EEB8F0420EEE6AE80631
:10374800FDE15F905F920001C7EF06F0120E0E01D7
:10375800626F110E156F8382E997E895330EE56F56
:10376800000EE66FE789E88BE78F1200046EE9EC3C
:103778001BF0520ED8EC1BF004508009D8EC1BF05B
:103788000350D8EC1BF0E4EC1BF01200D6501F0BD2
:103798004009D66ED6880F0ED612D588000ED46E84
:1037A800000ED36ED58E1200026E72EC1BF002C0B2
:1037B800D5FE12000E012B81298BF28CF28E12009D
:1037C80072EC1BF00E01DA85120072EC1BF00E0190
:0E37D800DA81120072EC1BF00E01DA8312008F
:020000040020DA
:10000000FF0FFF0FFF0FFF0FFF0FFF0FFF0FFF0F80
:020000040030CA
:0C000000AAFFFFFF9FFFFFFFFFFFFFFFB5
:00000001FF
