:0400000055EFE9F0DF
:020000040001F9
:10D2180078ECE9F00E01DA83120078ECE9F00E01FF
:10D22800DA81120078ECE9F00E01DA8512000E01BD
:10D238002B81298BF28CF28E1200026E78ECE9F0C9
:10D2480002C0D5FE1200D6501F0B4009D66ED688F4
:10D258000F0ED612D588000ED46E000ED36ED58E62
:10D268001200046E11ECE9F0520E21ECE9F00450C2
:10D27800800921ECE9F0035021ECE9F016ECE9F023
:10D288001200120E0E01626F110E156F8382E9975C
:10D29800E895330EE56F000EE66FE789E88BE78FB8
:10D2A800120001EE00F03C0EEE6AE806FDE100EE29
:10D2B800B6F0190EEE6AE806FDE15F6A0001BDEFFF
:10D2C800F6F001500302F3CF05F0F4CF06F0015059
:10D2D8000402F350062602500302F350062605C046
:10D2E80001F006C002F012000E01D8B57EEFE9F099
:10D2F80080EFE9F078EFE9F0DACE01F01F0E0116C1
:10D30800D8A489EFE9F08BEFE9F078EFE9F01200A3
:10D318000E01D951F00B0809D96FD98B9F0ED66F22
:10D32800848A848CA79BA79D1D0E1D6F1E0E1C6FE3
:10D338001C0E6F6F1B0E706F120019C0D9FF1AC038
:10D34800DAFF000EDF6E1BC0D9FF1CC0DAFF000E2B
:10D35800DF6E19C00EF01AC00FF091ECEFF01BC091
:10D368000EF01CC00FF091ECEFF012008CECE9F01D
:10D37800010E036E000E35ECE9F03F0E056E550EFA
:10D38800E82EFED7052EFCD700F0030E036E000E24
:10D3980035ECE9F0D50E036E010E35ECE9F012001C
:10D3A800036E78ECE9F00E01DA8778ECE9F0D5CE77
:10D3B80004F078ECE9F00350D8B4E5EFE9F0E9EFD0
:10D3C800E9F0026A022AEAEFE9F0026A023A024642
:10D3D8000E01DA510218DF0B0218DA6FDA890450ED
:10D3E80012008594839E8598879C7D947B9E7D986A
:10D3F8007F9CBD508F0B4009BD6EE00EBE16BF501E
:10D40800F00B0109BF6E630EBC6EBD8E0A0E0E01D5
:10D41800746F0B0E696F000EA36E000EA06EA48EC3
:10D42800A18E1200AEECEAF00CC0D9FF0DC0DAFFF5
:10D4380005C0DEFF06C0DDFF86ECEAF020EE02F054
:10D448000C50D9260D50DA2205C0DEFF06C0DDFFDC
:10D458005EECEAF020EE04F00C50D9260D50DA22EA
:10D4680005C0DEFF06C0DDFF1200AEECEAF020EEDC
:10D4780006F00C50D9260D50DA2205C0DEFF06C092
:10D48800DDFF86ECEAF020EE08F00C50D9260D50AE
:10D49800DA2205C0DEFF06C0DDFF5EECEAF020EE12
:10D4A8000AF00C50D9260D50DA2205C0DEFF06C05E
:10D4B800DDFF120011ECE9F0520E21ECE9F0BA0E92
:10D4C80021ECE9F00CECE9F0530E21ECE9F0010E47
:10D4D800D4ECE9F0076E07500A6E0B6A000ED4EC24
:10D4E800E9F0076E0750096E086A0A5008100A6EBC
:10D4F8000B5009100B6E16ECE9F00AC005F00BC0D2
:10D5080006F0120011ECE9F0520E21ECE9F0B80E29
:10D5180021ECE9F00CECE9F0530E21ECE9F0010EF6
:10D52800D4ECE9F0076E07500A6E0B6A000ED4ECD3
:10D53800E9F0076E0750096E086A0A5008100A6E6B
:10D548000B5009100B6E16ECE9F00AC005F00BC081
:10D5580006F0120011ECE9F0520E21ECE9F0B60EDB
:10D5680021ECE9F00CECE9F0530E21ECE9F0010EA6
:10D57800D4ECE9F0076E07500A6E0B6A000ED4EC83
:10D58800E9F0076E0750096E086A0A5008100A6E1B
:10D598000B5009100B6E16ECE9F00AC005F00BC031
:10D5A80006F0120011ECE9F0520E21ECE9F0B40E8D
:10D5B80021ECE9F00CECE9F0530E21ECE9F0010E56
:10D5C800D4ECE9F0076E07500A6E0B6A000ED4EC33
:10D5D800E9F0076E0750096E086A0A5008100A6ECB
:10D5E8000B5009100B6E16ECE9F00AC005F00BC0E1
:10D5F80006F0120020EE01F01950D9261A50DA224E
:10D60800010EDF6E20EE01F01B50D9261C50DA22E5
:10D61800010EDF6E19C0D9FF1AC0DAFF0A0EDF6EDD
:10D628001BC0D9FF1CC0DAFF0A0EDF6E19C00EF04E
:10D638001AC00FF091ECEFF01BC00EF01CC00FF0F9
:10D6480091ECEFF01200D6ECEAF020EE0CF00C5062
:10D65800D9260D50DA2205C0DEFF06C0DDFFAEEC8C
:10D66800EAF020EE0EF00C50D9260D50DA2205C053
:10D67800DEFF06C0DDFF86ECEAF020EE10F00C506D
:10D68800D9260D50DA2205C0DEFF06C0DDFF5EECAC
:10D69800EAF020EE12F00C50D9260D50DA2205C01F
:10D6A800DEFF06C0DDFF1200000E0C6E000E0B6ED2
:10D6B80009500A10D8B463EFEBF065EFEBF08DEF8B
:10D6C800EBF0010E0D6E6DEFEBF0D89009360A36CF
:10D6D8000D2A0AAE72EFEBF074EFEBF069EFEBF0A6
:10D6E800D8900B360C360950075C0A500858D8A059
:10D6F80080EFEBF082EFEBF087EFEBF00950075E7D
:10D708000A50085A0B80D8900A3209320D2E74EF4D
:10D71800EBF00BC007F00CC008F012000DC001F0D0
:10D728000EC002F00FC003F010C004F011C005F0E5
:10D7380012C006F013C007F014C008F0B2ECEDF008
:10D74800D8A0A9EFEBF0ABEFEBF0CAEFEBF015C008
:10D7580001F016C002F017C003F018C004F00DC0A5
:10D7680005F00EC006F00FC007F010C008F0B2ECCC
:10D77800EDF0D8A0C2EFEBF0C4EFEBF0CAEFEBF09E
:10D78800000E0E6E010E0D6ECEEFEBF0000E0E6E5B
:10D79800000E0D6E120020EE01F01D50D9261E500D
:10D7A800DA22000EDF6E20EE01F01F50D92620503D
:10D7B800DA22010EDF6E1DC0D9FF1EC0DAFF5A0E35
:10D7C800DF6E1FC0D9FF20C0DAFF5A0EDF6E1DC002
:10D7D8000EF01EC00FF091ECEFF01FC00EF020C04D
:10D7E8000FF091ECEFF00F0E226E9D0E216E360EAB
:10D7F800E82EFED7212EFCD7222EFAD700D01DC046
:10D8080019F01EC01AF01FC01BF020C01CF0A1ECBC
:10D81800E9F0120020EE01F01F50D9262050DA223C
:10D82800000EDF6E20EE01F01D50D9261E50DA22C0
:10D83800010EDF6E1FC0D9FF20C0DAFF5A0EDF6E5F
:10D848001DC0D9FF1EC0DAFF5A0EDF6E1DC00EF0D4
:10D858001EC00FF091ECEFF01FC00EF020C00FF0CB
:10D8680091ECEFF00F0E226E9D0E216E360EE82E13
:10D87800FED7212EFCD7222EFAD700D01DC019F0D2
:10D888001EC01AF01FC01BF020C01CF0A1ECE9F06C
:10D89800120020EE01F01D50D9261E50DA22000E8B
:10D8A800DF6E20EE01F01F50D9262050DA22010E3B
:10D8B800DF6E1DC0D9FF1EC0DAFF5A0EDF6E1FC013
:10D8C800D9FF20C0DAFF5A0EDF6E1DC00EF01EC051
:10D8D8000FF091ECEFF01FC00EF020C00FF091ECAC
:10D8E800EFF0160E226EEB0E216E530EE82EFED7C9
:10D8F800212EFCD7222EFAD700F01DC019F01EC029
:10D908001AF01FC01BF020C01CF0A1ECE9F01200B7
:10D9180020EE01F01F50D9262050DA22000EDF6ECB
:10D9280020EE01F01D50D9261E50DA22010EDF6EBE
:10D938001FC0D9FF20C0DAFF5A0EDF6E1DC0D9FF05
:10D948001EC0DAFF5A0EDF6E1DC00EF01EC00FF0AB
:10D9580091ECEFF01FC00EF020C00FF091ECEFF04B
:10D96800160E226EEB0E216E530EE82EFED7212ED8
:10D97800FCD7222EFAD700F01DC019F01EC01AF0ED
:10D988001FC01BF020C01CF0A1ECE9F0120020EE33
:10D9980001F01F50D9262050DA22000EDF6E20EE4B
:10D9A80001F01D50D9261E50DA22010EDF6E1FC06D
:10D9B800D9FF20C0DAFF5A0EDF6E1DC0D9FF1EC086
:10D9C800DAFF5A0EDF6E1DC00EF01EC00FF091EC8C
:10D9D800EFF01FC00EF020C00FF091ECEFF01E0E1C
:10D9E800226E390E216E6F0EE82EFED7212EFCD73F
:10D9F800222EFAD700F01DC019F01EC01AF01FC061
:10DA08001BF020C01CF0A1ECE9F0120020EE01F0A0
:10DA18002350D9262450DA22000EDF6E20EE01F0C2
:10DA28002550D9262650DA22000EDF6E23C0D9FFF2
:10DA380024C0DAFF4B0EDF6E25C0D9FF26C0DAFFFF
:10DA48004B0EDF6E23C00EF024C00FF091ECEFF008
:10DA580025C00EF026C00FF091ECEFF0410E286EB5
:10DA6800F00E276E330EE82EFED7272EFCD7282E71
:10DA7800FAD700F023C019F024C01AF025C01BF013
:10DA880026C01CF0A1ECE9F0190E286E5A0E276E7C
:10DA9800B20EE82EFED7272EFCD7282EFAD723C0A1
:10DAA8001DF024C01EF025C01FF026C020F0CFECCA
:10DAB800EBF0120020EE01F02350D9262450DA2290
:10DAC800000EDF6E20EE01F02550D9262650DA220E
:10DAD800000EDF6E23C0D9FF24C0DAFF4B0EDF6EC5
:10DAE80025C0D9FF26C0DAFF4B0EDF6E23C00EF02B
:10DAF80024C00FF091ECEFF025C00EF026C00FF017
:10DB080091ECEFF0410E286EF00E276E330EE82EE2
:10DB1800FED7272EFCD7282EFAD700F023C019F0FD
:10DB280024C01AF025C01BF026C01CF0A1ECE9F0B7
:10DB3800190E286E5A0E276EB20EE82EFED7272E23
:10DB4800FCD7282EFAD723C01DF024C01EF025C00C
:10DB58001FF026C020F00EECECF01200000E0114AD
:10DB6800096E000E02140A6E800E03140B6E7F0EEF
:10DB780004140C6E09500A100B100C10D8A4C7EF2F
:10DB8800EDF0C9EFEDF0D1EFEDF0000E016E000EF3
:10DB9800026E000E036E000E046E000E0514096E70
:10DBA800000E06140A6E800E07140B6E7F0E081402
:10DBB8000C6E09500A100B100C10D8A4E6EFEDF00B
:10DBC800E8EFEDF0F0EFEDF0000E056E000E066EDA
:10DBD800000E076E000E086E04AEF5EFEDF0F7EFDD
:10DBE800EDF000EFEEF0016C021ED8B0022A031E21
:10DBF800D8B0032A800E045608AE05EFEEF007EF02
:10DC0800EEF010EFEEF0056C061ED8B0062A071EDF
:10DC1800D8B0072A800E0856000E011A000E021A04
:10DC2800000E031A800E041A000E051A000E061ABA
:10DC3800000E071A800E081A0550015C065002589B
:10DC48000750035808500458D8B02DEFEEF02FEFC6
:10DC5800EEF032EFEEF0D89033EFEEF0D88012000D
:10DC6800533454345A6E5A50D8A43DEFEEF03FEF77
:10DC7800EEF049EFEEF0000E516E000E526E000EFF
:10DC8800536E000E546EB6EFEEF051C055F052C010
:10DC980056F053C057F054C058F0200E59EFEEF02C
:10DCA800D8905832573256325532E82E54EFEEF0AB
:10DCB8005550596E538EFF0E5116FF0E5216FF0E19
:10DCC8005316000E5416960E5A5E5ABE70EFEEF0BA
:10DCD8006EEFEEF086EFEEF05A50800A970FD8B04C
:10DCE80078EFEEF07AEFEEF07CEFEEF03FEFEEF04B
:10DCF800D89054325332523251325A3E7CEFEEF0C1
:10DD08009EEFEEF01F0E5A648CEFEEF08EEFEEF001
:10DD180096EFEEF03FEFEEF0D8905136523653368C
:10DD280054365A065A50D8A49CEFEEF09EEFEEF007
:10DD380090EFEEF05950D8B4A4EFEEF0A6EFEEF065
:10DD4800AEEFEEF0541E531E521E516C000E5222BE
:10DD58005322542251C051F052C052F053C053F0D4
:10DD680054C054F01200096E0950D8B4BEEFEEF05A
:10DD7800C0EFEEF0E2EFEEF004BEC7EFEEF0C5EF55
:10DD8800EEF0E2EFEEF001C005F002C006F003C0CD
:10DD980007F004C008F0051E061E071E081E052A07
:10DDA800000E06220722082205C00BF006C00CF060
:10DDB80007C00DF008C00EF0EAEFEEF001C00BF05E
:10DDC80002C00CF003C00DF004C00EF001500210A8
:10DDD80003100410D8A4F3EFEEF0F5EFEEF0FFEF28
:10DDE800EEF0000E016E000E026E000E036E000EC5
:10DDF800046E90EFEFF0960E0A6E09EFEFF00A2A24
:10DE0800D8900E320D320C320B32000E0B14056E08
:10DE1800000E0C14066E000E0D14076EFE0E0E1486
:10DE2800086E0550061007100810D8A41EEFEFF072
:10DE380020EFEFF003EFEFF02EEFEFF00A2A010EDC
:10DE48000B26000E0C220D220E22D8900E320D3217
:10DE58000C320B32000E0B14056E000E0C14066EFD
:10DE6800000E0D14076EFF0E0E14086E05500610F6
:10DE780007100810D8A443EFEFF045EFEFF022EFBA
:10DE8800EFF04DEFEFF00A06D8900B360C360D3652
:10DE98000E360DBE52EFEFF054EFEFF05CEFEFF0FF
:10DEA800020E0A605AEFEFF05CEFEFF047EFEFF089
:10DEB8000AB061EFEFF063EFEFF064EFEFF00D9E63
:10DEC800D8900A320AC005F0066A076A086A05C0CF
:10DED80008F0076A066A056A05500B1206500C120C
:10DEE80007500D1208500E120950D8B47EEFEFF00B
:10DEF80080EFEFF088EFEFF004BE87EFEFF085EFEB
:10DF0800EFF088EFEFF00E8E0BC001F00CC002F0BE
:10DF18000DC003F00EC004F0120020EE01F00E5008
:10DF2800D9260F50DA22DF50D8B49DEFEFF09FEFDB
:10DF3800EFF0D0EFEFF00EC0D9FF0FC0DAFFDF50DF
:10DF4800106E1050016E026A20EE07F00E50D926AE
:10DF58000F50DA22DECF03F0DDCF04F065ECE9F0F4
:10DF680001C007F002C008F0000E0A6E640E096EC8
:10DF780058ECEBF020EE07F00E50D9260F50DA22BD
:10DF8800DECF11F0DDCF12F00750115C176E08508C
:10DF98001258186EF3EFEFF00EC0D9FF0FC0DAFF7A
:10DFA800DF50106E1050016E026A20EE07F00E501E
:10DFB800D9260F50DA22DECF03F0DDCF04F065EC6E
:10DFC800E9F001C007F002C008F0000E0A6E640E06
:10DFD800096E58ECEBF007C017F008C018F020EEF7
:10DFE80002F00E50D9260F50DA22DECF10F0DDCF26
:10DFF80011F010C0D9FF11C0DAFF17C0DFFF20EE03
:10E0080001F00E50D9260F50DA22DF50D8B40FEFA6
:10E01800F0F011EFF0F046EFF0F020EE04F00E50C3
:10E02800D9260F50DA22DECF10F0DDCF11F010C064
:10E03800D9FF11C0DAFF10EE04F00E50E1260F50A0
:10E04800E222E6CF12F0E5CF13F012C0E1FF13C0D1
:10E05800E2FFE750146E10EE06F00E50E1260F5066
:10E06800E222E750156E010E166E152A3EEFF0F00B
:10E07800D8901636152E3CEFF0F016501410DF6EBF
:10E088007AEFF0F020EE04F00E50D9260F50DA2285
:10E09800DECF10F0DDCF11F010C0D9FF11C0DAFFCC
:10E0A80010EE04F00E50E1260F50E222E6CF12F0F7
:10E0B800E5CF13F012C0E1FF13C0E2FFE750146E82
:10E0C80010EE06F00E50E1260F50E222E750156ED2
:10E0D800010E166E152A73EFF0F0D8901636152E2D
:10E0E80071EFF0F01650FF0A1414DF6E1200125090
:10E0F800800B1F6E12501224266E11AE86EFF0F0C0
:10E1080088EFF0F089EFF0F026802650D8B48FEF32
:10E11800F0F091EFF0F0A6EFF0F02628D8A497EFF2
:10E12800F0F099EFF0F0A1EFF0F0000E0F6E000E96
:10E13800106E000E116E000E126E118E000E126E11
:10E14800AEEFF0F0000E0F6E000E106E000E116EA6
:10E15800000E126E1650800B1F1A16501624276ECA
:10E1680015AEB9EFF0F0BBEFF0F0BCEFF0F02780A0
:10E178002750D8B4C2EFF0F0C4EFF0F0D9EFF0F0C8
:10E188002728D8A4CAEFF0F0CCEFF0F0D4EFF0F0E5
:10E19800000E136E000E146E000E156E000E166E35
:10E1A800158E000E166EE1EFF0F0000E136E000EE5
:10E1B800146E000E156E000E166E13501410151006
:10E1C8001610D8A4EAEFF0F0ECEFF0F004EFF1F05D
:10E1D800000E0F6E000E106E000E116E000E126E05
:10E1E800800E11127F0E12121F5012120FC00FF064
:10E1F80010C010F011C011F012C012F047EFF2F089
:10E208002650D8A40AEFF1F00CEFF1F016EFF1F078
:10E21800000E0F6E000E106E000E116E000E126EC4
:10E2280047EFF2F0275026C017F0186A175E000E65
:10E23800185A7F0E1724206E000E1820216E0FC06A
:10E248001BF010C01CF011C01DF012C01EF0000E13
:10E258000F6E000E106E000E116E000E126E000E84
:10E26800226E000E236E000E246E000E256E000E28
:10E27800276E77EFF1F02750D8B445EFF1F047EF6C
:10E28800F1F05EEFF1F0D8901B361C361D361E36C5
:10E29800D8900F3610361136123625AE56EFF1F0FB
:10E2A80058EFF1F059EFF1F00F80D890223623366D
:10E2B8002436253613501B5C14501C5815501D5815
:10E2C80016501E58D8A06BEFF1F06DEFF1F076EF15
:10E2D800F1F0258C13501B5E14501C5A15501D5A12
:10E2E80016501E5A272A190E27647DEFF1F07FEF8A
:10E2F800F1F03FEFF1F01B501C101D101E10D8B4A8
:10E3080088EFF1F08AEFF1F0A2EFF1F02280A2EFAE
:10E31800F1F0D8900F3610361136123625AE97EF39
:10E32800F1F099EFF1F09AEFF1F00F80D8902236E2
:10E338002336243625362006D8A0210611AEA7EFAD
:10E34800F1F0A9EFF1F08DEFF1F0000E276E25AE98
:10E35800B0EFF1F0B2EFF1F0D6EFF1F0FF0E2214CA
:10E36800176EFF0E2314186EFF0E2414196E7F0EFD
:10E3780025141A6E1750181019101A10D8B4C7EFB0
:10E38800F1F0C9EFF1F0CDEFF1F0010E276ED6EF05
:10E39800F1F00FA0D2EFF1F0D4EFF1F0D6EFF1F0F9
:10E3A800C9EFF1F02750D8B4DCEFF1F0DEEFF1F06F
:10E3B80002EFF2F0010E0F26000E10221122122297
:10E3C80012A0E9EFF1F0EBEFF1F002EFF2F00FC07D
:10E3D80017F010C018F011C019F012C01AF01A3452
:10E3E8001A3219321832173217C00FF018C010F04D
:10E3F80019C011F01AC012F0204A212A21BE0DEFCF
:10E40800F2F0215008E12028D8A00DEFF2F00FEF2C
:10E41800F2F01AEFF2F0000E216E2068000E0F6E77
:10E42800000E106E000E116E000E126E21BE27EF48
:10E43800F2F0215006E12004D8B025EFF2F027EFE2
:10E44800F2F035EFF2F0000E216E000E206E000E95
:10E458000F6E000E106E000E116E000E126E000E82
:10E468001F6E20C026F026A03CEFF2F03EEFF2F03F
:10E4780041EFF2F0118E42EFF2F0119ED890263063
:10E48800126EF8EFF0F012002B50800B346E2B5008
:10E498002B243A6E2AAE53EFF2F055EFF2F056EF16
:10E4A800F2F03A803A50D8B45CEFF2F05EEFF2F056
:10E4B80071EFF2F03A28D8A464EFF2F066EFF2F0C8
:10E4C8006EEFF2F0000E286E000E296E000E2A6E16
:10E4D800000E2B6E2A8E79EFF2F0000E286E000ED9
:10E4E800296E000E2A6E000E2B6E2F50800B341AE8
:10E4F8002F502F24396E2EAE84EFF2F086EFF2F013
:10E5080087EFF2F039803950D8B48DEFF2F08FEF01
:10E51800F2F0A2EFF2F03928D8A495EFF2F097EFD5
:10E52800F2F09FEFF2F0000E2C6E000E2D6E000E32
:10E538002E6E000E2F6E2E8EAAEFF2F0000E2C6EAD
:10E54800000E2D6E000E2E6E000E2F6E3950D8B4B0
:10E55800B0EFF2F0B2EFF2F0BAEFF2F03A50D8A41E
:10E56800B8EFF2F0BAEFF2F0C4EFF2F0000E286E56
:10E57800000E296E000E2A6E000E2B6E5CEFF4F072
:10E588002E502802F3CF3FF0F4CF40F03F50356EC5
:10E59800366A376A386A40503B6E3C6A3D6A3E6A62
:10E5A8002D502902F3CF3FF0F4CF40F03F503526ED
:10E5B800000E36223722382240503B26000E3C22DD
:10E5C8003D223E222C502A02F3CF3FF0F4CF40F0F8
:10E5D8003F503526000E36223722382240503B263F
:10E5E800000E3C223D223E2237C038F036C037F0BC
:10E5F80035C036F0356A2C502902F3CF3FF0F4CFFE
:10E6080040F03F50352640503622000E3722000E8B
:10E6180038222D502802F3CF3FF0F4CF40F03F507E
:10E62800352640503622000E3722000E382237C0D9
:10E6380038F036C037F035C036F0356A2C5028022D
:10E64800F3CF3FF0F4CF40F03F503526405036220C
:10E65800000E3722000E38222E502902F3CF3FF049
:10E66800F4CF40F03F503B2640503C22000E3D2264
:10E67800000E3E222D502A02F3CF3FF0F4CF40F097
:10E688003F503B2640503C22000E3D22000E3E22C9
:10E698002E502A02F3CF3FF0F4CF40F03F50306EB7
:10E6A8004050316E326A336A32C033F031C032F0D2
:10E6B80030C031F0306A30503B2631503C22325065
:10E6C8003D2233503E2235C030F036C031F037C0DD
:10E6D80032F038C033F0190E77EFF3F0D8903332B8
:10E6E800323231323032E82E72EFF3F030503B26BE
:10E6F80031503C2232503D2233503E2237C038F050
:10E7080036C037F035C036F0356A39503AC030F087
:10E71800316A3026000E3122820E30243F6EFF0E01
:10E728003120406EADEFF3F0D8903B363C363D36A5
:10E738003E3638AEA2EFF3F0A4EFF3F0A5EFF3F016
:10E748003B80D89035363636373638363F06D8A02F
:10E7580040063DAEB2EFF3F0B4EFF3F098EFF3F00C
:10E76800000E396E38AEBBEFF3F0BDEFF3F0E1EF1A
:10E77800F3F0FF0E3514306EFF0E3614316EFF0EB7
:10E788003714326E7F0E3814336E30503110321019
:10E798003310D8B4D2EFF3F0D4EFF3F0D8EFF3F0AE
:10E7A800010E396EE1EFF3F03BA0DDEFF3F0DFEFA0
:10E7B800F3F0E1EFF3F0D4EFF3F03950D8B4E7EF2A
:10E7C800F3F0E9EFF3F00DEFF4F0010E3B26000E45
:10E7D8003C223D223E223EA0F4EFF3F0F6EFF3F0A8
:10E7E8000DEFF4F03BC030F03CC031F03DC032F0EA
:10E7F8003EC033F03334333232323132303230C00B
:10E808003BF031C03CF032C03DF033C03EF03F4AEF
:10E81800402A40BE18EFF4F0405008E13F28D8A045
:10E8280018EFF4F01AEFF4F024EFF4F0000E3B6E5A
:10E83800000E3C6E800E3D6E7F0E3E6E52EFF4F081
:10E8480040BE31EFF4F0405006E13F04D8B02FEF5E
:10E85800F4F031EFF4F03DEFF4F0000E3B6E000EF3
:10E868003C6E000E3D6E000E3E6E000E346E52EF92
:10E87800F4F03FC03AF0FF0E3B16FF0E3C167F0E39
:10E888003D16000E3E163AA04CEFF4F04EEFF4F0B1
:10E898004FEFF4F03D8ED8903A303E6E34503E1231
:10E8A8003BC028F03CC029F03DC02AF03EC02BF008
:10E8B80012004450800B4D6E445044244F6E43AEBA
:10E8C80068EFF4F06AEFF4F06BEFF4F04F804F501C
:10E8D800D8B471EFF4F073EFF4F088EFF4F04F2848
:10E8E800D8A479EFF4F07BEFF4F083EFF4F0000EA6
:10E8F800416E000E426E000E436E000E446E438E53
:10E90800000E446E90EFF4F0000E416E000E426E61
:10E91800000E436E000E446E4850800B4E6E4D50F4
:10E928004E18D8B49AEFF4F09CEFF4F09DEFF4F0A1
:10E938004D8C485048244E6E47AEA5EFF4F0A7EF33
:10E94800F4F0A8EFF4F04E804E50D8B4AEEFF4F0E7
:10E95800B0EFF4F0C5EFF4F04E28D8A4B6EFF4F019
:10E96800B8EFF4F0C0EFF4F0000E456E000E466EFE
:10E97800000E476E000E486E478E000E486ECDEFB3
:10E98800F4F0000E456E000E466E000E476E000E47
:10E99800486E4F504E5CD8B0D4EFF4F0D6EFF4F098
:10E9A800FDEFF4F04DACDBEFF4F0DDEFF4F0DFEF6A
:10E9B800F4F0800E4D1A4FC050F04EC04FF050C0CA
:10E9C8004EF041C050F045C041F050C045F042C043
:10E9D80050F046C042F050C046F043C050F047C027
:10E9E80043F050C047F044C050F048C044F050C015
:10E9F80048F0000E506E4F504EC049F04A6A495ECA
:10EA0800000E4A5A4ABE12EFF5F04A5009E11A0EB2
:10EA1800495CD8A012EFF5F014EFF5F04BEFF5F0E4
:10EA28004150421043104410D8A41DEFF5F020EFD8
:10EA3800F5F0010E21EFF5F0000E506E000E416E5C
:10EA4800000E426E000E436E000E446E4EC04FF034
:10EA580054EFF5F050A033EFF5F035EFF5F03BEF5C
:10EA6800F5F0D89050300109506E3DEFF5F0D89090
:10EA7800503241A042EFF5F044EFF5F045EFF5F0E4
:10EA8800508E443444324332423241324F2A4E503F
:10EA98004F5CD8A052EFF5F054EFF5F02EEFF5F0FB
:10EAA8004DBC59EFF5F05BEFF5F09BEFF5F04F50EB
:10EAB800D8A461EFF5F063EFF5F06DEFF5F0000E17
:10EAC800416E000E426E000E436E000E446EBCEFA7
:10EAD800F6F04550412646504222475043224850BE
:10EAE800442244A07AEFF5F07CEFF5F028EFF6F039
:10EAF80050A081EFF5F083EFF5F089EFF5F0D890AD
:10EB080050300109506E8BEFF5F0D890503241A08B
:10EB180090EFF5F092EFF5F093EFF5F0508E443466
:10EB280044324332423241324F2A28EFF6F0455000
:10EB3800415C46504258475043584450800A496EF9
:10EB48004850800A4958D8B0ACEFF5F0AEEFF5F070
:10EB5800D9EFF5F04150455C496E425046584A6E2F
:10EB6800435047584B6E445048584C6EFF0E49244A
:10EB7800416EFF0E4A20426EFF0E4B20436EFF0E81
:10EB88004C20446E800E4D1A506C5050D8A4CFEFD4
:10EB9800F5F0D1EFF5F0E1EFF5F0010E4126000EAA
:10EBA800422243224422E1EFF5F04550415E4650AF
:10EBB800425A4750435A4850445A41504210431011
:10EBC8004410D8A4EAEFF5F0ECEFF5F021EFF6F0F9
:10EBD8005050D8A4F2EFF5F0F4EFF5F021EFF6F08D
:10EBE800000E416E000E426E000E436E000E446E23
:10EBF800BCEFF6F0D890413642364336443650AE34
:10EC080008EFF6F00AEFF6F00BEFF6F0418050A0AF
:10EC180010EFF6F012EFF6F016EFF6F0D880503657
:10EC280018EFF6F0D89050364F50D8B41EEFF6F0E3
:10EC380020EFF6F021EFF6F04F0643AE26EFF6F0A0
:10EC480028EFF6F0FEEFF5F0000E4E6E50AE2FEF07
:10EC5800F6F031EFF6F049EFF6F050C049F07F0ECC
:10EC68004916D8B43AEFF6F03CEFF6F040EFF6F07C
:10EC7800010E4E6E49EFF6F041A045EFF6F047EF72
:10EC8800F6F049EFF6F03CEFF6F04E50D8B44FEFFF
:10EC9800F6F051EFF6F07CEFF6F0010E4126000E8B
:10ECA80042224322442244A05CEFF6F05EEFF6F0E5
:10ECB8007CEFF6F041C049F042C04AF043C04BF047
:10ECC80044C04CF04C344C324B324A32493249C081
:10ECD80041F04AC042F04BC043F04CC044F04F28CA
:10ECE800D8B479EFF6F07BEFF6F07CEFF6F04F2A28
:10ECF8004F28D8B482EFF6F084EFF6F08CEFF6F0F8
:10ED08004F50D8A48AEFF6F08CEFF6F09EEFF6F0AD
:10ED1800000E416E000E426E000E436E000E446EF1
:10ED28004F50D8A49AEFF6F09CEFF6F09EEFF6F06D
:10ED3800000E4D6E4FA0A3EFF6F0A5EFF6F0A8EF8A
:10ED4800F6F0438EA9EFF6F0439ED8904F30446E0C
:10ED58004DAEB1EFF6F0B3EFF6F0B4EFF6F0448E47
:10ED680041C041F042C042F043C043F044C044F0C7
:10ED78001200000E026E630E016EF5ECE9F0BAECBB
:10ED8800E9F045ECE9F027ECE9F0190E5E6E5A0E51
:10ED98005D6EB20EE82EFED75D2EFCD75E2EFAD73A
:10EDA8001BECE9F086840E01B4958686B497000EB4
:10EDB8000001A46F010EA56FA30EA66F0F0EA76F1B
:10EDC8007D0EA86F0F0EA96F040EAA6F000EAC6F10
:10EDD800630EAB6F000EAD6F010EAE6FA00EAF6F7E
:10EDE8000F0EB06F7F0EB16F0F0EB26F060EB36FBE
:10EDF800000EB56F630EB46F000E9D6F000E9C6F12
:10EE0800000E9F6F000E9E6F000EA16F000EA06F88
:10EE1800000EA36F000EA26F7F9287927998819857
:10EE28007E9E869E849E7C9E889680967F82798828
:10EE38007E8E000E836F000E826F7AEFF7F07C8E65
:10EE48008EB429EFF7F02BEFF7F024EFF7F08EB43C
:10EE580030EFF7F032EFF7F044EFF7F07C9E900ECA
:10EE68000C6E000E0D6E39ECEAF0190E5E6E5A0E3D
:10EE78005D6EB20EE82EFED75D2EFCD75E2EFAD759
:10EE88007C8E8EB44AEFF7F04CEFF7F045EFF7F0D1
:10EE98008EB451EFF7F053EFF7F065EFF7F07C9E83
:10EEA800900E0C6E000E0D6E16ECEAF0190E5E6EEA
:10EEB8005A0E5D6EB20EE82EFED75D2EFCD75E2E82
:10EEC800FAD780868EB66BEFF7F06DEFF7F066EF46
:10EED800F7F08EB672EFF7F074EFF7F07AEFF7F01D
:10EEE8008096000E0001836F010E826F000182512F
:10EEF8008311D8B482EFF7F084EFF7F023EFF7F03F
:10EF0800000E876F090E866F000E896F090E886FD5
:10EF1800000E8B6F090E8A6F000E856F090E846FC5
:10EF2800000E8D6F000E8C6F900E0C6E000E0D6E25
:10EF380027ECEBF000018C518D11D8A4A6EFF7F067
:10EF4800A8EFF7F0B2EFF7F0900E5B6E000E5C6E74
:10EF580070ECF9F05BC086F05CC087F000018C05AE
:10EF68008D11D8A4BAEFF7F0BCEFF7F0C6EFF7F0C1
:10EF7800900E5B6E000E5C6E70ECF9F05BC088F072
:10EF88005CC089F0020E00018C198D11D8A4CFEF56
:10EF9800F7F0D1EFF7F0DBEFF7F0900E5B6E000EB5
:10EFA8005C6E70ECF9F05BC08AF05CC08BF0030E0D
:10EFB80000018C198D11D8A4E4EFF7F0E6EFF7F013
:10EFC800F7EFF7F0900E5B6E000E5C6E70ECF9F0E8
:10EFD8005BC084F05CC085F0000E00018D6F000EF0
:10EFE8008C6FF9EFF7F08C4B8D2B8851861907E160
:10EFF80089518719D8A403EFF8F005EFF8F031EF3D
:10F00800F8F08A51881907E18B518919D8A40FEFB4
:10F01800F8F011EFF8F031EFF8F084518A1907E1B0
:10F0280085518B19D8A41BEFF8F01DEFF8F031EFDC
:10F03800F8F086C08EF087C08FF0000E876F090E3B
:10F04800866F000E896F090E886F000E8B6F090E90
:10F058008A6F000E856F090E846F8E518F11D8A4A8
:10F0680038EFF8F03AEFF8F050EFF8F0A40E1D6E14
:10F07800000E1E6EAD0E1F6E000E206E0EECECF034
:10F08800090E5E6E1E0E5D6EE40EE82EFED75D2E36
:10F09800FCD75E2EFAD700D000018E058F11D8A4B8
:10F0A80058EFF8F05AEFF8F070EFF8F0A40E1D6E74
:10F0B800000E1E6EAD0E1F6E000E206ECFECEBF034
:10F0C800090E5E6E1E0E5D6EE40EE82EFED75D2EF6
:10F0D800FCD75E2EFAD700D0020E00018E198F11D0
:10F0E800D8A479EFF8F07BEFF8F091EFF8F0A40EE0
:10F0F8001D6E000E1E6EAD0E1F6E000E206ECBEC48
:10F10800ECF0090E5E6E1E0E5D6EE40EE82EFED764
:10F118005D2EFCD75E2EFAD700D0030E00018E19A3
:10F128008F11D8A49AEFF8F09CEFF8F0B2EFF8F04E
:10F13800A40E236E000E246EAD0E256E000E266EF4
:10F148005EECEDF0090E5E6E1E0E5D6EE40EE82EAE
:10F15800FED75D2EFCD75E2EFAD700D0040E000134
:10F168008E198F11D8A4BBEFF8F0BDEFF8F0D3EFEC
:10F17800F8F0A40E236E000E246EAD0E256E000E60
:10F18800266E0AECEDF0090E5E6E1E0E5D6EE40E44
:10F19800E82EFED75D2EFCD75E2EFAD700D0050EDE
:10F1A80000018E198F11D8A4DCEFF8F0DEEFF8F02B
:10F1B800F4EFF8F0A40E1D6E000E1E6EAD0E1F6E5D
:10F1C800000E206E8CECECF0090E5E6E1E0E5D6E6D
:10F1D800E40EE82EFED75D2EFCD75E2EFAD700D0BF
:10F1E800060E00018E198F11D8A4FDEFF8F0FFEF7D
:10F1F800F8F015EFF9F0A40E1D6E000E1E6EAD0EA0
:10F208001F6E000E206E4DECECF0090E5E6E1E0EA9
:10F218005D6EE40EE82EFED75D2EFCD75E2EFAD783
:10F2280000D0070E00018E198F11D8A41EEFF9F037
:10F2380020EFF9F036EFF9F0A40E1D6E000E1E6EE9
:10F24800AD0E1F6E000E206ECBECECF0090E5E6E5C
:10F258001E0E5D6EE40EE82EFED75D2EFCD75E2EE8
:10F26800FAD700D0080E00018E198F11D8A43FEFED
:10F27800F9F041EFF9F057EFF9F0A40E1D6E000E0A
:10F288001E6EAD0E1F6E000E206E0EECECF0090E19
:10F298005E6E1E0E5D6EE40EE82EFED75D2EFCD768
:10F2A8005E2EFAD700D0090E00018E198F11D8A44E
:10F2B80060EFF9F062EFF9F098EFF7F0A40E196E2D
:10F2C800000E1A6EAD0E1B6E000E1C6EFEECEAF000
:10F2D80098EFF7F000EF00F0000E0001736F090ED1
:10F2E800726F590E2C6E170E2D6E370E2E6E3F0E46
:10F2F8002F6E20EE10F05B50D9265C50DA22DECF5C
:10F3080060F0DDCF61F060C001F061C002F0036A17
:10F31800046A000EB7ECEEF001C028F002C029F034
:10F3280003C02AF004C02BF048ECF2F028C045F0E6
:10F3380029C046F02AC047F02BC048F0D00E2C6EEA
:10F34800B30E2D6E590E2E6E3E0E2F6E20EE0EF061
:10F358005B50D9265C50DA22DECF62F0DDCF63F055
:10F3680062C001F063C002F0036A046A000EB7ECE1
:10F37800EEF001C028F002C029F003C02AF004C052
:10F388002BF048ECF2F028C041F029C042F02AC026
:10F3980043F02BC044F05DECF4F041C068F042C08B
:10F3A80069F043C06AF044C06BF0980E2C6EDD0E15
:10F3B8002D6E930E2E6E3D0E2F6E20EE12F05B50CA
:10F3C800D9265C50DA22DECF60F0DDCF61F060C074
:10F3D80001F061C002F0036A046A000EB7ECEEF0B7
:10F3E80001C028F002C029F003C02AF004C02BF0A5
:10F3F80048ECF2F028C045F029C046F02AC047F092
:10F408002BC048F068C041F069C042F06AC043F0C0
:10F418006BC044F05DECF4F041C051F042C052F0D2
:10F4280043C053F044C054F034ECEEF051C074F0D3
:10F4380052C075F0000E2C6E400E2D6E1C0E2E6EF6
:10F44800460E2F6E5BC0D9FF5CC0DAFFDECF60F0DE
:10F45800DDCF61F020EE06F05B50D9265C50DA2251
:10F46800DECF62F0DDCF63F000016051625F615171
:10F47800635B62C001F063C002F0036A046A000EB5
:10F48800B7ECEEF001C013F002C014F003C015F0A1
:10F4980004C016F05BC0D9FF5CC0DAFFDECF64F0B1
:10F4A800DDCF65F020EE0EF05B50D9265C50DA22F5
:10F4B800DECF66F0DDCF67F000016451665F65510D
:10F4C800675B66C001F067C002F0036A046A000E59
:10F4D800B7ECEEF001C00FF002C010F003C011F05D
:10F4E80004C012F07BECF0F00FC028F010C029F037
:10F4F80011C02AF012C02BF048ECF2F028C051F0ED
:10F5080029C052F02AC053F02BC054F034ECEEF06E
:10F5180051C06CF052C06DF0000E2C6E400E2D6E76
:10F528001C0E2E6E460E2F6E20EE02F05B50D92672
:10F538005C50DA22DECF60F0DDCF61F020EE08F01B
:10F548005B50D9265C50DA22DECF62F0DDCF63F063
:10F5580000016051625F6151635B62C001F063C08A
:10F5680002F0036A046A000EB7ECEEF001C013F073
:10F5780002C014F003C015F004C016F020EE02F02B
:10F588005B50D9265C50DA22DECF64F0DDCF65F01F
:10F5980020EE10F05B50D9265C50DA22DECF66F000
:10F5A800DDCF67F000016451665F6551675B66C037
:10F5B80001F067C002F0036A046A000EB7ECEEF0CF
:10F5C80001C00FF002C010F003C011F004C012F027
:10F5D8007BECF0F00FC028F010C029F011C02AF021
:10F5E80012C02BF048ECF2F028C051F029C052F0BC
:10F5F8002AC053F02BC054F034ECEEF051C06EF03A
:10F6080052C06FF0000E2C6E400E2D6E1C0E2E6E2A
:10F61800460E2F6E20EE04F05B50D9265C50DA229D
:10F62800DECF60F0DDCF61F020EE0AF05B50D92626
:10F638005C50DA22DECF62F0DDCF63F0000160516A
:10F64800625F6151635B62C001F063C002F0036AEC
:10F65800046A000EB7ECEEF001C013F002C014F01B
:10F6680003C015F004C016F020EE04F05B50D92654
:10F678005C50DA22DECF64F0DDCF65F020EE12F0C8
:10F688005B50D9265C50DA22DECF66F0DDCF67F01A
:10F6980000016451665F6551675B66C001F067C031
:10F6A80002F0036A046A000EB7ECEEF001C00FF036
:10F6B80002C010F003C011F004C012F07BECF0F0AF
:10F6C8000FC028F010C029F011C02AF012C02BF08A
:10F6D80048ECF2F028C051F029C052F02AC053F08B
:10F6E8002BC054F034ECEEF051C070F052C071F001
:10F6F8006CC001F06DC002F0036A046A000EB7EC3A
:10F70800EEF001C00FF002C010F003C011F004C009
:10F7180012F06EC001F06FC002F0036A046A000EB6
:10F72800B7ECEEF001C013F002C014F003C015F0FE
:10F7380004C016F07BECF0F00FC076F010C077F044
:10F7480011C078F012C079F06CC001F06DC002F001
:10F75800036A046A000EB7ECEEF001C00FF002C0B5
:10F7680010F003C011F004C012F070C001F071C0B5
:10F7780002F0036A046A000EB7ECEEF001C013F061
:10F7880002C014F003C015F004C016F07BECF0F0D2
:10F798000FC07AF010C07BF011C07CF012C07DF071
:10F7A80070C001F071C002F0036A046A000EB7EC81
:10F7B800EEF001C00FF002C010F003C011F004C059
:10F7C80012F06EC001F06FC002F0036A046A000E06
:10F7D800B7ECEEF001C013F002C014F003C015F04E
:10F7E80004C016F07BECF0F00FC07EF010C07FF084
:10F7F80011C080F012C081F0000179BF08EFFCF061
:10F8080006EFFCF010EFFCF0000E766F000E776F3D
:10F81800000E786F000E796F7DBF17EFFCF015EFC3
:10F82800FCF01FEFFCF0000E7A6F000E7B6F000EED
:10F838007C6F000E7D6F81BF26EFFCF024EFFCF09B
:10F848002EEFFCF0000E7E6F000E7F6F000E806FB3
:10F85800000E816F76C00DF077C00EF078C00FF003
:10F8680079C010F0330E116E330E126EA30E136EA4
:10F87800400E146E000E156E000E166EA40E176E56
:10F88800410E186E92ECEBF00D040E10D8A44FEF59
:10F89800FCF051EFFCF0A7EFFCF07AC00DF07BC054
:10F8A8000EF07CC00FF07DC010F0CD0E116ECC0EA6
:10F8B800126E0C0E136E400E146E330E156E330E50
:10F8C800166E730E176E400E186E92ECEBF00D0468
:10F8D8000E10D8A472EFFCF074EFFCF0A7EFFCF068
:10F8E8007EC00DF07FC00EF080C00FF081C010F018
:10F8F800660E116E660E126EE60E136E3F0E146ED5
:10F90800000E156E000E166EB00E176E400E186EB5
:10F9180092ECEBF00D040E10D8A495EFFCF097EFE5
:10F92800FCF0A7EFFCF0210E0001745D030E755981
:10F93800D8A0A1EFFCF0A3EFFCF0A7EFFCF0000EBD
:10F94800736F000E726F76C00DF077C00EF078C03E
:10F958000FF079C010F0CD0E116ECC0E126E4C0E59
:10F96800136E3E0E146E480E156EE10E166EFA0EEC
:10F97800176E3E0E186E92ECEBF00D040E10D8A424
:10F98800C8EFFCF0CAEFFCF015EFFDF07AC00DF0FF
:10F998007BC00EF07CC00FF07DC010F0290E116EF8
:10F9A8005C0E126E8F0E136E3E0E146E3D0E156EAB
:10F9B8000A0E166E170E176E3F0E186E92ECEBF0CD
:10F9C8000D040E10D8A4EBEFFCF0EDEFFCF015EFF2
:10F9D800FDF07EC00DF07FC00EF080C00FF081C03A
:10F9E80010F0330E116E330E126E330E136E3F0E7F
:10F9F800146E660E156E660E166E660E176E3F0E48
:10FA0800186E92ECEBF00D040E10D8A40EEFFDF07A
:10FA180010EFFDF015EFFDF0000E0001736F010E01
:10FA2800726F76C00DF077C00EF078C00FF079C015
:10FA380010F0CD0E116ECC0E126ECC0E136E3D0E64
:10FA4800146ECD0E156ECC0E166E0C0E176E3F0E84
:10FA5800186E92ECEBF00D040E10D8A436EFFDF002
:10FA680038EFFDF083EFFDF07AC00DF07BC00EF0AB
:10FA78007CC00FF07DC010F0CD0E116ECC0E126E52
:10FA8800CC0E136E3D0E146E140E156EAE0E166E61
:10FA9800C70E176E3E0E186E92ECEBF00D040E10AA
:10FAA800D8A459EFFDF05BEFFDF083EFFDF07EC0C9
:10FAB8000DF07FC00EF080C00FF081C010F0000E76
:10FAC800116E000E126E800E136E3F0E146E9A0E9B
:10FAD800156E990E166E990E176E3F0E186E92ECF3
:10FAE800EBF00D040E10D8A47CEFFDF07EEFFDF0D6
:10FAF80083EFFDF0000E0001736F020E726F76C087
:10FB08000DF077C00EF078C00FF079C010F09A0EA3
:10FB1800116E990E126E990E136E3F0E146E330EFF
:10FB2800156E330E166EB30E176E3F0E186E92ECEE
:10FB3800EBF00D040E10D8A4A4EFFDF0A6EFFDF035
:10FB4800FCEFFDF07AC00DF07BC00EF07CC00FF02A
:10FB58007DC010F0000E116E000E126EC00E136EF6
:10FB68003F0E146EEC0E156E510E166ED80E176EF3
:10FB78003F0E186E92ECEBF00D040E10D8A4C7EFF0
:10FB8800FDF0C9EFFDF0FCEFFDF07EC00DF07FC089
:10FB98000EF080C00FF081C010F0CD0E116ECC0EAB
:10FBA800126E4C0E136E3F0E146E660E156E660EB8
:10FBB800166E660E176E3F0E186E92ECEBF00D0483
:10FBC8000E10D8A4EAEFFDF0ECEFFDF0FCEFFDF02D
:10FBD800530E0001745D030E7559D8A0F6EFFDF0C1
:10FBE800F8EFFDF0FCEFFDF0000E736F030E726F7F
:10FBF80076C00DF077C00EF078C00FF079C010F025
:10FC0800140E116EAE0E126EC70E136E3F0E146EEA
:10FC1800710E156E3D0E166EEA0E176E3F0E186EBB
:10FC280092ECEBF00D040E10D8A41DEFFEF01FEFC0
:10FC3800FEF075EFFEF07AC00DF07BC00EF07CC0D0
:10FC48000FF07DC010F0A40E116E700E126E9D0E96
:10FC5800136E3F0E146E000E156E000E166EC00E5B
:10FC6800176E3F0E186E92ECEBF00D040E10D8A430
:10FC780040EFFEF042EFFEF075EFFEF07EC00DF0B3
:10FC88007FC00EF080C00FF081C010F0330E116EEF
:10FC9800330E126E930E136E3F0E146E660E156EB3
:10FCA800660E166EA60E176E3F0E186E92ECEBF0EF
:10FCB8000D040E10D8A463EFFEF065EFFEF075EFAB
:10FCC800FEF03F0E0001745D030E7559D8A06FEF6A
:10FCD800FEF071EFFEF075EFFEF0000E736F040E8C
:10FCE800726F76C00DF077C00EF078C00FF079C053
:10FCF80010F0660E116E660E126E460E136E400EF2
:10FD0800146E330E156E330E166E9B0E176E400E64
:10FD1800186E92ECEBF00D040E10D8A496EFFEF0DE
:10FD280098EFFEF0EEEFFEF07AC00DF07BC00EF01B
:10FD38007CC00FF07DC010F0CD0E116ECC0E126E8F
:10FD48000C0E136E400E146EB80E156E1E0E166E47
:10FD5800350E176E400E186E92ECEBF00D040E1077
:10FD6800D8A4B9EFFEF0BBEFFEF0EEEFFEF07EC0D8
:10FD78000DF07FC00EF080C00FF081C010F05C0E57
:10FD8800116E8F0E126EA20E136E3F0E146E660E5B
:10FD9800156E660E166EE60E176E3F0E186E92EC16
:10FDA800EBF00D040E10D8A4DCEFFEF0DEEFFEF051
:10FDB800EEEFFEF0210E0001745D030E7559D8A018
:10FDC800E8EFFEF0EAEFFEF0EEEFFEF0000E736FE4
:10FDD800050E726F76C00DF077C00EF078C00FF088
:10FDE80079C010F09A0E116E990E126E190E136EDC
:10FDF8003F0E146EF60E156E280E166E5C0E176EFC
:10FE08003F0E186E92ECEBF00D040E10D8A40FEF15
:10FE1800FFF011EFFFF05CEFFFF07AC00DF07BC050
:10FE28000EF07CC00FF07DC010F09A0E116E990E86
:10FE3800126E190E136E3F0E146E9A0E156E990EF1
:10FE4800166E590E176E3F0E186E92ECEBF00D04FD
:10FE58000E10D8A432EFFFF034EFFFF05CEFFFF0A4
:10FE68007EC00DF07FC00EF080C00FF081C010F092
:10FE7800330E116E330E126E730E136E3F0E146E28
:10FE8800290E156E5C0E166E8F0E176E3F0E186ECD
:10FE980092ECEBF00D040E10D8A455EFFFF057EFDD
:10FEA800FFF05CEFFFF0000E0001736F060E726F3B
:10FEB80076C00DF077C00EF078C00FF079C010F062
:10FEC800660E116E660E126E660E136E3F0E146E7F
:10FED800CD0E156ECC0E166E8C0E176E3F0E186E6C
:10FEE80092ECEBF00D040E10D8A47DEFFFF07FEF3D
:10FEF800FFF0D5EFFFF07AC00DF07BC00EF07CC0AC
:10FF08000FF07DC010F0CD0E116ECC0E126E4C0E9F
:10FF1800136E3F0E146E000E156E000E166E800ED8
:10FF2800176E3F0E186E92ECEBF00D040E10D8A46D
:10FF3800A0EFFFF0A2EFFFF0D5EFFFF07EC00DF0CD
:10FF48007FC00EF080C00FF081C010F0330E116E2C
:10FF5800330E126E730E136E3F0E146ECD0E156EA9
:10FF6800CC0E166E8C0E176E3F0E186E92ECEBF0E0
:10FF78000D040E10D8A4C3EFFFF0C5EFFFF0D5EFC6
:10FF8800FFF07B0E0001745D030E7559D8A0CFEF0A
:10FF9800FFF0D1EFFFF0D5EFFFF0000E736F070E03
:10FFA800726F00016D5107E14B0E6C5DD8B0DFEF49
:10FFB800FFF0E1EFFFF0FBEFFFF06F5107E14B0EB1
:10FFC8006E5DD8B0EAEFFFF0ECEFFFF0FBEFFFF06B
:10FFD800715107E14B0E705DD8B0F5EFFFF0F7EF08
:10FFE800FFF0FBEFFFF0000E736F080E726F72C028
:08FFF8005BF073C05CF0120025
:020000040020DA
:10000000FF0FFF0FFF0FFF0FFF0FFF0FFF0FFF0F80
:020000040030CA
:0C000000AAFFFFFF9FFFFFFFFFFFFFFFB5
:00000001FF
