:040000003BEF00F0E2
:100008005A82D9CF03F0DACF04F00E0137A70FEFE9
:1000180000F011EF00F014EF00F0E35107EC1EF0D0
:100028000E0137A51AEF00F01CEF00F035EF00F0D5
:100038002DA521EF00F023EF00F035EF00F08DEC57
:100048001EF0E806D8A42BEF00F02DEF00F033EFF8
:1000580000F0C7EC1DF00E01E46F35EF00F00E0163
:100068002D9504C0DAFF03C0D9FF5A92110059EF49
:020078001BF07B
:100E0000006042A20D205431723A256420543167AB
:100E10003A2564205431623A25642000205432720D
:100E20003A2564205432673A2564205432623A25C8
:100E3000642000205433723A2564205433673A25E5
:100E400064205433623A256420002054313A2564EA
:0F0E50002054323A25642054333A2564200000A0
:100E60002EC0A6F02FC0A7F030C0A8F031C0A9F066
:100E7000A6C0BEF0A7C0BFF0A8C0C0F0A9C0C1F016
:100E8000000E0001BE15326E000EBF15336E800ECF
:100E9000C015346E7F0EC115356E800E341809E111
:100EA0007F0E351832103310D8A459EF07F05BEFDE
:100EB00007F089EF07F02EC009F02FC00AF030C00C
:100EC0000BF031C00CF02EC005F02FC006F030C082
:100ED00007F031C008F034EC0EF005C01EF006C07B
:100EE0001FF007C020F008C021F02EC022F02FC054
:100EF00023F030C024F031C025F090EC09F01EC082
:100F00002EF01FC02FF020C030F021C031F08FEF45
:100F100009F0C1BF98EF07F0C151C011BF1106E140
:100F2000BE05D8B096EF07F098EF07F0D4EF07F0C2
:100F3000FF0EBE15326EFF0EBF15336EFF0EC015CD
:100F4000346E7F0EC115356E3250331034103510AB
:100F5000D8A4ADEF07F0AFEF07F0B9EF07F02EC060
:100F60002EF02FC02FF030C030F031C031F08FEFB5
:100F700009F0C1BFC0EF07F0BEEF07F0D4EF07F0F4
:100F8000000E756F210E746F5D0E056E0E0E066EEF
:100F900043EC1EF005C02EF006C02FF007C030F065
:100FA00008C031F08FEF09F0170E326EBEC033F07B
:100FB000BFC034F0C0C035F0C1C036F03266E3EFD8
:100FC00007F0EBEF07F03634363235323432333255
:100FD000322EDEEF07F033C0B6F034C0B7F035C0C4
:100FE000B8F036C0B9F00001B651B711B811B91157
:100FF000D8A4FDEF07F0FFEF07F02FEF08F0000E89
:10100000A26F000EA36F000EA46F000EA56F14EF69
:1010100008F0D890BE37BF37C037C137010EA227BE
:10102000000EA323A423A523C0AF19EF08F01BEFE4
:1010300008F009EF08F0FF0EA225326EFF0EA32183
:10104000336EFF0EA421346EFF0EA521356E325093
:10105000B65F3350B75B3450B85B3550B95B810E27
:10106000B627FF0EB723FF0EB823FF0EB923FF0EDE
:10107000BE15326EFF0EBF15336E7F0EC015346E77
:10108000000EC115356E000E3210BE6F000E33100B
:10109000BF6F800E3410C06F000E3510C16FB6A147
:1010A00054EF08F056EF08F05EEF08F0BE51BE278F
:1010B000BF51BF23C051C023C151C123B935B9337A
:1010C000B833B733B633BE51BE27BF51BF23C0516B
:1010D000C023C151C123000E9E6F000E9F6F000EF2
:1010E000A06F000EA16F9EC0AAF09FC0ABF0A0C081
:1010F000ACF0A1C0ADF0000EBA6F000EBB6F000ED9
:10110000BC6F010EBD6FCDEF08F09E51BA25AE6FDA
:101110009F51BB21AF6FA051BC21B06FA151BD2128
:10112000B16FAE51BE5DAF51BF59B051C059C15141
:10113000800A326EB151800A3258D8A0A2EF08F06E
:10114000A4EF08F0C0EF08F0AE51BA259E6FAF5182
:10115000BB219F6FB051BC21A06FB151BD21A16FC8
:10116000AE51BE5FAF51BF5BB051C05BB151C15B0F
:10117000BA51AA27BB51AB23BC51AC23BD51AD23FF
:10118000BE51BE27BF51BF23C051C023C151C1238F
:10119000D890BD33BC33BB33BA33BA51BB11BC1189
:1011A000BD11D8A4D6EF08F0D8EF08F085EF08F00D
:1011B000BE51BF11C011C111D8B4E1EF08F0E3EF87
:1011C00008F044EF09F0000EB26F000EB36F800E0E
:1011D000B46F3F0EB56FB2C005F0B3C006F0B4C037
:1011E00007F0B5C008F0000E096E000E0A6E800E02
:1011F0000B6E3F0E0C6E0FEC1AF0D8A002EF09F048
:1012000004EF09F044EF09F0000E0001B26F000E88
:10121000B36F800EB46F3F0EB56F000E056E000EFB
:10122000066E800E076E3F0E086EB2C009F0B3C0A6
:101230000AF0B4C00BF0B5C00CF00FEC1AF0D8B047
:1012400024EF09F026EF09F02FEF09F0020E00015C
:10125000AA27000EAB23AC23AD2344EF09F0010E07
:101260000001AA15326E000EAB15336E000EAC15E0
:10127000346E000EAD15356E3250AA273350AB23B5
:101280003450AC233550AD23AAC032F0ABC033F09C
:10129000ACC034F0ADC035F0353435323432333291
:1012A0003232000E32240001BE6F000E3320BF6FB9
:1012B000000E3420C06F3F0E3520C16FB6C032F033
:1012C000B7C033F0B8C034F0B9C035F0170ED890BD
:1012D0003236333634363536E82E67EF09F0325081
:1012E000BE273350BF233450C0233550C123BEC066
:1012F000A6F0BFC0A7F0C0C0A8F0C1C0A9F0A6C0AA
:10130000B2F0A7C0B3F0A8C0B4F0A9C0B5F0B2C0A5
:101310002EF0B3C02FF0B4C030F0B5C031F01200E1
:101320002150800B2A6E215021242C6E20AE9BEF81
:1013300009F09DEF09F09EEF09F02C802C50D8B4F5
:10134000A4EF09F0A6EF09F0BBEF09F02C28D8A410
:10135000ACEF09F0AEEF09F0B6EF09F0000E1E6E2B
:10136000000E1F6E000E206E000E216E208E000EED
:10137000216EC3EF09F0000E1E6E000E1F6E000EF0
:10138000206E000E216E2550800B2B6E2A502B18DC
:10139000D8B4CDEF09F0CFEF09F0D0EF09F02A8CE7
:1013A000255025242B6E24AED8EF09F0DAEF09F092
:1013B000DBEF09F02B802B50D8B4E1EF09F0E3EF1D
:1013C00009F0F8EF09F02B28D8A4E9EF09F0EBEFCA
:1013D00009F0F3EF09F0000E226E000E236E000EEE
:1013E000246E000E256E248E000E256E00EF0AF08E
:1013F000000E226E000E236E000E246E000E256E6F
:101400002C502B5CD8B007EF0AF009EF0AF030EF50
:101410000AF02AAC0EEF0AF010EF0AF012EF0AF011
:10142000800E2A1A2CC02DF02BC02CF02DC02BF0D2
:101430001EC02DF022C01EF02DC022F01FC02DF0C6
:1014400023C01FF02DC023F020C02DF024C020F0B9
:101450002DC024F021C02DF025C021F02DC025F095
:10146000000E2D6E2C502BC026F0276A265E000E33
:10147000275A27BE45EF0AF0275009E11A0E265CCD
:10148000D8A045EF0AF047EF0AF07EEF0AF01E50B1
:101490001F1020102110D8A450EF0AF053EF0AF0CB
:1014A000010E54EF0AF0000E2D6E000E1E6E000E9F
:1014B0001F6E000E206E000E216E2BC02CF087EFE9
:1014C0000AF02DA066EF0AF068EF0AF06EEF0AF05E
:1014D000D8902D3001092D6E70EF0AF0D8902D3282
:1014E0001EA075EF0AF077EF0AF078EF0AF02D8E64
:1014F0002134213220321F321E322C2A2B502C5CF8
:10150000D8A085EF0AF087EF0AF061EF0AF02ABC55
:101510008CEF0AF08EEF0AF0CEEF0AF02C50D8A430
:1015200094EF0AF096EF0AF0A0EF0AF0000E1E6E9C
:10153000000E1F6E000E206E000E216EEFEF0BF0FE
:1015400022501E2623501F222450202225502122C3
:1015500021A0ADEF0AF0AFEF0AF05BEF0BF02DA08A
:10156000B4EF0AF0B6EF0AF0BCEF0AF0D8902D30D5
:1015700001092D6EBEEF0AF0D8902D321EA0C3EFE8
:101580000AF0C5EF0AF0C6EF0AF02D8E21342132A1
:1015900020321F321E322C2A5BEF0BF022501E5CD1
:1015A00023501F58245020582150800A266E255061
:1015B000800A2658D8B0DFEF0AF0E1EF0AF00CEF0E
:1015C0000BF01E50225C266E1F502358276E2050B1
:1015D0002458286E21502558296EFF0E26241E6E91
:1015E000FF0E27201F6EFF0E2820206EFF0E2920E1
:1015F000216E800E2A1A2D6C2D50D8A402EF0BF00C
:1016000004EF0BF014EF0BF0010E1E26000E1F224C
:101610002022212214EF0BF022501E5E23501F5A6D
:101620002450205A2550215A1E501F1020102110DE
:10163000D8A41DEF0BF01FEF0BF054EF0BF02D5063
:10164000D8A425EF0BF027EF0BF054EF0BF0000EB2
:101650001E6E000E1F6E000E206E000E216EEFEF4C
:101660000BF0D8901E361F36203621362DAE3BEFBC
:101670000BF03DEF0BF03EEF0BF01E802DA043EF83
:101680000BF045EF0BF049EF0BF0D8802D364BEF08
:101690000BF0D8902D362C50D8B451EF0BF053EFFF
:1016A0000BF054EF0BF02C0620AE59EF0BF05BEF74
:1016B0000BF031EF0BF0000E2B6E2DAE62EF0BF046
:1016C00064EF0BF07CEF0BF02DC026F07F0E26169A
:1016D000D8B46DEF0BF06FEF0BF073EF0BF0010E62
:1016E0002B6E7CEF0BF01EA078EF0BF07AEF0BF077
:1016F0007CEF0BF06FEF0BF02B50D8B482EF0BF0B8
:1017000084EF0BF0AFEF0BF0010E1E26000E1F2230
:101710002022212221A08FEF0BF091EF0BF0AFEFF1
:101720000BF01EC026F01FC027F020C028F021C0FB
:1017300029F02934293228322732263226C01EF0D9
:1017400027C01FF028C020F029C021F02C28D8B4D1
:10175000ACEF0BF0AEEF0BF0AFEF0BF02C2A2C2818
:10176000D8B4B5EF0BF0B7EF0BF0BFEF0BF02C5088
:10177000D8A4BDEF0BF0BFEF0BF0D1EF0BF0000ED4
:101780001E6E000E1F6E000E206E000E216E2C507D
:10179000D8A4CDEF0BF0CFEF0BF0D1EF0BF0000E94
:1017A0002A6E2CA0D6EF0BF0D8EF0BF0DBEF0BF08E
:1017B000208EDCEF0BF0209ED8902C30216E2AAECC
:1017C000E4EF0BF0E6EF0BF0E7EF0BF0218E1EC01D
:1017D0001EF01FC01FF020C020F021C021F0120019
:1017E000000E066E630E056E1EEC1DF095EC1DF0EE
:1017F00054EC1EF09FEC1EF086840E01B495000E92
:101800000301866F010E876FA30E886F0F0E896F1D
:101810007D0E8A6F0F0E8B6F040E8C6F000E8E6F15
:10182000630E8D6F000E8F6F010E906FA00E916F83
:101830000F0E926F7F0E936F0F0E946F060E956FC3
:10184000000E976F630E966F000E996F000E986FE3
:10185000000E9B6F000E9A6F000E9D6F000E9C6F26
:101860007F928792799881987E8E869E849E7C9EB8
:10187000980E106E030E116E98EC1BF07C9E8EB4C9
:1018800044EF0CF046EF0CF038EF0CF023EE7EF056
:10189000050EDE6AE806FDE223EE68F0050EDE6A5C
:1018A000E806FDE223EE6EF0050EDE6AE806FDE2D4
:1018B00023EE74F0050EDE6AE806FDE27C8E7F8280
:1018C00079887E8E980E106E030E116E98EC1BF0C8
:1018D00098C368F399C369F39AC36AF39BC36BF324
:1018E0009CC36CF39DC36DF3980E0001C66F030E8D
:1018F000C76F63EC13F0C6C07EF3C7C07FF3090E59
:101900000001C96F1E0EC86FE40EE82EFED7C82F67
:10191000FCD7C92FFAD700F07F8279987E9E980E67
:10192000106E030E116E98EC1BF098C36EF399C302
:101930006FF39AC370F39BC371F39CC372F39DC39F
:1019400073F3980E0001C66F030EC76FD6EC11F04B
:10195000C6C080F3C7C081F3090E0001C96F1E0E17
:10196000C86FE40EE82EFED7C82FFCD7C92FFAD7D0
:1019700000F07F9279887E9E980E106E030E116E95
:1019800098EC1BF098C374F399C375F39AC376F37C
:101990009BC377F39CC378F39DC379F3980E000142
:1019A000C66F030EC76F49EC10F0C6C082F3C7C004
:1019B00083F3090E0001C96F1E0EC86FE40EE82EF6
:1019C000FED7C82FFCD7C92FFAD700F07F9279989D
:1019D0007E9E000E03017B6F030E7A6F000E856FF3
:1019E000000E846F33EF0DF0010E030184257C6F30
:1019F000000E85217D6F1EEF0DF0D89003017C3520
:101A0000D96E7D35DA6E7E0ED926030EDA22D89095
:101A10008435E16E8535E26E7E0EE126030EE2220C
:101A2000DE50E61807E1DE50E618D8A41AEF0DF0F4
:101A30001CEF0DF01CEF0DF07C4B7D2B7A517C5D83
:101A40007D51800A0001C86F03017B51800A0001AB
:101A5000C859D8A02EEF0DF030EF0DF0FDEF0CF0CF
:101A60000301844B852BFF0E0001C86FFF0EC96F69
:101A70007AC3CAF07BC3CBF0C851CA27C951CB2364
:101A8000CA510301845D8551800A0001CC6FCB519E
:101A9000800ACC59D8A04FEF0DF051EF0DF0F4EFC4
:101AA0000CF07EC350F37FC351F380C352F381C364
:101AB00053F382C354F383C355F3000EA46F030E94
:101AC000A56F4A0EA66F0E0EA76F50C3A8F051C3A4
:101AD000A9F052C3AAF053C3ABF054C3ACF055C342
:101AE000ADF03AEC1CF0000E066E030E076EAFEC84
:101AF0001DF074EC1EF0090E0001C96F1E0EC86FB8
:101B0000E40EE82EFED7C82FFCD7C92FFAD700F075
:101B100068C356F369C357F36AC358F36BC359F3E9
:101B20006CC35AF36DC35BF3140E0001A46F030E74
:101B3000A56F050EA66F0E0EA76F56C3A8F057C36C
:101B4000A9F058C3AAF059C3ABF05AC3ACF05BC3B9
:101B5000ADF03AEC1CF0140E066E030E076EAFECFF
:101B60001DF074EC1EF0090E0001C96F1E0EC86F47
:101B7000E40EE82EFED7C82FFCD7C92FFAD700F005
:101B80006EC35CF36FC35DF370C35EF371C35FF349
:101B900072C360F373C361F3280E0001A46F030ED8
:101BA000A56F1C0EA66F0E0EA76F5CC3A8F05DC3D9
:101BB000A9F05EC3AAF05FC3ABF060C3ACF061C331
:101BC000ADF03AEC1CF0280E066E030E076EAFEC7B
:101BD0001DF074EC1EF0090E0001C96F1E0EC86FD7
:101BE000E40EE82EFED7C82FFCD7C92FFAD700F095
:101BF00074C362F375C363F376C364F377C365F3A9
:101C000078C366F379C367F33C0E0001A46F030E3B
:101C1000A56F330EA66F0E0EA76F62C3A8F063C345
:101C2000A9F064C3AAF065C3ABF066C3ACF067C3A8
:101C3000ADF03AEC1CF03C0E066E030E076EAFECF6
:101C40001DF074EC1EF0090E0001C96F1E0EC86F66
:101C5000E40EE82EFED7C82FFCD7C92FFAD700F024
:101C600038EF0CF03BEF00F00850800B116E08507D
:101C70000824176E07AE3FEF0EF041EF0EF042EF73
:101C80000EF017801750D8B448EF0EF04AEF0EF060
:101C90005DEF0EF01728D8A450EF0EF052EF0EF0C3
:101CA0005AEF0EF0000E056E000E066E000E076E67
:101CB000000E086E078E65EF0EF0000E056E000E2A
:101CC000066E000E076E000E086E0C50800B111A87
:101CD0000C500C24126E0BAE70EF0EF072EF0EF083
:101CE00073EF0EF012801250D8B479EF0EF07BEF44
:101CF0000EF08EEF0EF01228D8A481EF0EF083EFD5
:101D00000EF08BEF0EF0000E096E000E0A6E000E44
:101D10000B6E000E0C6E0B8E96EF0EF0000E096E21
:101D2000000E0A6E000E0B6E000E0C6E1250D8B430
:101D30009CEF0EF09EEF0EF0A6EF0EF01750D8A419
:101D4000A4EF0EF0A6EF0EF0B0EF0EF0000E056E51
:101D5000000E066E000E076E000E086E48EF10F0C3
:101D60000B500502F3CF1CF0F4CF1DF01C50136E86
:101D7000146A156A166A1D50186E196A1A6A1B6A67
:101D80000A500602F3CF1CF0F4CF1DF01C501326AE
:101D9000000E1422152216221D501826000E19229C
:101DA0001A221B2209500702F3CF1CF0F4CF1DF0BA
:101DB0001C501326000E1422152216221D50182620
:101DC000000E19221A221B2215C016F014C015F09D
:101DD00013C014F0136A09500602F3CF1CF0F4CFBD
:101DE0001DF01C5013261D501422000E1522000E4B
:101DF00016220A500502F3CF1CF0F4CF1DF01C5040
:101E000013261D501422000E1522000E162215C096
:101E100016F014C015F013C014F0136A095005022F
:101E2000F3CF1CF0F4CF1DF01C5013261D501422CC
:101E3000000E1522000E16220B500602F3CF1CF0E6
:101E4000F4CF1DF01C5018261D501922000E1A2226
:101E5000000E1B220A500702F3CF1CF0F4CF1DF036
:101E60001C5018261D501922000E1A22000E1B228B
:101E70000B500702F3CF1CF0F4CF1DF01C500D6E79
:101E80001D500E6E0F6A106A0FC010F00EC00FF0DA
:101E90000DC00EF00D6A0D5018260E5019220F506D
:101EA0001A2210501B2213C00DF014C00EF015C0E2
:101EB0000FF016C010F0190E63EF0FF0D89010322B
:101EC0000F320E320D32E82E5EEF0FF00D50182655
:101ED0000E5019220F501A2210501B2215C016F056
:101EE00014C015F013C014F0136A125017C00DF08F
:101EF0000E6A0D26000E0E22820E0D241C6EFF0EA1
:101F00000E201D6E99EF0FF0D890183619361A363C
:101F10001B3616AE8EEF0FF090EF0FF091EF0FF033
:101F20001880D89013361436153616361C06D8A0ED
:101F30001D061AAE9EEF0FF0A0EF0FF084EF0FF02A
:101F4000000E126E16AEA7EF0FF0A9EF0FF0CDEF57
:101F50000FF0FF0E13140D6EFF0E14140E6EFF0E15
:101F600015140F6E7F0E1614106E0D500E100F10FC
:101F70001010D8B4BEEF0FF0C0EF0FF0C4EF0FF0A9
:101F8000010E126ECDEF0FF018A0C9EF0FF0CBEFDE
:101F90000FF0CDEF0FF0C0EF0FF01250D8B4D3EF29
:101FA0000FF0D5EF0FF0F9EF0FF0010E1826000E2D
:101FB00019221A221B221BA0E0EF0FF0E2EF0FF014
:101FC000F9EF0FF018C00DF019C00EF01AC00FF0A5
:101FD0001BC010F0103410320F320E320D320DC013
:101FE00018F00EC019F00FC01AF010C01BF01C4AF8
:101FF0001D2A1DBE04EF10F01D5008E11C28D8A0BA
:1020000004EF10F006EF10F010EF10F0000E186E55
:10201000000E196E800E1A6E7F0E1B6E3EEF10F0D2
:102020001DBE1DEF10F01D5006E11C04D8B01BEFC3
:1020300010F01DEF10F029EF10F0000E186E000EDA
:10204000196E000E1A6E000E1B6E000E116E3EEF22
:1020500010F01CC017F0FF0E1816FF0E19167F0E99
:102060001A16000E1B1617A038EF10F03AEF10F0FA
:102070003BEF10F01A8ED89017301B6E11501B12C8
:1020800018C005F019C006F01AC007F01BC008F010
:10209000120022EE00F011EE00F0350EDBCFE3FF70
:1020A000E806FCE2030E01013D6FE80E3C6F000EF6
:1020B000476F000E466FC6C0D9FFC7C0DAFFDECF3C
:1020C0003DF0DDCF3EF046C105F047C106F0000E01
:1020D000086E060E076E30EC1EF0000E0524D96E59
:1020E000010E0620DA6EDECF3FF0DDCF40F03D502E
:1020F0003F5C0101426F3E504058436FC6C0D9FF5C
:10210000C7C0DAFFDECF3DF0DDCF3EF046C105F0BF
:1021100047C106F0000E086E060E076E30EC1EF08A
:10212000000E0524D96E010E0620DA6EDECF3FF0D8
:10213000DDCF40F03D503F5C0101446F3E504058C0
:10214000456F42C105F043C106F044C107F045C1E7
:1021500008F030EC1EF005C036F106C037F1000182
:1021600020EE02F0C651D926C751DA22DECF3DF06B
:10217000DDCF3EF046C105F047C106F0000E086E07
:10218000060E076E30EC1EF0020E0526000E06222B
:10219000000E0524D96E010E0620DA6EDECF3FF068
:1021A000DDCF40F03D503F5C0101426F3E50405852
:1021B000436F000120EE02F0C651D926C751DA2242
:1021C000DECF3DF0DDCF3EF046C105F047C106F061
:1021D000000E086E060E076E30EC1EF0020E05268D
:1021E000000E0622000E0524D96E010E0620DA6EBE
:1021F000DECF3FF0DDCF40F03D503F5C0101446F4A
:102200003E504058456F42C105F043C106F044C1FD
:1022100007F045C108F030EC1EF005C038F106C0EB
:1022200039F1000120EE04F0C651D926C751DA2257
:10223000DECF3DF0DDCF3EF046C105F047C106F0F0
:10224000000E086E060E076E30EC1EF0040E05261A
:10225000000E0622000E0524D96E010E0620DA6E4D
:10226000DECF3FF0DDCF40F03D503F5C0101426FDB
:102270003E504058436F000120EE04F0C651D9266D
:10228000C751DA22DECF3DF0DDCF3EF046C105F08A
:1022900047C106F0000E086E060E076E30EC1EF009
:1022A000040E0526000E0622000E0524D96E010E2E
:1022B0000620DA6EDECF3FF0DDCF40F03D503F5CD0
:1022C0000101446F3E504058456F42C105F043C183
:1022D00006F044C107F045C108F030EC1EF005C01F
:1022E0003AF106C03BF10101385136253D6E3951B6
:1022F00037213E6E3A513D263B513E223DC005F00E
:102300003EC006F0076A086A000E3BEC17F005C0F5
:102310002EF006C02FF007C030F008C031F030ECCE
:1023200007F02EC0C2F02FC0C3F030C0C4F031C0DF
:10233000C5F08BEC19F0C2C040F1C3C041F10101FE
:102340003C51405D3D514159D8B0A9EF11F0ABEF80
:1023500011F0C4EF11F040C13CF141C13DF14151D8
:1023600007E11E0E405DD8B0B8EF11F0BAEF11F0E2
:10237000C0EF11F046C13EF147C13FF1C4EF11F08B
:10238000000E3F6F090E3E6F464B472B475109E148
:10239000090E465DD8A0CFEF11F0D1EF11F05BEF41
:1023A00010F03EC1C6F03FC1C7F0120022EE36F079
:1023B00011EE00F0350EDBCFE3FFE806FCE2030E82
:1023C00001013D6FE80E3C6F000E476F000E466F37
:1023D000C6C0D9FFC7C0DAFFDECF3DF0DDCF3EF08B
:1023E00046C105F047C106F0000E086E060E076EE6
:1023F00030EC1EF0000E0524D96E010E0620DA6EB8
:10240000DECF3FF0DDCF40F03D503F5C0101426F39
:102410003E504058436FC6C0D9FFC7C0DAFFDECF79
:102420003DF0DDCF3EF046C105F047C106F0000E9D
:10243000086E060E076E30EC1EF0000E0524D96EF5
:10244000010E0620DA6EDECF3FF0DDCF40F03D50CA
:102450003F5C0101446F3E504058456F42C105F05A
:1024600043C106F044C107F045C108F030EC1EF04E
:1024700005C036F106C037F1000120EE02F0C6516A
:10248000D926C751DA22DECF3DF0DDCF3EF046C17E
:1024900005F047C106F0000E086E060E076E30EC20
:1024A0001EF0020E0526000E0622000E0524D96E2F
:1024B000010E0620DA6EDECF3FF0DDCF40F03D505A
:1024C0003F5C0101426F3E504058436F000120EED7
:1024D00002F0C651D926C751DA22DECF3DF0DDCF5A
:1024E0003EF046C105F047C106F0000E086E060E2C
:1024F000076E30EC1EF0020E0526000E0622000EBE
:102500000524D96E010E0620DA6EDECF3FF0DDCF56
:1025100040F03D503F5C0101446F3E504058456FD4
:1025200042C105F043C106F044C107F045C108F0BF
:1025300030EC1EF005C038F106C039F1000120EE84
:1025400004F0C651D926C751DA22DECF3DF0DDCFE7
:102550003EF046C105F047C106F0000E086E060EBB
:10256000076E30EC1EF0040E0526000E0622000E4B
:102570000524D96E010E0620DA6EDECF3FF0DDCFE6
:1025800040F03D503F5C0101426F3E504058436F68
:10259000000120EE04F0C651D926C751DA22DECF61
:1025A0003DF0DDCF3EF046C105F047C106F0000E1C
:1025B000086E060E076E30EC1EF0040E0526000EA7
:1025C0000622000E0524D96E010E0620DA6EDECF3B
:1025D0003FF0DDCF40F03D503F5C0101446F3E5085
:1025E0004058456F42C105F043C106F044C107F0B1
:1025F00045C108F030EC1EF005C03AF106C03BF1D1
:102600000101385136253D6E395137213E6E3A5120
:102610003D263B513E223DC005F03EC006F0076A14
:10262000086A000E3BEC17F005C02EF006C02FF034
:1026300007C030F008C031F030EC07F02EC0C2F017
:102640002FC0C3F030C0C4F031C0C5F08BEC19F01E
:10265000C2C040F1C3C041F101013C51405D3D5158
:102660004159D8B036EF13F038EF13F051EF13F0B3
:1026700040C13CF141C13DF1415107E11E0E405DB9
:10268000D8B045EF13F047EF13F04DEF13F046C10C
:102690003EF147C13FF151EF13F0000E3F6F090EBD
:1026A0003E6F464B472B475109E1090E465DD8A0C6
:1026B0005CEF13F05EEF13F0E8EF11F03EC1C6F0EF
:1026C0003FC1C7F0120021EE48F011EE00F0350EC8
:1026D000DBCFE3FFE806FCE2030E01013D6FE80EED
:1026E0003C6F000E476F000E466FC6C0D9FFC7C0D3
:1026F000DAFFDECF3DF0DDCF3EF046C105F047C149
:1027000006F0000E086E060E076E30EC1EF0000E8E
:102710000524D96E010E0620DA6EDECF3FF0DDCF44
:1027200040F03D503F5C0101426F3E504058436FC6
:10273000C6C0D9FFC7C0DAFFDECF3DF0DDCF3EF027
:1027400046C105F047C106F0000E086E060E076E82
:1027500030EC1EF0000E0524D96E010E0620DA6E54
:10276000DECF3FF0DDCF40F03D503F5C0101446FD4
:102770003E504058456F42C105F043C106F044C188
:1027800007F045C108F030EC1EF005C036F106C078
:1027900037F1000120EE02F0C651D926C751DA22E6
:1027A000DECF3DF0DDCF3EF046C105F047C106F07B
:1027B000000E086E060E076E30EC1EF0020E0526A7
:1027C000000E0622000E0524D96E010E0620DA6ED8
:1027D000DECF3FF0DDCF40F03D503F5C0101426F66
:1027E0003E504058436F000120EE02F0C651D926FA
:1027F000C751DA22DECF3DF0DDCF3EF046C105F015
:1028000047C106F0000E086E060E076E30EC1EF093
:10281000020E0526000E0622000E0524D96E010EBA
:102820000620DA6EDECF3FF0DDCF40F03D503F5C5A
:102830000101446F3E504058456F42C105F043C10D
:1028400006F044C107F045C108F030EC1EF005C0A9
:1028500038F106C039F1000120EE04F0C651D92646
:10286000C751DA22DECF3DF0DDCF3EF046C105F0A4
:1028700047C106F0000E086E060E076E30EC1EF023
:10288000040E0526000E0622000E0524D96E010E48
:102890000620DA6EDECF3FF0DDCF40F03D503F5CEA
:1028A0000101426F3E504058436F000120EE04F09A
:1028B000C651D926C751DA22DECF3DF0DDCF3EF03A
:1028C00046C105F047C106F0000E086E060E076E01
:1028D00030EC1EF0040E0526000E0622000E052424
:1028E000D96E010E0620DA6EDECF3FF0DDCF40F06C
:1028F0003D503F5C0101446F3E504058456F42C11E
:1029000005F043C106F044C107F045C108F030ECC2
:102910001EF005C03AF106C03BF1010138513625E1
:102920003D6E395137213E6E3A513D263B513E2294
:102930003DC005F03EC006F0076A086A000E3BEC99
:1029400017F005C02EF006C02FF007C030F008C009
:1029500031F030EC07F02EC0C2F02FC0C3F030C011
:10296000C4F031C0C5F08BEC19F0C2C040F1C3C057
:1029700041F101013C51405D3D514159D8B0C3EF97
:1029800014F0C5EF14F0DEEF14F040C13CF141C18A
:102990003DF1415107E11E0E405DD8B0D2EF14F079
:1029A000D4EF14F0DAEF14F046C13EF147C13FF125
:1029B000DEEF14F0000E3F6F090E3E6F464B472BC3
:1029C000475109E1090E465DD8A0E9EF14F0EBEF9D
:1029D00014F075EF13F03EC1C6F03FC1C7F012000E
:1029E00022C03AF023C03BF024C03CF025C03DF0AB
:1029F00026C03EF027C03FF028C040F029C041F07B
:102A000041BE05EF15F008EF15F0010E09EF15F0C6
:102A1000000E386E396A38503910D8B412EF15F0FC
:102A200014EF15F024EF15F0411E401E3F1E3E1E10
:102A30003D1E3C1E3B1E3A6C000E3B223C223D22BA
:102A40003E223F224022412200017BBF2AEF15F0A7
:102A50002CEF15F02DEF15F07C937BBF3AEF15F0BE
:102A60007B5106E17A05D8B038EF15F03AEF15F052
:102A700040EF15F0000E356E010E346E44EF15F088
:102A80007AC034F07BC035F078C036F079C037F0CA
:102A900038503910D8A44FEF15F051EF15F058EF1A
:102AA00015F07CA556EF15F058EF15F05BEF15F01B
:102AB0003606D8A03706000E436E1F0E426E000E7B
:102AC0009D6FDFEF15F04206D8A043067E0E42242C
:102AD000D96E000E4320DA6E3AC005F03BC006F016
:102AE0003CC007F03DC008F03EC009F03FC00AF00E
:102AF00040C00BF041C00CF00A0E0D6E000E0E6EC1
:102B0000000E0F6E000E106E000E116E000E126E93
:102B1000000E136E000E146ED9EC18F005C02AF0EA
:102B200006C02BF007C02CF008C02DF009C02EF015
:102B30000AC02FF00BC030F00CC031F02AC017F0E3
:102B40002CC018F03FEC1DF01750300FDF6E34062C
:102B5000D8A035063606D8A037063AC005F03BC0E7
:102B600006F03CC007F03DC008F03EC009F03FC091
:102B70000AF040C00BF041C00CF00A0E0D6E000EC2
:102B80000E6E000E0F6E000E106E000E116E000E17
:102B9000126E000E136E000E146E15EC18F005C0C8
:102BA0003AF006C03BF007C03CF008C03DF009C059
:102BB0003EF00AC03FF00BC040F00CC041F043BEF5
:102BC000EAEF15F0435008E14204D8A0EAEF15F00F
:102BD000ECEF15F01DEF16F03A503B103C103D1095
:102BE0003E103F1040104110D8A4F9EF15F0FBEF54
:102BF00015F063EF15F035BE08EF16F0355006E11D
:102C00003404D8B006EF16F008EF16F063EF15F0B5
:102C100037BE13EF16F0375008E13604D8A013EF93
:102C200016F015EF16F01DEF16F000017CB31BEF48
:102C300016F01DEF16F063EF15F038503910D8A4D8
:102C400024EF16F026EF16F02EEF16F000017CA50B
:102C50002CEF16F02EEF16F04CEF16F04206D8A02F
:102C6000430638503910D8A438EF16F03AEF16F072
:102C700040EF16F0000E336E2B0E326E44EF16F05E
:102C8000000E336E2D0E326E7E0E4224D96E000E73
:102C90004320DA6E32C0DFFF20C015F021C016F0ED
:102CA0007E0E4224176E000E4320186E36C019F0B7
:102CB00037C01AF0F6EC1AF015C020F016C021F05B
:102CC000120046C0D9FF47C0DAFFDECFF6FFDDCFE6
:102CD000F7FF0800F550250AD8A471EF16F073EF3E
:102CE00016F01FEF17F046C0D9FF47C0DAFFDE2A03
:102CF000000EDD22000E0001796F000E786F78C0A3
:102D00007CF079C07DF07A697B6946C0D9FF47C005
:102D1000DAFFDECFF6FFDDCFF7FF0800F550640ADB
:102D2000D8B495EF16F097EF16F0A9EF16F046C05D
:102D3000D9FF47C0DAFFDECFF6FFDDCFF7FF08008F
:102D4000F550690AD8A4A7EF16F0A9EF16F0E9EF3D
:102D500016F046C0D9FF47C0DAFFDE2A000EDD229A
:102D600048C0D9FF49C0DAFFDFCF4AF0020EDE26A5
:102D7000DFCF4BF0000EDD224AC0D9FF4BC0DAFF97
:102D8000DECF4CF0DDCF4DF0000E4DBEFF0E4E6E8F
:102D90004F6E506E516E526E536E44C020F045C05F
:102DA00021F04CC022F04DC023F04EC024F04FC0A3
:102DB00025F050C026F051C027F052C028F053C073
:102DC00029F0F0EC14F020C044F021C045F03AEFB7
:102DD00017F046C0D9FF47C0DAFFDECFF6FFDDCFE0
:102DE000F7FF0800F550250AD8A4F9EF16F0FBEF1D
:102DF00016F012EF17F046C0D9FF47C0DAFFDE2AFF
:102E0000000EDD22000E066E250E056E44C007F092
:102E100045C008F091EC1AF0000E456E010E446EAC
:102E20003AEF17F046C0D9FF47C0DAFFDE2A000E9E
:102E3000DD22000E456E000E446E3AEF17F046C0DC
:102E4000D9FF47C0DAFFDECFF6FFDDCFF7FF08007E
:102E5000F550056E066A44C007F045C008F091ECD5
:102E60001AF046C0D9FF47C0DAFFDE2A000EDD2285
:102E70000CEF17F012000D6E0D50D8B442EF17F0A2
:102E800044EF17F066EF17F008BE4BEF17F049EF6D
:102E900017F066EF17F005C009F006C00AF007C08A
:102EA0000BF008C00CF0091E0A1E0B1E0C1E092A8E
:102EB000000E0A220B220C2209C00FF00AC010F0EB
:102EC0000BC011F00CC012F06EEF17F005C00FF040
:102ED00006C010F007C011F008C012F0055006102F
:102EE00007100810D8A477EF17F079EF17F083EFE9
:102EF00017F0000E056E000E066E000E076E000E37
:102F0000086E14EF18F0960E0E6E8DEF17F00E2A65
:102F1000D8901232113210320F32000E0F14096E97
:102F2000000E10140A6E000E11140B6EFE0E121419
:102F30000C6E09500A100B100C10D8A4A2EF17F059
:102F4000A4EF17F087EF17F0B2EF17F00E2A010E7B
:102F50000F26000E102211221222D89012321132A6
:102F600010320F32000E0F14096E000E10140A6E8C
:102F7000000E11140B6EFF0E12140C6E09500A1085
:102F80000B100C10D8A4C7EF17F0C9EF17F0A6EF7D
:102F900017F0D1EF17F00E06D8900F361036113615
:102FA000123611BED6EF17F0D8EF17F0E0EF17F09A
:102FB000020E0E60DEEF17F0E0EF17F0CBEF17F028
:102FC0000EB0E5EF17F0E7EF17F0E8EF17F0119EFE
:102FD000D8900E320EC009F00A6A0B6A0C6A09C05A
:102FE0000CF00B6A0A6A096A09500F120A50101293
:102FF0000B5011120C5012120D50D8B402EF18F0F1
:1030000004EF18F00CEF18F008BE0BEF18F009EF02
:1030100018F00CEF18F0128E0FC005F010C006F07B
:1030200011C007F012C008F01200000E166E14BE98
:103030001EEF18F01CEF18F030EF18F0141E131EDE
:10304000121E111E101E0F1E0E1E0D6C000E0E22E3
:103050000F2210221122122213221422010E166EA8
:103060000CBE37EF18F035EF18F049EF18F00C1ED2
:103070000B1E0A1E091E081E071E061E056C000EEA
:1030800006220722082209220A220B220C22010E04
:10309000161A20EE17F0070EDE6AE806FDE20D5064
:1030A0000E100F1010101110121013101410D8B4AD
:1030B0005CEF18F05EEF18F0B0EF18F0010E156E2F
:1030C0006CEF18F0D8900D360E360F3610361136DC
:1030D000123613361436152A14AE71EF18F073EF4A
:1030E00018F062EF18F0D8901736183619361A36DD
:1030F0001B361C361D361E360D50055C0E5006580C
:103100000F500758105008581150095812500A58BB
:1031100013500B5814500C58D8A091EF18F093EF9F
:1031200018F0A4EF18F00D50055E0E50065A0F501F
:10313000075A1050085A1150095A12500A5A13507F
:103140000B5A14500C5A1780D89014321332123282
:10315000113210320F320E320D32152E73EF18F07D
:103160001650D8B4B6EF18F0B8EF18F0C8EF18F052
:103170001E1E1D1E1C1E1B1E1A1E191E181E176C3D
:10318000000E182219221A221B221C221D221E2286
:1031900017C005F018C006F019C007F01AC008F0F3
:1031A0001BC009F01CC00AF01DC00BF01EC00CF0C3
:1031B0001200000E166E0CBEE2EF18F0E0EF18F0F1
:1031C000F4EF18F00C1E0B1E0A1E091E081E071E27
:1031D000061E056C000E06220722082209220A227A
:1031E0000B220C22010E166E14BEFBEF18F0F9EF45
:1031F00018F00BEF19F0141E131E121E111E101ED4
:103200000F1E0E1E0D6C000E0E220F221022112218
:103210001222132214220D500E100F101010111034
:10322000121013101410D8B418EF19F01AEF19F087
:1032300062EF19F0010E156E28EF19F0D8900D36D7
:103240000E360F3610361136123613361436152A4E
:1032500014AE2DEF19F02FEF19F01EEF19F00D50ED
:10326000055C0E5006580F50075810500858115062
:10327000095812500A5813500B5814500C58D8A023
:1032800044EF19F046EF19F056EF19F00D50055EB6
:103290000E50065A0F50075A1050085A1150095A2A
:1032A00012500A5A13500B5A14500C5AD890143218
:1032B00013321232113210320F320E320D32152EFD
:1032C0002FEF19F01650D8B468EF19F06AEF19F023
:1032D0007AEF19F00C1E0B1E0A1E091E081E071E8F
:1032E000061E056C000E06220722082209220A2269
:1032F0000B220C2205C005F006C006F007C007F03F
:1033000008C008F009C009F00AC00AF00BC00BF0B1
:103310000CC00CF012000001C435C5353C6E3C50A9
:10332000D8A495EF19F097EF19F0A1EF19F0000E5E
:10333000C26F000EC36F000EC46F000EC56F0EEF9C
:103340001AF0C2C037F0C3C038F0C4C039F0C5C0ED
:103350003AF0200EB1EF19F0D8903A3239323832C3
:103360003732E82EACEF19F037503B6EC48FFF0EAA
:10337000C217FF0EC317FF0EC417000EC517960E17
:103380003C5E3CBEC8EF19F0C6EF19F0DEEF19F055
:103390003C50800A970FD8B0D0EF19F0D2EF19F057
:1033A000D4EF19F097EF19F0D890C533C433C33375
:1033B000C2333C3ED4EF19F0F6EF19F01F0E3C6417
:1033C000E4EF19F0E6EF19F0EEEF19F097EF19F0CE
:1033D000D890C237C337C437C5373C063C50D8A451
:1033E000F4EF19F0F6EF19F0E8EF19F03B50D8B40C
:1033F000FCEF19F0FEEF19F006EF1AF0C51FC41F1D
:10340000C31FC26D000EC323C423C523C2C0C2F0B4
:10341000C3C0C3F0C4C0C4F0C5C0C5F01200000EE4
:1034200005140D6E000E06140E6E800E07140F6E3E
:103430007F0E0814106E0D500E100F101010D8A42F
:1034400024EF1AF026EF1AF02EEF1AF0000E056E98
:10345000000E066E000E076E000E086E000E0914B8
:103460000D6E000E0A140E6E800E0B140F6E7F0E82
:103470000C14106E0D500E100F101010D8A443EF46
:103480001AF045EF1AF04DEF1AF0000E096E000E1B
:103490000A6E000E0B6E000E0C6E08AE52EF1AF0A4
:1034A00054EF1AF05DEF1AF0056C061ED8B0062A2C
:1034B000071ED8B0072A800E08560CAE62EF1AF02D
:1034C00064EF1AF06DEF1AF0096C0A1ED8B00A2AE0
:1034D0000B1ED8B00B2A800E0C56000E051A000EDB
:1034E000061A000E071A800E081A000E091A000E9E
:1034F0000A1A000E0B1A800E0C1A0950055C0A50AD
:1035000006580B5007580C500858D8B08AEF1AF0DC
:103510008CEF1AF08FEF1AF0D89090EF1AF0D88055
:10352000120007500810D8B498EF1AF09AEF1AF06A
:10353000A3EF1AF007500810D8A4A1EF1AF0A3EFD8
:103540001AF0A8EF1AF00550B4EC1EF0F5EF1AF0DF
:1035500020EE04F00750D9260850DA22DE50DE10A3
:10356000D8B4B5EF1AF0B7EF1AF0D2EF1AF020EE98
:1035700004F00750D9260850DA2210EE02F0075066
:10358000E1260850E222DE50E65CE650800A0D6E2D
:10359000DE50800A0D58D8B0D0EF1AF0D2EF1AF0F2
:1035A000F5EF1AF020EE02F00750D9260850DA2283
:1035B000DECF09F0DDCF0AF007C0D9FF08C0DAFF7F
:1035C000DECF0BF0DDCF0CF009500B24D96E0A5082
:1035D0000C20DA6E05C0DFFF20EE02F00750D9267E
:1035E0000850DA22DE2A000EDD22120000017CA142
:1035F000FCEF1AF0FEEF1AF008EF1BF017C00EF008
:1036000018C00FF015C010F016C011F0DBEC1CF064
:103610001ABE0DEF1BF00FEF1BF015EF1BF019C0DA
:103620001EF01AC01FF019EF1BF0000E1F6E000EE7
:103630001E6E000E1D6E000E1C6E2BEF1BF0000E9A
:10364000066E200E056E15C007F016C008F091EC4E
:103650001AF01C4A1D2A1E501C5C1D50800A1B6E4D
:103660001F50800A1B58D8A038EF1BF03AEF1BF010
:103670001FEF1BF000017CB140EF1BF042EF1BF08D
:103680004CEF1BF017C00EF018C00FF015C010F073
:1036900016C011F0DBEC1CF017C005F018C006F0E6
:1036A0007AEC1DF01E500524156E1F500620166E74
:1036B0001200A60EF66E370EF76E000EF86E02EED2
:1036C00000F010EE6CF00900F5CFEEFFE550E15090
:1036D000FAE1BE0EF66E3A0EF76E000EF86E01EECF
:1036E00048F010EE36F00900F5CFEEFFE550E1505E
:1036F000FAE102EE6CF03C0EEE6AE806FDE101EE46
:103700007EF0180EEE6AE806FDE100EE60F03E0E77
:10371000EE6AE806FDE1596A586A576A566A5A9095
:103720005A92000EF86E0E0EF76E0001F0EF0BF0DD
:1037300063EC1CF010C0D9FF11C0DAFF09C0DEFF36
:103740000AC0DDFF150E126EC60EE82EFED7122E31
:10375000FCD700D08BEC1CF020EE02F01050D926E4
:103760001150DA2209C0DEFF0AC0DDFF150E126E0D
:10377000C60EE82EFED7122EFCD700D0B3EC1CF0FC
:1037800020EE04F01050D9261150DA2209C0DEFFD5
:103790000AC0DDFF150E126EC60EE82EFED7122EE1
:1037A000FCD700D012009F01850358012B0169044A
:1037B000AA0100015304AE0103026705F501DB0114
:1037C000CA04E101BD01E50379019F0189052F02CA
:1037D00017022C0679029904F400B70091099E00A3
:1037E0002C01C906A800EB009C069300EF00F0092D
:1037F000FA004E016E09ED00F800F909B1003C0134
:10380000AD08E9004F01100A1601870132037E015D
:10381000C100A0C054F0A1C055F0000E0001776FA8
:10382000000E766F27EF1CF09EC044F09FC045F05D
:10383000540E466E000E476EA2C048F0A3C049F079
:1038400061EC16F04450000176274550772354C0B0
:10385000F6FF55C0F7FF0800F5500009D8A433EF74
:103860001CF035EF1CF014EF1CF076C09EF077C012
:103870009FF01200A80E0001AE6F000EAF6FA4C043
:10388000B0F0A5C0B1F0000EB36F000EB26F000E25
:10389000B56F000EB46FB00E9E6F000E9F6FA6C086
:1038A000A0F0A7C0A1F0AE0EA26F000EA36F09ECAE
:1038B0001CF00001B251A425D96EB351A521DA6ED6
:1038C000000EDF6E1200AFEC1EF0520E99EC1EF0EF
:1038D000B60E99EC1EF0A5EC1EF0530E99EC1EF0FE
:1038E000010EFDEC1CF00B6E0B500E6E0F6A000EFD
:1038F000FDEC1CF00B6E0B500D6E0C6A0E500C1094
:103900000E6E0F500D100F6EAAEC1EF00EC009F0D7
:103910000FC00AF01200AFEC1EF0520E99EC1EF030
:10392000B80E99EC1EF0A5EC1EF0530E99EC1EF0AB
:10393000010EFDEC1CF00B6E0B500E6E0F6A000EAC
:10394000FDEC1CF00B6E0B500D6E0C6A0E500C1043
:103950000E6E0F500D100F6EAAEC1EF00EC009F087
:103960000FC00AF01200AFEC1EF0520E99EC1EF0E0
:10397000BA0E99EC1EF0A5EC1EF0530E99EC1EF059
:10398000010EFDEC1CF00B6E0B500E6E0F6A000E5C
:10399000FDEC1CF00B6E0B500D6E0C6A0E500C10F3
:1039A0000E6E0F500D100F6EAAEC1EF00EC009F037
:1039B0000FC00AF01200000E146E000E136EECEF32
:1039C0001CF012C005F0066A10C007F011C008F024
:1039D00091EC1AF0134A142A13500E24D96E145085
:1039E0000F20DA6EDF50126E1250D8A4FAEF1CF0DE
:1039F000FCEF1CF0E1EF1CF01200076E1CEC1EF057
:103A00000E01DA871CEC1EF0D5CE08F01CEC1EF07F
:103A10000750D8B40EEF1DF012EF1DF0066A062A0B
:103A200013EF1DF0066A063A06460E01DA51061833
:103A3000DF0B0618DA6FDA89085012008594839E2E
:103A4000879C85987D947B9E7F9C7D98BD508F0B35
:103A50004009BD6EE00EBE16BF50F00B0109BF6EEF
:103A6000630EBC6EBD8E0A0E0E01746F0B0E696F75
:103A7000000EA36E000EA06EA48EA18E120018BEC2
:103A80004CEF1DF0185006E11704D8B04AEF1DF0B6
:103A90004CEF1DF05AEF1DF017C019F018C01AF0C6
:103AA000191E1A1E194A1A2A19C017F01AC018F03E
:103AB0005EEF1DF017C017F018C018F012002F00AD
:103AC0006E05070351097C061B0386068A0457020C
:103AD0006F0AC105E102250B6F0513037609DF03A9
:103AE0003402B108E30514038E0A760678032F002A
:103AF0001700120005C007F006C008F082EF1DF0A5
:103B0000054A062A05C0D9FF06C0DAFFDF50D8A44F
:103B10008CEF1DF08EEF1DF080EF1DF00750055C5F
:103B2000056E08500658066E1200DDEC1DF0010E01
:103B3000076E000E64EC1EF03F0E096E550EE82E67
:103B4000FED7092EFCD700F0030E076E000E64ECC2
:103B50001EF0D50E076E010E64EC1EF01200BAEFD7
:103B60001DF006C0D9FF07C0DAFFDF50F2EC1DF0F0
:103B7000064A072A06C0D9FF07C0DAFFDF50D8A4DB
:103B8000C4EF1DF0C6EF1DF0B1EF1DF012003B0EAB
:103B90005664CDEF1DF0CFEF1DF0D1EF1DF0000EFC
:103BA000566E562A5604016E026A6C0E0124D96EB6
:103BB000020E0220DA6EDF5012000E01D951F00B16
:103BC0000809D96FD98B9F0ED66F848A848CA79BE6
:103BD000A79D1D0E1D6F1E0E1C6F1C0E6F6F1B0E02
:103BE000706F1200056E3B0E5764F9EF1DF0FBEF8E
:103BF0001DF0FDEF1DF0000E576E6C0E5724D96EB0
:103C0000DA6A020EDA2205C0DFFF572A1200016EBF
:103C1000130E59640EEF1EF010EF1EF012EF1EF09F
:103C2000000E596E600E5924D96EDA6A000EDA223F
:103C300001C0DFFF592A12000E01D8B522EF1EF095
:103C400024EF1EF01CEF1EF0DACE05F01F0E051655
:103C5000D8A42DEF1EF02FEF1EF01CEF1EF0120067
:103C600005500702F3CF09F0F4CF0AF0055008021F
:103C7000F3500A2606500702F3500A2609C005F041
:103C80000AC006F01200FF0E096EFF0E0A6EFF0E4C
:103C90000B6E7F0E0C6E09C005F00AC006F00BC05B
:103CA00007F00CC008F01200120E0E01626F110E28
:103CB000156F8382E997E895330EE56F000EE66F86
:103CC000E789E88BE78F1200086EAFEC1EF0520E0A
:103CD00099EC1EF00850800999EC1EF0075099EC01
:103CE0001EF0AAEC1EF0120081EC1EF00009D8B400
:103CF0007CEF1EF07EEF1EF080EF1EF00E012D8592
:103D0000120056505718D8A488EF1EF08BEF1EF003
:103D1000010E8CEF1EF0000E120056505718D8A45A
:103D200094EF1EF097EF1EF0010E98EF1EF0000EBC
:103D30001200066E1CEC1EF006C0D5FE1200F28CBE
:103D40000E012D872D95F28E12001CEC1EF00E0137
:103D5000DA8312001CEC1EF00E01DA8512001CEC56
:0A3D60001EF00E01DA8112001200BD
:020000040020DA
:10000000FF0FFF0FFF0FFF0FFF0FFF0FFF0FFF0F80
:020000040030CA
:0C000000AAFFFFFF9FFFFFFFFFFFFFFFB5
:00000001FF
